:03000000025D8C12
:0C5D8C00787FE4F6D8FD758121025DD31C
:10620C006B6579646F776E2025640D0A004C4344EE
:04621C005F483A009D
:105F2C005E003C00000000000000000000000000CB
:105F3C000000000000000000000000000000000055
:105F4C000060280000FFFFFFFFFFFFFFFFFFFFFFC8
:105F5C00FFFFFFFFFFFFFFFFFFFFFFFFFFFFFFFF45
:105F6C00FFFFFFFFFFFFFFFFFFFFFFFFFF540028B6
:105F7C000000000000000000000000000000000015
:045F8C000000000011
:1061A400759850438E40538EFE53890F758BE0755E
:0E61B4008DFEC2ABD28ED2ACD2AFE4F5A222E9
:080003008F993099FDC299228A
:0A6264008F993099FDC2998F99229D
:10623400123E13FF600C120003740129F9E43AFAC8
:0362440080EE22C7
:10624700759A1075D7E075D6FE438E1475AF01D2D7
:02625700AF2274
:08628B002009FDD2098F9B22BE
:10614B0090018CEBF0A3EAF0A3E9F090018CE0FB5B
:10615B00A3E0FAA3E0F9123E13601790018CA3E4BD
:10616B0075F001123E93A9F0FA123E13FF12628BE7
:03617B0080D922A6
:1061DD00438E805389F0758A9A758CA9C28DD28CA5
:0961ED00D28CD2A9D2B9D2AF22A2
:105F9600A2A3E433FF900000E025E04FF0A2A1E4C5
:105FA60033FFA3E025E04FF0A2B7E433FFA3E025DB
:105FB600E04FF0A2B5E433FFA3E025E04FF0E4FFA5
:105FC60074002FF582E43400F583E0FE700E743C15
:105FD6002FF582E43400F583E4F08010BEFF0D74E3
:105FE6003C2FF582E43400F5837401F00FEFB40A18
:015FF600CFDB
:015FF7002287
:10617E0090018FEEF0A3EFF07BFF7A62790C900026
:10618E0097EEF0A3EFF01240CE90018FE07002A3D5
:06619E00E07002B2B42221
:105E1800E4900191F0A3F0900191E0FEA3E0FFC3AC
:105E28009406EE648094805070743C2FF582740060
:105E38003EF583E07037900191E0FCA3E0FD25E09A
:105E4800FFEC33FE74282FF58274003EF583E0FAE8
:105E5800A3E04A703374282FF58274003EF583E47A
:105E6800F0A304F0AF05AE0412617E801B9001928E
:105E7800E025E0FF900191E033FE74282FF582744D
:105E8800003EF583E4F0A3F0900192E004F07087FF
:095E9800900191E004F0025E1F8C
:015EA10022DE
:105C5100E4F594759302F592F591F596F595F5B203
:105C6100F5B1F5B4F5B3F5CAF5C975CED075CDC0AA
:105C7100C2917F64FE1262201252CF7F647E0012B5
:105C810062209000607401F0A37440F0A3E4F0A3DB
:105C9100741FF07BF07A00E4FDFCFFFE125CFB7FD9
:105CA100647E001262209000607403F0A374F8F027
:105CB100A3E4F074FFA3F0A3F0A37410F07BF07AD7
:105CC100007D287C007F307E0012591F7BFF7A62A5
:105CD100791990006174F8F0A3E4F074FFA3F0A3C4
:105CE100F0A37410F0E4A3F07D28FC7F50FE125E57
:0A5CF100A27F2C7E0112622080AC1D
:0300230002629BDB
:06629B00309802C29832A7
:03000B000262A4EA
:0162A40032C7
:1000260000000000000000000000000000000404C2
:10003600040404000004000014140A000000000078
:100046000000000000000A0A1F0A0A1F0A0A000030
:1000560000040E1505060C14150E040000001215FA
:100066000D152E2C2A1200000000040A0A3615155A
:100076002916000002020100000000000000000036
:100086001008080404040404080810000204040804
:10009600080808080404020000000004150E0E15E6
:1000A6000400000000000008083E080800000000E8
:1000B6000000000000000000020201000000000035
:1000C600003F0000000000000000000000000000EB
:1000D60000020000002010100808040402020100BB
:1000E60000000E1111111111110E0000000004067E
:1000F60004040404040E000000000E11110804029A
:10010600011F000000000E11100C1010110E00004F
:100116000000080C0C0A091F081C000000001F0143
:10012600010F1110110E000000000C12010D131129
:10013600110E000000001E1008080404040400004C
:1001460000000E11110E1111110E000000000E110B
:100156001119161009060000000000000400000036
:100166000004000000000000000400000004040079
:10017600000010080402020408100000000000003D
:100186003F003F00000000000000020408101008B5
:100196000402000000000E1111080404000400000F
:1001A60000001C22292D2D1D221C00000000040425
:1001B6000C0A0A1E1233000000000F12120E121251
:1001C600120F000000001E1101010101110E0000B6
:1001D60000000F1212121212120F000000001F125E
:1001E6000A0E0A02121F000000001F120A0E0A025F
:1001F6000207000000001C1201013911120C000058
:1002060000003312121E12121233000000001F04E7
:1002160004040404041F000000003E08080808083F
:1002260008080907000037120A060A1212370000EA
:100236000000070202020202223F000000003B1BF0
:100246001B1B15151535000000003B1216161A1A51
:100256001217000000000E1111111111110E0000ED
:1002660000000F12120E02020207000000000E111B
:1002760011111117190E180000000F12120E0A1292
:100286001237000000001E1101060810110F0000B1
:1002960000001F1504040404040E000000003312BD
:1002A60012121212120C000000003312120A0A0C6B
:1002B600040400000000151515150E0A0A0A0000B0
:1002C60000001B0A0A04040A0A1B000000001B0A9D
:1002D6000A0A0404040E000000001F0908040402B0
:1002E600121F00001C0404040404040404041C007B
:1002F6000002020404040808081010000E0808088A
:100306000808080808080E00040A0000000000009B
:100316000000000000000000000000000000003F98
:1003260002040000000000000000000000000000C1
:10033600000C121C123C000000030202020E1212F4
:10034600120E000000000000001C1202120C000039
:1003560000181010101C1212123C000000000000C1
:10036600000C121E021C000000182404041E0404C3
:10037600041E000000000000003C120C021C221C9F
:1003860000030202020E12121237000000040400DB
:1003960000060404040E000000080800000C08080B
:1003A6000808080700030202021A0A060A130000D8
:1003B6000007040404040404041F000000000000F5
:1003C600000F15151515000000000000000F121291
:1003D6001237000000000000000C1212120C000080
:1003E60000000000000F1212120E020700000000AB
:1003F600001C1212121C103800000000001B06021E
:100406000207000000000000001E020C101E000083
:1004160000000004041E0404041C00000000000088
:10042600001B1212123C000000000000001B0A0A0A
:1004360004040000000000000015150E0A0A000062
:1004460000000000001B0A040A1B00000000000058
:10045600003312120C08040300000000001E0804FA
:10046600041E000018080808080C080808081800E8
:100476000808080808080808080808080604040404
:100486000408040404040600160900000000000025
:100496000000000000000000000000000000000056
:1004A600000000000000000808080808080800000E
:1004B6001818000000486C2412000000000000001C
:1004C600000000000000002424247F1212127F1274
:1004D600121200000000081C2A2A0A0C1828282AD2
:1004E6002A1C080800000022251515152A58545400
:1004F600542200000000000C1212120A762529115F
:10050600916E0000000606040300000000000000D3
:100516000000000000402010100808080808081015
:1005260010204000000204080810101010101008D7
:10053600080402000000000008086B1C1C6B080879
:100546000000000000000000080808087F080808EE
:10055600080000000000000000000000000000008D
:10056600060604030000000000000000FE00000074
:100576000000000000000000000000000000000075
:1005860006060000000080404020201010080804E5
:100596000402020000000018244242424242424243
:1005A60024180000000000080E08080808080808BB
:1005B600083E00000000003C424242202010080491
:1005C600427E00000000003C42422018204040428B
:1005D600221C0000000000203028242422227E2035
:1005E600207800000000007E0202021A26404042E7
:1005F600221C0000000000382402021A2642424251
:10060600241800000000007E2222101008080808A6
:10061600080800000000003C4242422418244242DE
:10062600423C000000000018244242426458404008
:10063600241C000000000000000018180000000044
:10064600181800000000000000000008000000006C
:1006560000080804000000402010080402040810E6
:10066600204000000000000000007F0000007F0026
:1006760000000000000000020408102040201008BE
:10068600040200000000003C4242464020101000D8
:10069600181800000000001C225A555555552D42C9
:1006A600221C00000000000808181414243C2242F2
:1006B60042E700000000001F2222221E2242424280
:1006C600221F00000000007C42420101010101429C
:1006D600221C00000000001F2242424242424242C7
:1006E600221F00000000003F4212121E1212024298
:1006F600423F00000000003F4212121E1212020288
:10070600020700000000003C2222010101712122A3
:10071600221C0000000000E7424242427E42424262
:1007260042E700000000003E08080808080808081C
:10073600083E00000000007C101010101010101071
:100746001010110F0000007722120A0E0A12122250
:1007560022770000000000070202020202020202E3
:10076600427F000000000077363636362A2A2A2ACB
:100776002A6B0000000000E346464A4A5252526283
:10078600624700000000001C2241414141414141B5
:10079600221C00000000003F424242423E0202028A
:1007A600020700000000001C2241414141414D5317
:1007B600321C60000000003F4242423E12122222DA
:1007C60042C700000000007C42420204182040425A
:1007D600423E00000000007F490808080808080893
:1007E600081C0000000000E74242424242424242E8
:1007F600423C0000000000E7424222242414141860
:10080600080800000000006B494949495555362241
:1008160022220000000000E742242418181824248D
:1008260042E7000000000077222214140808080896
:10083600081C00000000007E21201010080404425D
:10084600423F000000780808080808080808080859
:1008560008087800000002020404080808101020A6
:1008660020204040001E1010101010101010101004
:1008760010101E00003844000000000000000000B8
:100886000000000000000000000000000000000062
:10089600000000FF00060800000000000000000045
:1008A60000000000000000000000003C42784442C6
:1008B60042FC0000000000030202021A26424242E5
:1008C600261A000000000000000000384402020260
:1008D60044380000000000604040407844424242F4
:1008E60064D80000000000000000003C427E0202C6
:1008F600423C0000000000F08808087E080808084E
:10090600083E0000000000000000007C22221C02BD
:100916003C42423C000000030202023A4642424286
:1009260042E700000000000C0C00000E0808080852
:10093600083E000000000030300000382020202053
:100946002020221E0000000302020272120A161262
:10095600227700000000000E0808080808080808AA
:10096600083E0000000000000000007F9292929274
:1009760092B70000000000000000003B46424242E1
:1009860042E70000000000000000003C42424242F4
:10099600423C0000000000000000001B26424242CC
:1009A600221E020700000000000000784442424276
:1009B600447840E000000000000000774C04040486
:1009C600041F0000000000000000007C42023C40C2
:1009D600423E0000000000000008083E0808080823
:1009E600083000000000000000000063424242425E
:1009F60062DC000000000000000000E7422424142E
:100A06000808000000000000000000EB49495555A9
:100A160022220000000000000000007624181818AA
:100A2600246E000000000000000000E742242414A9
:100A360018080807000000000000007E22100808C1
:100A4600447E000000C020202020201020202020EE
:100A56002020C000101010101010101010101010D0
:100A660010101010000608080808081008080808E2
:100A7600080806000C32C20000000000000000005A
:100A86000000000000000000000000000000000060
:100A96000000000000000000000000000000000050
:100AA6000000000000000000000000000000000040
:100AB6000000000000000000000000006000600070
:100AC60060006000600060006000400020002000C0
:100AD60020000000000000006000600060000000D0
:100AE6000000000000000000600660063003980168
:100AF6008800440000000000000000000000000024
:100B060000000000000000000000000000000000DF
:100B160000000000000000000000000010021002AB
:100B260010021002FE07FE0708020801080108016C
:100B36000801FE07FE070401040104010401000088
:100B46000000000000000000000040004000F0012E
:100B560058034C03CC034C0058007000E000C00161
:100B6600C00140034C035C034C034801F000400005
:100B76004000000000000000000000000E010A0115
:100B8600910091009100510051003A00AE03A0027D
:100B960050045004480448044804840284030000B6
:100BA60000000000000000000000000038006C009B
:100BB6006C006C006C006C002C0098071C011A017C
:100BC600330133016301E300C308C6093C07000093
:100BD60000000000000000000C001C0010001000C7
:100BE60008000400000000000000000000000000F3
:100BF60000000000000000000000000000000000EF
:100C06000000000000000000000400020001800057
:100C1600800040004000200020002000200020002E
:100C260020002000400040008000800000010002FB
:100C3600000400000000000002000400080010008C
:100C4600100020002000400040004000400040000E
:100C560040004000200020001000100008000400A2
:100C6600020000000000000000000000000000007C
:100C76004000C0004000460C4E0FD001F0015E0F50
:100C8600460C40004000400000000000000000004C
:100C9600000000000000000000000000000000004E
:100CA600000040004000400040004000FE0F4000B1
:100CB600400040004000400000000000000000002E
:100CC600000000000000000000000000000000001E
:100CD600000000000000000000000000000000000E
:100CE60000000000000000000C001C0010001000B6
:100CF60008000400000000000000000000000000E2
:100D0600000000000000000000000000FE070000D8
:100D160000000000000000000000000000000000CD
:100D260000000000000000000000000000000000BD
:100D360000000000000000000000000000000000AD
:100D460000000000000000001C001C001C00000049
:100D5600000000000000000000040006000200037E
:100D6600000100018000800040004000600020007B
:100D7600200010001000080008000C000400060007
:100D86000200000000000000000000000000F0006B
:100D960098010C030C03060606060606060606065A
:100DA6000606060606060C030C039801F000000072
:100DB60000000000000000000000000000004000ED
:100DC6007C00600060006000600060006000600001
:100DD600600060006000600060006000FC030000CE
:100DE6000000000000000000000000000000F80005
:100DF6008401020306030603000300018001C0000C
:100E0600600020001000080204020602FE03000033
:100E16000000000000000000000000000000780054
:100E2600C6008601860180018001C0007000800135
:100E3600000100030003060306038601F800000014
:100E4600000000000000000000000000000080011B
:100E56008001C001A001A0019001880188018401E0
:100E66008201FE0F8001800180018001E007000001
:100E76000000000000000000000000000000FC036D
:100E860004000400040004000400F4008C010403C0
:100E9600000300030603060382018401F800000034
:100EA6000000000000000000000000000000E0015B
:100EB60018030C030C0004000600E60116030E06D8
:100EC60006060606060604060C021803F0000000D5
:100ED6000000000000000000000000000000F8070D
:100EE6000C0604020401000100018000800040009D
:100EF600400040006000600060006000600000008C
:100F06000000000000000000000000000000F801E2
:100F16000C030606060606060C021C03F000C801B2
:100F26000C0306060606060606060C03F00100007C
:100F36000000000000000000000000000000F000BB
:100F46000C010C03060206060606060606078C06B4
:100F560078060006000300030C018C0178000000EF
:100F6600000000000000000000000000000000007B
:100F76000000000000000000E000E000E0000000CB
:100F86000000000000000000E000E000E0000000BB
:100F9600000000000000000000000000000000004B
:100FA600000000000000000060006000000000007B
:100FB600000000000000000000006000600040002B
:100FC60020002000000000000000000000040002D5
:100FD6000001800040002000100008000400080006
:100FE6001000200040008000000100020004000004
:100FF60000000000000000000000000000000000EB
:101006000000000000000000FE07000000000000D5
:10101600FE070000000000000000000000000000C5
:1010260000000000000000000000000004000800AE
:1010360010002000400080000001000200040002B1
:10104600000180004000200010000800040000009D
:101056000000000000000000000000000000E003A7
:101066001806040C040C0C0C0C0C00078001400044
:101076004000400000000000E000E000E00000004A
:10108600000000000000000000000000E00018035F
:101096000C02CC0564056605A605B604B604B604BE
:1010A600B604B602E4010C040C021803F0000000BA
:1010B60000000000000000000000000000006000CA
:1010C60060005000D0009000900088008801080160
:1010D600F801040304030402020202060F0F0000D3
:1010E6000000000000000000000000000000FE00FC
:1010F6008C030C030C030C030C038C01FC000C0387
:101106000C020C060C060C060C060C03FE01000075
:101116000000000000000000000000000000E003E6
:1011260018030C060C04040406000600060006005C
:101136000600060006040C040C021803F00000006A
:1011460000000000000000000000000000007F001A
:101156008C010C030C030C060C060C060C060C0684
:101166000C060C060C060C030C038C017F00000019
:101176000000000000000000000000000000FF0367
:10118600060306040604060086008600FE008600A6
:10119600860086000600060406040602FF03000019
:1011A6000000000000000000000000000000FF0337
:1011B600060306040604060086008600FE00860076
:1011C6008600860006000600060006001F000000D6
:1011D6000000000000000000000000000000F00019
:1011E60018010C020C0204020600060006000600A6
:1011F600C60F060306030C030C031803F0000000D9
:1012060000000000000000000000000000000F0FBA
:10121600060606060606060606060606FE0706066F
:101226000606060606060606060606060F0F000052
:101236000000000000000000000000000000FC03A9
:101246006000600060006000600060006000600098
:10125600600060006000600060006000FC03000049
:101266000000000000000000000000000000F80779
:10127600C000C000C000C000C000C000C000C00068
:10128600C000C000C000C000C000C000C000C60052
:1012960066003C0000000000000000000000CF03D4
:1012A6008601C60046002600160036002E006E0097
:1012B6004600C60086008601060106038F07000069
:1012C60000000000000000000000000000001F00F9
:1012D60006000600060006000600060006000600D8
:1012E600060006000600060406040602FF030000C8
:1012F60000000000000000000000000000000707DA
:10130600860386038E038E034E034E034A035A0357
:101316005A033A03320332033203120387070000EB
:1013260000000000000000000000000000008E0F1A
:101336000C021C021C0234023402640264024402DF
:10134600C402840284038403040304031F0200000E
:101356000000000000000000000000000000F00097
:1013660098010C030C020606060606060606060685
:101376000606060606060C020C039801F00000009D
:101386000000000000000000000000000000FF0058
:101396000603060606060606060606068603FE007B
:1013A6000600060006000600060006001F000000F4
:1013B6000000000000000000000000000000F00037
:1013C60098010C030C020606060606060606060625
:1013D6000606060676064C02CC039801F000800746
:1013E6000003000000000000000000000000FF01F4
:1013F600060306060606060606060603FE00460061
:10140600C600860086010603060306060F0E0000C8
:101416000000000000000000000000000000F802CC
:101426000C030602060206000E003C00F800E0036C
:10143600800300070206020606060C03F001000000
:101446000000000000000000000000000000FE0791
:10145600620461086108600060006000600060006E
:10146600600060006000600060006000F80100003D
:1014760000000000000000000000000000001E0741
:101486000C020C020C020C020C020C020C020C02E6
:101496000C020C020C020C020C021801F0000000F7
:1014A60000000000000000000000000000000F0720
:1014B6000602040104010C010C0188008800980052
:1014C60098005000500070003000200020000000FE
:1014D6000000000000000000000000000000F70E01
:1014E600620442044604460464026402E402E4021E
:1014F6009C029C01980198018801880088000000E0
:1015060000000000000000000000000000009E0730
:101516000C01080118019000B00060002000600076
:101526006000D00090008801080104038E070000C7
:1015360000000000000000000000000000000F0F87
:10154600060404020C0208011801B800B00070007D
:10155600600060006000600060006000F80100004C
:101566000000000000000000000000000000FC0772
:101576000C020603020180018000400040002000AA
:1015860020001000180008040C040402FE030000EA
:101596000000000000000000E00320002000200002
:1015A6002000200020002000200020002000200035
:1015B6002000200020002000200020002000200025
:1015C600E00300000000000000000000040004002A
:1015D6000800080010001000100020002000400045
:1015E6004000C000800080000001000100020002EF
:1015F60000020004000000007C00400040004000A3
:1016060040004000400040004000400040004000D4
:1016160040004000400040004000400040004000C4
:101626007C0000000000600090000801000000003F
:1016360000000000000000000000000000000000A4
:101646000000000000000000000000000000000094
:101656000000000000000000000000000000000084
:101666000000000000000000000000000000000074
:101676000000000000000000000000000000000064
:101686000000FF0F000000001800600000000000CE
:101696000000000000000000000000000000000044
:1016A6000000000000000000000000000000000034
:1016B6000000000000000000000000000000000024
:1016C6000000000000000000F0010C030C03000302
:1016D600E0031C030E03060306038E0B7C0E0000BC
:1016E60000000000000000000000000008000E00DE
:1016F6000C000C000C000C00CC013C031C060C0674
:101706000C060C060C060C060C021C03E401000079
:1017160000000000000000000000000000000000C3
:101726000000000000000000F0008C018C01860122
:1017360006000600060006020C020C01F00000007E
:101746000000000000000000000000000002C003CE
:10175600000300030003000378038C030C03060355
:10176600060306030603060304038C07780100003C
:101776000000000000000000000000000000000063
:101786000000000000000000E001180308020C063B
:101796000C06FC070C000C0018041802E0010000FF
:1017A6000000000000000000000000000000C00370
:1017B6006006300630003000FE0130003000300098
:1017C600300030003000300030003000FC010000F6
:1017D6000000000000000000000000000000000003
:1017E6000000000000000000F007D8068C018C0104
:1017F6008C019801F8000C00FC00CC0306030603DC
:101806008E03F800000000000000000008000E0033
:101816000C000C000C000C00EC011C030C030C0368
:101826000C030C030C030C030C030C039E070000B3
:101836000000000000000000000000000000600042
:1018460060000000000040007C0060006000600056
:10185600600060006000600060006000FC03000043
:101866000000000000000000000000000000C001B1
:10187600C001000000000001F0018001800180012C
:10188600800180018001800180018001800180014A
:10189600CC007C00000000000000000008000E00E4
:1018A6000C000C000C000C008C038C008C004C000F
:1018B6006C005C008C008C010C010C039E07000080
:1018C60000000000000000000000000040007C0056
:1018D6006000600060006000600060006000600002
:1018E600600060006000600060006000FC030000B3
:1018F60000000000000000000000000000000000E2
:1019060000000000000000003707EE0666066606C7
:10191600660666066606660666066606FF0F00002B
:1019260000000000000000000000000000000000B1
:101936000000000000000000EE011C030C030C0375
:101946000C030C030C030C030C030C039E07000092
:101956000000000000000000000000000000000081
:101966000000000000000000F00098010C030606CD
:1019760006060606060606060C030C03F000000023
:101986000000000000000000000000000000000051
:101996000000000000000000EE011C030C060C060F
:1019A6000C060C060C060C060C031C03EC010C00C2
:1019B6000C003E00000000000000000000000000D7
:1019C600000000000000000078028C030C030603F0
:1019D600060306030603060304038C0378030003C9
:1019E6000003C00700000000000000000000000027
:1019F60000000000000000009F035806380618008B
:101A0600180018001800180018001800FF00000041
:101A160000000000000000000000000000000000C0
:101A26000000000000000000F0031C030C020C0282
:101A36003800F000C003040304038C03FC0100001B
:101A46000000000000000000000000000000000090
:101A56002000200030003000FE0130003000300051
:101A6600300030003000300030023002E00100006B
:101A76000000000000000000000000000000000060
:101A860000000000000008028E030C030C030C0388
:101A96000C030C030C030C030C039C0778010000D9
:101AA6000000000000000000000000000000000030
:101AB60000000000000000001E070C0208010801DB
:101AC60018019000B000B000600060002000000027
:101AD6000000000000000000000000000000000000
:101AE6000000000000000000F70E620446046402D5
:101AF6006402EC029C01980198019801080000001C
:101B060000000000000000000000000000000000CF
:101B16000000000000000000BC0718011001B00022
:101B260060006000E0009000080108039E070000C6
:101B3600000000000000000000000000000000009F
:101B460000000000000000009E07080108010801CF
:101B560090009000B000600060006000200020004F
:101B660024001C000000000000000000000000002F
:101B76000000000000000000FC018401C4004400D5
:101B8600600020003000180208020C03FC0100006F
:101B960000000000000000000003800080008000BC
:101BA600800080008000800080004000200040000F
:101BB600800080008000800080008000800080001F
:101BC600000300004000400040004000400040008C
:101BD60040004000400040004000400040004000FF
:101BE60040004000400040004000400040004000EF
:101BF60040004000000000000C0010001000100023
:101C060010001000100010001000200040002000FE
:101C1600100010001000100010001000100010003E
:101C26000C00000000001C002204C2048003000017
:101C3600000000000000000000000000000000009E
:101C4600000000000000000000000000000000008E
:101C5600000000000000000000000000000000007E
:101C6600000000000000000000000000000000006E
:101C7600000000000000000000000000000000005E
:101C8600000000000000000000000000000000004E
:101C96000000000000000000000000000000C0017D
:101CA600C001C001C001C001C001C00180008000A8
:101CB600800080008000800080000000000000009E
:101CC60000008001C003C003800100000000000086
:101CD60000000000000000000000E01CE01CF01EF8
:101CE600700E380718030801840000000000000089
:101CF60000000000000000000000000000000000DE
:101D060000000000000000000000000000000000CD
:101D160000000000000000000000000000000000BD
:101D260020102010201020102010FE7FFE7F1008AB
:101D3600100810081008100810081008FE7FFE7F13
:101D46000804080408040804080400000000000051
:101D5600000000000000000000000000000100017B
:101D6600C007601910311831183918393801700157
:101D7600E001C0038007000F001D003900311C314F
:101D86001C310C310C11180DE00700010001000197
:101D9600000000000000000000000000000000003D
:101DA6001C1036186308630C630463046302630241
:101DB6006301361D9C378022806340634063206345
:101DC6002063306310221836081C00000000000053
:101DD60000000000000000000000000000000000FD
:101DE600F00098018C018C018C018C018C00CC00D8
:101DF6007800183E1C083608320863046304C304DE
:101E0600C303834306438E26781C000000000000AF
:101E1600000000000000000000001C003C003C0028
:101E26003000300010000C0006000000000000002A
:101E3600000000000000000000000000000000009C
:101E4600000000000000000000000000000000008C
:101E5600000000000000000000000040002000100C
:101E66000008000C000400060003000300038001C4
:101E760080018001800180018001800180010003D2
:101E86000003000300060006000C000800100020F6
:101E960000400000000000000000020004000800EE
:101EA6001000300020006000C000C000C0008001AB
:101EB6008001800180018001800180018001C000D5
:101EC600C000C00060006000300010000800040080
:101ED60002000000000000000000000000000000FA
:101EE6000000000000018003800300011C713C79A2
:101EF600783DC0070001C007783D3C791C710001A0
:101F06008003800380010000000000000000000044
:101F160000000000000000000000000000000000BB
:101F260000000000000000010001000100010001A6
:101F360000010001FC7F0001000100010001000119
:101F46000001000100000000000000000000000089
:101F5600000000000000000000000000000000007B
:101F6600000000000000000000000000000000006B
:101F7600000000000000000000000000000000005B
:101F8600000000001C003C003C0030003000100047
:101F96000C00060000000000000000000000000029
:101FA600000000000000000000000000000000002B
:101FB60000000000FE7F000000000000000000009E
:101FC600000000000000000000000000000000000B
:101FD60000000000000000000000000000000000FB
:101FE60000000000000000000000000000000000EB
:101FF60000000000000000000000000000000000DB
:10200600000018003C003C00180000000000000022
:1020160000000000000000000000004000600020FA
:102026000030001000180008000C00040006000232
:102036000003000180018000C00040006000200015
:1020460030001000180008000C0004000600020012
:10205600000000000000000000000000000000007A
:10206600C007600C30181830183018200C600C604F
:102076000C600C600C600C600C600C600C6018202E
:10208600183018303018600CC0070000000000003F
:10209600000000000000000000000000000000003A
:1020A60000018001F801800180018001800180012A
:1020B6008001800180018001800180018001800112
:1020C600800180018001C003F81F000000000000AD
:1020D60000000000000000000000000000000000FA
:1020E600E007101C0818043004300C300C300030A7
:1020F60000180008000400020001800040002020B3
:10210600102008200430FC1FFC1F00000000000007
:1021160000000000000000000000000000000000B9
:10212600E003180E0C0C0C180C180C180018000CF8
:102136000006C003000E00180010003000300C30FE
:102146000C300C100C18180CE00300000000000006
:102156000000000000000000000000000000000079
:10216600000C000E000E000F800E800E400E600E5A
:10217600200E100E100E080E040E040EFE7F000E2A
:10218600000E000E000E000E000EC07F00000000C4
:102196000000000000000000000000000000000039
:1021A600F03FF03F10001000100008000800C807BC
:1021B600280C1818081000300030003000300C30A1
:1021C6000C3004180418080CF0030000000000008E
:1021D60000000000000000000000000000000000F9
:1021E600800FC010203010301800180008000C00B6
:1021F6008C0F6C183C301C600C600C600C600C6022
:102206001860182030306018C00700000000000079
:1022160000000000000000000000000000000000B8
:10222600F83FF83F1C100C080408040400040002E0
:102236000002000100010001800080008000C00053
:10224600C000C000C000C000C000000000000000C8
:102256000000000000000000000000000000000078
:10226600E007300C18180C300C300C301C303818C5
:102276007008E007B007180E0C1C0638063006304A
:10228600063006300C18180CE003000000000000B1
:102296000000000000000000000000000000000038
:1022A600E00318040C080C18061006300630063039
:1022B600063006380C3C1836F0310030001800188D
:1022C60000180C0C0C060C03F001000000000000C6
:1022D60000000000000000000000000000000000F8
:1022E6000000000000000000000000000000800167
:1022F600C003C003800100000000000000000000D1
:1023060000008001C003C00380010000000000003F
:1023160000000000000000000000000000000000B7
:102326000000000000000000000000000000C000E7
:10233600C0000000000000000000000000000000D7
:10234600000000000000C000C000800080004000C7
:102356004000000000000000000000000000002017
:10236600001000080004000600038001C0006000A1
:10237600300018000C00180030006000C00080011A
:102386000003000600040008001000200000000002
:102396000000000000000000000000000000000037
:1023A6000000000000000000000000000000FE7FAA
:1023B60000000000000000000000FE7F000000009A
:1023C6000000000000000000000000000000000007
:1023D60000000000000000000000000000000400F3
:1023E6000800100020006000C00080010003000605
:1023F600000C001800300018000C000600038001D5
:10240600C00060002000100008000400000000006A
:102416000000000000000000000000000000C007EF
:102426003018083008600C601C601C601C600030AE
:10243600001C000600018000800080008000000073
:1024460000008001C003C0038001000000000000FE
:102456000000000000000000000000000000000076
:10246600C0076018103018200C2F8C4D864CC64CB7
:10247600C64C664C66446644662666266615CC1CC3
:102486000C40082018303018C0070000000000007B
:102496000000000000000000000000000000000135
:1024A600C001C001C00140016003200320032003D6
:1024B6003006100610061006F80F080C080C080C5B
:1024C6000C0C0418041806181F7C000000000000FD
:1024D60000000000000000000000000000000000F6
:1024E600FE07181C1838183018301830183018180D
:1024F600180CF8071818183018201860186018609B
:102506001860186018301818FE0F00000000000050
:1025160000000000000000000000000000000000B5
:10252600C0276038103018200C400C40040006000C
:1025360006000600060006000600060006000C401F
:102546000C400C2018303018C007000000000000B6
:102556000000000000000000000000000000000075
:10256600FE03180E18181830183018301860186046
:1025760018601860186018601860186018601830C5
:10258600183018101818180EFE030000000000007E
:102596000000000000000000000000000000000035
:1025A600FE3F183018201860184018001808180840
:1025B600180CF80F180C180818081800180018003E
:1025C6001840184018201830FE3F00000000000098
:1025D60000000000000000000000000000000000F5
:1025E600FE7F1870184018C01880180018101810B0
:1025F6001818F81F181818101810180018001800C6
:1026060018001800180018007E00000000000000E6
:1026160000000000000000000000000000000000B4
:10262600C013701C101018100C200C20040006009B
:10263600060006000600060006FC063006300C30D2
:102646000C30183018303008C007000000000000B9
:102656000000000000000000000000000000000074
:102666003F7E0C180C180C180C180C180C180C18AB
:102676000C180C18FC1F0C180C180C180C180C183D
:102686000C180C180C180C183F7E000000000000F7
:102696000000000000000000000000000000000034
:1026A600F81F800180018001800180018001800186
:1026B600800180018001800180018001800180010C
:1026C6008001800180018001F81F000000000000E9
:1026D60000000000000000000000000000000000F4
:1026E600E07F00060006000600060006000600065B
:1026F60000060006000600060006000600060006A4
:102706000006000600060006000600060E060E037A
:102716008E01FC0000000000000000000000000028
:102726007E7C181818081804180618021801980153
:102736009801D801B803380318071806180E180CA4
:10274600181C1818183018307EFC00000000000015
:102756000000000000000000000000000000000073
:102766007E0018001800180018001800180018003D
:102776001800180018001800180018001800180093
:102786001840184018201830FE3F000000000000D6
:102796000000000000000000000000000000000033
:1027A6001FF81C381C381C381C3C34343434343480
:1027B600343674326432643264326431C431C431C2
:1027C600C431C430C43084309FFC000000000000D7
:1027D60000000000000000000000000000000000F3
:1027E6001F7C1C103C103410341074106410E4105C
:1027F600C410C41184118413041304170416041E90
:10280600041C041C041C04181F180000000000000F
:1028160000000000000000000000000000000000B2
:10282600C003300C181808100C300C300660066017
:1028360006600660066006600660066006600C209C
:102846000C3008101818300CC003000000000000FF
:102856000000000000000000000000000000000072
:10286600FE0F181818301860186018601860186085
:1028760018301818F80F180018001800180018005B
:1028860018001800180018007E0000000000000064
:102896000000000000000000000000000000000032
:1028A600C003300C18180C100C300C2006600660A3
:1028B6000660066006600660066006600660E46103
:1028C6002C331C321816300EC007004C007C003822
:1028D60000000000000000000000000000000000F2
:1028E600FE07181C18381830183018301830181809
:1028F600180CF80798031803180718061806180E78
:10290600180C180C181C18187E780000000000001F
:1029160000000000000000000000000000000000B1
:10292600E027303818300C200C200C000C00180062
:102936007800E003800F001E00380070006004601D
:102946000460086018303818C80F00000000000046
:102956000000000000000000000000000000000071
:10296600FC3F8C218461824182418001800180018B
:102976008001800180018001800180018001800149
:102986008001800180018001E00700000000000056
:102996000000000000000000000000000000000031
:1029A6003F7C0C100C100C100C100C100C100C10A2
:1029B6000C100C100C100C100C100C100C100C1031
:1029C6000C100C1008083804E0030000000000009A
:1029D60000000000000000000000000000000000F1
:1029E6003EF8182018201820301030103010301003
:1029F600600860086008E00CC004C004C0048003DE
:102A06008003800380030001000100000000000035
:102A160000000000000000000000000000000000B0
:102A2600DFF38661862186218C210C218C238C1371
:102A36008C138C134C1358125816580E380E380E29
:102A4600380E300C100410041004000000000000C2
:102A56000000000000000000000000000000000070
:102A66007E3E180838083004300470026002E00127
:102A7600C001C001800180034003400720062006F4
:102A8600100C100C081808183E7C0000000000000E
:102A96000000000000000000000000000000000030
:102AA6007E7C1C10181018083008300C7004600466
:102AB6006002C002C002C001800180018001800165
:102AC6008001800180018001E00700000000000015
:102AD60000000000000000000000000000000000F0
:102AE600F83F18180818040C040E00060007000327
:102AF60080038001C001C000E0006000700030006B
:102B0600382018201C100C18FE1F000000000000C2
:102B160000000000000000000000C03F4000400030
:102B2600400040004000400040004000400040009F
:102B3600400040004000400040004000400040008F
:102B46004000400040004000400040004000C03FC0
:102B56000000000000000000000000000000080067
:102B660018001800100030002000600060004000CF
:102B7600C000800080018001000100030002000601
:102B860000060004000C00080018001800100030B1
:102B960000200000000000000000FC03000200020C
:102BA600000200020002000200020002000200020F
:102BB60000020002000200020002000200020002FF
:102BC6000002000200020002000200020002FC03F2
:102BD600000000000000000000008007C00620087A
:102BE60010100000000000000000000000000000BF
:102BF60000000000000000000000000000000000CF
:102C060000000000000000000000000000000000BE
:102C160000000000000000000000000000000000AE
:102C2600000000000000000000000000000000009E
:102C3600000000000000000000000000000000008E
:102C4600000000000000000000000000000000007E
:102C56000000FFFF0000000000007800C000000137
:102C6600000000000000000000000000000000005E
:102C7600000000000000000000000000000000004E
:102C8600000000000000000000000000000000003E
:102C9600000000000000000000000000000000002E
:102CA6000000000000000000000000000000F0032B
:102CB60018060C0C0C0C000C800F700C1C0C0C0C69
:102CC600060C060C064C0C4FF838000000000000FD
:102CD60000000000000000000000000000001000DE
:102CE6001E00180018001800180018001800180F09
:102CF600D818383038601860186018601860186086
:102D06001860182038307818C80700000000000046
:102D160000000000000000000000000000000000AD
:102D26000000000000000000000000000000C007D6
:102D3600700C181818180C180C000C000C000C005D
:102D46000C20182018103008C007000000000000F2
:102D5600000000000000000000000000000000105D
:102D6600001E001800180018001800180018E01BB4
:102D7600301C181818180C180C180C180C180C18ED
:102D86000C180818181C307AE00900000000000032
:102D9600000000000000000000000000000000002D
:102DA6000000000000000000000000000000C00756
:102DB600300C181808100C300C30FC3F0C000C00BE
:102DC6000C00182018107018C00700000000000042
:102DD60000000000000000000000000000000000ED
:102DE600003E80C380C0C0C0C000C000C000FC1F41
:102DF600C000C000C000C000C000C000C000C000CD
:102E0600C000C000C000C000F80F000000000000B5
:102E160000000000000000000000000000000000AC
:102E26000000000000000000000000000000C07765
:102E3600306C10181818181818181018300CF007DD
:102E460018001800F00FF03F08700C600C600C6062
:102E56003838E00F000000000000000000001000FD
:102E66001E00180018001800180018001800980F07
:102E7600D818383018301830183018301830183044
:102E860018301830183018307EFC000000000000A2
:102E9600000000000000000000000000000000002C
:102EA6008003800380030000000000000001F80199
:102EB6008001800180018001800180018001800104
:102EC6008001800180018001F81F000000000000E1
:102ED60000000000000000000000000000000000EC
:102EE6000038003800380000000000000010801F85
:102EF600001800180018001800180018001800180C
:102F06000018001800180018001800180018180CEF
:102F16001806F0030000000000000000000010008A
:102F26001E00180018001800180018001800183E97
:102F3600180C1806180318019801D8013803180749
:102F46001806180C181C18187E7C000000000000DB
:102F5600000000000000000000000000000000016A
:102F6600F8018001800180018001800180018001DB
:102F76008001800180018001800180018001800143
:102F86008001800180018001F81F00000000000020
:102F9600000000000000000000000000000000002B
:102FA6000000000000000000000000000800EE1C09
:102FB6009C338C318C318C318C318C318C318C3111
:102FC6008C318C318C318C31DE7B000000000000AE
:102FD60000000000000000000000000000000000EB
:102FE60000000000000000000000000010001E0F9E
:102FF600D8183830183018301830183018301830C3
:1030060018301830183018307EFC00000000000020
:1030160000000000000000000000000000000000AA
:103026000000000000000000000000000000C007D3
:10303600701C103018300C600C600C600C600C605A
:103046000C60183018303018C0070000000000006F
:10305600000000000000000000000000000000006A
:1030660000000000000000000000000010009E0F9D
:1030760058183830182018601860186018601860E2
:10308600186018303830781898071800180018009B
:1030960018007E0000000000000000000000000094
:1030A6000000000000000000000000000000C02337
:1030B600303C183818300C300C300C300C300C30DA
:1030C6000C3008301838303CE03300300030003027
:1030D600003000FC000000000000000000000000BE
:1030E60000000000000000000000000060007E3CC0
:1030F60060666061E000E000600060006000600003
:103106006000600060006000FE0700000000000034
:1031160000000000000000000000000000000000A9
:103126000000000000000000000000000000E02792
:1031360030381830182018007000E003800F001C8B
:10314600043004300C301C18EC0F000000000000A6
:103156000000000000000000000000000000000069
:1031660000000000800080008000C000E000FC1F1E
:10317600C000C000C000C000C000C000C000C00049
:10318600C000C020C0208011000F00000000000019
:103196000000000000000000000000000000000029
:1031A60000000000000000000000000010201E3C8F
:1031B60018301830183018301830183018301830C9
:1031C60018301830183830F4E01300000000000002
:1031D60000000000000000000000000000000000E9
:1031E60000000000000000000000000000007E3C1F
:1031F600181818083808300430047002600260029B
:10320600E001C001C001C000800000000000000015
:1032160000000000000000000000000000000000A8
:103226000000000000000000000000000000DFF7C2
:103236008E630C238C238C239813981358165816D8
:10324600700E700E700E20042004000000000000B6
:103256000000000000000000000000000000000068
:103266000000000000000000000000000000FC3E1E
:1032760070087004E004C002C001800380034007A8
:103286006006200C100C18183E7E0000000000009E
:103296000000000000000000000000000000000028
:1032A60000000000000000000000000000007E7C1E
:1032B6001818180830083008300460046004C0028A
:1032C600C002C00280018001800180008000800071
:1032D6004C003C0000000000000000000000000060
:1032E6000000000000000000000000000000FC1FBD
:1032F6000C0C040E0406000380038001C000E000ED
:103306007020302038301C18FC1F00000000000020
:10331600000000000000000000000030000800046B
:103326000004000400040004000400040004000477
:1033360000040002800100020004000400040004EE
:103346000004000400040004000400040004000853
:103356000030000000010001000100010001000131
:10336600000100010001000100010001000100014F
:10337600000100010001000100010001000100013F
:10338600000100010001000100010001000100012F
:10339600000100010000000000000C0010002000E9
:1033A6002000200020002000200020002000200017
:1033B6002000400080014000200020002000200066
:1033C6002000200020002000200020002000100007
:1033D6000C00000000003800C40086400261002294
:1033E600001C0000000000000000000000000000BB
:1033F60000000000000000000000000000000000C7
:1034060000000000000000000000000000000000B6
:1034160000000000D6D0200020002000FE0322027B
:1034260022022202FE032202200020002000BEB05B
:10343600FC010401FC010401FC012000FF0704015A
:10344600FC01200024013202D4B0FE070204FA0473
:1034560002040204FE05520452044A0586050204CB
:10346600FE07B5E710001000FF0111011101FF0171
:1034760011011101FF0111041004E007D7D3000068
:10348600FC018000400020002000FF0720002000F3
:10349600200020003800D6D0800080008000800008
:1034A600FC1F84108410841084108410FC1F841068
:1034B6008000800080008000BEB0F80F0808F80F7A
:1034C6000808F80F8000FF7F0000F80F08080808BA
:1034D600F80F80008410A2204000D4B00000FE3F08
:1034E6000220F22702200220FA2F22212221222165
:1034F600122912290A2E0220FE3F0220B5E780007B
:1035060080008000FC1F841084108410FC1F84102F
:1035160084108410FC1F845080408040007FD7D3E5
:103526000000FE1F00080004000280018000FF7FEB
:10353600800080008000800080008000A0004000A5
:10354600D6D00000000000000018000008000008A7
:1035560000000800080818F8FF1F180818180818AF
:10356600180818180818180818180818F8FF1F0857
:1035760008080008000008000008000008000018FD
:1035860000001800001800000000BEB00000000097
:103596000000400006C0FF07400006C0FF074000CD
:1035A60006C0FF07400802003000FEFF3F00000093
:1035B600C0FF07C00002C00002C00002C0FF0380B7
:1035C600100080110160100E3010180C1E30001C07
:1035D60000000000D4B0000000000000080030F831
:1035E600FF1F08001008C010083F10080010080050
:1035F60010080013C8FF1008221008221008221015
:1036060008221008211208211488601648C01328C1
:103616000010080010F8FF1F080010000000B5E7B2
:10362600000000000000001800000800000800006C
:103636000800F0FF0F100804100804100804100812
:1036460004F0FF071008041008041008041008040A
:10365600F0FF0710080000081000081000082000FE
:10366600183000F01F000000D7D300000000000053
:10367600000004F0FF0F00000600000100C000007B
:103686002800001800001800001830FEFF7F001800
:1036960000001800001800001800001800001800AC
:1036A600001800001800001800001F00000C0000A1
:1036B6000000D6D0000000000000000000800000DE
:1036C60000800100008001000080010000800100F0
:1036D600008001001080010CF0FFFF0F3080010414
:1036E6003080010430800104308001043080010400
:1036F600308001043080010430800104F0FFFF07B0
:103706003080010430800104008001000080010047
:10371600008001000080010000800100008001009F
:103726000080010000800100008001000080000090
:1037360000000000BEB00000000000000000000015
:1037460000000001800100FFFF010003800100036B
:10375600800100FFFF01000380010003800100FFDC
:10376600FF0100818100000003000000031CFCFF34
:10377600FF3F000040000003C00100FFFF010003FF
:10378600C0000003C0000003C00000FFFF000001EE
:10379600410000040100000E710000078101800154
:1037A60001076000010E1898011C04E0011800C012
:1037B600000000000000D4B000000000000000007F
:1037C60000000008F0FFFF1F3000000C3000000C66
:1037D6003000100C30FE3F0C3004000C3000000CA2
:1037E6003000000C3000000C3000C00CF0FFFF0D64
:1037F6003030060E3030060C3010060C3010060C39
:103806003010060C3018860C3018860C3008060D61
:10381600300C860D3006EE0F3002FC0D3001000C28
:10382600F000000C3000000CF0FFFF0F3000000C21
:103836001000000400000000B5E7000000000000D2
:10384600000000C0000000C0010000C0000000C071
:10385600000000C0000000C00000E0FFFF0360C0E1
:10386600000360C0000360C0000360C0000360C0C6
:10387600000360C00003E0FFFF0360C0000360C0F8
:10388600000360C0000360C0000360C00003E0FFE7
:10389600FF0360C0000160C0000000C0000800C057
:1038A600001000C0001000C0001800C001380080E1
:1038B600FF1F0000000000000000D7D3000000003A
:1038C600000000000000000000000003C0FFFF072A
:1038D600000080070000C000000060000000180023
:1038E60000000C000080030000800300008001003F
:1038F600008001080080011CFCFFFF3F00800100E2
:1039060000800100008001000080010000800100AD
:10391600008001000080010000800100008001009D
:1039260000800100008001000080010000FC010011
:0C39360000E00000004000000000000065
:055F9000420193000036
:0B6259008FCFE5CD30E7FB75CDC022F4
:086282007F0C7EA9DEFEDFFCAB
:01628A0022F1
:10622000AD07AC06ED1DAE0470011C4E6005126298
:046230008280F12255
:0A626E00C292D290126259D292221D
:0A627800C292C290126259D2922223
:1052CF00C2837F0A7E00126220D2837F111262A1F5
:1052DF007F787E001262207FCF1262A1E4FF1262FC
:1052EF00097FC11262097F301262097FED1262A13C
:1052FF007F641262097F031262097F121262097FB3
:10530F00811262097FE81262A17F85126209E4FFB0
:10531F001262097F791262097FCB1262A17F391263
:10532F0062097F2C126209E4FF1262097F34126254
:10533F00097F021262097FF71262A17F20126209B0
:10534F007FEA1262A1E4FF126209E4FF1262097F91
:10535F00C01262A17F1D1262097FC11262A17F126A
:10536F001262097FC51262A17F331262097F3F1259
:10537F0062097FC71262A17F921262097F3A12629D
:10538F00A17F551262097F361262A1900193E070DE
:10539F0002A3E070047F088022900193E07004A3C1
:1053AF00E0640170047FC88012900193E07004A341
:1053BF00E0640270047F7880027FA81262097FB1D7
:1053CF001262A1E4FF1262097F121262097FB61204
:1053DF0062A17F0A1262097FA21262097F441262E0
:1053EF00A17F021262097FF21262A1E4FF12620929
:1053FF007F261262A17F011262097FE01262A17FF4
:10540F000F1262097F221262097F1C1262097F1B31
:10541F001262097F081262097F0F1262097F481218
:10542F0062097FB81262097F341262097F05126226
:10543F00097F0C1262097F091262097F0F1262093C
:10544F007F07126209E4FF1262097FE11262A1E491
:10545F00FF1262097F231262097F241262097F07FC
:10546F001262097F101262097F071262097F3812D8
:10547F0062097F471262097F4B1262097F0A12622B
:10548F00097F131262097F061262097F30126209C7
:0F549F007F381262097F0F1262097F290262A112
:1061090090008CEEF0A3EFF07F2A12627890008C59
:10611900E0FF12626EA3E0FF12626EEAFF12626E86
:10612900AF0312626E7F2B126278ECFF12626EAFC0
:106139000512626E900092E0FF12626EA3E0FF0208
:02614900626E84
:10000E00AD07AC06C292D290ECFF126259AF051248
:05001E006259D292229C
:085FF800900188EEF0A3EFF028
:106000009000927401F0A3743FF07BEF7A00E4FDFE
:10601000FCFFFE1261097F2C126278E490018AF085
:10602000A3F0E4FBFA900188E0FEA3E0FF12000E6B
:106030000BBB00010AEB64F04A70EA90018BE004AC
:10604000F0700690018AE004F0C390018BE0944068
:0860500090018AE0940140CAAE
:016058002225
:0362A1000262781E
:0561C200E0FEA3E0FF78
:1061C700C00790008AE0FFA3E0900092CFF0A3EF12
:0661D700F0D0070261098F
:1061F60090015BE0FBA3E0FAA3E0F98F828E8312A5
:036206003E2CFF2C
:0362090002626EC0
:05629300E0FEA3E0FFA6
:0362980002000EF3
:105CFB0090005AEEF0A3EFF0A3ECF0A3EDF0A3EAC3
:045D0B00F0A3EBF026
:105D0F00C006C00724FFFBEA34FFFAA3E0FEA3E0BE
:105D1F0024FFFFEE34FF90008AF0A3EFF0D007D0FE
:105D2F00061261C790005CE0FFA3E0900064CFF023
:105D3F00A3EFF0900060E0FEA3E0FFC3900065E0EA
:105D4F009F900064E09E503490005AE0FEA3E0FB69
:105D5F00AA06D390005FE09B90005EE09A400D9002
:105D6F0000621262930BBB00010A80E6900065E0AF
:0C5D7F0004F070BF900064E004F080B7F6
:015D8B0022F5
:1060590090017AFEE0FCA3E0FDC3900176E09DFD8E
:0E606900900175E09CFC900178E0FAA3E0FB4A
:1060770090007EEEF0A3EFF0900082EAF0A3EBF041
:10608700900080ECF0A3EDF090007EE0FAA3E0FB37
:10609700FFAE02C007A3E0FFA3E090008ACFF0A302
:1060A700EFF0D0071261C7900082E0FEA3E0FF0285
:0260B7006298ED
:0E50E1009000C4EEF0A3EFF0A3ECF0A3EDF00E
:1050EF00E49000D0F0A3F0A3F0A3F09000C4E0FE92
:1050FF00A3E0FFC3EB9FFFEA9E9000D4F0A3EFF075
:10510F009000C6E0FAA3E0FBC39000CBE09BFE90BB
:10511F0000CAE09A9000D6F0A3CEF09000C4E0FF52
:10512F00A3E09000DECFF0A3EFF0A3EAF0A3EBF043
:10513F009000D4E0FEA3E0FFD39400EE648094804F
:10514F00400A9000DAE4F0A304F08021EF4E7008DB
:10515F009000DAF0A3F0801574FF9000DAF0A3F05E
:10516F00C3E49FFFE49E9000D4F0A3EFF09000D62D
:10517F00E0FEA3E0FFD39400EE64809480400A9099
:10518F0000DCE4F0A304F08021EF4E70089000DC07
:10519F00F0A3F0801574FF9000DCF0A3F0C3E49F40
:1051AF00FFE49E9000D6F0A3EFF09000D6E0FEA3B0
:1051BF00E0FF9000D4E0FCA3E0FDD39FEE6480F805
:1051CF00EC6480989000D84007ECF0A3EDF08005D8
:1051DF00EEF0A3EFF0E49000CEF0A3F09000D9E052
:1051EF002401FF9000D8E03400FEC39000CFE09F71
:1051FF009000CEE09E40030252CE9000DEE0FEA370
:10520F00E0FFA3E0FCA3E0FD9000CC1260729000E1
:10521F00D4E0FEA3E0FF9000D1E02FF09000D0E0AB
:10522F003EF09000D6E0FEA3E0FF9000D3E02FF019
:10523F009000D2E03EF09000D8E0FEA3E0FF900097
:10524F00D0E0FCA3E0FDD39FEE6480F8EC6480987F
:10525F004020ED9FFFEC9E9000D0F0A3EFF0900068
:10526F00DAE0FEA3E0FF9000DFE02FF09000DEE039
:10527F003EF09000D8E0FEA3E0FF9000D2E0FCA348
:10528F00E0FDD39FEE6480F8EC6480984020ED9FA2
:10529F00FFEC9E9000D2F0A3EFF09000DCE0FEA3B5
:1052AF00E0FF9000E1E02FF09000E0E03EF0900092
:0F52BF00CFE004F070069000CEE004F00251EB57
:0152CE0022BD
:105B6B00900182EAF0A3EBF090017EEEF0A3EFF050
:105B7B00A3ECF0A3EDF0C007A3E0FAA3E0FB9001C8
:105B8B0080E0FFA3E09000CACFF0A3EFF090018676
:105B9B00E0FFA3E09000CCCFF0A3EFF0D0071250C2
:105BAB00E190017EE0FAA3E0FBFFAE02C007A3E0A9
:105BBB00FCA3E0FD900184E0FFA3E09000CACFF0CE
:105BCB00A3EFF0900186E0FFA3E09000CCCFF0A311
:105BDB00EFF0D0071250E1900184E0FCA3E0FD90C0
:105BEB000182E0FAA3E0FBA3E0FFA3E09000CACFA1
:105BFB00F0A3EFF0900186E0FFA3E09000CCCFF094
:105C0B00A3EFF090017EE0FEA3E0FF1250E19001C4
:105C1B0082E0FAA3E0FBFFAE02C007900180E0FC3C
:105C2B00A3E0FD900184E0FFA3E09000CACFF0A3B6
:105C3B00EFF0900186E0FFA3E09000CCCFF0A3EF54
:065C4B00F0D0070250E159
:1054AE00900173EEF0A3EFF0A3ECF0A3EDF0A903DF
:1054BE00E490017AF0A3F0E9FFA3E4F0A3EFF090FB
:1054CE00017CE0FEA3E0FFD390017BE09FEE6480C1
:1054DE00F890017AE06480984003025649C3900127
:1054EE0074E09FFF900173E09E12605990017CE082
:1054FE00FEA3E0FF900174E02FFF900173E03E12D7
:10550E00605990017AE0FEA3E0FFC3900174E09F22
:10551E00FF900173E09EFE90017CE0FCA3E0FD9005
:10552E000176E02DFD900175E03C12606E90017ADF
:10553E00E0FEA3E0FFC3900174E09FFF900173E0D3
:10554E009E90017C12605C90017CE0FEA3E0FF90D7
:10555E000174E02FFF900173E03EFE90017AE0FCB3
:10556E00A3E0FD900176E02DFD900175E03C126008
:10557E006E90017AE0FEA3E0FF900174E02FFF90A1
:10558E000173E03EFE90017C12605D90017AE0FEB8
:10559E00A3E0FF900174E02FFF900173E03EFE90B8
:1055AE00017CE0FCA3E0FD900176E02DFD900175FD
:1055BE00E03C12606E90017CE0FEA3E0FFC3900120
:1055CE0074E09FFF900173E09EFE90017AE0FCA3D1
:1055DE00E0FD900176E02DFD900175E03C12606ECD
:1055EE0090017BE004F0700690017AE004F09001E7
:1055FE007CE0FCA3E0FDFFAE04123E6BAA06AB07F7
:10560E0090017AE0FCA3E0FDFFAE04123E6BEF2B9F
:10561E00FDEE3AFCE9F5F0A4FFD3ED9FE5F06480D2
:10562E00F8EC64809850030254CD90017DE024FF85
:0B563E00F090017CE034FFF00254CD3E
:01564900223E
:10564A00900166EEF0A3EFF0A3ECF0A3EDF0A3EB6C
:10565A00F0A3EAF0A3E9F090016AE0FBA3E0FAA361
:10566A00E0F9123E1370030257D4900171E0640C02
:10567A007044900168E0FCA3E0FD90016DE0FFA397
:10568A00E09000E9CFF0A3EFF090016FE0FFA3E014
:10569A009000EBCFF0A3EFF0900171E09000EDF0F5
:1056AA00900172E09000EEF0900166E0FEA3E0FF48
:1056BA001244E60257B5900171E06410704B9001F4
:1056CA0068E0FCA3E0FDA3E0FBA3E0FAA3E0F9A3F2
:1056DA00E0FFA3E0900101CFF0A3EFF090016FE0AB
:1056EA00FFA3E0900103CFF0A3EFF0900171E090E7
:1056FA000105F0900172E0900106F0900166E0FE6B
:10570A00A3E0FF1247600257B5900171E064187078
:10571A004A900168E0FCA3E0FDA3E0FBA3E0FAA342
:10572A00E0F9A3E0FFA3E0900119CFF0A3EFF09016
:10573A00016FE0FFA3E090011BCFF0A3EFF090010F
:10574A0071E090011DF0900172E090011EF090014D
:10575A0066E0FEA3E0FF1249DA8050900171E0642E
:10576A00207067900168E0FCA3E0FDA3E0FBA3E0E2
:10577A00FAA3E0F9A3E0FFA3E0900130CFF0A3EF92
:10578A00F090016FE0FFA3E0900132CFF0A3EFF0B9
:10579A00900171E0900134F0900172E0900135F0CF
:1057AA00900166E0FEA3E0FF124C4190016BE475A4
:1057BA00F002123E7D900171E0FF900167E02FF048
:0B57CA00900166E03400F002566122FE
:1044E6009000E4ECF0A3EDF0A3EBF0A3EAF0A3E96F
:0944F600F09000E2EEF0A3EFF0FB
:1044FF00E49000F1F09000F8EEF0A3EFF09000EDF3
:10450F00E0FF131313541FFD7C00EF54077E006070
:10451F00047F0180027F00EF2DFFEE3CFE9000ED47
:10452F00E0FD7C00123E6B9000F6EEF0A3EFF090F2
:10453F0000F4E4F0A37405F0E49000F2F0A3F0901F
:10454F0000F4E0FEA3E0FF9000F2E0FCA3E0FDC367
:10455F009FEC9E400302475F9000E6E0FBA3E0FA6A
:10456F00A3E0F9123E13FF90341A75F01AED1240C2
:10457F0011EC75F01AA42583F583E4936F600302A1
:10458F00474E900001123E2CFF9000F2A3E09034B2
:10459F001B75F01A124011EC75F01AA42583F583E0
:1045AF00E4936F600302474E9000E4E0FCA3E0FD4C
:1045BF009000EDE0F9FF7E009000E2E0FAA3E02F1B
:1045CF00FFEE3ACF24FFFBEF34FFFAE9FFA3E0F849
:1045DF00A3E02FFFEE38CF24FFCF34FF90008AF0F7
:1045EF00A3EFF09000E21261C2E49000EFF09000B0
:1045FF00EFE0FFD39000F7E09F9000F6E0940050BB
:10460F000302474EE49000F0F09000EEE0707290DD
:10461F0000F2A3E075F01AA4241CF582E43434F5FB
:10462F0083C083C0829000EFE0D082D0832582F5D3
:10463F0082E43583F583E493FD7C009000F0E0FF86
:10464F0074017E00A807088005C333CE33CED8F996
:10465F00FFEE5CFEEF5D4E60059000E98003900079
:10466F00EB1262939000F1E004F09000EDE0FF9008
:10467F0000F1E08FF084E5F06003024736F0024767
:10468F00459000F2A3E075F01AA4241CF582E434DF
:10469F0034F583C083C0829000EFE0D082D08325B1
:1046AF0082F582E43583F583E493FD7C009000F07E
:1046BF00E0FF74017E00A807088005C333CE33CE18
:1046CF00D8F9FFEE5CFEEF5D4E60149000E2E0FE65
:1046DF00A3E0FFA3E0FCA3E0FD9000E9126072905D
:1046EF0000E3E004F070069000E2E004F09000F8C0
:1046FF00E0FEA3E0FFC39000E3E09FFD9000E2E047
:10470F009EFC9000EDE07A00B5051CEAB504189008
:10471F0000E2EEF0A3EFF09000E5E004F0701790E8
:10472F0000E4E004F0800F9000F0E004F0E0C394A8
:10473F000850030246189000EFE004F00245FD9088
:10474F0000F3E004F070069000F2E004F002454E32
:01475F002237
:104760009000FCECF0A3EDF0A3EBF0A3EAF0A3E9DA
:09477000F09000FAEEF0A3EFF066
:10477900E4900109F0900110EEF0A3EFF09001052B
:10478900E0FF131313541FFD7C00EF54077E0060F4
:10479900047F0180027F00EF2DFFEE3CFE900105B2
:1047A900E0FD7C00123E6B90010EEEF0A3EFF0905D
:1047B900010CE4F0A37405F0E490010AF0A3F09071
:1047C900010CE0FEA3E0FF90010AE0FCA3E0FDC3B9
:1047D9009FEC9E40030249D99000FEE0FBA3E0FA5A
:1047E900A3E0F9123E13FF90349C75F022ED1240BC
:1047F90011EC75F022A42583F583E4936F6003021D
:1048090049C8900001123E2CFF90010AA3E09034A0
:104819009D75F022124011EC75F022A42583F583D1
:10482900E4936F60030249C89000FCE0FCA3E0FD3B
:10483900900105E0F9FF7E009000FAE0FAA3E02F6D
:10484900FFEE3ACF24FFFBEF34FFFAE9FFA3E0F8CC
:10485900A3E02FFFEE38CF24FFCF34FF90008AF07A
:10486900A3EFF09000FA1261C2E4900107F0900101
:1048790007E0FFD390010FE09F90010EE0940050F4
:10488900030249C8E4900108F0900106E0707290B3
:10489900010AA3E075F022A4249EF582E43434F5DC
:1048A90083C083C082900107E0D082D0832582F53E
:1048B90082E43583F583E493FD7C00900108E0FFF1
:1048C90074017E00A807088005C333CE33CED8F91A
:1048D900FFEE5CFEEF5D4E600590010180039001E3
:1048E90003126293900109E004F0900105E0FF9042
:1048F9000109E08FF084E5F060030249B0F0024954
:10490900BF90010AA3E075F022A4249EF582E43445
:1049190034F583C083C082900107E0D082D083251B
:1049290082F582E43583F583E493FD7C00900108E8
:10493900E0FF74017E00A807088005C333CE33CE9B
:10494900D8F9FFEE5CFEEF5D4E60149000FAE0FED0
:10495900A3E0FFA3E0FCA3E0FD90010112607290C7
:1049690000FBE004F070069000FAE004F0900110FA
:10497900E0FEA3E0FFC39000FBE09FFD9000FAE09A
:104989009EFC900105E07A00B5051CEAB504189073
:1049990000FAEEF0A3EFF09000FDE004F07017903C
:1049A90000FCE004F0800F900108E004F0E0C394FB
:1049B900085003024892900107E004F002487790FA
:1049C900010BE004F0700690010AE004F00247C808
:0149D90022BB
:1049DA00900114ECF0A3EDF0A3EBF0A3EAF0A3E945
:0949EA00F0900112EEF0A3EFF0D1
:1049F300E4900120F0900127EEF0A3EFF090011D69
:104A0300E0FF131313541FFD7C00EF54077E006077
:104A1300047F0180027F00EF2DFFEE3CFE90011D1D
:104A2300E0FD7C00123E6B900125EEF0A3EFF090C9
:104A33000123E4F0A37405F0E4900121F0A3F090C6
:104A43000123E0FEA3E0FF900121E0FCA3E0FDC30E
:104A53009FEC9E4003024C40900116E0FBA3E0FA5A
:104A6300A3E0F9123E13FF90354675F04AED12406C
:104A730011EC75F04AA42583F583E4936F60030278
:104A83004C2F900001123E2CFF900121A3E09035A2
:104A93004775F04A124011EC75F04AA42583F5835B
:104AA300E4936F6003024C2F900114E0FCA3E0FD3C
:104AB30090011DE0F9FF7E00900112E0FAA3E02FC0
:104AC300FFEE3ACF24FFFBEF34FFFAE9FFA3E0F850
:104AD300A3E02FFFEE38CF24FFCF34FF90008AF0FE
:104AE300A3EFF09001121261C2E490011FF0900154
:104AF3001FE0FFD3900126E09F900125E094005032
:104B030003024C2FE4F990011EE0706CA3E0FF90C8
:104B13000121E0FCA3E090354875F04A124011EC06
:104B230075F04AA42583F583E5822FF582E4358366
:104B3300F583E493FD7C0074017E00A801088005E1
:104B4300C333CE33CED8F9FFEE5CFEEF5D4E600586
:104B5300900119800390011B126293900120E004DD
:104B6300F090011DE0FF900120E08FF084E5F060FC
:104B730003024C1DF0024C2690011FE0FF9001211F
:104B8300E0FCA3E090354875F04A124011EC75F053
:104B93004AA42583F583E5822FF582E43583F583E3
:104BA300E493FD7C0074017E00A801088005C333F3
:104BB300CE33CED8F9FFEE5CFEEF5D4E601490016C
:104BC30012E0FEA3E0FFA3E0FCA3E0FD90011912B5
:104BD3006072900113E004F07006900112E004F09B
:104BE300900127E0FEA3E0FFC3900113E09FFD9037
:104BF3000112E09EFC90011DE07A00B5051CEAB5A8
:104C03000418900112EEF0A3EFF0900115E004F008
:104C13007011900114E004F0800909E9640860034D
:104C2300024B0990011FE004F0024AF1900122E0D7
:0D4C330004F07006900121E004F0024A42F6
:014C40002251
:104C410090012BECF0A3EDF0A3EBF0A3EAF0A3E9C4
:094C5100F0900129EEF0A3EFF050
:104C5A00E4900137F090013EEEF0A3EFF0900134BA
:104C6A00E0FF131313541FFD7C00EF54077E00600E
:104C7A00047F0180027F00EF2DFFEE3CFE9001349D
:104C8A00E0FD7C00123E6B90013CEEF0A3EFF09049
:104C9A00013AE4F0A37405F0E4900138F0A3F0902F
:104CAA00013AE0FEA3E0FF900138E0FCA3E0FDC377
:104CBA009FEC9E4003024EA790012DE0FBA3E0FA71
:104CCA00A3E0F9123E13FF9036B875F082ED124058
:104CDA0011EC75F082A42583F583E4936F600302D7
:104CEA004E96900001123E2CFF900138A3E09036B8
:104CFA00B975F082124011EC75F082A42583F58310
:104D0A00E4936F6003024E9690012BE0FCA3E0FD52
:104D1A00900134E0F9FF7E00900129E0FAA3E02F28
:104D2A00FFEE3ACF24FFFBEF34FFFAE9FFA3E0F8E6
:104D3A00A3E02FFFEE38CF24FFCF34FF90008AF094
:104D4A00A3EFF09001291261C2E4900136F09001BC
:104D5A0036E0FFD390013DE09F90013CE094005083
:104D6A0003024E96E4F9900135E0706CA3E0FF90DF
:104D7A000138E0FCA3E09036BA75F082124011ECDB
:104D8A0075F082A42583F583E5822FF582E43583C5
:104D9A00F583E493FD7C0074017E00A80108800578
:104DAA00C333CE33CED8F9FFEE5CFEEF5D4E60051D
:104DBA009001308003900132126293900137E0042F
:104DCA00F0900134E0FF900137E08FF084E5F06065
:104DDA0003024E84F0024E8D900136E0FF900138B6
:104DEA00E0FCA3E09036BA75F082124011EC75F03F
:104DFA0082A42583F583E5822FF582E43583F58342
:104E0A00E493FD7C0074017E00A801088005C33389
:104E1A00CE33CED8F9FFEE5CFEEF5D4E6014900102
:104E2A0029E0FEA3E0FFA3E0FCA3E0FD900130121D
:104E3A00607290012AE004F07006900129E004F003
:104E4A0090013EE0FEA3E0FFC390012AE09FFD909F
:104E5A000129E09EFC900134E07A00B5051CEAB510
:104E6A000418900129EEF0A3EFF090012CE004F071
:104E7A00701190012BE004F0800909E964086003CD
:104E8A00024D70900136E004F0024D58900139E06D
:0D4E9A0004F07006900138E004F0024CA90D
:014EA70022E8
:104EA80090006CECF0A3EDF0A3EBF090006AEEF04C
:034EB800A3EFF075
:104EBB00E4900077F090007CEEF0A3EFF09000739D
:104ECB00E0F9C313900076F0E0FF131313541FFDAA
:104EDB007C00EF54077E0060047F0180027F00EFAF
:104EEB002DFFEE3CFEE9FD7C00123E6B90007AEE4E
:104EFB00F0A3EFF090006EE024E0F090006CE0FC8B
:104F0B00A3E0FD900076E0FF7E0090006AE0FAA33C
:104F1B00E02FFFEE3ACF24FFFBEF34FFFAE9FFA3BC
:104F2B00E0F8A3E02FFFEE38CF24FFCF34FF900043
:104F3B008AF0A3EFF090006A1261C2E4900078F05F
:104F4B00A3F090007AE0FEA3E0FF900078E0FCA3D2
:104F5B00E0FDC39FEC9E40030250E0900073E0F92C
:104F6B00B40C1C90006EE075F00CA42426F582E5C1
:104F7B00F03400F583E5822DF582E5833C807AE9F8
:104F8B00B41024900078E0FEA3E0FF90006EE07573
:104F9B00F010A4249AF582E5F03404F583E5822F12
:104FAB00F582E5833E8052E9B41824900078E0FE48
:104FBB00A3E0FF90006EE075F030A4248AF582E543
:104FCB00F0340AF583E5822FF582E5833E802AE9EA
:104FDB00642060030250E0900078E0FEA3E0FF90B5
:104FEB00006EE075F040A4245AF582E5F0341CF510
:104FFB0083E5822FF582E5833EF583E4939000757C
:10500B00F0E4F9900074E0703C047E00A801088085
:10501B0005C333CE33CED8F9FF900075E0FDEF5DBD
:10502B00600590006F80039000711262939000777F
:10503B00E004F0900076E0FFA3E08FF084E5F070E1
:10504B007AF00250CF74017E00A801088005C333AB
:10505B00CE33CED8F9FF900075E0FDEF5D60149074
:10506B00006AE0FEA3E0FFA3E0FCA3E0FD90006F6D
:10507B0012607290006BE004F0700690006AE0041E
:10508B00F090007CE0FEA3E0FFC390006BE09FFD7F
:10509B0090006AE09EFC900076E07A00B5051CEA71
:1050AB00B5041890006AEEF0A3EFF090006DE004E9
:1050BB00F0701190006CE004F0800909E96408605D
:1050CB000302500E900079E004F07006900078E037
:0550DB0004F0024F4D3E
:0150E00022AD
:105EA20090005AEEF0A3EFF0A3ECF0A3EDF0A3EB19
:105EB200F0A3EAF0A3E9F090005EE0FBA3E0FAA30E
:105EC200E0F9123E13FB606190005CE0FCA3E0FD90
:105ED200900061E0FFA3E090006FCFF0A3EFF0909D
:105EE2000063E0FFA3E0900071CFF0A3EFF0900019
:105EF20065E0900073F0900066E0900074F090000E
:105F02005AE0FEA3E0FF124EA8900065E0C313FF23
:105F120090005BE02FF090005AE03400F090005FB8
:0A5F2200E475F001123E7D808E222E
:0760B900C3EF9E14FD7F0AF6
:0860C00090006AEFF0A3EDF07F
:1060C800A3123FE00000000190006BE0FF14F0EF26
:1060D8006020A3E0F8A3E0F9A3E0FAA3E0FB9000B6
:1060E8006AE0FFE4FCFDFE123EA990006C123FD46A
:1060F80080D690006CE0FCA3E0FDA3E0FEA3E0FFE7
:016108002274
:10591F0090005AEEF0A3EFF0A3ECF0A3EDF0A3EAA2
:04592F00F0A3EBF006
:10593300E4900068F0900065E0C313900069F0E420
:10594300900066F0900060E0FF900066E0FEC39F69
:105953004003025A4A1260B9A804A905AA06AB0774
:1059630090005EE0FEA3E0FFE4FCFD123F34E47B25
:105973000AFAF9F8123F34900067EBF0A3E0706580
:10598300900060E014FF900066E0FEC39F5056A3B2
:10599300E0704C900069E0FFEE8FF0A4FF90005B95
:1059A300E02FFF90005AE035F0FE90005CE0FCA38E
:1059B300E0FD900061E0FBA3E090006FCBF0A3EB70
:1059C300F0900063E0FBA3E0900071CBF0A3EBF059
:1059D300900065E0900073F0E4A3F07B20805C907E
:1059E30000687401F0900069E0FF900066E08FF0BA
:1059F300A4FF90005BE02FFF90005AE035F0FEC05B
:105A03000790005CE0FCA3E0FD900067E02430FB1E
:105A1300900061E0FFA3E090006FCFF0A3EFF09060
:105A23000063E0FFA3E0900071CFF0A3EFF09000DC
:105A330065E0900073F0E4A3F0D007124EA8900045
:075A430066E004F002594780
:015A4A002239
:0E57D500900140EEF0A3EFF0A3ECF0A3EDF096
:1057E30090014DE0C313900150F0E4FFFE7DC87CAF
:1057F30042900144E0F8A3E0F9A3E0FAA3E0FB122E
:105803003942123A48900151EEF0A3EFF0E49001CF
:105813004EF0900148E0FF90014EE0FEC39F40032D
:1058230002591E1260B9A804A905AA06AB07900184
:1058330051E0FEA3E0FFE4FCFD123F34E47B0AFAEF
:10584300F9F8123F3490014FEBF0900148E0FF2448
:10585300FEFE90014EE06E7060EF24FEFFE434FF25
:10586300FE900150E0FD7C00123E6B900141E02F61
:10587300FF900140E03EFE900142E0FCA3E0FD907A
:105883000149E0FBA3E090006FCBF0A3EBF09001A4
:105893004BE0FBA3E0900071CBF0A3EBF090014D44
:1058A300E0900073F0E4A3F07B2E124EA890014E1B
:1058B300E004F0900148E004F0900150E0FF900113
:1058C3004EE08FF0A4FF900141E02FFF900140E0F4
:1058D30035F0FEC007900142E0FCA3E0FD90014FCC
:1058E300E02430FB900149E0FFA3E090006FCFF08C
:1058F300A3EFF090014BE0FFA3E0900071CFF0A382
:10590300EFF090014DE0900073F0E4A3F0D00712A4
:0B5913004EA890014EE004F002581571
:01591E002266
:105A4B00900153EEF0A3EFF0A3ECF0A3EDF0A3EA7B
:045A5B00F0A3EBF0D9
:105A5F00900162123FE000000000900155E0FCA3AE
:105A6F00E0FDA3E0FEA3E0FF900153E0FAA3E02FD7
:105A7F00FFEA3ECF24FFFBEF34FFFA900159E0FE1F
:105A8F00A3E0FF900155E0F8A3E02FFFE83ECF24FD
:105A9F00FFCF34FF90008AF0A3EFF0900153126113
:105AAF00C2E490015EF0A3F0900157E0FEA3E0FF87
:105ABF00C390015FE09F90015EE09E4003025B6A2E
:105ACF00E4900160F0A3F0900159E0FEA3E0FFC362
:105ADF00900161E09F900160E09E506BE47F02FEB9
:105AEF00FDFC900162E0F8A3E0F9A3E0FAA3E0FB6C
:105AFF00123EA91261F6E47F02FEFDFC900162E006
:105B0F00F8A3E0F9A3E0FAA3E0FB123EA9EF24010A
:105B1F00FFE43EFE1261F6900162E0FCA3E0FDA3FC
:105B2F00E0FEA3E02401FFE43EFEE43DFDE43CFC87
:105B3F00900162123FD4900161E004F07006900171
:105B4F0060E004F0025AD690015FE004F0600302B7
:0B5B5F005AB790015EE004F0025AB754
:015B6A002218
:10394200EC4D6011E8497017ED33EC3304600DE47F
:10395200FCFFFEFD22E933E8330470F8023AB412A8
:103962003A7F58046009E4CC2481500628500902A9
:103972003ABE284003023ABBC0E0EB4A7044B98029
:1039820006D0E0FB023AAAEF4E701CBD8008EBFFA6
:10399200EAFEE9FD80EBE98DF0A4FEE5F0023A2BA8
:1039A200E9CDF9EAFEEBFFEF89F0A4FCE5F0CE8960
:1039B200F0A42EFFE435F0CD89F0A42DFEE435F01D
:1039C2008067EF4E7005BD80D780C3EF8BF0A4AC4B
:1039D200F0EE8BF0A42CFCE435F0F8EF8AF0A42C86
:1039E200E5F038FCE433CB8DF0A42CFCE5F03BF899
:1039F200EE8AF0A42CFCE5F038F8E433CF89F0A489
:103A02002CFCE5F038CF3400CE89F0A42FFFE5F08E
:103A12003EFEE433C98DF0A42EFEE5F039CD8AF0E6
:103A2200A42FFFE5F03EFEE43DFD33D0E0FB50075E
:103A32000BBB000F023ABEEC2CFCEF33FFEE33FE61
:063A4200ED33FD023A968F
:103A4800EDD2E7CD33EC3392D524814006E4FFFE76
:103A5800FDFC22FCE4CFCECDCC24E0501174FF80D5
:103A6800EDC3CC13CCCD13CDCE13CECF13CF047072
:073A7800F030D5DE023FC66D
:10406300E5082497F582E43400F583E005082290FF
:104073000094300703900097E475F00112401D028D
:104083003E132000E97F2ED2008018EF540F2490B6
:10409300D43440D4FF30040BEF24BFB41A005003D0
:1040A3002461FFE50960021509050CE50C700205A2
:1040B3000B30070E900094E475F00112401DEF02DF
:1040C3003E590262647403D2078003E4C207F50811
:1040D300900094124034E4F509F50BF50CE5096002
:1040E300077F201240A680F5750AFFC201C200C2F5
:1040F30002C203C205C206C208124072FF700D302D
:1041030007057F001240B7AF0CAE0B22B4255FC288
:10411300D5C204124072FF24D0B40A00501A75F0BD
:104123000A780930D50508B6FF0106C6A426F6208D
:10413300D5047002D20380D924CFB41A00EF5004FF
:10414300C2E5D2040243A9D20180C6D20080C0D204
:104153000280BCD2D580BAD20580B47F201240A69B
:104163002002077401B5090040F1124063FF1240B9
:10417300A60240E0D208D2068095124063FB1240AB
:1041830063FA124063F94A4B700679A77A447BFFBE
:1041930020022EE509602A7E008E82758300123E7E
:1041A3002C60060EEE650A70F0C2D5EBC0E0EAC0E3
:1041B300E0E9C0E0EE12440AD0E0F9D0E0FAD0E042
:1041C300FB123E13FF60AAEBC0E0EAC0E0E9C0E0E7
:1041D3001240A6D0E02401F9D0E03400FAD0E0FB8D
:1041E300E50A0460DCD50AD98087D20280A2124393
:1041F300EC60F7E50A700104123AC9A90A600DE5FB
:104203000A600914F50A124494EF60F3EA30E702F6
:10421300F404C3995079EAF4250A0430E701E4046D
:10422300F50A800D1243EC60C1EA050A250A123A29
:10423300C9EA9000C3F030E701E4250A04D50A0473
:104243002005011412440AE4C0E01244949000C310
:10425300E0601320E70714F012408E802204F0D0B0
:10426300E014C0E07F0012408EE50A60071240852B
:10427300150A800B300503124085D0E00240E0D0E0
:10428300E00480C41243EC609EE50A04123AC9902C
:1042930000C3EAF0E50A2005026001042404124485
:0142A3000A10
