:030000000261A6F4
:0C61A600787FE4F6D8FD7581210261EDE0
:10341A007365746469616E6C697525640D0A00547C
:10342A004D503A2533642E25303164202000202067
:10343A002020202020202020202020202020202082
:10344A0020202000436972636C6520544143003098
:10345A0020202020202020202020202031326269B4
:10346A0074202020202020202020203230343700D1
:10347A005345543A2020202020202020253034642F
:10348A00202020200073797374656D206265676956
:10349A006E0D0067657477656E647500FFFFFFFF48
:1034AA00FFFFFFFFFFFFFFFFFFFFFFFFFFFFFFFF22
:1034BA00FFFFFFFFFFFFFFFFFFFFF7BEFFFFFFDE7C
:1034CA00C6388C926B8E6B6E7C10AD96E73CFFFF14
:1034DA00FFFFFFFFFFFFFFFFFFFFFFFFFFFFFFFFF2
:1034EA00FFFFFFFFFFFFFFFFFFFFFFFFFFFFFFFFE2
:1034FA00FFFFFFFFFFFFFFFFFFFFFFFFFFFFFFFFD2
:10350A00FFFFFFFFFFFFFFFFFFFFEF5D9D15634F0B
:10351A00426C320A298819461925214531E86B8EF1
:10352A00C638FFFFFFFFFFFFFFFFFFFFFFFFFFFFA1
:10353A00FFFFFFFFFFFFFFFFFFFFFFFFFFFFFFFF91
:10354A00FFFFFFFFFFFFFFFFFFFFFFFFFFFFFFFF81
:10355A00FFFFFFFFFFFFFFFFA53653104B1053512C
:10356A004B0F3A6C31E92167192510E408A3006270
:10357A00088352CBD69AFFFFFFFFFFFFFFFFFFFF33
:10358A00FFFFFFFFFFFFFFFFFFFFFFFFFFFFFFFF41
:10359A00FFFFFFFFFFFFFFFFFFFFFFFFFFFFFFFF31
:1035AA00FFFFFFFFE73C637063B37CB863F5431129
:1035BA00324D29EA21881926190519051104110421
:1035CA0010E4008308A38C72FFFFFFFFFFFFFFFFD9
:1035DA00FFFFFFFFFFFFFFFFFFFFFFFFFFFFFFFFF1
:1035EA00FFFFFFFFFFFFFFFFFFFFFFFFFFFFFFFFE1
:1035FA00FFFFDEDB3A4B42F06C354B5432B12A2ED8
:10360A0021EB21A9196719051104110411041104E8
:10361A001104190510E4004273AFFFFFFFFFFFFF1B
:10362A00FFFFFFFFFFFFFFFFFFFFFFFFFFFFFFFFA0
:10363A00FFFFFFFFFFFFFFFFFFFFFFFFFFFFFFFF90
:10364A00EF5D3209324C4B10328F2A4F2A2E19CC99
:10365A0019892189194719051104110410C410C4C4
:10366A0011041104110410E400428431FFFFFFFF2A
:10367A00FFFFFFFFFFFFFFFFFFFFFFFFFFFFFFFF50
:10368A00FFFFFFFFFFFFFFFFFFFFFFFFFFFFFFFF40
:10369A0052EC1947324C2A0B21EC21EC220C5B919B
:1036AA004AEE11061926190410E410E429A7216626
:1036BA0008A319051104110410E40082BDF7FFFFE5
:1036CA00FFFFFFFFFFFFFFFFFFFFFFFFFFFFFFFF00
:1036DA00FFFFFFFFFFFFFFFFFFFFFFFFFFFFA53514
:1036EA00088321882188218921AA218A426B8C7129
:1036FA00FFFF8C720883110408C44229DEFBEF5DC8
:10370A005AEC0883110411041104088331E8FFDF1D
:10371A00FFFFFFFFFFFFFFFFFFFFFFFFFFFFFFFFAF
:10372A00FFFFFFFFFFFFFFFFFFFFFFFFF7BE31C7EE
:10373A0010C4192519261947194729A8528A4A284F
:10374A00AD55FFFF31E808A319056B4D6B4DFFFF1F
:10375A00EF7D214510C41104110411040062AD76F5
:10376A00FFFFFFFFFFFFFFFFFFFFFFFFFFFFFFFF5F
:10377A00FFFFFFFFFFFFFFFFFFFFFFFFB59600629E
:10378A00110419041105190508C44A8BB5B6EF5D71
:10379A00BDF7FFFF6B8E006242295AAA4208FFFF5B
:1037AA00FFFF52CC088311041104110408A352AD7F
:1037BA00FFFFFFFFFFFFFFFFFFFFFFFFFFFFFFFF0F
:1037CA00FFFFE71CFFFFFFFFFFFFFFFF634E0062E3
:1037DA0011041104110410E40062638EFFFFFFFF5D
:1037EA00FFFFFFFF73CF00019CF3632CB596FFFF29
:1037FA00FFFF5B2D008311041104110410E42167FB
:10380A00EF3DFFFFFFFFFFFFFFFFFFFFBDF8B5B76B
:10381A00EF9E52CB94B3FFFFFFFFFFDF31E808A30F
:10382A00110411041104110408A34249F7FFF7FF18
:10383A00FFFFFFFF4A6A00018472FFFFFFFFF7FFE5
:10384A00EFDF3A0908A31104110411041104110548
:10385A00BE18FFFFFFFFFFFFFFFFFFFF7BF00062C5
:10386A0031E831C70041A535FFFFEF5D214610C49D
:10387A00110411041104110410E408A39D76F7FF42
:10388A00FFFFADB708A308A331C7E79EF7FFF7FF0D
:10389A00A57608A310E411041104110411051105F9
:1038AA00A535FFFFFFFFFFFFFFFFFFFFDEDB29A7B5
:1038BA00008310C410C410C4E71CEF9E110510E465
:1038CA001104110411041104190408C410E56BD180
:1038DA006BD108C5006408A50043322B9D7784B3D9
:1038EA00192510C4110411041104110419250926FB
:1038FA009D35FFFFFFFFFFFFFFFFFFFFFFFF73AFD6
:10390A0000621904190500825B0D9B8E1062110575
:10391A0011041104190410E40085110539C45A81EF
:10392A007B409C22AC43A4039B837282498218C2C7
:10393A0000A400C510E419041104190519471167F8
:10394A005AECFFBEFFFFFFFFFFFFFFFFFFDFDEDBDB
:10395A0010C410E41104110518A4C001888300E4FE
:10396A001905190408C521448343D523FE42FEE400
:10397A00FF27FF07FEA4FE64FE03FDA3FCE2EC4260
:10398A00B383622410E508C41904192619A82187EB
:10399A009000BCD3FFFFFFFFFFFFFFFFFFDFFFFF2A
:1039AA007C100042190511052883D001F84448A368
:1039BA0000E408C55A44ED02FDE2FE02FE66FF7409
:1039CA00FFB8FF73F6E7F6A6F645F5A4FCC3FC625A
:1039DA00FCC2FCC2CBE349C411061988018790A432
:1039EA00F8019AECFFFFFFFFFFFFFFFFFFFFFFFF5A
:1039FA00F7BE31E8008309054082C001F823F0854B
:103A0A0048A300A45A44FD02CC23DCC2FE04FE28CB
:103A1A00F648F646F624F5E4FD64FCE3FC62FCC2D3
:103A2A00E402DC02FCE27AA40148016778C4F824C3
:103A3A00F802B084E77DFFFFFFFFFFFFFFFFFFFFF4
:103A4A00FFFFDEDB192500A338C4E002D822F844C0
:103A5A00F8A678A400632143728339839B82F521F7
:103A6A00FD61FD22FCE2FCA2FC42FC42FC42AB22CC
:103A7A00418392C352040126192598A4F844F823D5
:103A8A00F802D0A4EF9EFFFFFFFFFFFFFFFFFFFF3B
:103A9A00FFFFFFFFD69A298700A5B843F822E02343
:103AAA00F865F8E8C9074883004200A3008429633F
:103ABA007AA2B362CBA2D362BB028A82398300A400
:103ACA0000E500E508E560C4D864F844F824F82362
:103ADA00F8028883C6DBFFFFFFFFFFFFFFFFFFFF40
:103AEA00FFFFFFFFFFFFE73D5B503108E823F84384
:103AFA00F044F865F909F9ABD189890648A3184257
:103B0A00000200420061008200620062008320A37A
:103B1A0050C488A5D885F865F844F844F823F823F2
:103B2A00D003108229C7EF5DFFFFFFFFFFFFFFFFF2
:103B3A00FFFFFFFFFFFFFFFFFFFF326C38A5D80230
:103B4A00F823F865F866F8A7F94AFA0CFA4DEA4C30
:103B5A00D20BB9A9B168A947B127B907D107E8E7D4
:103B6A00F8C7F8A7F865F865F844F823F803D0020F
:103B7A0028A3090508C45AECFFFFFFFFFFFFFFFF58
:103B8A00FFFFFFFFFFFFFFFFDEFB190500C441A790
:103B9A00C0E6F803F886F8A7F887F886F8C7F9297F
:103BAA00F98AF9ABF9ABF98BF96AF929F908F8C777
:103BBA00F8A6F886F865F864F823F002B106292514
:103BCA0000E410E4192519259D14FFFFFFFFFFFFEC
:103BDA00FFFFFFFFFFFFFFFFAD96006208829535EA
:103BEA00CEBAA28BD044F825F887F8A7F8C7F8A769
:103BFA00F887F886F886F886F887F8A7F8A7F8A667
:103C0A00F885F865F864F024B864930DB6BB63CF01
:103C1A000883110410E421663A49EF5DFFFFFFFFB4
:103C2A00FFFFFFFFFFFFFFFF94D3004210E4CEBB6C
:103C3A00FFFFE7BEB576AACCC107E045F845F846CE
:103C4A00F866F886F886F886F886F865F845F8651D
:103C5A00E865D044A84388019082D73CEFFF955588
:103C6A000883110411041905194694B3FFFFFFFFD5
:103C7A00FFFFFFFFFFFFFFFF94B300412186DF5DD7
:103C8A00FFFFFFFFFFFFE7DFC67AB4D3B34EC22AB6
:103C9A00D168E0E6E8A6E8A5E8A5D8E6C988A906B5
:103CAA00A822A802A000C800D800E5F7E7FFADF8EF
:103CBA0010C410E4110410E411054A8BFFFFFFFF42
:103CCA00FFFFFFFFFFFFFFFFA555004129A7DF5DAB
:103CDA00F7FFFFFFFFFFFFFFFFFFFFFFEFFFDF7DA4
:103CEA00CEDBCE59CDF8CDD7C5F7CE79BEFBA2AB88
:103CFA00F003F845D042E843F000D472DFFFAE3952
:103D0A0010E410E4110410E411052987FFFFFFFFF6
:103D1A00FFFFFFFFFFFFFFFFCE5908832146D71C95
:103D2A00F7FFFFFFFFFFFFFFFFFFFFFFFFFFFFFFA1
:103D3A00FFFFFFFFFFFFFFFFFFFFFFFFEFFFBA8B52
:103D4A00F804F845E062F044F800DB8EDFFFA5F8DE
:103D5A0010C410E410E4110410E41925FFFFFFFF5A
:103D6A00FFFFFFFFFFFFFFFFF7BE29870883B63972
:103D7A00F7FFF7DFFFFFFFFFFFFFFFFFFFFFFFFF79
:103D8A00FFFFFFFFFFFFFFFFFFFFFFFFE7BEBA4A8C
:103D9A00F803F845F864F844F800E36ED7FF8CF4AA
:103DAA000883110410E410E410E41905FFFFFFFF73
:103DBA00FFFFFFFFFFFFFFFFFFFF73EF00008472AB
:103DCA00EFFFEFBEFFDFFFFFFFFFFFFFFFFFFFFF7A
:103DDA00FFFFFFFFFFFFFFFFFFFFFFFFE7DFBA8BDA
:103DEA00F803F845F845F823F800D4D3D7FF5B4E1B
:103DFA0000213A29A555088310C41925FFFFFFFFA2
:103E0A00FFFFFFFFFFFFFFFFFFFFDEFB08A331E815
:103E1A00DF9EE79EEFBFFFFFFFFFFFFFFFFFFFFFF2
:103E2A00FFFFFFFFFFFFFFFFFFFFFFFFF7FFBC5191
:103E3A00E002F803F003E043C2ECCF7EBEFC214669
:103E4A00002194D3FFFF845100002987FFFFFFFF61
:103E5A00FFFFFFFFFFFFFFFFFFFFFFFF845100008F
:103E6A008CF4EFFFE79EEFBFFFDFFFFFFFFFFFFFCF
:103E7A00FFFFFFFFFFFFFFFFFFFFFFFFFFFFDF3D2A
:103E8A00BD55BC52BC72B5B7C75DDFFF6BF0000011
:103E9A003A09F7BFFFFFFFFF9D14A555FFFFFFFF7C
:103EAA00FFFFFFFFFFFFFFFFFFFFFFFFFFFF4AAC20
:103EBA0008A4BEBBE7DFE77EEFBEF7DFFFDFFFFF49
:103ECA00FFFFFFFFFFFFFFFFFFFFFFFFFFDFF7DF40
:103EDA00EFFFDFDFD7BFD79EDFDFA5D80883112624
:103EEA00D6DBFFFFFFFFFFFFFFFFFFFFFFFFFFFF25
:103EFA00FFFFFFFFFFFFFFFFFFFFFFFFEE79DC8BF6
:103F0A00312121A9CF3DDFBFDF7EE79EEFBEEFBFA4
:103F1A00F7DFF7DFF7DFF7DFF7DFEFBFEFBEE79E89
:103F2A00DF7ED75ED75EDFDFB69A19260842A3ED99
:103F3A00FFBFFFFFFFFFFFFFFFFFFFFFFFFFFFFFC7
:103F4A00FFFFFFFFFFFFFFFFFFFFDD74DBC0FE0087
:103F5A00EE4242022189B67BDFDFD77EDF7EDF7E3B
:103F6A00E79EE79EE79EE79EE79EDF7EDF7ED75DC0
:103F7A00D75DDF9EE7FFA5F8110718E3C502FD60CC
:103F8A00D3E6EEDBFFFFFFFFFFFFFFFFFFFFFFFFB1
:103F9A00FFFFFFFFFFFFFFFFF79EBA84FCC1FE424F
:103FAA00FE82FEA2838121457474C75EDFDFD77E5D
:103FBA00D75ED75DD75ED75ED75DD75DD75EDF9E0A
:103FCA00E7FFC73D63F108845242E626FF29FE86D1
:103FDA00F3E0C36AFFFFFFFFFFFFFFFFFFFFFFFFE3
:103FEA00FFFFFFFFFFFFFFFFDE18D2C1FDA2FE2287
:103FFA00FE42FE42FE62D4E26A4142497453A63B43
:10400A00C73ED7BFD7BFD7BFDFBFD7BFC73EA61AE6
:10401A0063F229A74182B422FE62FE83FEAAFF0F41
:10402A00FD67BA63EF3CFFFFFFFFFFFFFFFFFFFFE4
:10403A00FFFFFFFFFFFFFFFFE69AD280FD21FDC2CF
:10404A00F5E2F5C2F582FD82FD62DC619B216A849C
:10405A006AE9632C63AF7411636E632C5A89520444
:10406A007A81CBC2FCE2FD62FD82FDC2FDC2FDE4A3
:10407A00FD24CA62E71CFFFFFFFFFFFFFFFFFFFFF0
:10408A00FFFFFFFFFFFFFFFFFFFFCCB1D281F3C0AD
:10409A00FCC1FD02FD02FCE2FCC2FCC2FC81FB8009
:1040AA00C9C081A4AD35CE599C718121DA00FBA12A
:1040BA00FC82FCA2FC82FCA2FD02FD22FCE2FC00C6
:1040CA00DA60CC90FFFFFFFFFFFFFFFFFFFFFFFF5C
:1040DA00FFFFFFFFFFFFFFFFFFFFFFFFDE59C40DDA
:1040EA00CB06D2E4DB03DB03DAE3D2C3C2A4B3090F
:1040FA00BCD2F79EFFFFFFFFFFFFE6FBB40EBAA696
:10410A00D283E2E3EB02EB22E322DB03D2E4C36ACB
:10411A00D5B6FFFFFFFFFFFFFFFFFFFF0000000014
:10412A000000000000000000000000000000000085
:10413A000000000000000000000000000000000075
:10414A000000000000000000000000000000000065
:10415A000000000000000000000000000000000055
:10416A000000000000000000000000000000000045
:10417A000000000000000000000000000000000035
:10418A000000000000000000000000000000000025
:10419A000000000000000000000000000000000015
:1041AA000000000000000000000000000000000005
:1041BA0000000000000000000000000000000000F5
:1041CA0000000000000000000000000000000000E5
:105F2B00420185000042017E0001420183000242D2
:105F3B000187000342018107FF42017C07FF5E01DD
:105F4B0091000000000000000000000000000000B5
:105F5B0000000000000000000000000000000060D6
:105F6B00280128FFFFFFFFFFFFFFFFFFFFFFFFFFE2
:105F7B00FFFFFFFFFFFFFFFFFFFFFFFFFFFFFFFF26
:105F8B00FFFFFFFFFFFFFFFFFFFFFF41018000420D
:105F9B00017400054A0150000000000000000000E1
:105FAB000054015A00000000000000000000000037
:105FBB0000000000000000004201AF00CB42016E68
:075FCB00000042017000001C
:10686900759850438E40538EFE53890F758B8F75E3
:0E6879008DFDC2ABD28ED2ACD2AFE4F5A2221E
:080003008F993099FDC299228A
:0869B2008F993099FDC2992272
:106920001247A1FF600C120003740129F9E43AFA3E
:0369300080EE22D4
:10693300759A1075D78F75D6FD438E1475AF01D236
:02694300AF2281
:0869BA00200AFDD20A8F9B2286
:10679C00900284EBF0A3EAF0A3E9F0900284E0FB12
:1067AC00A3E0FAA3E0F91247A16017900284A3E4D6
:1067BC0075F001124857A9F0FA1247A1FF1269BAF5
:0367CC0080D9224F
:10688700438E805389F0758A80758C44C28DD28C73
:09689700D28CD2A9D2B9D2AF22F1
:10649400A2A3E433FF900128E025E04FF0A2A1E499
:1064A40033FFA3E025E04FF0A2B7E433FFA3E025D8
:1064B400E04FF0A2B5E433FFA3E025E04FF0E4FFA2
:1064C40074282FF582E43401F583E0FE700E749194
:1064D4002FF582E43401F583E4F08010BEFF0D74DF
:1064E400912FF582E43401F5837401F00FEFB40ABF
:0164F400CFD8
:0164F5002284
:1063460090000AEEF0A3EFF090017DE02F90017C23
:10635600E03EC3648094805017E4F0A3F09001807F
:1063660004F07BFF7A34791AE49000E5F0A3804DBF
:1063760090000AE0FEA3E0FF90017DE02FFD900172
:106386007CE03EFCD3ED94FFEC6480948740087477
:1063960007F0A374FFF02290017DE02FF090017CBE
:1063A600E03EF09001807401F07BFF7A34791A9018
:1063B600017CE0FFA3E09000E5CFF0A3EFF0124BE5
:0263C6000722AC
:1063C800900004EEF0A3EFF04E7002B2A290017EAE
:1063D800E0FEA3E0FF900004E0B5060BA3E0B507DC
:1063E8000674FFFFFE8018900187E0FEA3E0FF908F
:1063F8000004E0B5060CA3E0B507077F017E0002A4
:106408006346900183E0FEA3E0FF900004E0B50638
:1064180014A3E0B5070F90017CE0FFA3E090018191
:06642800CFF0A3EFF0220B
:10669F00AB07AA06900174E0FEA3E0FF7C007D0F1C
:1066AF001247F9C3EB9FEE6480F8EA6480985005B7
:1066BF007E007F0122900174E0FEA3E0FF7C007D4D
:1066CF001E1247F9C3EB9FEE6480F8EA6480987E50
:0966DF000050037F0A227F3222E1
:0E611900900004EEF0A3EFF0A3ECF0A3EDF085
:10612700E0246AF0900006E034FFF0E0FEA3E0FF11
:10613700C3EE64809480406612669F900008EEF07C
:10614700A3EFF0900174E0FCA3E0FD900006E0FEF1
:10615700A3E0FF12480BED4C704490017EE0FEA3D4
:10616700E0FF900004E0B50616A3E0B50711900024
:1061770008E0FEA3E0FFC3E49FFFE49EFE801C90BF
:106187000187E0FEA3E0FF900004E0B50610A3E05E
:0E619700B5070B900008E0FEA3E0FF12634680
:0161A50022D7
:10682500EF7005ED24FF92A2EFB40105ED24FF9270
:10683500A0EFB40205ED24FF92B6EFB40305ED24F5
:04684500FF92B422E8
:10694500900185E06E7003A3E06F60057D0112681C
:026955002522F9
:10695700900185E06E7003A3E06F6005E4FD1268A7
:026967002522E7
:105C0100E4900002F0A3F0900002E0FEA3E0FFC3E5
:105C11009406EE648094804003025CD874912FF561
:105C21008274013EF583E07067900002A3E0245086
:105C3100F58274013EF583E07014900002A3E02424
:105C410050F58274013EF5837401F01263C890002F
:105C510002E0FEA3E0FF126957900002E0FCA3E01E
:105C6100FD25E0FBEC33FA745A2BF58274013AF509
:105C710083E475F001124841AF05AE04745A2BF567
:105C81008274013AF583E0FCA3E0FD1261198033CF
:105C9100900002E0FEA3E0FF2450F58274013EF57E
:105CA10083E4F0EF25E0FFEE33FE745A2FF58274A2
:105CB100013EF583E4F0A3F0900002E0FEA3E0FFD3
:105CC100126945900003E004F06003025C08900053
:075CD10002E004F0025C0890
:015CD80022A9
:10642E009000E574FFF0A37434F0A37429F090018A
:10643E00AFE0FAA3E0FB7C007D0AFFAE0212480B30
:10644E009000E8EEF0A3EFF07C007D0AAF03AE0201
:10645E0012480BA3ECF0A3EDF07B017A0079021247
:10646E004B017B017A0079029000E974F8F0A3E405
:10647E00F074FFA3F0A3F0A37420F0E4A3F07D501A
:06648E00FCFFFE0262BCEF
:0169C80022AC
:105CD90078A47C007D017BFF7A4179267E007F3C98
:105CE90012477B90016EE07004A3E0640170030227
:105CF9005DA390016EE4F0A304F074FFFFFE12644B
:105D0900F69000E574FFF0A37434F0A37438F0A39F
:105D19007401F0FB7A0079A4124B01E49000E0F0E1
:105D2900A3F09000E0E0FEA3E0FFC3940AEE6480D4
:105D3900948050437C007D1E1247F9AC06AD077B69
:105D4900017A0079A49000E974F8F0A3E4F074FFF3
:105D5900A3F0A3F0A37420F0E4A3F0FFFE1262BC49
:105D69007F0A7E001268F89000E1E004F070B390B9
:105D790000E0E004F080AB7BFF7A34794E9000E9D3
:105D890074F8F0A3E4F074FFA3F0A3F0A37420F077
:0A5D9900E4A3F0FDFCFFFE1262BC63
:015DA30022DD
:105FD80078667C007D017BFF7A4179627E007F3C98
:105FE80012477B900170E07004A3E0640170030223
:105FF8006082900170E4F0A304F0E4FF7E1090004A
:1060080066742DF0A3DEFC7E007F10125CD97B0144
:106018007A0079669000E974F8F0A3E4F074FFA3BD
:10602800F0A3F0A37420F0E4A3F07D8CFCFFFE1233
:1060380062BC7B017A0079669000E974F8F0A3E409
:10604800F074FFA3F0A3F0A37420F0E4A3F07DB4F0
:10605800FCFFFE1262BC7BFF7A3479599000E97428
:10606800F8F0A3E4F074FFA3F0A3F0A37410F0E435
:0A607800A3F07DD2FCFFFE1262BC13
:0160820022FB
:10623200782A7C007D017BFF7A41799E7E007F3C3B
:1062420012477B90017DE0C4F8540FC868FF9001AB
:106252007CE0C454F048FE7C077DFF12480BE4FD4D
:10626200FCC3ED9FEE6480F8EC648098742A500DB4
:106272002DF58274003CF583743CF0800B2DF58281
:1062820074003CF5837420F00DBD00010CED641028
:106292004C70CE125FD87B017A00792A9000E974A3
:1062A200F8F0A3E4F074FFA3F0A3F0A37420F0E4E9
:0A62B200A3F07DA0FCFFFE0262BC19
:106607009000E574FFF0A37434F0A3747AF090015E
:106617007CE0FFA3E09000E8CFF0A3EFF07B017AE6
:10662700007902124B017B017A0079029000E9742C
:10663700F8F0A3E4F074FFA3F0A3F0A37420F0E450
:0D664700A3F07D78FCFFFE1262BC026232FF
:0969A9001269C812660702642E8F
:105DA400E4900000F0A3F07F64FE1268F8E4F59438
:105DB400759302F592F591F596F595F5B2F5B1F571
:105DC400B4F5B3F5CAF5C975CED075CDC0C291B2DC
:105DD400A27F32FE1268F81253551268691268875E
:105DE4007F327E001268F8900008E4F0A374F0F0AB
:105DF40074FFA3F0A3F07B407A01E4FDFCFFFE12E4
:105E040060837BFF7A34798F124B077F327E0012D6
:105E140068F8126494125C017F017E001268F890A5
:105E24000180E0B4010EE4F01269A9E4900000F0EE
:105E3400A3F0800E900001E004F07006900000E0F2
:105E440004F0900000E475F001124857FED3E5F029
:105E540094F4EE6480948140B9E4900000F0A3F0DF
:085E64001268A01269A980AACE
:10676500900189E475F001124857FC74B125F0F5E4
:106775008274013CF583EFF0D390018AE094509048
:106785000189E0648094804004E4F0A3F0900172F4
:07679500E4F0A3740AF022F6
:1066540090011F74FFF0A37434F0A3749DF0125ED4
:106664006C900119EBF0A3EAF0A3E9F04A602B7BEC
:10667400FF7A34799D1268E3900119E0FBA3E0FAF4
:10668400A3E02FF9EA3EFA125B26EFF47002EEF46F
:0A66940060089001AFEEF0A3EFF0F4
:01669E0022D9
:106849007B017A0179B11266547E007F647D007BF9
:10685900017A0179B1124A1BE4900189F0A3F0226F
:1067FD00D3900173E09400900172E0648094804026
:10680D0016A3E024FFF0900172E034FFF0E0700277
:08681D00A3E070031268492298
:1068A0007F0A7E001268F87BFF7A34799D124B07CD
:0768B0007F287E000268F85A
:030023000267CFA2
:1067CF00C0E0C0F0C083C082C0D075D000C000C090
:1067DF0004C007309807C298AF99126765D007D0E9
:0E67EF0004D000D0D0D082D083D0F0D0E032E1
:03000B0002672A5F
:10672A00C0E0C0F0C083C082C0D075D000C000C035
:10673A0001C002C003C004C005C006C0071267FD3D
:10674A00D007D006D005D004D003D002D001D000A3
:0B675A00D0D0D082D083D0F0D0E0324D
:1000260000000000000000000000000000000404C2
:10003600040404000004000014140A000000000078
:100046000000000000000A0A1F0A0A1F0A0A000030
:1000560000040E1505060C14150E040000001215FA
:100066000D152E2C2A1200000000040A0A3615155A
:100076002916000002020100000000000000000036
:100086001008080404040404080810000204040804
:10009600080808080404020000000004150E0E15E6
:1000A6000400000000000008083E080800000000E8
:1000B6000000000000000000020201000000000035
:1000C600003F0000000000000000000000000000EB
:1000D60000020000002010100808040402020100BB
:1000E60000000E1111111111110E0000000004067E
:1000F60004040404040E000000000E11110804029A
:10010600011F000000000E11100C1010110E00004F
:100116000000080C0C0A091F081C000000001F0143
:10012600010F1110110E000000000C12010D131129
:10013600110E000000001E1008080404040400004C
:1001460000000E11110E1111110E000000000E110B
:100156001119161009060000000000000400000036
:100166000004000000000000000400000004040079
:10017600000010080402020408100000000000003D
:100186003F003F00000000000000020408101008B5
:100196000402000000000E1111080404000400000F
:1001A60000001C22292D2D1D221C00000000040425
:1001B6000C0A0A1E1233000000000F12120E121251
:1001C600120F000000001E1101010101110E0000B6
:1001D60000000F1212121212120F000000001F125E
:1001E6000A0E0A02121F000000001F120A0E0A025F
:1001F6000207000000001C1201013911120C000058
:1002060000003312121E12121233000000001F04E7
:1002160004040404041F000000003E08080808083F
:1002260008080907000037120A060A1212370000EA
:100236000000070202020202223F000000003B1BF0
:100246001B1B15151535000000003B1216161A1A51
:100256001217000000000E1111111111110E0000ED
:1002660000000F12120E02020207000000000E111B
:1002760011111117190E180000000F12120E0A1292
:100286001237000000001E1101060810110F0000B1
:1002960000001F1504040404040E000000003312BD
:1002A60012121212120C000000003312120A0A0C6B
:1002B600040400000000151515150E0A0A0A0000B0
:1002C60000001B0A0A04040A0A1B000000001B0A9D
:1002D6000A0A0404040E000000001F0908040402B0
:1002E600121F00001C0404040404040404041C007B
:1002F6000002020404040808081010000E0808088A
:100306000808080808080E00040A0000000000009B
:100316000000000000000000000000000000003F98
:1003260002040000000000000000000000000000C1
:10033600000C121C123C000000030202020E1212F4
:10034600120E000000000000001C1202120C000039
:1003560000181010101C1212123C000000000000C1
:10036600000C121E021C000000182404041E0404C3
:10037600041E000000000000003C120C021C221C9F
:1003860000030202020E12121237000000040400DB
:1003960000060404040E000000080800000C08080B
:1003A6000808080700030202021A0A060A130000D8
:1003B6000007040404040404041F000000000000F5
:1003C600000F15151515000000000000000F121291
:1003D6001237000000000000000C1212120C000080
:1003E60000000000000F1212120E020700000000AB
:1003F600001C1212121C103800000000001B06021E
:100406000207000000000000001E020C101E000083
:1004160000000004041E0404041C00000000000088
:10042600001B1212123C000000000000001B0A0A0A
:1004360004040000000000000015150E0A0A000062
:1004460000000000001B0A040A1B00000000000058
:10045600003312120C08040300000000001E0804FA
:10046600041E000018080808080C080808081800E8
:100476000808080808080808080808080604040404
:100486000408040404040600160900000000000025
:100496000000000000000000000000000000000056
:1004A600000000000000000808080808080800000E
:1004B6001818000000486C2412000000000000001C
:1004C600000000000000002424247F1212127F1274
:1004D600121200000000081C2A2A0A0C1828282AD2
:1004E6002A1C080800000022251515152A58545400
:1004F600542200000000000C1212120A762529115F
:10050600916E0000000606040300000000000000D3
:100516000000000000402010100808080808081015
:1005260010204000000204080810101010101008D7
:10053600080402000000000008086B1C1C6B080879
:100546000000000000000000080808087F080808EE
:10055600080000000000000000000000000000008D
:10056600060604030000000000000000FE00000074
:100576000000000000000000000000000000000075
:1005860006060000000080404020201010080804E5
:100596000402020000000018244242424242424243
:1005A60024180000000000080E08080808080808BB
:1005B600083E00000000003C424242202010080491
:1005C600427E00000000003C42422018204040428B
:1005D600221C0000000000203028242422227E2035
:1005E600207800000000007E0202021A26404042E7
:1005F600221C0000000000382402021A2642424251
:10060600241800000000007E2222101008080808A6
:10061600080800000000003C4242422418244242DE
:10062600423C000000000018244242426458404008
:10063600241C000000000000000018180000000044
:10064600181800000000000000000008000000006C
:1006560000080804000000402010080402040810E6
:10066600204000000000000000007F0000007F0026
:1006760000000000000000020408102040201008BE
:10068600040200000000003C4242464020101000D8
:10069600181800000000001C225A555555552D42C9
:1006A600221C00000000000808181414243C2242F2
:1006B60042E700000000001F2222221E2242424280
:1006C600221F00000000007C42420101010101429C
:1006D600221C00000000001F2242424242424242C7
:1006E600221F00000000003F4212121E1212024298
:1006F600423F00000000003F4212121E1212020288
:10070600020700000000003C2222010101712122A3
:10071600221C0000000000E7424242427E42424262
:1007260042E700000000003E08080808080808081C
:10073600083E00000000007C101010101010101071
:100746001010110F0000007722120A0E0A12122250
:1007560022770000000000070202020202020202E3
:10076600427F000000000077363636362A2A2A2ACB
:100776002A6B0000000000E346464A4A5252526283
:10078600624700000000001C2241414141414141B5
:10079600221C00000000003F424242423E0202028A
:1007A600020700000000001C2241414141414D5317
:1007B600321C60000000003F4242423E12122222DA
:1007C60042C700000000007C42420204182040425A
:1007D600423E00000000007F490808080808080893
:1007E600081C0000000000E74242424242424242E8
:1007F600423C0000000000E7424222242414141860
:10080600080800000000006B494949495555362241
:1008160022220000000000E742242418181824248D
:1008260042E7000000000077222214140808080896
:10083600081C00000000007E21201010080404425D
:10084600423F000000780808080808080808080859
:1008560008087800000002020404080808101020A6
:1008660020204040001E1010101010101010101004
:1008760010101E00003844000000000000000000B8
:100886000000000000000000000000000000000062
:10089600000000FF00060800000000000000000045
:1008A60000000000000000000000003C42784442C6
:1008B60042FC0000000000030202021A26424242E5
:1008C600261A000000000000000000384402020260
:1008D60044380000000000604040407844424242F4
:1008E60064D80000000000000000003C427E0202C6
:1008F600423C0000000000F08808087E080808084E
:10090600083E0000000000000000007C22221C02BD
:100916003C42423C000000030202023A4642424286
:1009260042E700000000000C0C00000E0808080852
:10093600083E000000000030300000382020202053
:100946002020221E0000000302020272120A161262
:10095600227700000000000E0808080808080808AA
:10096600083E0000000000000000007F9292929274
:1009760092B70000000000000000003B46424242E1
:1009860042E70000000000000000003C42424242F4
:10099600423C0000000000000000001B26424242CC
:1009A600221E020700000000000000784442424276
:1009B600447840E000000000000000774C04040486
:1009C600041F0000000000000000007C42023C40C2
:1009D600423E0000000000000008083E0808080823
:1009E600083000000000000000000063424242425E
:1009F60062DC000000000000000000E7422424142E
:100A06000808000000000000000000EB49495555A9
:100A160022220000000000000000007624181818AA
:100A2600246E000000000000000000E742242414A9
:100A360018080807000000000000007E22100808C1
:100A4600447E000000C020202020201020202020EE
:100A56002020C000101010101010101010101010D0
:100A660010101010000608080808081008080808E2
:100A7600080806000C32C20000000000000000005A
:100A86000000000000000000000000000000000060
:100A96000000000000000000000000000000000050
:100AA6000000000000000000000000000000000040
:100AB6000000000000000000000000006000600070
:100AC60060006000600060006000400020002000C0
:100AD60020000000000000006000600060000000D0
:100AE6000000000000000000600660063003980168
:100AF6008800440000000000000000000000000024
:100B060000000000000000000000000000000000DF
:100B160000000000000000000000000010021002AB
:100B260010021002FE07FE0708020801080108016C
:100B36000801FE07FE070401040104010401000088
:100B46000000000000000000000040004000F0012E
:100B560058034C03CC034C0058007000E000C00161
:100B6600C00140034C035C034C034801F000400005
:100B76004000000000000000000000000E010A0115
:100B8600910091009100510051003A00AE03A0027D
:100B960050045004480448044804840284030000B6
:100BA60000000000000000000000000038006C009B
:100BB6006C006C006C006C002C0098071C011A017C
:100BC600330133016301E300C308C6093C07000093
:100BD60000000000000000000C001C0010001000C7
:100BE60008000400000000000000000000000000F3
:100BF60000000000000000000000000000000000EF
:100C06000000000000000000000400020001800057
:100C1600800040004000200020002000200020002E
:100C260020002000400040008000800000010002FB
:100C3600000400000000000002000400080010008C
:100C4600100020002000400040004000400040000E
:100C560040004000200020001000100008000400A2
:100C6600020000000000000000000000000000007C
:100C76004000C0004000460C4E0FD001F0015E0F50
:100C8600460C40004000400000000000000000004C
:100C9600000000000000000000000000000000004E
:100CA600000040004000400040004000FE0F4000B1
:100CB600400040004000400000000000000000002E
:100CC600000000000000000000000000000000001E
:100CD600000000000000000000000000000000000E
:100CE60000000000000000000C001C0010001000B6
:100CF60008000400000000000000000000000000E2
:100D0600000000000000000000000000FE070000D8
:100D160000000000000000000000000000000000CD
:100D260000000000000000000000000000000000BD
:100D360000000000000000000000000000000000AD
:100D460000000000000000001C001C001C00000049
:100D5600000000000000000000040006000200037E
:100D6600000100018000800040004000600020007B
:100D7600200010001000080008000C000400060007
:100D86000200000000000000000000000000F0006B
:100D960098010C030C03060606060606060606065A
:100DA6000606060606060C030C039801F000000072
:100DB60000000000000000000000000000004000ED
:100DC6007C00600060006000600060006000600001
:100DD600600060006000600060006000FC030000CE
:100DE6000000000000000000000000000000F80005
:100DF6008401020306030603000300018001C0000C
:100E0600600020001000080204020602FE03000033
:100E16000000000000000000000000000000780054
:100E2600C6008601860180018001C0007000800135
:100E3600000100030003060306038601F800000014
:100E4600000000000000000000000000000080011B
:100E56008001C001A001A0019001880188018401E0
:100E66008201FE0F8001800180018001E007000001
:100E76000000000000000000000000000000FC036D
:100E860004000400040004000400F4008C010403C0
:100E9600000300030603060382018401F800000034
:100EA6000000000000000000000000000000E0015B
:100EB60018030C030C0004000600E60116030E06D8
:100EC60006060606060604060C021803F0000000D5
:100ED6000000000000000000000000000000F8070D
:100EE6000C0604020401000100018000800040009D
:100EF600400040006000600060006000600000008C
:100F06000000000000000000000000000000F801E2
:100F16000C030606060606060C021C03F000C801B2
:100F26000C0306060606060606060C03F00100007C
:100F36000000000000000000000000000000F000BB
:100F46000C010C03060206060606060606078C06B4
:100F560078060006000300030C018C0178000000EF
:100F6600000000000000000000000000000000007B
:100F76000000000000000000E000E000E0000000CB
:100F86000000000000000000E000E000E0000000BB
:100F9600000000000000000000000000000000004B
:100FA600000000000000000060006000000000007B
:100FB600000000000000000000006000600040002B
:100FC60020002000000000000000000000040002D5
:100FD6000001800040002000100008000400080006
:100FE6001000200040008000000100020004000004
:100FF60000000000000000000000000000000000EB
:101006000000000000000000FE07000000000000D5
:10101600FE070000000000000000000000000000C5
:1010260000000000000000000000000004000800AE
:1010360010002000400080000001000200040002B1
:10104600000180004000200010000800040000009D
:101056000000000000000000000000000000E003A7
:101066001806040C040C0C0C0C0C00078001400044
:101076004000400000000000E000E000E00000004A
:10108600000000000000000000000000E00018035F
:101096000C02CC0564056605A605B604B604B604BE
:1010A600B604B602E4010C040C021803F0000000BA
:1010B60000000000000000000000000000006000CA
:1010C60060005000D0009000900088008801080160
:1010D600F801040304030402020202060F0F0000D3
:1010E6000000000000000000000000000000FE00FC
:1010F6008C030C030C030C030C038C01FC000C0387
:101106000C020C060C060C060C060C03FE01000075
:101116000000000000000000000000000000E003E6
:1011260018030C060C04040406000600060006005C
:101136000600060006040C040C021803F00000006A
:1011460000000000000000000000000000007F001A
:101156008C010C030C030C060C060C060C060C0684
:101166000C060C060C060C030C038C017F00000019
:101176000000000000000000000000000000FF0367
:10118600060306040604060086008600FE008600A6
:10119600860086000600060406040602FF03000019
:1011A6000000000000000000000000000000FF0337
:1011B600060306040604060086008600FE00860076
:1011C6008600860006000600060006001F000000D6
:1011D6000000000000000000000000000000F00019
:1011E60018010C020C0204020600060006000600A6
:1011F600C60F060306030C030C031803F0000000D9
:1012060000000000000000000000000000000F0FBA
:10121600060606060606060606060606FE0706066F
:101226000606060606060606060606060F0F000052
:101236000000000000000000000000000000FC03A9
:101246006000600060006000600060006000600098
:10125600600060006000600060006000FC03000049
:101266000000000000000000000000000000F80779
:10127600C000C000C000C000C000C000C000C00068
:10128600C000C000C000C000C000C000C000C60052
:1012960066003C0000000000000000000000CF03D4
:1012A6008601C60046002600160036002E006E0097
:1012B6004600C60086008601060106038F07000069
:1012C60000000000000000000000000000001F00F9
:1012D60006000600060006000600060006000600D8
:1012E600060006000600060406040602FF030000C8
:1012F60000000000000000000000000000000707DA
:10130600860386038E038E034E034E034A035A0357
:101316005A033A03320332033203120387070000EB
:1013260000000000000000000000000000008E0F1A
:101336000C021C021C0234023402640264024402DF
:10134600C402840284038403040304031F0200000E
:101356000000000000000000000000000000F00097
:1013660098010C030C020606060606060606060685
:101376000606060606060C020C039801F00000009D
:101386000000000000000000000000000000FF0058
:101396000603060606060606060606068603FE007B
:1013A6000600060006000600060006001F000000F4
:1013B6000000000000000000000000000000F00037
:1013C60098010C030C020606060606060606060625
:1013D6000606060676064C02CC039801F000800746
:1013E6000003000000000000000000000000FF01F4
:1013F600060306060606060606060603FE00460061
:10140600C600860086010603060306060F0E0000C8
:101416000000000000000000000000000000F802CC
:101426000C030602060206000E003C00F800E0036C
:10143600800300070206020606060C03F001000000
:101446000000000000000000000000000000FE0791
:10145600620461086108600060006000600060006E
:10146600600060006000600060006000F80100003D
:1014760000000000000000000000000000001E0741
:101486000C020C020C020C020C020C020C020C02E6
:101496000C020C020C020C020C021801F0000000F7
:1014A60000000000000000000000000000000F0720
:1014B6000602040104010C010C0188008800980052
:1014C60098005000500070003000200020000000FE
:1014D6000000000000000000000000000000F70E01
:1014E600620442044604460464026402E402E4021E
:1014F6009C029C01980198018801880088000000E0
:1015060000000000000000000000000000009E0730
:101516000C01080118019000B00060002000600076
:101526006000D00090008801080104038E070000C7
:1015360000000000000000000000000000000F0F87
:10154600060404020C0208011801B800B00070007D
:10155600600060006000600060006000F80100004C
:101566000000000000000000000000000000FC0772
:101576000C020603020180018000400040002000AA
:1015860020001000180008040C040402FE030000EA
:101596000000000000000000E00320002000200002
:1015A6002000200020002000200020002000200035
:1015B6002000200020002000200020002000200025
:1015C600E00300000000000000000000040004002A
:1015D6000800080010001000100020002000400045
:1015E6004000C000800080000001000100020002EF
:1015F60000020004000000007C00400040004000A3
:1016060040004000400040004000400040004000D4
:1016160040004000400040004000400040004000C4
:101626007C0000000000600090000801000000003F
:1016360000000000000000000000000000000000A4
:101646000000000000000000000000000000000094
:101656000000000000000000000000000000000084
:101666000000000000000000000000000000000074
:101676000000000000000000000000000000000064
:101686000000FF0F000000001800600000000000CE
:101696000000000000000000000000000000000044
:1016A6000000000000000000000000000000000034
:1016B6000000000000000000000000000000000024
:1016C6000000000000000000F0010C030C03000302
:1016D600E0031C030E03060306038E0B7C0E0000BC
:1016E60000000000000000000000000008000E00DE
:1016F6000C000C000C000C00CC013C031C060C0674
:101706000C060C060C060C060C021C03E401000079
:1017160000000000000000000000000000000000C3
:101726000000000000000000F0008C018C01860122
:1017360006000600060006020C020C01F00000007E
:101746000000000000000000000000000002C003CE
:10175600000300030003000378038C030C03060355
:10176600060306030603060304038C07780100003C
:101776000000000000000000000000000000000063
:101786000000000000000000E001180308020C063B
:101796000C06FC070C000C0018041802E0010000FF
:1017A6000000000000000000000000000000C00370
:1017B6006006300630003000FE0130003000300098
:1017C600300030003000300030003000FC010000F6
:1017D6000000000000000000000000000000000003
:1017E6000000000000000000F007D8068C018C0104
:1017F6008C019801F8000C00FC00CC0306030603DC
:101806008E03F800000000000000000008000E0033
:101816000C000C000C000C00EC011C030C030C0368
:101826000C030C030C030C030C030C039E070000B3
:101836000000000000000000000000000000600042
:1018460060000000000040007C0060006000600056
:10185600600060006000600060006000FC03000043
:101866000000000000000000000000000000C001B1
:10187600C001000000000001F0018001800180012C
:10188600800180018001800180018001800180014A
:10189600CC007C00000000000000000008000E00E4
:1018A6000C000C000C000C008C038C008C004C000F
:1018B6006C005C008C008C010C010C039E07000080
:1018C60000000000000000000000000040007C0056
:1018D6006000600060006000600060006000600002
:1018E600600060006000600060006000FC030000B3
:1018F60000000000000000000000000000000000E2
:1019060000000000000000003707EE0666066606C7
:10191600660666066606660666066606FF0F00002B
:1019260000000000000000000000000000000000B1
:101936000000000000000000EE011C030C030C0375
:101946000C030C030C030C030C030C039E07000092
:101956000000000000000000000000000000000081
:101966000000000000000000F00098010C030606CD
:1019760006060606060606060C030C03F000000023
:101986000000000000000000000000000000000051
:101996000000000000000000EE011C030C060C060F
:1019A6000C060C060C060C060C031C03EC010C00C2
:1019B6000C003E00000000000000000000000000D7
:1019C600000000000000000078028C030C030603F0
:1019D600060306030603060304038C0378030003C9
:1019E6000003C00700000000000000000000000027
:1019F60000000000000000009F035806380618008B
:101A0600180018001800180018001800FF00000041
:101A160000000000000000000000000000000000C0
:101A26000000000000000000F0031C030C020C0282
:101A36003800F000C003040304038C03FC0100001B
:101A46000000000000000000000000000000000090
:101A56002000200030003000FE0130003000300051
:101A6600300030003000300030023002E00100006B
:101A76000000000000000000000000000000000060
:101A860000000000000008028E030C030C030C0388
:101A96000C030C030C030C030C039C0778010000D9
:101AA6000000000000000000000000000000000030
:101AB60000000000000000001E070C0208010801DB
:101AC60018019000B000B000600060002000000027
:101AD6000000000000000000000000000000000000
:101AE6000000000000000000F70E620446046402D5
:101AF6006402EC029C01980198019801080000001C
:101B060000000000000000000000000000000000CF
:101B16000000000000000000BC0718011001B00022
:101B260060006000E0009000080108039E070000C6
:101B3600000000000000000000000000000000009F
:101B460000000000000000009E07080108010801CF
:101B560090009000B000600060006000200020004F
:101B660024001C000000000000000000000000002F
:101B76000000000000000000FC018401C4004400D5
:101B8600600020003000180208020C03FC0100006F
:101B960000000000000000000003800080008000BC
:101BA600800080008000800080004000200040000F
:101BB600800080008000800080008000800080001F
:101BC600000300004000400040004000400040008C
:101BD60040004000400040004000400040004000FF
:101BE60040004000400040004000400040004000EF
:101BF60040004000000000000C0010001000100023
:101C060010001000100010001000200040002000FE
:101C1600100010001000100010001000100010003E
:101C26000C00000000001C002204C2048003000017
:101C3600000000000000000000000000000000009E
:101C4600000000000000000000000000000000008E
:101C5600000000000000000000000000000000007E
:101C6600000000000000000000000000000000006E
:101C7600000000000000000000000000000000005E
:101C8600000000000000000000000000000000004E
:101C96000000000000000000000000000000C0017D
:101CA600C001C001C001C001C001C00180008000A8
:101CB600800080008000800080000000000000009E
:101CC60000008001C003C003800100000000000086
:101CD60000000000000000000000E01CE01CF01EF8
:101CE600700E380718030801840000000000000089
:101CF60000000000000000000000000000000000DE
:101D060000000000000000000000000000000000CD
:101D160000000000000000000000000000000000BD
:101D260020102010201020102010FE7FFE7F1008AB
:101D3600100810081008100810081008FE7FFE7F13
:101D46000804080408040804080400000000000051
:101D5600000000000000000000000000000100017B
:101D6600C007601910311831183918393801700157
:101D7600E001C0038007000F001D003900311C314F
:101D86001C310C310C11180DE00700010001000197
:101D9600000000000000000000000000000000003D
:101DA6001C1036186308630C630463046302630241
:101DB6006301361D9C378022806340634063206345
:101DC6002063306310221836081C00000000000053
:101DD60000000000000000000000000000000000FD
:101DE600F00098018C018C018C018C018C00CC00D8
:101DF6007800183E1C083608320863046304C304DE
:101E0600C303834306438E26781C000000000000AF
:101E1600000000000000000000001C003C003C0028
:101E26003000300010000C0006000000000000002A
:101E3600000000000000000000000000000000009C
:101E4600000000000000000000000000000000008C
:101E5600000000000000000000000040002000100C
:101E66000008000C000400060003000300038001C4
:101E760080018001800180018001800180010003D2
:101E86000003000300060006000C000800100020F6
:101E960000400000000000000000020004000800EE
:101EA6001000300020006000C000C000C0008001AB
:101EB6008001800180018001800180018001C000D5
:101EC600C000C00060006000300010000800040080
:101ED60002000000000000000000000000000000FA
:101EE6000000000000018003800300011C713C79A2
:101EF600783DC0070001C007783D3C791C710001A0
:101F06008003800380010000000000000000000044
:101F160000000000000000000000000000000000BB
:101F260000000000000000010001000100010001A6
:101F360000010001FC7F0001000100010001000119
:101F46000001000100000000000000000000000089
:101F5600000000000000000000000000000000007B
:101F6600000000000000000000000000000000006B
:101F7600000000000000000000000000000000005B
:101F8600000000001C003C003C0030003000100047
:101F96000C00060000000000000000000000000029
:101FA600000000000000000000000000000000002B
:101FB60000000000FE7F000000000000000000009E
:101FC600000000000000000000000000000000000B
:101FD60000000000000000000000000000000000FB
:101FE60000000000000000000000000000000000EB
:101FF60000000000000000000000000000000000DB
:10200600000018003C003C00180000000000000022
:1020160000000000000000000000004000600020FA
:102026000030001000180008000C00040006000232
:102036000003000180018000C00040006000200015
:1020460030001000180008000C0004000600020012
:10205600000000000000000000000000000000007A
:10206600C007600C30181830183018200C600C604F
:102076000C600C600C600C600C600C600C6018202E
:10208600183018303018600CC0070000000000003F
:10209600000000000000000000000000000000003A
:1020A60000018001F801800180018001800180012A
:1020B6008001800180018001800180018001800112
:1020C600800180018001C003F81F000000000000AD
:1020D60000000000000000000000000000000000FA
:1020E600E007101C0818043004300C300C300030A7
:1020F60000180008000400020001800040002020B3
:10210600102008200430FC1FFC1F00000000000007
:1021160000000000000000000000000000000000B9
:10212600E003180E0C0C0C180C180C180018000CF8
:102136000006C003000E00180010003000300C30FE
:102146000C300C100C18180CE00300000000000006
:102156000000000000000000000000000000000079
:10216600000C000E000E000F800E800E400E600E5A
:10217600200E100E100E080E040E040EFE7F000E2A
:10218600000E000E000E000E000EC07F00000000C4
:102196000000000000000000000000000000000039
:1021A600F03FF03F10001000100008000800C807BC
:1021B600280C1818081000300030003000300C30A1
:1021C6000C3004180418080CF0030000000000008E
:1021D60000000000000000000000000000000000F9
:1021E600800FC010203010301800180008000C00B6
:1021F6008C0F6C183C301C600C600C600C600C6022
:102206001860182030306018C00700000000000079
:1022160000000000000000000000000000000000B8
:10222600F83FF83F1C100C080408040400040002E0
:102236000002000100010001800080008000C00053
:10224600C000C000C000C000C000000000000000C8
:102256000000000000000000000000000000000078
:10226600E007300C18180C300C300C301C303818C5
:102276007008E007B007180E0C1C0638063006304A
:10228600063006300C18180CE003000000000000B1
:102296000000000000000000000000000000000038
:1022A600E00318040C080C18061006300630063039
:1022B600063006380C3C1836F0310030001800188D
:1022C60000180C0C0C060C03F001000000000000C6
:1022D60000000000000000000000000000000000F8
:1022E6000000000000000000000000000000800167
:1022F600C003C003800100000000000000000000D1
:1023060000008001C003C00380010000000000003F
:1023160000000000000000000000000000000000B7
:102326000000000000000000000000000000C000E7
:10233600C0000000000000000000000000000000D7
:10234600000000000000C000C000800080004000C7
:102356004000000000000000000000000000002017
:10236600001000080004000600038001C0006000A1
:10237600300018000C00180030006000C00080011A
:102386000003000600040008001000200000000002
:102396000000000000000000000000000000000037
:1023A6000000000000000000000000000000FE7FAA
:1023B60000000000000000000000FE7F000000009A
:1023C6000000000000000000000000000000000007
:1023D60000000000000000000000000000000400F3
:1023E6000800100020006000C00080010003000605
:1023F600000C001800300018000C000600038001D5
:10240600C00060002000100008000400000000006A
:102416000000000000000000000000000000C007EF
:102426003018083008600C601C601C601C600030AE
:10243600001C000600018000800080008000000073
:1024460000008001C003C0038001000000000000FE
:102456000000000000000000000000000000000076
:10246600C0076018103018200C2F8C4D864CC64CB7
:10247600C64C664C66446644662666266615CC1CC3
:102486000C40082018303018C0070000000000007B
:102496000000000000000000000000000000000135
:1024A600C001C001C00140016003200320032003D6
:1024B6003006100610061006F80F080C080C080C5B
:1024C6000C0C0418041806181F7C000000000000FD
:1024D60000000000000000000000000000000000F6
:1024E600FE07181C1838183018301830183018180D
:1024F600180CF8071818183018201860186018609B
:102506001860186018301818FE0F00000000000050
:1025160000000000000000000000000000000000B5
:10252600C0276038103018200C400C40040006000C
:1025360006000600060006000600060006000C401F
:102546000C400C2018303018C007000000000000B6
:102556000000000000000000000000000000000075
:10256600FE03180E18181830183018301860186046
:1025760018601860186018601860186018601830C5
:10258600183018101818180EFE030000000000007E
:102596000000000000000000000000000000000035
:1025A600FE3F183018201860184018001808180840
:1025B600180CF80F180C180818081800180018003E
:1025C6001840184018201830FE3F00000000000098
:1025D60000000000000000000000000000000000F5
:1025E600FE7F1870184018C01880180018101810B0
:1025F6001818F81F181818101810180018001800C6
:1026060018001800180018007E00000000000000E6
:1026160000000000000000000000000000000000B4
:10262600C013701C101018100C200C20040006009B
:10263600060006000600060006FC063006300C30D2
:102646000C30183018303008C007000000000000B9
:102656000000000000000000000000000000000074
:102666003F7E0C180C180C180C180C180C180C18AB
:102676000C180C18FC1F0C180C180C180C180C183D
:102686000C180C180C180C183F7E000000000000F7
:102696000000000000000000000000000000000034
:1026A600F81F800180018001800180018001800186
:1026B600800180018001800180018001800180010C
:1026C6008001800180018001F81F000000000000E9
:1026D60000000000000000000000000000000000F4
:1026E600E07F00060006000600060006000600065B
:1026F60000060006000600060006000600060006A4
:102706000006000600060006000600060E060E037A
:102716008E01FC0000000000000000000000000028
:102726007E7C181818081804180618021801980153
:102736009801D801B803380318071806180E180CA4
:10274600181C1818183018307EFC00000000000015
:102756000000000000000000000000000000000073
:102766007E0018001800180018001800180018003D
:102776001800180018001800180018001800180093
:102786001840184018201830FE3F000000000000D6
:102796000000000000000000000000000000000033
:1027A6001FF81C381C381C381C3C34343434343480
:1027B600343674326432643264326431C431C431C2
:1027C600C431C430C43084309FFC000000000000D7
:1027D60000000000000000000000000000000000F3
:1027E6001F7C1C103C103410341074106410E4105C
:1027F600C410C41184118413041304170416041E90
:10280600041C041C041C04181F180000000000000F
:1028160000000000000000000000000000000000B2
:10282600C003300C181808100C300C300660066017
:1028360006600660066006600660066006600C209C
:102846000C3008101818300CC003000000000000FF
:102856000000000000000000000000000000000072
:10286600FE0F181818301860186018601860186085
:1028760018301818F80F180018001800180018005B
:1028860018001800180018007E0000000000000064
:102896000000000000000000000000000000000032
:1028A600C003300C18180C100C300C2006600660A3
:1028B6000660066006600660066006600660E46103
:1028C6002C331C321816300EC007004C007C003822
:1028D60000000000000000000000000000000000F2
:1028E600FE07181C18381830183018301830181809
:1028F600180CF80798031803180718061806180E78
:10290600180C180C181C18187E780000000000001F
:1029160000000000000000000000000000000000B1
:10292600E027303818300C200C200C000C00180062
:102936007800E003800F001E00380070006004601D
:102946000460086018303818C80F00000000000046
:102956000000000000000000000000000000000071
:10296600FC3F8C218461824182418001800180018B
:102976008001800180018001800180018001800149
:102986008001800180018001E00700000000000056
:102996000000000000000000000000000000000031
:1029A6003F7C0C100C100C100C100C100C100C10A2
:1029B6000C100C100C100C100C100C100C100C1031
:1029C6000C100C1008083804E0030000000000009A
:1029D60000000000000000000000000000000000F1
:1029E6003EF8182018201820301030103010301003
:1029F600600860086008E00CC004C004C0048003DE
:102A06008003800380030001000100000000000035
:102A160000000000000000000000000000000000B0
:102A2600DFF38661862186218C210C218C238C1371
:102A36008C138C134C1358125816580E380E380E29
:102A4600380E300C100410041004000000000000C2
:102A56000000000000000000000000000000000070
:102A66007E3E180838083004300470026002E00127
:102A7600C001C001800180034003400720062006F4
:102A8600100C100C081808183E7C0000000000000E
:102A96000000000000000000000000000000000030
:102AA6007E7C1C10181018083008300C7004600466
:102AB6006002C002C002C001800180018001800165
:102AC6008001800180018001E00700000000000015
:102AD60000000000000000000000000000000000F0
:102AE600F83F18180818040C040E00060007000327
:102AF60080038001C001C000E0006000700030006B
:102B0600382018201C100C18FE1F000000000000C2
:102B160000000000000000000000C03F4000400030
:102B2600400040004000400040004000400040009F
:102B3600400040004000400040004000400040008F
:102B46004000400040004000400040004000C03FC0
:102B56000000000000000000000000000000080067
:102B660018001800100030002000600060004000CF
:102B7600C000800080018001000100030002000601
:102B860000060004000C00080018001800100030B1
:102B960000200000000000000000FC03000200020C
:102BA600000200020002000200020002000200020F
:102BB60000020002000200020002000200020002FF
:102BC6000002000200020002000200020002FC03F2
:102BD600000000000000000000008007C00620087A
:102BE60010100000000000000000000000000000BF
:102BF60000000000000000000000000000000000CF
:102C060000000000000000000000000000000000BE
:102C160000000000000000000000000000000000AE
:102C2600000000000000000000000000000000009E
:102C3600000000000000000000000000000000008E
:102C4600000000000000000000000000000000007E
:102C56000000FFFF0000000000007800C000000137
:102C6600000000000000000000000000000000005E
:102C7600000000000000000000000000000000004E
:102C8600000000000000000000000000000000003E
:102C9600000000000000000000000000000000002E
:102CA6000000000000000000000000000000F0032B
:102CB60018060C0C0C0C000C800F700C1C0C0C0C69
:102CC600060C060C064C0C4FF838000000000000FD
:102CD60000000000000000000000000000001000DE
:102CE6001E00180018001800180018001800180F09
:102CF600D818383038601860186018601860186086
:102D06001860182038307818C80700000000000046
:102D160000000000000000000000000000000000AD
:102D26000000000000000000000000000000C007D6
:102D3600700C181818180C180C000C000C000C005D
:102D46000C20182018103008C007000000000000F2
:102D5600000000000000000000000000000000105D
:102D6600001E001800180018001800180018E01BB4
:102D7600301C181818180C180C180C180C180C18ED
:102D86000C180818181C307AE00900000000000032
:102D9600000000000000000000000000000000002D
:102DA6000000000000000000000000000000C00756
:102DB600300C181808100C300C30FC3F0C000C00BE
:102DC6000C00182018107018C00700000000000042
:102DD60000000000000000000000000000000000ED
:102DE600003E80C380C0C0C0C000C000C000FC1F41
:102DF600C000C000C000C000C000C000C000C000CD
:102E0600C000C000C000C000F80F000000000000B5
:102E160000000000000000000000000000000000AC
:102E26000000000000000000000000000000C07765
:102E3600306C10181818181818181018300CF007DD
:102E460018001800F00FF03F08700C600C600C6062
:102E56003838E00F000000000000000000001000FD
:102E66001E00180018001800180018001800980F07
:102E7600D818383018301830183018301830183044
:102E860018301830183018307EFC000000000000A2
:102E9600000000000000000000000000000000002C
:102EA6008003800380030000000000000001F80199
:102EB6008001800180018001800180018001800104
:102EC6008001800180018001F81F000000000000E1
:102ED60000000000000000000000000000000000EC
:102EE6000038003800380000000000000010801F85
:102EF600001800180018001800180018001800180C
:102F06000018001800180018001800180018180CEF
:102F16001806F0030000000000000000000010008A
:102F26001E00180018001800180018001800183E97
:102F3600180C1806180318019801D8013803180749
:102F46001806180C181C18187E7C000000000000DB
:102F5600000000000000000000000000000000016A
:102F6600F8018001800180018001800180018001DB
:102F76008001800180018001800180018001800143
:102F86008001800180018001F81F00000000000020
:102F9600000000000000000000000000000000002B
:102FA6000000000000000000000000000800EE1C09
:102FB6009C338C318C318C318C318C318C318C3111
:102FC6008C318C318C318C31DE7B000000000000AE
:102FD60000000000000000000000000000000000EB
:102FE60000000000000000000000000010001E0F9E
:102FF600D8183830183018301830183018301830C3
:1030060018301830183018307EFC00000000000020
:1030160000000000000000000000000000000000AA
:103026000000000000000000000000000000C007D3
:10303600701C103018300C600C600C600C600C605A
:103046000C60183018303018C0070000000000006F
:10305600000000000000000000000000000000006A
:1030660000000000000000000000000010009E0F9D
:1030760058183830182018601860186018601860E2
:10308600186018303830781898071800180018009B
:1030960018007E0000000000000000000000000094
:1030A6000000000000000000000000000000C02337
:1030B600303C183818300C300C300C300C300C30DA
:1030C6000C3008301838303CE03300300030003027
:1030D600003000FC000000000000000000000000BE
:1030E60000000000000000000000000060007E3CC0
:1030F60060666061E000E000600060006000600003
:103106006000600060006000FE0700000000000034
:1031160000000000000000000000000000000000A9
:103126000000000000000000000000000000E02792
:1031360030381830182018007000E003800F001C8B
:10314600043004300C301C18EC0F000000000000A6
:103156000000000000000000000000000000000069
:1031660000000000800080008000C000E000FC1F1E
:10317600C000C000C000C000C000C000C000C00049
:10318600C000C020C0208011000F00000000000019
:103196000000000000000000000000000000000029
:1031A60000000000000000000000000010201E3C8F
:1031B60018301830183018301830183018301830C9
:1031C60018301830183830F4E01300000000000002
:1031D60000000000000000000000000000000000E9
:1031E60000000000000000000000000000007E3C1F
:1031F600181818083808300430047002600260029B
:10320600E001C001C001C000800000000000000015
:1032160000000000000000000000000000000000A8
:103226000000000000000000000000000000DFF7C2
:103236008E630C238C238C239813981358165816D8
:10324600700E700E700E20042004000000000000B6
:103256000000000000000000000000000000000068
:103266000000000000000000000000000000FC3E1E
:1032760070087004E004C002C001800380034007A8
:103286006006200C100C18183E7E0000000000009E
:103296000000000000000000000000000000000028
:1032A60000000000000000000000000000007E7C1E
:1032B6001818180830083008300460046004C0028A
:1032C600C002C00280018001800180008000800071
:1032D6004C003C0000000000000000000000000060
:1032E6000000000000000000000000000000FC1FBD
:1032F6000C0C040E0406000380038001C000E000ED
:103306007020302038301C18FC1F00000000000020
:10331600000000000000000000000030000800046B
:103326000004000400040004000400040004000477
:1033360000040002800100020004000400040004EE
:103346000004000400040004000400040004000853
:103356000030000000010001000100010001000131
:10336600000100010001000100010001000100014F
:10337600000100010001000100010001000100013F
:10338600000100010001000100010001000100012F
:10339600000100010000000000000C0010002000E9
:1033A6002000200020002000200020002000200017
:1033B6002000400080014000200020002000200066
:1033C6002000200020002000200020002000100007
:1033D6000C00000000003800C40086400261002294
:1033E600001C0000000000000000000000000000BB
:1033F60000000000000000000000000000000000C7
:1034060000000000000000000000000000000000B6
:0434160000000000B2
:055FD2004202870000FF
:0B698A008FCFE5CD30E7FB75CDC022BC
:09699500007F207E28DEFEDFFCFD
:01699E0022D6
:1068F800AD07AC06ED1DAE0470011C4E60051269B3
:046908009580F12263
:0869690012699FE4FF1269713D
:0A697100C292D29012698AD29222DB
:0A699F00C292C29012698AD29222BD
:10535500C2837F0A7E001268F8D2837F787E0012AE
:1053650068F87FCF12699FE4FF1269717FC11269E6
:10537500717F301269717FED12699F7F64126971C7
:105385007F031269717F121269717F811269717FC2
:10539500E812699F7F851269717F101269717F7AA2
:1053A5001269717FCB12699F7F391269717F2C1247
:1053B5006971E4FF1269717F341269717F021269A4
:1053C500717FF712699F7F201269717FEA126969FF
:1053D5007FC012699F7F1B1269717FC112699F7F10
:1053E500011269717FC512699F7F30126971126957
:1053F500717FC712699F7FB71269717F3612699FE6
:105405007FAC1269717F3A12699F7F551269717F6E
:10541500B112699FE4FF1269717F1A1269717FB633
:1054250012699F7F0A1269717FA21269717FF21258
:10543500699FE4FF1269717F2612699F7F011269D6
:10544500717FE012699F7F0F1269717F2A1269715E
:105455007F281269717F081269717F0E1269717F49
:10546500081269717F541269717FA91269717F43AE
:105475001269717F0A1269717F0F12697112696C65
:105485001269711269717FE112699FE4FF126971F6
:105495007F151269717F171269717F071269717F14
:1054A500111269717F061269717F2B1269717F561E
:1054B5001269717F3C1269717F051269717F101243
:1054C50069711F1269717F3F1269711269717F0FCE
:1054D5001269717F2B1269690F1269717F3F126919
:1054E500717F2A1269691269717FEF1269717F11E3
:0F54F50012699F7F787E001268F87F2902699FF5
:1066E800900111EEF0A3EFF07F2A12699F9001113B
:1066F800E0FF126971A3E0FF126971EAFF12697184
:10670800AF031269717F2B12699FECFF126971AF99
:1067180005126971900117E0FF126971A3E0FF0289
:02672800697195
:10000E00AD07AC06C292D290ECFF12698AAF051210
:05001E00698AD2922264
:0864F6009000E2EEF0A3EFF0CC
:1064FE009001177401F0A3743FF07BEF7A00E4FD76
:10650E00FCFFFE1266E87F2C12699FE49000E4F017
:10651E00A3F0E4FBFA9000E2E0FEA3E0FF12000E0F
:10652E000BBB00010AEB64F04A70EA9000E5E00450
:10653E00F070069000E4E004F0C39000E5E09440B3
:08654E009000E4E0940140CA52
:016556002222
:0369C20002699FC8
:1068B700C00790010FE0FFA3E0900117CFF0A3EF0F
:0668C700F0D0070266E8B4
:1068CD0090024EE0FBA3E0FAA3E0F98F828E8312D3
:0368DD0047BAFFB8
:0368E000026971D9
:0369C50002000EBF
:10608300900002EEF0A3EFF0A3ECF0A3EDF0A3EA8F
:04609300F0A3EBF09B
:10609700C006C00724FFFBEA34FFFAA3E0FEA3E033
:1060A70024FFFFEE34FF90010FF0A3EFF0D007D0ED
:1060B700061268B7900004E0FFA3E090000CCFF051
:1060C700A3EFF0900008E0FEA3E0FFC390000DE00F
:1060D7009F90000CE09E5039900002E0FEA3E0FB89
:1060E700AA06D3900007E09B900006E09A40129022
:1060F700000AE0FEA3E0FF1269C50BBB00010A809E
:10610700E190000DE004F070BA90000CE004F0801C
:01611700B2D5
:016118002264
:10655700900270FEE0FCA3E0FDC390026CE09DFD9D
:0E65670090026BE09CFC90026EE0FAA3E0FB59
:10657500900103EEF0A3EFF0900107EAF0A3EBF032
:10658500900105ECF0A3EDF0900103E0FAA3E0FB28
:10659500FFAE02C007A3E0FFA3E090010FCFF0A379
:1065A500EFF0D0071268B7900107E0FEA3E0FF0205
:0265B50069C5B6
:0E516700900215EEF0A3EFF0A3ECF0A3EDF034
:10517500E4900221F0A3F0A3F0A3F0900215E0FE65
:10518500A3E0FFC3EB9FFFEA9E900225F0A3EFF09B
:10519500900217E0FAA3E0FBC390021CE09BFE908F
:1051A500021BE09A900227F0A3CEF0900215E0FFD3
:1051B500A3E090022FCFF0A3EFF0A3EAF0A3EBF06A
:1051C500900225E0FEA3E0FFD39400EE6480948076
:1051D500400A90022BE4F0A304F08021EF4E700802
:1051E50090022BF0A3F0801574FF90022BF0A3F032
:1051F500C3E49FFFE49E900225F0A3EFF090022701
:10520500E0FEA3E0FFD39400EE64809480400A9012
:10521500022DE4F0A304F08021EF4E700890022DDA
:10522500F0A3F0801574FF90022DF0A3F0C3E49F66
:10523500FFE49E900227F0A3EFF0900227E0FEA383
:10524500E0FF900225E0FCA3E0FDD39FEE6480F82B
:10525500EC6480989002294007ECF0A3EDF08005FE
:10526500EEF0A3EFF0E490021FF0A3F090022AE025
:105275002401FF900229E03400FEC3900220E09F44
:1052850090021FE09E400302535490022FE0FEA3BC
:10529500E0FFA3E0FCA3E0FD90021D126570900203
:1052A50025E0FEA3E0FF900222E02FF0900221E02E
:1052B5003EF0900227E0FEA3E0FF900224E02FF0ED
:1052C500900223E03EF0900229E0FEA3E0FF900269
:1052D50021E0FCA3E0FDD39FEE6480F8EC648098A8
:1052E5004020ED9FFFEC9E900221F0A3EFF090028D
:1052F5002BE0FEA3E0FF900230E02FF090022FE0BC
:105305003EF0900229E0FEA3E0FF900223E0FCA31B
:10531500E0FDD39FEE6480F8EC6480984020ED9F1B
:10532500FFEC9E900223F0A3EFF090022DE0FEA388
:10533500E0FF900232E02FF0900231E03EF0900263
:0F53450020E004F0700690021FE004F0025271A5
:015354002236
:105A4000900278EAF0A3EBF0900274EEF0A3EFF08E
:105A5000A3ECF0A3EDF0C007A3E0FAA3E0FB9002F3
:105A600076E0FFA3E090021BCFF0A3EFF090027C62
:105A7000E0FFA3E090021DCFF0A3EFF0D00712519A
:105A800067900274E0FAA3E0FBFFAE02C007A3E058
:105A9000FCA3E0FD90027AE0FFA3E090021BCFF0B0
:105AA000A3EFF090027CE0FFA3E090021DCFF0A3F3
:105AB000EFF0D00712516790027AE0FCA3E0FD906E
:105AC0000278E0FAA3E0FBA3E0FFA3E090021BCF83
:105AD000F0A3EFF090027CE0FFA3E090021DCFF076
:105AE000A3EFF0900274E0FEA3E0FF125167900272
:105AF00078E0FAA3E0FBFFAE02C007900276E0FC7C
:105B0000A3E0FD90027AE0FFA3E090021BCFF0A398
:105B1000EFF090027CE0FFA3E090021DCFF0A3EF36
:065B2000F0D007025167FE
:10550400900269EEF0A3EFF0A3ECF0A3EDF0A90391
:10551400E4900270F0A3F0E9FFA3E4F0A3EFF090AD
:105524000272E0FEA3E0FFD3900271E09FEE64807C
:10553400F8900270E0648098400302569FC3900282
:105544006AE09FFF900269E09E126557900272E044
:10555400FEA3E0FF90026AE02FFF900269E03E1292
:105564006557900270E0FEA3E0FFC390026AE09FDB
:10557400FF900269E09EFE900272E0FCA3E0FD90C1
:10558400026CE02DFD90026BE03C12656C900270A1
:10559400E0FEA3E0FFC390026AE09FFF900269E08F
:1055A4009E90027212655A900272E0FEA3E0FF9090
:1055B400026AE02FFF900269E03EFE900270E0FC78
:1055C400A3E0FD90026CE02DFD90026BE03C1265BF
:1055D4006C900270E0FEA3E0FF90026AE02FFF905F
:1055E4000269E03EFE90027212655B900270E0FE7A
:1055F400A3E0FF90026AE02FFF900269E03EFE9074
:105604000272E0FCA3E0FD90026CE02DFD90026BC1
:10561400E03C12656C900272E0FEA3E0FFC39002CE
:105624006AE09FFF900269E09EFE900270E0FCA396
:10563400E0FD90026CE02DFD90026BE03C12656C85
:10564400900271E004F07006900270E004F09002A1
:1056540072E0FCA3E0FDFFAE041247F9AA06AB0713
:10566400900270E0FCA3E0FDFFAE041247F9EF2BBB
:10567400FDEE3AFCE9F5F0A4FFD3ED9FE5F064807C
:10568400F8EC6480985003025523900273E024FFE1
:0B569400F0900272E034FFF00255239A
:01569F0022E8
:104F1F009000F1ECF0A3EDF0A3EBF09000EFEEF0CA
:034F2F00A3EFF0FD
:104F3200E49000FCF0900101EEF0A3EFF09000F895
:104F4200E0F9C3139000FBF0E0FF131313541FFDAD
:104F52007C00EF54077E0060047F0180027F00EF37
:104F62002DFFEE3CFEE9FD7C001247F99000FFEEBA
:104F7200F0A3EFF09000F3E024E0F09000F1E0FC09
:104F8200A3E0FD9000FBE0FF7E009000EFE0FAA3BB
:104F9200E02FFFEE3ACF24FFFBEF34FFFAE9FFA345
:104FA200E0F8A3E02FFFEE38CF24FFCF34FF9001CB
:104FB20017F0A3EFF09000EFE0FEA3E0FF1266E827
:104FC2007F2C12699FE49000FDF0A3F09000FFE0B7
:104FD200FEA3E0FF9000FDE0FCA3E0FDC39FEC9E7A
:104FE20040030251669000F8E0F9B40C1C9000F303
:104FF200E075F00CA42426F582E5F03400F583E593
:10500200822DF582E5833C807AE9B410249000FD7C
:10501200E0FEA3E0FF9000F3E075F010A4249AF5FF
:1050220082E5F03404F583E5822FF582E5833E8044
:1050320052E9B418249000FDE0FEA3E0FF9000F3D3
:10504200E075F030A4248AF582E5F0340AF583E5B0
:10505200822FF582E5833E802AE9642060030251B3
:10506200669000FDE0FEA3E0FF9000F3E075F040E3
:10507200A4245AF582E5F0341CF583E5822FF582EB
:10508200E5833EF583E4939000FAF0E4F99000F9A9
:10509200E07041047E00A801088005C333CE33CE00
:1050A200D8F9FF9000FAE0FDEF5D60059000F48012
:1050B200039000F6E0FEA3E0FF1269C59000FCE059
:1050C20004F09000FBE0FFA3E08FF084E5F0707A3B
:1050D200F002515574017E00A801088005C333CE49
:1050E20033CED8F9FF9000FAE0FDEF5D6014900036
:1050F200EFE0FEA3E0FFA3E0FCA3E0FD9000F412CA
:1051020065709000F0E004F070069000EFE004F0AB
:10511200900101E0FEA3E0FFC39000F0E09FFD904C
:1051220000EFE09EFC9000FBE07A00B5051CEAB5BA
:1051320004189000EFEEF0A3EFF09000F2E004F01C
:1051420070119000F1E004F0800909E9640860033D
:1051520002508F9000FEE004F070069000FDE00423
:04516200F0024FCE3A
:015166002226
:1062BC009000E2EEF0A3EFF0A3ECF0A3EDF0A3EB73
:1062CC00F0A3EAF0A3E9F09000E6E0FBA3E0FAA368
:1062DC00E0F91247A1FB60619000E4E0FCA3E0FD53
:1062EC009000E9E0FFA3E09000F4CFF0A3EFF09072
:1062FC0000EBE0FFA3E09000F6CFF0A3EFF09000EE
:10630C00EDE09000F8F09000EEE09000F9F09000D5
:10631C00E2E0FEA3E0FF124F1F9000EDE0C313FF7D
:10632C009000E3E02FF09000E2E03400F09000E702
:0A633C00E475F001124841808E2242
:0765B700C3EF9E14FD7F0AF3
:0865BE0090027EEFF0A3EDF066
:1065C600A31249A40000000190027FE0FF14F0EF3F
:1065D6006020A3E0F8A3E0F9A3E0FAA3E0FB9002B1
:1065E6007EE0FFE4FCFDFE12486D900280124998A1
:1065F60080D6900280E0FCA3E0FDA3E0FEA3E0FFCE
:016606002271
:1057EA00900259EEF0A3EFF0A3ECF0A3EDF0A3EAD8
:0457FA00F0A3EBF03D
:1057FE00E4900267F0900264E0C313900268F0E454
:10580E00900265F090025FE0FF900265E0FEC39F9C
:10581E0040030259151265B7A804A905AA06AB07DD
:10582E0090025DE0FEA3E0FFE4FCFD1248F8E47B8D
:10583E000AFAF9F81248F8900266EBF0A3E07065E8
:10584E0090025FE014FF900265E0FEC39F5056A3E6
:10585E00E0704C900268E0FFEE8FF0A4FF90025AC9
:10586E00E02FFF900259E035F0FE90025BE0FCA3C2
:10587E00E0FD900260E0FBA3E09000F4CBF0A3EB20
:10588E00F0900262E0FBA3E09000F6CBF0A3EBF009
:10589E00900264E09000F8F0E4A3F07B20805C902E
:1058AE0002677401F0900268E0FF900265E08FF0ED
:1058BE00A4FF90025AE02FFF900259E035F0FEC08F
:1058CE000790025BE0FCA3E0FD900266E02430FB53
:1058DE00900260E0FFA3E09000F4CFF0A3EFF09011
:1058EE000262E0FFA3E09000F6CFF0A3EFF090028B
:1058FE0064E09000F8F0E4A3F0D007124F1F90027E
:07590E0065E004F0025812ED
:01591500226F
:0E56A000900233EEF0A3EFF0A3ECF0A3EDF0D8
:1056AE00900240E0C313900243F0E4FFFE7DC87CFD
:1056BE0042900237E0F8A3E0F9A3E0FAA3E0FB1270
:1056CE0041DA1242E0900244EEF0A3EFF0E49002D1
:1056DE0041F090023BE0FF900241E0FEC39F400389
:1056EE000257E91265B7A804A905AA06AB079002EE
:1056FE0044E0FEA3E0FFE4FCFD1248F8E47B0AFA66
:10570E00F9F81248F8900242EBF090023BE0FF24C9
:10571E00FEFE900241E06E7060EF24FEFFE434FF67
:10572E00FE900243E0FD7C001247F9900234E02F18
:10573E00FF900233E03EFE900235E0FCA3E0FD90C8
:10574E00023CE0FBA3E09000F4CBF0A3EBF0900260
:10575E003EE0FBA3E09000F6CBF0A3EBF09002400E
:10576E00E09000F8F0E4A3F07B2E124F1F90024160
:10577E00E004F090023BE004F0900243E0FF900260
:10578E0041E08FF0A4FF900234E02FFF900233E04F
:10579E0035F0FEC007900235E0FCA3E0FD9002421A
:1057AE00E02430FB90023CE0FFA3E09000F4CFF049
:1057BE00A3EFF090023EE0FFA3E09000F6CFF0A33F
:1057CE00EFF0900240E09000F8F0E4A3F0D0071262
:0B57DE004F1F900241E004F00256E073
:0157E900229D
:10591600900246EEF0A3EFF0A3ECF0A3EDF0A3EABD
:04592600F0A3EBF00F
:10592A009002551249A400000000900248E0FCA32E
:10593A00E0FDA3E0FEA3E0FF900246E0FAA3E02F19
:10594A00FFEA3ECF24FFFBEF34FFFA90024CE0FE61
:10595A00A3E0FF900248E0F8A3E02FFFE83ECF243F
:10596A00FFCF34FF90010FF0A3EFF0900246E0FE64
:10597A00A3E0FF1268B77F2C12699FE4900251F0EE
:10598A00A3F090024AE0FEA3E0FFC3900252E09F18
:10599A00900251E09E4003025A3FE4900253F0A362
:1059AA00F090024CE0FEA3E0FFC3900254E09F9007
:1059BA000253E09E506BE47F02FEFDFC900255E02C
:1059CA00F8A3E0F9A3E0FAA3E0FB12486D1268CD50
:1059DA00E47F02FEFDFC900255E0F8A3E0F9A3E0A3
:1059EA00FAA3E0FB12486DEF2401FFE43EFE1268C1
:1059FA00CD900255E0FCA3E0FDA3E0FEA3E0240164
