:03000000024CF1BE
:0C4CF100787FE4F6D8FD758121024D3873
:105127006B6579646F776E2025640D0A004C4344E4
:0B5137005F573A004C43445F483A00C9
:104E91005E003C0000000000000000000000000077
:104EA1000000000000000000000000000000000001
:104EB1000060280000FFFFFFFFFFFFFFFFFFFFFF74
:104EC100FFFFFFFFFFFFFFFFFFFFFFFFFFFFFFFFF1
:104ED100FFFFFFFFFFFFFFFFFFFFFFFFFF54002862
:104EE10000000000000000000000000000000000C1
:044EF10000000000BD
:10510900759850438E40538EFE53890F758BE07509
:0E5119008DFEC2ABD28ED2ACD2AFE4F5A22294
:080003008F993099FDC299228A
:0A51DD008F993099FDC2998F992235
:10519B001238EBFF600C120003740129F9E43AFAA0
:0351AB0080EE2271
:1051AE00759A1075D7E075D6FE438E1475AF01D281
:0251BE00AF221E
:0851FA002009FDD2098F9B2260
:1050B000900134EBF0A3EAF0A3E9F0900134E0FBB7
:1050C000A3E0FAA3E0F91238EB6017900134A3E4EF
:1050D00075F00112396BA9F0FA1238EBFF1251FA90
:0350E00080D92252
:10514200438E805389F0758A9A758CA9C28DD28C50
:09515200D28CD2A9D2B9D2AF224D
:104EFB00A2A3E433FF900000E025E04FF0A2A1E471
:104F0B0033FFA3E025E04FF0A2B7E433FFA3E02586
:104F1B00E04FF0A2B5E433FFA3E025E04FF0E4FF50
:104F2B0074002FF582E43400F583E0FE700E743CC0
:104F3B002FF582E43400F583E4F08010BEFF0D748E
:104F4B003C2FF582E43400F5837401F00FEFB40AC3
:014F5B00CF86
:014F5C002232
:1050E300900137EEF0A3EFF07BFF7A517927900020
:1050F30094EEF0A3EFF0123B9A900137E07002A315
:06510300E07002B2B422CC
:104D7D00E4900139F0A3F0900139E0FEA3E0FFC308
:104D8D009406EE648094805070743C2FF58274000C
:104D9D003EF583E07037900139E0FCA3E0FD25E09E
:104DAD00FFEC33FE74282FF58274003EF583E0FA94
:104DBD00A3E04A703374282FF58274003EF583E426
:104DCD00F0A304F0AF05AE041250E3801B90013A3E
:104DDD00E025E0FF900139E033FE74282FF5827451
:104DED00003EF583E4F0A3F090013AE004F0708703
:094DFD00900139E004F0024D843C
:014E06002289
:104BB400E4F594759302F592F591F596F595F5B2B1
:104BC400F5B1F5B4F5B3F5CAF5C975CED075CDC058
:104BD400C2917F64FE1251871243E87F647E001203
:104BE40051879000607401F0A37440F074FFA3F047
:104BF400A3F07BF07A00E4FDFCFFFE124C5B7F64C3
:104C04007E001251877BFF7A51793490006174F8E9
:104C1400F0A3E4F074FFA3F0A3F0A37410F0E4A3F2
:104C2400F07D28FCFFFE124E077BFF7A51793B9002
:104C3400006174F8F0A3E4F074FFA3F0A3F0A3748C
:104C440010F0E4A3F07D28FC7F50FE124E077F2C69
:074C54007E0112518780AEC2
:0300230002520284
:06520200309802C2983250
:03000B0002520E90
:01520E00326D
:1000260000000000000000000000000000000404C2
:10003600040404000004000014140A000000000078
:100046000000000000000A0A1F0A0A1F0A0A000030
:1000560000040E1505060C14150E040000001215FA
:100066000D152E2C2A1200000000040A0A3615155A
:100076002916000002020100000000000000000036
:100086001008080404040404080810000204040804
:10009600080808080404020000000004150E0E15E6
:1000A6000400000000000008083E080800000000E8
:1000B6000000000000000000020201000000000035
:1000C600003F0000000000000000000000000000EB
:1000D60000020000002010100808040402020100BB
:1000E60000000E1111111111110E0000000004067E
:1000F60004040404040E000000000E11110804029A
:10010600011F000000000E11100C1010110E00004F
:100116000000080C0C0A091F081C000000001F0143
:10012600010F1110110E000000000C12010D131129
:10013600110E000000001E1008080404040400004C
:1001460000000E11110E1111110E000000000E110B
:100156001119161009060000000000000400000036
:100166000004000000000000000400000004040079
:10017600000010080402020408100000000000003D
:100186003F003F00000000000000020408101008B5
:100196000402000000000E1111080404000400000F
:1001A60000001C22292D2D1D221C00000000040425
:1001B6000C0A0A1E1233000000000F12120E121251
:1001C600120F000000001E1101010101110E0000B6
:1001D60000000F1212121212120F000000001F125E
:1001E6000A0E0A02121F000000001F120A0E0A025F
:1001F6000207000000001C1201013911120C000058
:1002060000003312121E12121233000000001F04E7
:1002160004040404041F000000003E08080808083F
:1002260008080907000037120A060A1212370000EA
:100236000000070202020202223F000000003B1BF0
:100246001B1B15151535000000003B1216161A1A51
:100256001217000000000E1111111111110E0000ED
:1002660000000F12120E02020207000000000E111B
:1002760011111117190E180000000F12120E0A1292
:100286001237000000001E1101060810110F0000B1
:1002960000001F1504040404040E000000003312BD
:1002A60012121212120C000000003312120A0A0C6B
:1002B600040400000000151515150E0A0A0A0000B0
:1002C60000001B0A0A04040A0A1B000000001B0A9D
:1002D6000A0A0404040E000000001F0908040402B0
:1002E600121F00001C0404040404040404041C007B
:1002F6000002020404040808081010000E0808088A
:100306000808080808080E00040A0000000000009B
:100316000000000000000000000000000000003F98
:1003260002040000000000000000000000000000C1
:10033600000C121C123C000000030202020E1212F4
:10034600120E000000000000001C1202120C000039
:1003560000181010101C1212123C000000000000C1
:10036600000C121E021C000000182404041E0404C3
:10037600041E000000000000003C120C021C221C9F
:1003860000030202020E12121237000000040400DB
:1003960000060404040E000000080800000C08080B
:1003A6000808080700030202021A0A060A130000D8
:1003B6000007040404040404041F000000000000F5
:1003C600000F15151515000000000000000F121291
:1003D6001237000000000000000C1212120C000080
:1003E60000000000000F1212120E020700000000AB
:1003F600001C1212121C103800000000001B06021E
:100406000207000000000000001E020C101E000083
:1004160000000004041E0404041C00000000000088
:10042600001B1212123C000000000000001B0A0A0A
:1004360004040000000000000015150E0A0A000062
:1004460000000000001B0A040A1B00000000000058
:10045600003312120C08040300000000001E0804FA
:10046600041E000018080808080C080808081800E8
:100476000808080808080808080808080604040404
:100486000408040404040600160900000000000025
:100496000000000000000000000000000000000056
:1004A600000000000000000808080808080800000E
:1004B6001818000000486C2412000000000000001C
:1004C600000000000000002424247F1212127F1274
:1004D600121200000000081C2A2A0A0C1828282AD2
:1004E6002A1C080800000022251515152A58545400
:1004F600542200000000000C1212120A762529115F
:10050600916E0000000606040300000000000000D3
:100516000000000000402010100808080808081015
:1005260010204000000204080810101010101008D7
:10053600080402000000000008086B1C1C6B080879
:100546000000000000000000080808087F080808EE
:10055600080000000000000000000000000000008D
:10056600060604030000000000000000FE00000074
:100576000000000000000000000000000000000075
:1005860006060000000080404020201010080804E5
:100596000402020000000018244242424242424243
:1005A60024180000000000080E08080808080808BB
:1005B600083E00000000003C424242202010080491
:1005C600427E00000000003C42422018204040428B
:1005D600221C0000000000203028242422227E2035
:1005E600207800000000007E0202021A26404042E7
:1005F600221C0000000000382402021A2642424251
:10060600241800000000007E2222101008080808A6
:10061600080800000000003C4242422418244242DE
:10062600423C000000000018244242426458404008
:10063600241C000000000000000018180000000044
:10064600181800000000000000000008000000006C
:1006560000080804000000402010080402040810E6
:10066600204000000000000000007F0000007F0026
:1006760000000000000000020408102040201008BE
:10068600040200000000003C4242464020101000D8
:10069600181800000000001C225A555555552D42C9
:1006A600221C00000000000808181414243C2242F2
:1006B60042E700000000001F2222221E2242424280
:1006C600221F00000000007C42420101010101429C
:1006D600221C00000000001F2242424242424242C7
:1006E600221F00000000003F4212121E1212024298
:1006F600423F00000000003F4212121E1212020288
:10070600020700000000003C2222010101712122A3
:10071600221C0000000000E7424242427E42424262
:1007260042E700000000003E08080808080808081C
:10073600083E00000000007C101010101010101071
:100746001010110F0000007722120A0E0A12122250
:1007560022770000000000070202020202020202E3
:10076600427F000000000077363636362A2A2A2ACB
:100776002A6B0000000000E346464A4A5252526283
:10078600624700000000001C2241414141414141B5
:10079600221C00000000003F424242423E0202028A
:1007A600020700000000001C2241414141414D5317
:1007B600321C60000000003F4242423E12122222DA
:1007C60042C700000000007C42420204182040425A
:1007D600423E00000000007F490808080808080893
:1007E600081C0000000000E74242424242424242E8
:1007F600423C0000000000E7424222242414141860
:10080600080800000000006B494949495555362241
:1008160022220000000000E742242418181824248D
:1008260042E7000000000077222214140808080896
:10083600081C00000000007E21201010080404425D
:10084600423F000000780808080808080808080859
:1008560008087800000002020404080808101020A6
:1008660020204040001E1010101010101010101004
:1008760010101E00003844000000000000000000B8
:100886000000000000000000000000000000000062
:10089600000000FF00060800000000000000000045
:1008A60000000000000000000000003C42784442C6
:1008B60042FC0000000000030202021A26424242E5
:1008C600261A000000000000000000384402020260
:1008D60044380000000000604040407844424242F4
:1008E60064D80000000000000000003C427E0202C6
:1008F600423C0000000000F08808087E080808084E
:10090600083E0000000000000000007C22221C02BD
:100916003C42423C000000030202023A4642424286
:1009260042E700000000000C0C00000E0808080852
:10093600083E000000000030300000382020202053
:100946002020221E0000000302020272120A161262
:10095600227700000000000E0808080808080808AA
:10096600083E0000000000000000007F9292929274
:1009760092B70000000000000000003B46424242E1
:1009860042E70000000000000000003C42424242F4
:10099600423C0000000000000000001B26424242CC
:1009A600221E020700000000000000784442424276
:1009B600447840E000000000000000774C04040486
:1009C600041F0000000000000000007C42023C40C2
:1009D600423E0000000000000008083E0808080823
:1009E600083000000000000000000063424242425E
:1009F60062DC000000000000000000E7422424142E
:100A06000808000000000000000000EB49495555A9
:100A160022220000000000000000007624181818AA
:100A2600246E000000000000000000E742242414A9
:100A360018080807000000000000007E22100808C1
:100A4600447E000000C020202020201020202020EE
:100A56002020C000101010101010101010101010D0
:100A660010101010000608080808081008080808E2
:100A7600080806000C32C20000000000000000005A
:100A86000000000000000000000000000000000060
:100A96000000000000000000000000000000000050
:100AA6000000000000000000000000000000000040
:100AB6000000000000000000000000006000600070
:100AC60060006000600060006000400020002000C0
:100AD60020000000000000006000600060000000D0
:100AE6000000000000000000600660063003980168
:100AF6008800440000000000000000000000000024
:100B060000000000000000000000000000000000DF
:100B160000000000000000000000000010021002AB
:100B260010021002FE07FE0708020801080108016C
:100B36000801FE07FE070401040104010401000088
:100B46000000000000000000000040004000F0012E
:100B560058034C03CC034C0058007000E000C00161
:100B6600C00140034C035C034C034801F000400005
:100B76004000000000000000000000000E010A0115
:100B8600910091009100510051003A00AE03A0027D
:100B960050045004480448044804840284030000B6
:100BA60000000000000000000000000038006C009B
:100BB6006C006C006C006C002C0098071C011A017C
:100BC600330133016301E300C308C6093C07000093
:100BD60000000000000000000C001C0010001000C7
:100BE60008000400000000000000000000000000F3
:100BF60000000000000000000000000000000000EF
:100C06000000000000000000000400020001800057
:100C1600800040004000200020002000200020002E
:100C260020002000400040008000800000010002FB
:100C3600000400000000000002000400080010008C
:100C4600100020002000400040004000400040000E
:100C560040004000200020001000100008000400A2
:100C6600020000000000000000000000000000007C
:100C76004000C0004000460C4E0FD001F0015E0F50
:100C8600460C40004000400000000000000000004C
:100C9600000000000000000000000000000000004E
:100CA600000040004000400040004000FE0F4000B1
:100CB600400040004000400000000000000000002E
:100CC600000000000000000000000000000000001E
:100CD600000000000000000000000000000000000E
:100CE60000000000000000000C001C0010001000B6
:100CF60008000400000000000000000000000000E2
:100D0600000000000000000000000000FE070000D8
:100D160000000000000000000000000000000000CD
:100D260000000000000000000000000000000000BD
:100D360000000000000000000000000000000000AD
:100D460000000000000000001C001C001C00000049
:100D5600000000000000000000040006000200037E
:100D6600000100018000800040004000600020007B
:100D7600200010001000080008000C000400060007
:100D86000200000000000000000000000000F0006B
:100D960098010C030C03060606060606060606065A
:100DA6000606060606060C030C039801F000000072
:100DB60000000000000000000000000000004000ED
:100DC6007C00600060006000600060006000600001
:100DD600600060006000600060006000FC030000CE
:100DE6000000000000000000000000000000F80005
:100DF6008401020306030603000300018001C0000C
:100E0600600020001000080204020602FE03000033
:100E16000000000000000000000000000000780054
:100E2600C6008601860180018001C0007000800135
:100E3600000100030003060306038601F800000014
:100E4600000000000000000000000000000080011B
:100E56008001C001A001A0019001880188018401E0
:100E66008201FE0F8001800180018001E007000001
:100E76000000000000000000000000000000FC036D
:100E860004000400040004000400F4008C010403C0
:100E9600000300030603060382018401F800000034
:100EA6000000000000000000000000000000E0015B
:100EB60018030C030C0004000600E60116030E06D8
:100EC60006060606060604060C021803F0000000D5
:100ED6000000000000000000000000000000F8070D
:100EE6000C0604020401000100018000800040009D
:100EF600400040006000600060006000600000008C
:100F06000000000000000000000000000000F801E2
:100F16000C030606060606060C021C03F000C801B2
:100F26000C0306060606060606060C03F00100007C
:100F36000000000000000000000000000000F000BB
:100F46000C010C03060206060606060606078C06B4
:100F560078060006000300030C018C0178000000EF
:100F6600000000000000000000000000000000007B
:100F76000000000000000000E000E000E0000000CB
:100F86000000000000000000E000E000E0000000BB
:100F9600000000000000000000000000000000004B
:100FA600000000000000000060006000000000007B
:100FB600000000000000000000006000600040002B
:100FC60020002000000000000000000000040002D5
:100FD6000001800040002000100008000400080006
:100FE6001000200040008000000100020004000004
:100FF60000000000000000000000000000000000EB
:101006000000000000000000FE07000000000000D5
:10101600FE070000000000000000000000000000C5
:1010260000000000000000000000000004000800AE
:1010360010002000400080000001000200040002B1
:10104600000180004000200010000800040000009D
:101056000000000000000000000000000000E003A7
:101066001806040C040C0C0C0C0C00078001400044
:101076004000400000000000E000E000E00000004A
:10108600000000000000000000000000E00018035F
:101096000C02CC0564056605A605B604B604B604BE
:1010A600B604B602E4010C040C021803F0000000BA
:1010B60000000000000000000000000000006000CA
:1010C60060005000D0009000900088008801080160
:1010D600F801040304030402020202060F0F0000D3
:1010E6000000000000000000000000000000FE00FC
:1010F6008C030C030C030C030C038C01FC000C0387
:101106000C020C060C060C060C060C03FE01000075
:101116000000000000000000000000000000E003E6
:1011260018030C060C04040406000600060006005C
:101136000600060006040C040C021803F00000006A
:1011460000000000000000000000000000007F001A
:101156008C010C030C030C060C060C060C060C0684
:101166000C060C060C060C030C038C017F00000019
:101176000000000000000000000000000000FF0367
:10118600060306040604060086008600FE008600A6
:10119600860086000600060406040602FF03000019
:1011A6000000000000000000000000000000FF0337
:1011B600060306040604060086008600FE00860076
:1011C6008600860006000600060006001F000000D6
:1011D6000000000000000000000000000000F00019
:1011E60018010C020C0204020600060006000600A6
:1011F600C60F060306030C030C031803F0000000D9
:1012060000000000000000000000000000000F0FBA
:10121600060606060606060606060606FE0706066F
:101226000606060606060606060606060F0F000052
:101236000000000000000000000000000000FC03A9
:101246006000600060006000600060006000600098
:10125600600060006000600060006000FC03000049
:101266000000000000000000000000000000F80779
:10127600C000C000C000C000C000C000C000C00068
:10128600C000C000C000C000C000C000C000C60052
:1012960066003C0000000000000000000000CF03D4
:1012A6008601C60046002600160036002E006E0097
:1012B6004600C60086008601060106038F07000069
:1012C60000000000000000000000000000001F00F9
:1012D60006000600060006000600060006000600D8
:1012E600060006000600060406040602FF030000C8
:1012F60000000000000000000000000000000707DA
:10130600860386038E038E034E034E034A035A0357
:101316005A033A03320332033203120387070000EB
:1013260000000000000000000000000000008E0F1A
:101336000C021C021C0234023402640264024402DF
:10134600C402840284038403040304031F0200000E
:101356000000000000000000000000000000F00097
:1013660098010C030C020606060606060606060685
:101376000606060606060C020C039801F00000009D
:101386000000000000000000000000000000FF0058
:101396000603060606060606060606068603FE007B
:1013A6000600060006000600060006001F000000F4
:1013B6000000000000000000000000000000F00037
:1013C60098010C030C020606060606060606060625
:1013D6000606060676064C02CC039801F000800746
:1013E6000003000000000000000000000000FF01F4
:1013F600060306060606060606060603FE00460061
:10140600C600860086010603060306060F0E0000C8
:101416000000000000000000000000000000F802CC
:101426000C030602060206000E003C00F800E0036C
:10143600800300070206020606060C03F001000000
:101446000000000000000000000000000000FE0791
:10145600620461086108600060006000600060006E
:10146600600060006000600060006000F80100003D
:1014760000000000000000000000000000001E0741
:101486000C020C020C020C020C020C020C020C02E6
:101496000C020C020C020C020C021801F0000000F7
:1014A60000000000000000000000000000000F0720
:1014B6000602040104010C010C0188008800980052
:1014C60098005000500070003000200020000000FE
:1014D6000000000000000000000000000000F70E01
:1014E600620442044604460464026402E402E4021E
:1014F6009C029C01980198018801880088000000E0
:1015060000000000000000000000000000009E0730
:101516000C01080118019000B00060002000600076
:101526006000D00090008801080104038E070000C7
:1015360000000000000000000000000000000F0F87
:10154600060404020C0208011801B800B00070007D
:10155600600060006000600060006000F80100004C
:101566000000000000000000000000000000FC0772
:101576000C020603020180018000400040002000AA
:1015860020001000180008040C040402FE030000EA
:101596000000000000000000E00320002000200002
:1015A6002000200020002000200020002000200035
:1015B6002000200020002000200020002000200025
:1015C600E00300000000000000000000040004002A
:1015D6000800080010001000100020002000400045
:1015E6004000C000800080000001000100020002EF
:1015F60000020004000000007C00400040004000A3
:1016060040004000400040004000400040004000D4
:1016160040004000400040004000400040004000C4
:101626007C0000000000600090000801000000003F
:1016360000000000000000000000000000000000A4
:101646000000000000000000000000000000000094
:101656000000000000000000000000000000000084
:101666000000000000000000000000000000000074
:101676000000000000000000000000000000000064
:101686000000FF0F000000001800600000000000CE
:101696000000000000000000000000000000000044
:1016A6000000000000000000000000000000000034
:1016B6000000000000000000000000000000000024
:1016C6000000000000000000F0010C030C03000302
:1016D600E0031C030E03060306038E0B7C0E0000BC
:1016E60000000000000000000000000008000E00DE
:1016F6000C000C000C000C00CC013C031C060C0674
:101706000C060C060C060C060C021C03E401000079
:1017160000000000000000000000000000000000C3
:101726000000000000000000F0008C018C01860122
:1017360006000600060006020C020C01F00000007E
:101746000000000000000000000000000002C003CE
:10175600000300030003000378038C030C03060355
:10176600060306030603060304038C07780100003C
:101776000000000000000000000000000000000063
:101786000000000000000000E001180308020C063B
:101796000C06FC070C000C0018041802E0010000FF
:1017A6000000000000000000000000000000C00370
:1017B6006006300630003000FE0130003000300098
:1017C600300030003000300030003000FC010000F6
:1017D6000000000000000000000000000000000003
:1017E6000000000000000000F007D8068C018C0104
:1017F6008C019801F8000C00FC00CC0306030603DC
:101806008E03F800000000000000000008000E0033
:101816000C000C000C000C00EC011C030C030C0368
:101826000C030C030C030C030C030C039E070000B3
:101836000000000000000000000000000000600042
:1018460060000000000040007C0060006000600056
:10185600600060006000600060006000FC03000043
:101866000000000000000000000000000000C001B1
:10187600C001000000000001F0018001800180012C
:10188600800180018001800180018001800180014A
:10189600CC007C00000000000000000008000E00E4
:1018A6000C000C000C000C008C038C008C004C000F
:1018B6006C005C008C008C010C010C039E07000080
:1018C60000000000000000000000000040007C0056
:1018D6006000600060006000600060006000600002
:1018E600600060006000600060006000FC030000B3
:1018F60000000000000000000000000000000000E2
:1019060000000000000000003707EE0666066606C7
:10191600660666066606660666066606FF0F00002B
:1019260000000000000000000000000000000000B1
:101936000000000000000000EE011C030C030C0375
:101946000C030C030C030C030C030C039E07000092
:101956000000000000000000000000000000000081
:101966000000000000000000F00098010C030606CD
:1019760006060606060606060C030C03F000000023
:101986000000000000000000000000000000000051
:101996000000000000000000EE011C030C060C060F
:1019A6000C060C060C060C060C031C03EC010C00C2
:1019B6000C003E00000000000000000000000000D7
:1019C600000000000000000078028C030C030603F0
:1019D600060306030603060304038C0378030003C9
:1019E6000003C00700000000000000000000000027
:1019F60000000000000000009F035806380618008B
:101A0600180018001800180018001800FF00000041
:101A160000000000000000000000000000000000C0
:101A26000000000000000000F0031C030C020C0282
:101A36003800F000C003040304038C03FC0100001B
:101A46000000000000000000000000000000000090
:101A56002000200030003000FE0130003000300051
:101A6600300030003000300030023002E00100006B
:101A76000000000000000000000000000000000060
:101A860000000000000008028E030C030C030C0388
:101A96000C030C030C030C030C039C0778010000D9
:101AA6000000000000000000000000000000000030
:101AB60000000000000000001E070C0208010801DB
:101AC60018019000B000B000600060002000000027
:101AD6000000000000000000000000000000000000
:101AE6000000000000000000F70E620446046402D5
:101AF6006402EC029C01980198019801080000001C
:101B060000000000000000000000000000000000CF
:101B16000000000000000000BC0718011001B00022
:101B260060006000E0009000080108039E070000C6
:101B3600000000000000000000000000000000009F
:101B460000000000000000009E07080108010801CF
:101B560090009000B000600060006000200020004F
:101B660024001C000000000000000000000000002F
:101B76000000000000000000FC018401C4004400D5
:101B8600600020003000180208020C03FC0100006F
:101B960000000000000000000003800080008000BC
:101BA600800080008000800080004000200040000F
:101BB600800080008000800080008000800080001F
:101BC600000300004000400040004000400040008C
:101BD60040004000400040004000400040004000FF
:101BE60040004000400040004000400040004000EF
:101BF60040004000000000000C0010001000100023
:101C060010001000100010001000200040002000FE
:101C1600100010001000100010001000100010003E
:101C26000C00000000001C002204C2048003000017
:101C3600000000000000000000000000000000009E
:101C4600000000000000000000000000000000008E
:101C5600000000000000000000000000000000007E
:101C6600000000000000000000000000000000006E
:101C7600000000000000000000000000000000005E
:101C8600000000000000000000000000000000004E
:101C96000000000000000000000000000000C0017D
:101CA600C001C001C001C001C001C00180008000A8
:101CB600800080008000800080000000000000009E
:101CC60000008001C003C003800100000000000086
:101CD60000000000000000000000E01CE01CF01EF8
:101CE600700E380718030801840000000000000089
:101CF60000000000000000000000000000000000DE
:101D060000000000000000000000000000000000CD
:101D160000000000000000000000000000000000BD
:101D260020102010201020102010FE7FFE7F1008AB
:101D3600100810081008100810081008FE7FFE7F13
:101D46000804080408040804080400000000000051
:101D5600000000000000000000000000000100017B
:101D6600C007601910311831183918393801700157
:101D7600E001C0038007000F001D003900311C314F
:101D86001C310C310C11180DE00700010001000197
:101D9600000000000000000000000000000000003D
:101DA6001C1036186308630C630463046302630241
:101DB6006301361D9C378022806340634063206345
:101DC6002063306310221836081C00000000000053
:101DD60000000000000000000000000000000000FD
:101DE600F00098018C018C018C018C018C00CC00D8
:101DF6007800183E1C083608320863046304C304DE
:101E0600C303834306438E26781C000000000000AF
:101E1600000000000000000000001C003C003C0028
:101E26003000300010000C0006000000000000002A
:101E3600000000000000000000000000000000009C
:101E4600000000000000000000000000000000008C
:101E5600000000000000000000000040002000100C
:101E66000008000C000400060003000300038001C4
:101E760080018001800180018001800180010003D2
:101E86000003000300060006000C000800100020F6
:101E960000400000000000000000020004000800EE
:101EA6001000300020006000C000C000C0008001AB
:101EB6008001800180018001800180018001C000D5
:101EC600C000C00060006000300010000800040080
:101ED60002000000000000000000000000000000FA
:101EE6000000000000018003800300011C713C79A2
:101EF600783DC0070001C007783D3C791C710001A0
:101F06008003800380010000000000000000000044
:101F160000000000000000000000000000000000BB
:101F260000000000000000010001000100010001A6
:101F360000010001FC7F0001000100010001000119
:101F46000001000100000000000000000000000089
:101F5600000000000000000000000000000000007B
:101F6600000000000000000000000000000000006B
:101F7600000000000000000000000000000000005B
:101F8600000000001C003C003C0030003000100047
:101F96000C00060000000000000000000000000029
:101FA600000000000000000000000000000000002B
:101FB60000000000FE7F000000000000000000009E
:101FC600000000000000000000000000000000000B
:101FD60000000000000000000000000000000000FB
:101FE60000000000000000000000000000000000EB
:101FF60000000000000000000000000000000000DB
:10200600000018003C003C00180000000000000022
:1020160000000000000000000000004000600020FA
:102026000030001000180008000C00040006000232
:102036000003000180018000C00040006000200015
:1020460030001000180008000C0004000600020012
:10205600000000000000000000000000000000007A
:10206600C007600C30181830183018200C600C604F
:102076000C600C600C600C600C600C600C6018202E
:10208600183018303018600CC0070000000000003F
:10209600000000000000000000000000000000003A
:1020A60000018001F801800180018001800180012A
:1020B6008001800180018001800180018001800112
:1020C600800180018001C003F81F000000000000AD
:1020D60000000000000000000000000000000000FA
:1020E600E007101C0818043004300C300C300030A7
:1020F60000180008000400020001800040002020B3
:10210600102008200430FC1FFC1F00000000000007
:1021160000000000000000000000000000000000B9
:10212600E003180E0C0C0C180C180C180018000CF8
:102136000006C003000E00180010003000300C30FE
:102146000C300C100C18180CE00300000000000006
:102156000000000000000000000000000000000079
:10216600000C000E000E000F800E800E400E600E5A
:10217600200E100E100E080E040E040EFE7F000E2A
:10218600000E000E000E000E000EC07F00000000C4
:102196000000000000000000000000000000000039
:1021A600F03FF03F10001000100008000800C807BC
:1021B600280C1818081000300030003000300C30A1
:1021C6000C3004180418080CF0030000000000008E
:1021D60000000000000000000000000000000000F9
:1021E600800FC010203010301800180008000C00B6
:1021F6008C0F6C183C301C600C600C600C600C6022
:102206001860182030306018C00700000000000079
:1022160000000000000000000000000000000000B8
:10222600F83FF83F1C100C080408040400040002E0
:102236000002000100010001800080008000C00053
:10224600C000C000C000C000C000000000000000C8
:102256000000000000000000000000000000000078
:10226600E007300C18180C300C300C301C303818C5
:102276007008E007B007180E0C1C0638063006304A
:10228600063006300C18180CE003000000000000B1
:102296000000000000000000000000000000000038
:1022A600E00318040C080C18061006300630063039
:1022B600063006380C3C1836F0310030001800188D
:1022C60000180C0C0C060C03F001000000000000C6
:1022D60000000000000000000000000000000000F8
:1022E6000000000000000000000000000000800167
:1022F600C003C003800100000000000000000000D1
:1023060000008001C003C00380010000000000003F
:1023160000000000000000000000000000000000B7
:102326000000000000000000000000000000C000E7
:10233600C0000000000000000000000000000000D7
:10234600000000000000C000C000800080004000C7
:102356004000000000000000000000000000002017
:10236600001000080004000600038001C0006000A1
:10237600300018000C00180030006000C00080011A
:102386000003000600040008001000200000000002
:102396000000000000000000000000000000000037
:1023A6000000000000000000000000000000FE7FAA
:1023B60000000000000000000000FE7F000000009A
:1023C6000000000000000000000000000000000007
:1023D60000000000000000000000000000000400F3
:1023E6000800100020006000C00080010003000605
:1023F600000C001800300018000C000600038001D5
:10240600C00060002000100008000400000000006A
:102416000000000000000000000000000000C007EF
:102426003018083008600C601C601C601C600030AE
:10243600001C000600018000800080008000000073
:1024460000008001C003C0038001000000000000FE
:102456000000000000000000000000000000000076
:10246600C0076018103018200C2F8C4D864CC64CB7
:10247600C64C664C66446644662666266615CC1CC3
:102486000C40082018303018C0070000000000007B
:102496000000000000000000000000000000000135
:1024A600C001C001C00140016003200320032003D6
:1024B6003006100610061006F80F080C080C080C5B
:1024C6000C0C0418041806181F7C000000000000FD
:1024D60000000000000000000000000000000000F6
:1024E600FE07181C1838183018301830183018180D
:1024F600180CF8071818183018201860186018609B
:102506001860186018301818FE0F00000000000050
:1025160000000000000000000000000000000000B5
:10252600C0276038103018200C400C40040006000C
:1025360006000600060006000600060006000C401F
:102546000C400C2018303018C007000000000000B6
:102556000000000000000000000000000000000075
:10256600FE03180E18181830183018301860186046
:1025760018601860186018601860186018601830C5
:10258600183018101818180EFE030000000000007E
:102596000000000000000000000000000000000035
:1025A600FE3F183018201860184018001808180840
:1025B600180CF80F180C180818081800180018003E
:1025C6001840184018201830FE3F00000000000098
:1025D60000000000000000000000000000000000F5
:1025E600FE7F1870184018C01880180018101810B0
:1025F6001818F81F181818101810180018001800C6
:1026060018001800180018007E00000000000000E6
:1026160000000000000000000000000000000000B4
:10262600C013701C101018100C200C20040006009B
:10263600060006000600060006FC063006300C30D2
:102646000C30183018303008C007000000000000B9
:102656000000000000000000000000000000000074
:102666003F7E0C180C180C180C180C180C180C18AB
:102676000C180C18FC1F0C180C180C180C180C183D
:102686000C180C180C180C183F7E000000000000F7
:102696000000000000000000000000000000000034
:1026A600F81F800180018001800180018001800186
:1026B600800180018001800180018001800180010C
:1026C6008001800180018001F81F000000000000E9
:1026D60000000000000000000000000000000000F4
:1026E600E07F00060006000600060006000600065B
:1026F60000060006000600060006000600060006A4
:102706000006000600060006000600060E060E037A
:102716008E01FC0000000000000000000000000028
:102726007E7C181818081804180618021801980153
:102736009801D801B803380318071806180E180CA4
:10274600181C1818183018307EFC00000000000015
:102756000000000000000000000000000000000073
:102766007E0018001800180018001800180018003D
:102776001800180018001800180018001800180093
:102786001840184018201830FE3F000000000000D6
:102796000000000000000000000000000000000033
:1027A6001FF81C381C381C381C3C34343434343480
:1027B600343674326432643264326431C431C431C2
:1027C600C431C430C43084309FFC000000000000D7
:1027D60000000000000000000000000000000000F3
:1027E6001F7C1C103C103410341074106410E4105C
:1027F600C410C41184118413041304170416041E90
:10280600041C041C041C04181F180000000000000F
:1028160000000000000000000000000000000000B2
:10282600C003300C181808100C300C300660066017
:1028360006600660066006600660066006600C209C
:102846000C3008101818300CC003000000000000FF
:102856000000000000000000000000000000000072
:10286600FE0F181818301860186018601860186085
:1028760018301818F80F180018001800180018005B
:1028860018001800180018007E0000000000000064
:102896000000000000000000000000000000000032
:1028A600C003300C18180C100C300C2006600660A3
:1028B6000660066006600660066006600660E46103
:1028C6002C331C321816300EC007004C007C003822
:1028D60000000000000000000000000000000000F2
:1028E600FE07181C18381830183018301830181809
:1028F600180CF80798031803180718061806180E78
:10290600180C180C181C18187E780000000000001F
:1029160000000000000000000000000000000000B1
:10292600E027303818300C200C200C000C00180062
:102936007800E003800F001E00380070006004601D
:102946000460086018303818C80F00000000000046
:102956000000000000000000000000000000000071
:10296600FC3F8C218461824182418001800180018B
:102976008001800180018001800180018001800149
:102986008001800180018001E00700000000000056
:102996000000000000000000000000000000000031
:1029A6003F7C0C100C100C100C100C100C100C10A2
:1029B6000C100C100C100C100C100C100C100C1031
:1029C6000C100C1008083804E0030000000000009A
:1029D60000000000000000000000000000000000F1
:1029E6003EF8182018201820301030103010301003
:1029F600600860086008E00CC004C004C0048003DE
:102A06008003800380030001000100000000000035
:102A160000000000000000000000000000000000B0
:102A2600DFF38661862186218C210C218C238C1371
:102A36008C138C134C1358125816580E380E380E29
:102A4600380E300C100410041004000000000000C2
:102A56000000000000000000000000000000000070
:102A66007E3E180838083004300470026002E00127
:102A7600C001C001800180034003400720062006F4
:102A8600100C100C081808183E7C0000000000000E
:102A96000000000000000000000000000000000030
:102AA6007E7C1C10181018083008300C7004600466
:102AB6006002C002C002C001800180018001800165
:102AC6008001800180018001E00700000000000015
:102AD60000000000000000000000000000000000F0
:102AE600F83F18180818040C040E00060007000327
:102AF60080038001C001C000E0006000700030006B
:102B0600382018201C100C18FE1F000000000000C2
:102B160000000000000000000000C03F4000400030
:102B2600400040004000400040004000400040009F
:102B3600400040004000400040004000400040008F
:102B46004000400040004000400040004000C03FC0
:102B56000000000000000000000000000000080067
:102B660018001800100030002000600060004000CF
:102B7600C000800080018001000100030002000601
:102B860000060004000C00080018001800100030B1
:102B960000200000000000000000FC03000200020C
:102BA600000200020002000200020002000200020F
:102BB60000020002000200020002000200020002FF
:102BC6000002000200020002000200020002FC03F2
:102BD600000000000000000000008007C00620087A
:102BE60010100000000000000000000000000000BF
:102BF60000000000000000000000000000000000CF
:102C060000000000000000000000000000000000BE
:102C160000000000000000000000000000000000AE
:102C2600000000000000000000000000000000009E
:102C3600000000000000000000000000000000008E
:102C4600000000000000000000000000000000007E
:102C56000000FFFF0000000000007800C000000137
:102C6600000000000000000000000000000000005E
:102C7600000000000000000000000000000000004E
:102C8600000000000000000000000000000000003E
:102C9600000000000000000000000000000000002E
:102CA6000000000000000000000000000000F0032B
:102CB60018060C0C0C0C000C800F700C1C0C0C0C69
:102CC600060C060C064C0C4FF838000000000000FD
:102CD60000000000000000000000000000001000DE
:102CE6001E00180018001800180018001800180F09
:102CF600D818383038601860186018601860186086
:102D06001860182038307818C80700000000000046
:102D160000000000000000000000000000000000AD
:102D26000000000000000000000000000000C007D6
:102D3600700C181818180C180C000C000C000C005D
:102D46000C20182018103008C007000000000000F2
:102D5600000000000000000000000000000000105D
:102D6600001E001800180018001800180018E01BB4
:102D7600301C181818180C180C180C180C180C18ED
:102D86000C180818181C307AE00900000000000032
:102D9600000000000000000000000000000000002D
:102DA6000000000000000000000000000000C00756
:102DB600300C181808100C300C30FC3F0C000C00BE
:102DC6000C00182018107018C00700000000000042
:102DD60000000000000000000000000000000000ED
:102DE600003E80C380C0C0C0C000C000C000FC1F41
:102DF600C000C000C000C000C000C000C000C000CD
:102E0600C000C000C000C000F80F000000000000B5
:102E160000000000000000000000000000000000AC
:102E26000000000000000000000000000000C07765
:102E3600306C10181818181818181018300CF007DD
:102E460018001800F00FF03F08700C600C600C6062
:102E56003838E00F000000000000000000001000FD
:102E66001E00180018001800180018001800980F07
:102E7600D818383018301830183018301830183044
:102E860018301830183018307EFC000000000000A2
:102E9600000000000000000000000000000000002C
:102EA6008003800380030000000000000001F80199
:102EB6008001800180018001800180018001800104
:102EC6008001800180018001F81F000000000000E1
:102ED60000000000000000000000000000000000EC
:102EE6000038003800380000000000000010801F85
:102EF600001800180018001800180018001800180C
:102F06000018001800180018001800180018180CEF
:102F16001806F0030000000000000000000010008A
:102F26001E00180018001800180018001800183E97
:102F3600180C1806180318019801D8013803180749
:102F46001806180C181C18187E7C000000000000DB
:102F5600000000000000000000000000000000016A
:102F6600F8018001800180018001800180018001DB
:102F76008001800180018001800180018001800143
:102F86008001800180018001F81F00000000000020
:102F9600000000000000000000000000000000002B
:102FA6000000000000000000000000000800EE1C09
:102FB6009C338C318C318C318C318C318C318C3111
:102FC6008C318C318C318C31DE7B000000000000AE
:102FD60000000000000000000000000000000000EB
:102FE60000000000000000000000000010001E0F9E
:102FF600D8183830183018301830183018301830C3
:1030060018301830183018307EFC00000000000020
:1030160000000000000000000000000000000000AA
:103026000000000000000000000000000000C007D3
:10303600701C103018300C600C600C600C600C605A
:103046000C60183018303018C0070000000000006F
:10305600000000000000000000000000000000006A
:1030660000000000000000000000000010009E0F9D
:1030760058183830182018601860186018601860E2
:10308600186018303830781898071800180018009B
:1030960018007E0000000000000000000000000094
:1030A6000000000000000000000000000000C02337
:1030B600303C183818300C300C300C300C300C30DA
:1030C6000C3008301838303CE03300300030003027
:1030D600003000FC000000000000000000000000BE
:1030E60000000000000000000000000060007E3CC0
:1030F60060666061E000E000600060006000600003
:103106006000600060006000FE0700000000000034
:1031160000000000000000000000000000000000A9
:103126000000000000000000000000000000E02792
:1031360030381830182018007000E003800F001C8B
:10314600043004300C301C18EC0F000000000000A6
:103156000000000000000000000000000000000069
:1031660000000000800080008000C000E000FC1F1E
:10317600C000C000C000C000C000C000C000C00049
:10318600C000C020C0208011000F00000000000019
:103196000000000000000000000000000000000029
:1031A60000000000000000000000000010201E3C8F
:1031B60018301830183018301830183018301830C9
:1031C60018301830183830F4E01300000000000002
:1031D60000000000000000000000000000000000E9
:1031E60000000000000000000000000000007E3C1F
:1031F600181818083808300430047002600260029B
:10320600E001C001C001C000800000000000000015
:1032160000000000000000000000000000000000A8
:103226000000000000000000000000000000DFF7C2
:103236008E630C238C238C239813981358165816D8
:10324600700E700E700E20042004000000000000B6
:103256000000000000000000000000000000000068
:103266000000000000000000000000000000FC3E1E
:1032760070087004E004C002C001800380034007A8
:103286006006200C100C18183E7E0000000000009E
:103296000000000000000000000000000000000028
:1032A60000000000000000000000000000007E7C1E
:1032B6001818180830083008300460046004C0028A
:1032C600C002C00280018001800180008000800071
:1032D6004C003C0000000000000000000000000060
:1032E6000000000000000000000000000000FC1FBD
:1032F6000C0C040E0406000380038001C000E000ED
:103306007020302038301C18FC1F00000000000020
:10331600000000000000000000000030000800046B
:103326000004000400040004000400040004000477
:1033360000040002800100020004000400040004EE
:103346000004000400040004000400040004000853
:103356000030000000010001000100010001000131
:10336600000100010001000100010001000100014F
:10337600000100010001000100010001000100013F
:10338600000100010001000100010001000100012F
:10339600000100010000000000000C0010002000E9
:1033A6002000200020002000200020002000200017
:1033B6002000400080014000200020002000200066
:1033C6002000200020002000200020002000100007
:1033D6000C00000000003800C40086400261002294
:1033E600001C0000000000000000000000000000BB
:1033F60000000000000000000000000000000000C7
:1034060000000000000000000000000000000000B6
:0434160000000000B2
:054EF50042013B00003A
:0B51D2008FCFE5CD30E7FB75CDC0228C
:0851F1007F0C7EA9DEFEDFFC4D
:0151F9002293
:10518700AD07AC06ED1DAE0470011C4E6005125153
:04519700F180F12290
:0851C0001251E7E4FF1251C88F
:0A51C800C292D2901251D2D292226C
:0A51E700C292C2901251D2D292225D
:1043E800C2837F0A7E00125187D2837F787E0012B3
:1043F80051877FCF1251E7E4FF1251C87FC1125194
:10440800C87F301251C87FED1251E77F641251C83E
:104418007F031251C87F121251C87F811251C87F81
:10442800E81251E77F851251C87F101251C87F7A70
:104438001251C87FCB1251E77F391251C87F2C1215
:1044480051C8E4FF1251C87F341251C87F0212517B
:10445800C87FF71251E77F201251C87FEA1251C076
:104468007FC01251E77F1B1251C87FC11251E77FED
:10447800011251C87FC51251E77F301251C812513D
:10448800C87FC71251E77FB71251C87F361251E76C
:104498007F481251C87F3A1251E77F551251C87FA1
:1044A800B11251E7E4FF1251C87F1A1251C87FB602
:1044B8001251E77F0A1251C87FA21251C87FF21227
:1044C80051E7E4FF1251C87F261251E77F011251CC
:1044D800C87FE01251E77F0F1251C87F2A1251C8D6
:1044E8007F281251C87F081251C87F0E1251C87F09
:1044F800081251C87F541251C87FA91251C87F436E
:104508001251C87F0A1251C87F0F1251C81251C3E5
:104518001251C81251C87FE11251E7E4FF1251C885
:104528007F151251C87F171251C87F071251C87FD3
:10453800111251C87F061251C87F2B1251C87F56DD
:104548001251C87F3C1251C87F051251C87F101202
:1045580051C81F1251C87F3F1251C81251C87F0F4E
:104568001251C87F2B1251C00F1251C87F3F1251F0
:10457800C87F2A1251C01251C87FEF1251C87F114B
:0F4588001251E77F787E001251877F290251E799
:10506E00900089EEF0A3EFF07F2A1251E7900089AD
:10507E00E0FF1251C8A3E0FF1251C8EAFF1251C857
:10508E00AF031251C87F2B1251E7ECFF1251C8AF7C
:10509E00051251C890008FE0FF1251C8A3E0FF0225
:0250AE0051C8E7
:10000E00AD07AC06C292D290ECFF1251D2AF0512E0
:05001E0051D2D2922234
:084F5D00900130EEF0A3EFF02B
:104F650090008F7401F0A3743FF07BEF7A00E4FDAD
:104F7500FCFFFE12506E7F2C1251E7E4900132F0D7
:104F8500A3F0E4FBFA900130E0FEA3E0FF12000E6F
:104F95000BBB00010AEB64F04A70EA900133E004B0
:104FA500F07006900132E004F0C3900133E09440C4
:084FB500900132E0940140CAB2
:014FBD0022D1
:035208000251E769
:10515B00C007900087E0FFA3E090008FCFF0A3EF94
:06516B00F0D00702506EB7
:105171009000FAE0FBA3E0FAA3E0F98F828E83129C
:035181003904FFEF
:035184000251C80D
:03520B0002000E90
:104C5B0090005AEEF0A3EFF0A3ECF0A3EDF0A3EA73
:044C6B00F0A3EBF0D7
:104C6F00C006C00724FFFBEA34FFFAA3E0FEA3E06F
:104C7F0024FFFFEE34FF900087F0A3EFF0D007D0B2
:104C8F000612515B90005CE0FFA3E0900064CFF050
:104C9F00A3EFF0900060E0FEA3E0FFC3900065E09B
:104CAF009F900064E09E503990005AE0FEA3E0FB15
:104CBF00AA06D390005FE09B90005EE09A401290AE
:104CCF000062E0FEA3E0FF12520B0BBB00010A8053
:104CDF00E1900065E004F070BA900064E004F080A9
:014CEF00B212
:014CF00022A1
:104FBE0090011CFEE0FCA3E0FDC3900118E09DFDF6
:0E4FCE00900117E09CFC90011AE0FAA3E0FBB2
:104FDC0090007BEEF0A3EFF090007FEAF0A3EBF0F3
:104FEC0090007DECF0A3EDF090007BE0FAA3E0FBE9
:104FFC00FFAE02C007A3E0FFA3E0900087CFF0A3B1
:10500C00EFF0D00712515B90007FE0FEA3E0FF02AF
:02501C00520B35
:0E41FA009000C1EEF0A3EFF0A3ECF0A3EDF007
:10420800E49000CDF0A3F0A3F0A3F09000C1E0FE8D
:10421800A3E0FFC3EB9FFFEA9E9000D1F0A3EFF06D
:104228009000C3E0FAA3E0FBC39000C8E09BFE90B7
:1042380000C7E09A9000D3F0A3CEF09000C1E0FF51
:10424800A3E09000DBCFF0A3EFF0A3EAF0A3EBF03C
:104258009000D1E0FEA3E0FFD39400EE6480948048
:10426800400A9000D7E4F0A304F08021EF4E7008D4
:104278009000D7F0A3F0801574FF9000D7F0A3F05A
:10428800C3E49FFFE49E9000D1F0A3EFF09000D329
:10429800E0FEA3E0FFD39400EE64809480400A908F
:1042A80000D9E4F0A304F08021EF4E70089000D903
:1042B800F0A3F0801574FF9000D9F0A3F0C3E49F39
:1042C800FFE49E9000D3F0A3EFF09000D3E0FEA3AC
:1042D800E0FF9000D1E0FCA3E0FDD39FEE6480F8FE
:1042E800EC6480989000D54007ECF0A3EDF08005D1
:1042F800EEF0A3EFF0E49000CBF0A3F09000D6E04E
:104308002401FF9000D5E03400FEC39000CCE09F6C
:104318009000CBE09E40030243E79000DBE0FEA361
:10432800E0FFA3E0FCA3E0FD9000C9124FD7900086
:10433800D1E0FEA3E0FF9000CEE02FF09000CDE0AA
:104348003EF09000D3E0FEA3E0FF9000D0E02FF015
:104358009000CFE03EF09000D5E0FEA3E0FF900093
:10436800CDE0FCA3E0FDD39FEE6480F8EC64809878
:104378004020ED9FFFEC9E9000CDF0A3EFF0900061
:10438800D7E0FEA3E0FF9000DCE02FF09000DBE038
:104398003EF09000D5E0FEA3E0FF9000CFE0FCA344
:1043A800E0FDD39FEE6480F8EC6480984020ED9F98
:1043B800FFEC9E9000CFF0A3EFF09000D9E0FEA3B1
:1043C800E0FF9000DEE02FF09000DDE03EF090008E
:0F43D800CCE004F070069000CBE004F002430448
:0143E70022B3
:104ACE00900124EAF0A3EBF0900120EEF0A3EFF0BA
:104ADE00A3ECF0A3EDF0C007A3E0FAA3E0FB900176
:104AEE0022E0FFA3E09000C7CFF0A3EFF0900128E3
:104AFE00E0FFA3E09000C9CFF0A3EFF0D007124182
:104B0E00FA900120E0FAA3E0FBFFAE02C007A3E09B
:104B1E00FCA3E0FD900126E0FFA3E09000C7CFF0DC
:104B2E00A3EFF0900128E0FFA3E09000C9CFF0A31F
:104B3E00EFF0D0071241FA900126E0FCA3E0FD90C1
:104B4E000124E0FAA3E0FBA3E0FFA3E09000C7CFAF
:104B5E00F0A3EFF0900128E0FFA3E09000C9CFF0A2
:104B6E00A3EFF0900120E0FEA3E0FF1241FA9001C6
:104B7E0024E0FAA3E0FBFFAE02C007900122E0FCA6
:104B8E00A3E0FD900126E0FFA3E09000C7CFF0A3C5
:104B9E00EFF0900128E0FFA3E09000C9CFF0A3EF63
:064BAE00F0D0070241FAFD
:10459700900115EEF0A3EFF0A3ECF0A3EDF0A90363
:1045A700E490011CF0A3F0E9FFA3E4F0A3EFF0907F
:1045B700011EE0FEA3E0FFD390011DE09FEE6480A3
:1045C700F890011CE06480984003024732C39001D1
:1045D70016E09FFF900115E09E124FBE90011EE06E
:1045E700FEA3E0FF900116E02FFF900115E03E12B9
:1045F7004FBE90011CE0FEA3E0FFC3900116E09FB1
:10460700FF900115E09EFE90011EE0FCA3E0FD90E7
:104617000118E02DFD900117E03C124FD390011CCB
:10462700E0FEA3E0FFC3900116E09FFF900115E0B5
:104637009E90011E124FC190011EE0FEA3E0FF9065
:104647000116E02FFF900115E03EFE90011CE0FCF3
:10465700A3E0FD900118E02DFD900117E03C124FFB
:10466700D390011CE0FEA3E0FF900116E02FFF901E
:104677000115E03EFE90011E124FC290011CE0FEA4
:10468700A3E0FF900116E02FFF900115E03EFE909A
:10469700011EE0FCA3E0FD900118E02DFD9001173D
:1046A700E03C124FD390011EE0FEA3E0FFC3900150
:1046B70016E09FFF900115E09EFE90011CE0FCA311
:1046C700E0FD900118E02DFD900117E03C124FD35B
:1046D70090011DE004F0700690011CE004F09001C9
:1046E7001EE0FCA3E0FDFFAE04123943AA06AB07A8
:1046F70090011CE0FCA3E0FDFFAE04123943EF2B51
:10470700FDEE3AFCE9F5F0A4FFD3ED9FE5F06480F8
:10471700F8EC64809850030245B690011FE024FF2F
:0B472700F090011EE034FFF00245B6E8
:014732002264
:103FB200900069ECF0A3EDF0A3EBF0900067EEF057
:033FC200A3EFF07A
:103FC500E4900074F0900079EEF0A3EFF0900070AB
:103FD500E0F9C313900073F0E0FF131313541FFDB2
:103FE5007C00EF54077E0060047F0180027F00EFB4
:103FF5002DFFEE3CFEE9FD7C00123943900077EE83
:10400500F0A3EFF090006BE024E0F0900069E0FC95
:10401500A3E0FD900073E0FF7E00900067E0FAA347
:10402500E02FFFEE3ACF24FFFBEF34FFFAE9FFA3C1
:10403500E0F8A3E02FFFEE38CF24FFCF34FF900048
:104045008FF0A3EFF0900067E0FEA3E0FF12506E43
:104055007F2C1251E7E4900075F0A3F0900077E013
:10406500FEA3E0FF900075E0FCA3E0FDC39FEC9E7E
:1040750040030241F9900070E0F9B40C1C90006B0C
:10408500E075F00CA42426F582E5F03400F583E50F
:10409500822DF582E5833C807AE9B4102490007581
:1040A500E0FEA3E0FF90006BE075F010A4249AF504
:1040B50082E5F03404F583E5822FF582E5833E80C1
:1040C50052E9B41824900075E0FEA3E0FF90006B60
:1040D500E075F030A4248AF582E5F0340AF583E52D
:1040E500822FF582E5833E802AE964206003024140
:1040F500F9900075E0FEA3E0FF90006BE075F040DD
:10410500A4245AF582E5F0341CF583E5822FF58267
:10411500E5833EF583E493900072F0E4F990007135
:10412500E07041047E00A801088005C333CE33CE7C
:10413500D8F9FF900072E0FDEF5D600590006C809E
:104145000390006EE0FEA3E0FF12520B900074E0B6
:1041550004F0900073E0FFA3E08FF084E5F0707A3F
:10416500F00241E874017E00A801088005C333CE42
:1041750033CED8F9FF900072E0FDEF5D601490003A
:1041850067E0FEA3E0FFA3E0FCA3E0FD90006C1256
:104195004FD7900068E004F07006900067E004F0E7
:1041A500900079E0FEA3E0FFC3900068E09FFD90DA
:1041B5000067E09EFC900073E07A00B5051CEAB547
:1041C5000418900067EEF0A3EFF090006AE004F0A9
:1041D5007011900069E004F0800909E96408600342
:1041E500024122900076E004F07006900075E0042C
:0441F500F002406133
:0141F90022A3
:104E070090005AEEF0A3EFF0A3ECF0A3EDF0A3EBC4
:104E1700F0A3EAF0A3E9F090005EE0FBA3E0FAA3B9
:104E2700E0F91238EBFB606190005CE0FCA3E0FD69
:104E3700900061E0FFA3E090006CCFF0A3EFF0904B
:104E47000063E0FFA3E090006ECFF0A3EFF09000C7
:104E570065E0900070F0900066E0900071F09000BF
:104E67005AE0FEA3E0FF123FB2900065E0C313FFD4
:104E770090005BE02FF090005AE03400F090005F64
:0A4E8700E475F001123955808E2207
:07501E00C3EF9E14FD7F0AA1
:0850250090012AEFF0A3EDF069
:10502D00A3123AB80000000190012BE0FF14F0EF3D
:10503D006020A3E0F8A3E0F9A3E0FAA3E0FB900160
:10504D002AE0FFE4FCFDFE12398190012C123AACEE
:10505D0080D690012CE0FCA3E0FDA3E0FEA3E0FFD1
:01506D002220
:10487D00900105EEF0A3EFF0A3ECF0A3EDF0A3EAA9
:04488D00F0A3EBF0B9
:10489100E4900113F0900110E0C313900114F0E4CF
:1048A100900111F090010BE0FF900111E0FEC39F18
:1048B10040030249A812501EA804A905AA06AB0785
:1048C100900109E0FEA3E0FFE4FCFD123A0CE47B59
:1048D1000AFAF9F8123A0C900112EBF0A3E07065B4
:1048E10090010BE014FF900111E0FEC39F5056A30D
:1048F100E0704C900114E0FFEE8FF0A4FF900106F0
:10490100E02FFF900105E035F0FE900107E0FCA3E8
:10491100E0FD90010CE0FBA3E090006CCBF0A3EB79
:10492100F090010EE0FBA3E090006ECBF0A3EBF062
:10493100900110E0900070F0E4A3F07B20805C9087
:1049410001137401F0900114E0FF900111E08FF068
:10495100A4FF900106E02FFF900105E035F0FEC0B5
:1049610007900107E0FCA3E0FD900112E02430FB79
:1049710090010CE0FFA3E090006CCFF0A3EFF0906A
:10498100010EE0FFA3E090006ECFF0A3EFF09001E5
:1049910010E0900070F0E4A3F0D007123FB2900154
:0749A10011E004F00248A53B
:0149A80022EC
:0E4733009000DFEEF0A3EFF0A3ECF0A3EDF0AA
:104741009000ECE0C3139000EFF0E4FFFE7DC87C25
:10475100429000E3E0F8A3E0F9A3E0FAA3E0FB1242
:10476100341A1235209000F0EEF0A3EFF0E490003F
:10477100EDF09000E7E0FF9000EDE0FEC39F400305
:1047810002487C12501EA804A905AA06AB07900096
:10479100F0E0FEA3E0FFE4FCFD123A0CE47B0AFA30
:1047A100F9F8123A0C9000EEEBF09000E7E0FF24EC
:1047B100FEFE9000EDE06E7060EF24FEFFE434FF3A
:1047C100FE9000EFE0FD7C001239439000E0E02F05
:1047D100FF9000DFE03EFE9000E1E0FCA3E0FD90F1
:1047E10000E8E0FBA3E090006CCBF0A3EBF09000BD
:1047F100EAE0FBA3E090006ECBF0A3EBF09000ECBD
:10480100E0900070F0E4A3F07B2E123FB29000ED37
:10481100E004F09000E7E004F09000EFE0FF90008A
:10482100EDE08FF0A4FF9000E0E02FFF9000DFE0CB
:1048310035F0FEC0079000E1E0FCA3E0FD9000EE42
:10484100E02430FB9000E8E0FFA3E090006CCFF0A3
:10485100A3EFF09000EAE0FFA3E090006ECFF0A399
:10486100EFF09000ECE0900070F0E4A3F0D00712BC
:0B4871003FB29000EDE004F00247733E
:01487C002219
:1049A9009000F2EEF0A3EFF0A3ECF0A3EDF0A3EA90
:0449B900F0A3EBF08C
:1049BD00900101123AB8000000009000F4E0FCA351
:1049CD00E0FDA3E0FEA3E0FF9000F2E0FAA3E02FEC
:1049DD00FFEA3ECF24FFFBEF34FFFA9000F8E0FE34
:1049ED00A3E0FF9000F4E0F8A3E02FFFE83ECF2412
:1049FD00FFCF34FF900087F0A3EFF09000F2E0FEC0
:104A0D00A3E0FF12515BE49000FDF0A3F09000F6DF
:104A1D00E0FEA3E0FFC39000FEE09F9000FDE09E4E
:104A2D004003024ACDE49000FFF0A3F09000F8E0BF
:104A3D00FEA3E0FFC3900100E09F9000FFE09E50B9
:104A4D006BE47F02FEFDFC900101E0F8A3E0F9A309
:104A5D00E0FAA3E0FB123981125171E47F02FEFDF1
:104A6D00FC900101E0F8A3E0F9A3E0FAA3E0FB124A
:104A7D003981EF2401FFE43EFE125171900101E0F6
:104A8D00FCA3E0FDA3E0FEA3E02401FFE43EFEE471
:104A9D003DFDE43CFC900101123AAC900100E004B4
:104AAD00F070069000FFE004F0024A399000FEE03D
:104ABD0004F06003024A1A9000FDE004F0024A1A65
:014ACD0022C6
:10341A00EC4D6011E8497017ED33EC3304600DE4AC
:10342A00FCFFFEFD22E933E8330470F802358C1202
:10343A00355758046009E4CC248150062850090203
:10344A003596284003023593C0E0EB4A7044B980B0
:10345A0006D0E0FB023582EF4E701CBD8008EBFF00
:10346A00EAFEE9FD80EBE98DF0A4FEE5F002350302
:10347A00E9CDF9EAFEEBFFEF89F0A4FCE5F0CE898D
:10348A00F0A42EFFE435F0CD89F0A42DFEE435F04A
:10349A008067EF4E7005BD80D780C3EF8BF0A4AC78
:1034AA00F0EE8BF0A42CFCE435F0F8EF8AF0A42CB3
:1034BA00E5F038FCE433CB8DF0A42CFCE5F03BF8C6
:1034CA00EE8AF0A42CFCE5F038F8E433CF89F0A4B6
:1034DA002CFCE5F038CF3400CE89F0A42FFFE5F0BC
:1034EA003EFEE433C98DF0A42EFEE5F039CD8AF014
:1034FA00A42FFFE5F03EFEE43DFD33D0E0FB50078C
:10350A000BBB000F023596EC2CFCEF33FFEE33FEBB
:06351A00ED33FD02356EE9
:10352000EDD2E7CD33EC3392D524814006E4FFFEA3
:10353000FDFC22FCE4CFCECDCC24E0501174FF8002
:10354000EDC3CC13CCCD13CDCE13CECF13CF04709F
:07355000F030D5DE023A9EC7
:103B2F00E5082494F582E43400F583E0050822903B
:103B3F000091300703900094E475F001123AE90206
:103B4F0038EB2000E97F2ED2008018EF540F24901D
:103B5F00D43440D4FF30040BEF24BFB41A00500309
:103B6F002461FFE50960021509050CE50C700205DB
:103B7F000B30070E900091E475F001123AE9EF0255
:103B8F0039310251DD7403D2078003E4C207F5080F
:103B9F00900091123B00E4F509F50BF50CE5096077
:103BAF00077F20123B7280F5750AFFC201C200C267
:103BBF0002C203C205C206C208123B3EFF700D309F
:103BCF0007057F00123B83AF0CAE0B22B4255FC2FB
:103BDF00D5C204123B3EFF24D0B40A00501A75F030
:103BEF000A780930D50508B6FF0106C6A426F620C7
:103BFF00D5047002D20380D924CFB41A00EF500439
:103C0F00C2E5D204023E75D20180C6D20080C0D276
:103C1F000280BCD2D580BAD20580B47F20123B720D
:103C2F002002077401B5090040F1123B2FFF123B30
:103C3F0072023BACD208D2068095123B2FFB123B8F
:103C4F002FFA123B2FF94A4B700679737A3F7BFF9D
:103C5F0020022EE509602A7E008E827583001239BC
:103C6F000460060EEE650A70F0C2D5EBC0E0EAC044
:103C7F00E0E9C0E0EE123ED6D0E0F9D0E0FAD0E0B5
:103C8F00FB1238EBFF60AAEBC0E0EAC0E0E9C0E04E
:103C9F00123B72D0E02401F9D0E03400FAD0E0FBFF
:103CAF00E50A0460DCD50AD98087D20280A2123ED1
:103CBF00B860F7E50A7001041235A1A90A600DE595
:103CCF000A600914F50A123F60EF60F3EA30E70269
:103CDF00F404C3995079EAF4250A0430E701E404A7
:103CEF00F50A800D123EB860C1EA050A250A1235A1
:103CFF00A1EA9000C0F030E701E4250A04D50A04D8
:103D0F0020050114123ED6E4C0E0123F609000C0BF
:103D1F00E0601320E70714F0123B5A802204F0D022
:103D2F00E014C0E07F00123B5AE50A6007123B51D6
:103D3F00150A800B300503123B51D0E0023BACD08B
:103D4F00E00480C4123EB8609EE50A041235A190CB
:103D5F0000C0EAF0E50A2005026001042404123EC7
:013D6F00D67D
:103D700074FF04C0E0123F60123B5AE50A200502BE
:103D80006003123B51D0E0B50AE87F45123B6490D6
:103D900000C0E07F2B30E7047F2DF404C0E0123B2D
:103DA00072D0E075F00A84C0F0123B5BD0E0123BA9
:103DB0005B023BAC791080027908C206C208800819
:103DC000D2D5790A8004790AC2D5E50A047002F5D1
:103DD0000AE4FAFDFEFF123B2FFC7B0820011312C0
:103DE0003B2FFD7B1030000A123B2FFE123B2FFFB2
:103DF0007B20EC3382D592D55013C3E43000069F6C
:103E0000FFE49EFEE42001039DFDE49CFCE4CBF86E
:103E1000C201EC700CCFCECDCCE824F8F870F38062
:103E200017C3EF33FFEE33FEED33FDEC33FCEB3322
:103E3000FB994002FB0FD8E9EB300105F8D0E0C454
:103E400048B201C0E00AEC4D4E4F78207B0070C2B2
:103E5000EAB50A0040BCC0E0123ED8D0F0D0E02065
:103E60000104C4C0E0C4B201C0F0123B5BD0F0D585
:103E7000F0EB023BAC123B093C49533DB4583C1AB1
:103E80004C3C16423DB84F3DC0443DC0493C2F43D9
:103E90003DC6553CF3463D53453CBD473F93503CE2
:103EA0001E2D3C222E3C452B3C26233C43203F7CB0
:103EB0002A3BDE4800003C3DE50AB4FF03750A06D4
:103EC000123B2FFC123B2FFD123B2FFE123B2FFF0C
:103ED0009000B90235DE790AA2D520031430050915
:103EE000B910020404B9080104A2D5200602500149
:103EF000042002689202B509005034C0E07F2030EF
:103F000003197F30A20272067205500F123F2FC2B2
:103F100002C206C205C2087F30800F300503E9C027
:103F2000E0123B72300503D0E0F9D0E0B509CC30A7
:103F300005177F30B9100C123B727F583004077F91
:103F4000788003B90803123B723002057F2D023BD3
:103F5000727F202008F87F2B2006F322920280CF68
:103F60007F00B40700500B24B9F582E43400F583D8
:103F7000E0FF22286E756C6C2900D201123B2F30B5
:103F800001F8C201780930D50108F6023BDE2D5058
:103F9000434958123B2F2403B405004001E4903FED
:103FA0008E93123B63743A123B63D2037509040289
:023FB0003DB41E
:10355700E9D2E7C933E833F892D5EDD2E7CD33ECBA
:0735670033FC5002B2D52233
:10356E00EC30E7100FBF000C0EBE00080DBD0004BE
:10357E000BEB6014A2D5EB13FCED92E7FD2274FF6A
:10358E00FCFDFEFF22E480F8A2D574FF13FC7D80C3
:03359E00E480EFD7
:1035A100F920E73624F950037907E4F42402FBE516
:1035B10082158270021583DBF6E024FB501BE96063
:1035C10014E4F0E582158270021583E004F0B40A78
:0D35D10008E4F0D9EE7401F00A22C2D52200
:1035DE00ED33EC3392D5FA602AB4FF33EDC2E77BBC
:1035EE00FF60067A367903E4227A36790C20D50408
:1035FE007A367907224E614E002B494E46002D49F0
:10360E004E4600E47A08F0A3DAFC7B00740722C071
:10361E0083C082ECC0E0EDC0E0EEC0E0EFC0E0EAB7
:10362E0075F010A4CAABF075F04DA42BFBE435F089
:10363E00FCEA2410FAEB34C5FBEC34D9FCEDC2E7FE
:10364E00FF75F056A4F42411C5F0F434C58FF0A420
:10365E002AE5F03BE43CF020E7141238ABD0E0FF53
:10366E00D0E0FED0E0FDD0E0FC1237DE8014F40492
:10367E001238ABD0E0FFD0E0FED0E0FDD0E0FC127F
:10368E00341AD082D083E0FAEDD2E7CD33EC332476
:10369E0082FBE4C3CF33CFCE33CECD33CD33DBF38A
:1036AE007B0775F00A846004F0A31B0AE5F0F0A313
:1036BE008FF0740AA4FFACF08EF0740AA42CFEAC4A
:1036CE00F050010C8DF0740AA42CFDE435F0F0A33B
:0536DE00DBDE74072291
:1036E30002358CE86480F8E933E83360110460F054
:1036F300ED33EC337009E8FCE9FDEAFEEBFF22044D
:1037030060DED3EB9FEA9EE99DE8C2E78CF0C2F747
:1037130095F0400CE8CCF8E9CDF9EACEFAEBCFFB13
:1037230012355785D0F05804700320D5B3E80470E0
:10373300075002B2D502359692D5EC0460F7E4CC7B
:10374300C0E0C398F8603B94186008400DD0E0FBDC
:1037530002356EE4FBFAC9FC8028E830E406E4C9CC
:10376300FBE4CAFCE830E305E4C9CACBFCE8540730
:103773006010F8C3E913F9EA13FAEB13FBEC13FC3B
:10378300D8F130F52FC3E49CFCEF9BFFEE9AFEEDDE
:1037930099FDD0E0FBEF4E4D4C701222DB03023556
:1037A30093EC2CFCEF33FFEE33FEED33FDED30E70E
:1037B300EB02356EEF2BFFEE3AFEED39FDD0E0FB69
:1037C30050130BBB0003023596ED13FDEE13FEEF12
:0837D30013FFEC13FC02356E3C
:1037DB00023596EC5D046005E85904700302358CE4
:1037EB00123557580460F6EC4860F2EC7004FDFE9D
:1037FB00FF22C860DB2481C85009C39860025006C1
:10380B000235939850CAF582E9294B4A7005AB8271
:10381B0002358275F0007C1A7880C3EF9BEE9AED2F
:10382B0099400DC3EF9BFFEE9AFEED99FDE842F038
:10383B00DC23ACF0D0E0FFD0E0FED0E0FDAB82208B
:10384B00E7101BEB60BAEC2CFCEF33FFEE33FEED15
:10385B0033FD02356EE803F830E705C0F075F00074
:10386B00EF2FFFEE33FEED33FD40B830E7C280AAF9
:10387B003F8000004120000042C80000447A000055
:10388B00461C400047C35000497424004B189680D7
:10389B004CBEBC205A0E1BCA6753C21C749DC5AECE
:1038AB00FB60065407601C23231238D9EB54386095
:1038BB00091238C51238D412341AECF8EDF9EEFAB5
:1038CB00EFCB22EB1238D480F1543803241C903800
:1038DB007BFE93FC0EEE93FD0EEE930ECE93FF222A
:104CFD00024BB4E493A3F8E493A34003F68001F2CE
:104D0D0008DFF48029E493A3F85407240CC8C333B7
:104D1D00C4540F4420C8834004F456800146F6DF86
:104D2D00E4800B0102040810204080904E91E47E37
:104D3D00019360BCA3FF543F30E509541FFEE4937B
:104D4D00A360010ECF54C025E060A840B8E493A342
:104D5D00FAE493A3F8E493A3C8C582C8CAC583CA6D
:104D6D00F0A3C8C582C8CAC583CADFE9DEE780BE25
:014EFA0000B7
:1038EB00BB010689828A83E0225002E722BBFE02DB
:0938FB00E32289828A83E493220E
:10390400BB010CE58229F582E5833AF583E0225078
:1039140006E92582F8E622BBFE06E92582F8E222C2
:0D392400E58229F582E5833AF583E49322DC
:10393100BB010689828A83F0225002F722BBFE0175
:02394100F3226F
:10394300EF8DF0A4A8F0CF8CF0A428CE8DF0A42E98
:02395300FE2252
:10395500C5F0F8A3E028F0C5F0F8E58215827002FD
:063965001583E038F0229A
:10396B00A3F8E0C5F025F0F0E5821582700215830F
:06397B00E0C838F0E8226C
:10398100E88FF0A4CC8BF0A42CFCE98EF0A42CFCE5
:103991008AF0EDA42CFCEA8EF0A4CDA8F08BF0A463
:1039A1002DCC3825F0FDE98FF0A42CCD35F0FCEBC2
:1039B1008EF0A4FEA9F0EB8FF0A4CFC5F02ECD3987
:0F39C100FEE43CFCEAA42DCE35F0FDE43CFC22F4
:1039D00075F008758200EF2FFFEE33FECD33CDCCAE
:1039E00033CCC58233C5829BED9AEC99E582984031
:1039F0000CF582EE9BFEED9AFDEC99FC0FD5F0D60E
:103A0000E4CEFBE4CDFAE4CCF9A88222B800C1B937
:103A10000059BA002DEC8BF084CFCECDFCE5F0CB75
:103A2000F97818EF2FFFEE33FEED33FDEC33FCEBAE
:103A300033FB10D703994004EB99FB0FD8E5E4F969
:103A4000FA227818EF2FFFEE33FEED33FDEC33FC56
:103A5000C933C910D7059BE99A4007EC9BFCE99A4A
:103A6000F90FD8E0E4C9FAE4CCFB2275F010EF2F8F
:103A7000FFEE33FEED33FDCC33CCC833C810D7078F
:103A80009BEC9AE899400AED9BFDEC9AFCE899F8CA
:0E3A90000FD5F0DAE4CDFBE4CCFAE4C8F9225D
:0E3A9E00C3E49FFFE49EFEE49DFDE49CFC2239
:0C3AAC00ECF0A3EDF0A3EEF0A3EFF0228D
:103AB800A8828583F0D083D082123ACF123ACF12EF
:103AC8003ACF123ACFE473E493A3C583C5F0C58314
:103AD800C8C582C8F0A3C583C5F0C583C8C582C858
:013AE80022BB
:103AE900F8E0FBA3A3E0F925F0F0E5821582700266
:073AF9001583E0FA38F0220A
:093B0000EBF0A3EAF0A3E9F022C6
:103B0900D083D082F8E4937012740193700DA3A34B
:103B190093F8740193F5828883E47374029368605F
:063B2900EFA3A3A380DF5F
:00000001FF
