:0300000002514169
:0C514100787FE4F6D8FD758121025188CA
:105408006B6579646F776E2025640D0A0073657487
:105418006469616E6C697525640D0A00646F6C6F50
:105428006E6774696D6573202564207869656C768C
:105438002025640D0A00544D503A2533642E25303A
:1054480031642020004E4F573A25303564005345CB
:10545800543A253035640067657477656E64750065
:104F7C004200560000420050000142005400024220
:104F8C000058000342005201F442004E01F45E004E
:104F9C0062000000000000000000000000000000A3
:104FAC000000000000000000000000000000006095
:104FBC00280000FFFFFFFFFFFFFFFFFFFFFFFFFFCA
:104FCC00FFFFFFFFFFFFFFFFFFFFFFFFFFFFFFFFE5
:104FDC00FFFFFFFFFFFFFFFFFFFFFF4A002800005E
:104FEC00000000000000000054003200000000002F
:104FFC000000000000000000000000000000004263
:04500C00008000CB55
:1057D600759850438E40538EFE53890F758B8F7587
:0E57E6008DFDC2ABD28ED2ACD2AFE4F5A222C2
:080003008F993099FDC299228A
:08591F008F993099FDC2992215
:10588D001238EBFF600C120003740129F9E43AFAA7
:03589D0080EE2278
:1058A000759A1075D78F75D6FD438E1475AF01D2DA
:0258B000AF2225
:08592700200AFDD20A8F9B2229
:1056E6009001C9EBF0A3EAF0A3E9F09001C9E0FB51
:1056F600A3E0FAA3E0F91238EB60179001C9A3E41E
:1057060075F0011239A1A9F0FA1238EBFF125927E8
:0357160080D92215
:1057F400438E805389F0758A80758C44C28DD28C17
:09580400D28CD2A9D2B9D2AF2294
:10534500A2A3E433FF900000E025E04FF0A2A1E422
:1053550033FFA3E025E04FF0A2B7E433FFA3E02538
:10536500E04FF0A2B5E433FFA3E025E04FF0E4FF02
:1053750074002FF582E43400F583E0FE700E74624C
:105385002FF582E43400F583E4F08010BEFF0D7440
:10539500622FF582E43400F5837401F00FEFB40A4F
:0153A500CF38
:0153A60022E4
:1056390090004FE02FFD90004EE03EFCC364809443
:10564900805005E4F0A3F022D3ED94FFEC6480943C
:1056590087400B90004E7407F0A374FFF02290006E
:0B5669004FE02FF090004EE03EF022DA
:105257009000EAEEF0A3EFF07BFF7A547908900113
:1052670013EEF0A3EFF0123C519000EAE0FEA3E04A
:10527700FF4E7002B2A2900050E0FCA3E0B5070A0F
:10528700EEB5040674FFFFFE801B900058E0FEA3F6
:10529700E0FF9000EAE0FAA3E0FBB5070BEAB506EA
:1052A700077F017E00025639900054E0FEA3E0B567
:1052B7000325EAB5062190004EE0FEA3E0FF90002B
:1052C70052EEF0A3EFF07BFF7A547915900113EEBD
:0852D700F0A3EFF0123C51229C
:10579300C3EF9464EE6480948050057E007F012201
:1057A300C3EF94E8EE648094837E0050037F0A2263
:0357B3007F322220
:084EDD009000EAEEF0A3EFF0F3
:104EE50074D42DFD74FE3CFCC36480948050030291
:104EF5004F7BAF05AE041257939000ECEEF0A3EF95
:104F0500F0AE04AF057C007D96123955ED4C706608
:104F15007BFF7A5479249000EAE0FFA3E090011327
:104F2500CFF0A3EFF09000ECE0FFA3E0900115CFE8
:104F3500F0A3EFF0123C51900050E0FEA3E0FF908B
:104F450000EAE0FAA3E0FBB50713EAB5060FA3E014
:104F5500FEA3E0FFC3E49FFFE49EFE801690005889
:104F6500E0FEA3E0B5030FEAB5060B9000ECE0FE0A
:064F7500A3E0FF12563913
:014F7B002213
:10576F00EF7005ED24FF92A2EFB40105ED24FF9237
:10577F00A0EFB40205ED24FF92B6EFB40305ED24BC
:04578F00FF92B422AF
:1058B200900056E06E7003A3E06F60057D01125701
:0258C2006F2253
:1058C400900056E06E7003A3E06F6005E4FD12578C
:0258D4006F2241
:104D4600E49000E8F0A3F09000E8E0FEA3E0FFC3E3
:104D56009406EE648094804003024E1D74622FF523
:104D66008274003EF583E070679000E8A3E0242893
:104D7600F58274003EF583E070149000E8A3E02409
:104D860028F58274003EF5837401F01252579000A4
:104D9600E8E0FEA3E0FF1258C49000E8E0FCA3E0C0
:104DA600FD25E0FBEC33FA74322BF58274003AF5FC
:104DB60083E475F00112398BAF05AE0474322BF51E
:104DC6008274003AF583E0FCA3E0FD124EDD8033E9
:104DD6009000E8E0FEA3E0FF2428F58274003EF58B
:104DE60083E4F0EF25E0FFEE33FE74322FF5827494
:104DF600003EF583E4F0A3F09000E8E0FEA3E0FFB8
:104E06001258B29000E9E004F06003024D4D9000A4
:074E1600E8E004F0024D4D3D
:014E1D002272
:1052DF0090011374FFF0A37454F0A3743EF0900088
:1052EF0080E0FAA3E0FB7C007D0AFFAE0212395585
:1052FF00900116EEF0A3EFF07C007D0AAF03AE0233
:10530F00123955A3ECF0A3EDF07B017A0079E81286
:10531F003C4B7B017A0079E890011774F8F0A3E415
:10532F00F074FFA3F0A3F0A37420F0E4A3F07D7852
:06533F00FCFFFE0251CD4F
:1055630090011374FFF0A37454F0A3744DF09000F2
:1055730052E0FFA3E0900116CFF0A3EFF07B017A96
:105583000079E8123C4B7B017A0079E890011774AB
:10559300F8F0A3E4F074FFA3F0A3F0A37420F0E405
:0A55A300A3F07D28FCFFFE0251CDAD
:1055AD0090011374FFF0A37454F0A37456F090009F
:1055BD004EE0FFA3E0900116CFF0A3EFF07B017A50
:1055CD000079E8123C4B7B017A0079E89001177461
:1055DD00F8F0A3E4F074FFA3F0A3F0A37420F0E4BB
:0A55ED00A3F07D50FCFFFE0251CD3B
:095916001255631255AD0252DF77
:1050AC00E49000E6F0A3F0F594759302F592F59177
:1050BC00F596F595F5B2F5B1F5B4F5B3F5CAF5C9B4
:1050CC0075CED075CDC0C291B2A27F64FE12586568
:1050DC0012449F1257D61257F47F647E0012586503
:1050EC009000EEE4F0A374F0F074FFA3F0A3F07B57
:1050FC00407A01E4FDFCFFFE1250167F647E001224
:10510C005865125345124D467F017E00125865902A
:10511C0000E6E475F0011239A1FED3E5F09464EEDB
:10512C006480948040DCE49000E6F0A3F012580D0B
:05513C0012591680CDA0
:1056AF0090005AE475F0011239A1FC748225F0F5CF
:1056BF008274003CF583EFF0D390005BE094509040
:1056CF00005AE0648094804004E4F0A3F090004618
:0756DF00E4F0A3740AF022BD
:1055180090014D74FFF0A37454F0A3745FF0124E21
:105528001E900147EBF0A3EAF0A3E9F04A602B7B59
:10553800FF7A54795F125850900147E0FBA3E0FAD4
:10554800A3E02FF9EA3EFA124C6BEFF47002EEF486
:0A5558006008900080EEF0A3EFF071
:015562002226
:1057B6007B017A0079821255187E007F647D007B1A
:1057C600017A007982123B65E490005AF0A3F02238
:10574700D3900047E09400900046E0648094804046
:1057570016A3E024FFF0900046E034FFF0E070026B
:08576700A3E070031257B62203
:10580D007F0A7E001258657BFF7A54795F123C51F6
:07581D007F287E00025865A0
:0300230002571968
:10571900C0E0C0F0C083C082C0D075D000C000C056
:1057290004C007309807C298AF991256AFD007D076
:0E57390004D000D0D0D082D083D0F0D0E032A7
:03000B0002567426
:10567400C0E0C0F0C083C082C0D075D000C000C0FC
:1056840001C002C003C004C005C006C007125747CA
:10569400D007D006D005D004D003D002D001D0006A
:0B56A400D0D0D082D083D0F0D0E03214
:1000260000000000000000000000000000000404C2
:10003600040404000004000014140A000000000078
:100046000000000000000A0A1F0A0A1F0A0A000030
:1000560000040E1505060C14150E040000001215FA
:100066000D152E2C2A1200000000040A0A3615155A
:100076002916000002020100000000000000000036
:100086001008080404040404080810000204040804
:10009600080808080404020000000004150E0E15E6
:1000A6000400000000000008083E080800000000E8
:1000B6000000000000000000020201000000000035
:1000C600003F0000000000000000000000000000EB
:1000D60000020000002010100808040402020100BB
:1000E60000000E1111111111110E0000000004067E
:1000F60004040404040E000000000E11110804029A
:10010600011F000000000E11100C1010110E00004F
:100116000000080C0C0A091F081C000000001F0143
:10012600010F1110110E000000000C12010D131129
:10013600110E000000001E1008080404040400004C
:1001460000000E11110E1111110E000000000E110B
:100156001119161009060000000000000400000036
:100166000004000000000000000400000004040079
:10017600000010080402020408100000000000003D
:100186003F003F00000000000000020408101008B5
:100196000402000000000E1111080404000400000F
:1001A60000001C22292D2D1D221C00000000040425
:1001B6000C0A0A1E1233000000000F12120E121251
:1001C600120F000000001E1101010101110E0000B6
:1001D60000000F1212121212120F000000001F125E
:1001E6000A0E0A02121F000000001F120A0E0A025F
:1001F6000207000000001C1201013911120C000058
:1002060000003312121E12121233000000001F04E7
:1002160004040404041F000000003E08080808083F
:1002260008080907000037120A060A1212370000EA
:100236000000070202020202223F000000003B1BF0
:100246001B1B15151535000000003B1216161A1A51
:100256001217000000000E1111111111110E0000ED
:1002660000000F12120E02020207000000000E111B
:1002760011111117190E180000000F12120E0A1292
:100286001237000000001E1101060810110F0000B1
:1002960000001F1504040404040E000000003312BD
:1002A60012121212120C000000003312120A0A0C6B
:1002B600040400000000151515150E0A0A0A0000B0
:1002C60000001B0A0A04040A0A1B000000001B0A9D
:1002D6000A0A0404040E000000001F0908040402B0
:1002E600121F00001C0404040404040404041C007B
:1002F6000002020404040808081010000E0808088A
:100306000808080808080E00040A0000000000009B
:100316000000000000000000000000000000003F98
:1003260002040000000000000000000000000000C1
:10033600000C121C123C000000030202020E1212F4
:10034600120E000000000000001C1202120C000039
:1003560000181010101C1212123C000000000000C1
:10036600000C121E021C000000182404041E0404C3
:10037600041E000000000000003C120C021C221C9F
:1003860000030202020E12121237000000040400DB
:1003960000060404040E000000080800000C08080B
:1003A6000808080700030202021A0A060A130000D8
:1003B6000007040404040404041F000000000000F5
:1003C600000F15151515000000000000000F121291
:1003D6001237000000000000000C1212120C000080
:1003E60000000000000F1212120E020700000000AB
:1003F600001C1212121C103800000000001B06021E
:100406000207000000000000001E020C101E000083
:1004160000000004041E0404041C00000000000088
:10042600001B1212123C000000000000001B0A0A0A
:1004360004040000000000000015150E0A0A000062
:1004460000000000001B0A040A1B00000000000058
:10045600003312120C08040300000000001E0804FA
:10046600041E000018080808080C080808081800E8
:100476000808080808080808080808080604040404
:100486000408040404040600160900000000000025
:100496000000000000000000000000000000000056
:1004A600000000000000000808080808080800000E
:1004B6001818000000486C2412000000000000001C
:1004C600000000000000002424247F1212127F1274
:1004D600121200000000081C2A2A0A0C1828282AD2
:1004E6002A1C080800000022251515152A58545400
:1004F600542200000000000C1212120A762529115F
:10050600916E0000000606040300000000000000D3
:100516000000000000402010100808080808081015
:1005260010204000000204080810101010101008D7
:10053600080402000000000008086B1C1C6B080879
:100546000000000000000000080808087F080808EE
:10055600080000000000000000000000000000008D
:10056600060604030000000000000000FE00000074
:100576000000000000000000000000000000000075
:1005860006060000000080404020201010080804E5
:100596000402020000000018244242424242424243
:1005A60024180000000000080E08080808080808BB
:1005B600083E00000000003C424242202010080491
:1005C600427E00000000003C42422018204040428B
:1005D600221C0000000000203028242422227E2035
:1005E600207800000000007E0202021A26404042E7
:1005F600221C0000000000382402021A2642424251
:10060600241800000000007E2222101008080808A6
:10061600080800000000003C4242422418244242DE
:10062600423C000000000018244242426458404008
:10063600241C000000000000000018180000000044
:10064600181800000000000000000008000000006C
:1006560000080804000000402010080402040810E6
:10066600204000000000000000007F0000007F0026
:1006760000000000000000020408102040201008BE
:10068600040200000000003C4242464020101000D8
:10069600181800000000001C225A555555552D42C9
:1006A600221C00000000000808181414243C2242F2
:1006B60042E700000000001F2222221E2242424280
:1006C600221F00000000007C42420101010101429C
:1006D600221C00000000001F2242424242424242C7
:1006E600221F00000000003F4212121E1212024298
:1006F600423F00000000003F4212121E1212020288
:10070600020700000000003C2222010101712122A3
:10071600221C0000000000E7424242427E42424262
:1007260042E700000000003E08080808080808081C
:10073600083E00000000007C101010101010101071
:100746001010110F0000007722120A0E0A12122250
:1007560022770000000000070202020202020202E3
:10076600427F000000000077363636362A2A2A2ACB
:100776002A6B0000000000E346464A4A5252526283
:10078600624700000000001C2241414141414141B5
:10079600221C00000000003F424242423E0202028A
:1007A600020700000000001C2241414141414D5317
:1007B600321C60000000003F4242423E12122222DA
:1007C60042C700000000007C42420204182040425A
:1007D600423E00000000007F490808080808080893
:1007E600081C0000000000E74242424242424242E8
:1007F600423C0000000000E7424222242414141860
:10080600080800000000006B494949495555362241
:1008160022220000000000E742242418181824248D
:1008260042E7000000000077222214140808080896
:10083600081C00000000007E21201010080404425D
:10084600423F000000780808080808080808080859
:1008560008087800000002020404080808101020A6
:1008660020204040001E1010101010101010101004
:1008760010101E00003844000000000000000000B8
:100886000000000000000000000000000000000062
:10089600000000FF00060800000000000000000045
:1008A60000000000000000000000003C42784442C6
:1008B60042FC0000000000030202021A26424242E5
:1008C600261A000000000000000000384402020260
:1008D60044380000000000604040407844424242F4
:1008E60064D80000000000000000003C427E0202C6
:1008F600423C0000000000F08808087E080808084E
:10090600083E0000000000000000007C22221C02BD
:100916003C42423C000000030202023A4642424286
:1009260042E700000000000C0C00000E0808080852
:10093600083E000000000030300000382020202053
:100946002020221E0000000302020272120A161262
:10095600227700000000000E0808080808080808AA
:10096600083E0000000000000000007F9292929274
:1009760092B70000000000000000003B46424242E1
:1009860042E70000000000000000003C42424242F4
:10099600423C0000000000000000001B26424242CC
:1009A600221E020700000000000000784442424276
:1009B600447840E000000000000000774C04040486
:1009C600041F0000000000000000007C42023C40C2
:1009D600423E0000000000000008083E0808080823
:1009E600083000000000000000000063424242425E
:1009F60062DC000000000000000000E7422424142E
:100A06000808000000000000000000EB49495555A9
:100A160022220000000000000000007624181818AA
:100A2600246E000000000000000000E742242414A9
:100A360018080807000000000000007E22100808C1
:100A4600447E000000C020202020201020202020EE
:100A56002020C000101010101010101010101010D0
:100A660010101010000608080808081008080808E2
:100A7600080806000C32C20000000000000000005A
:100A86000000000000000000000000000000000060
:100A96000000000000000000000000000000000050
:100AA6000000000000000000000000000000000040
:100AB6000000000000000000000000006000600070
:100AC60060006000600060006000400020002000C0
:100AD60020000000000000006000600060000000D0
:100AE6000000000000000000600660063003980168
:100AF6008800440000000000000000000000000024
:100B060000000000000000000000000000000000DF
:100B160000000000000000000000000010021002AB
:100B260010021002FE07FE0708020801080108016C
:100B36000801FE07FE070401040104010401000088
:100B46000000000000000000000040004000F0012E
:100B560058034C03CC034C0058007000E000C00161
:100B6600C00140034C035C034C034801F000400005
:100B76004000000000000000000000000E010A0115
:100B8600910091009100510051003A00AE03A0027D
:100B960050045004480448044804840284030000B6
:100BA60000000000000000000000000038006C009B
:100BB6006C006C006C006C002C0098071C011A017C
:100BC600330133016301E300C308C6093C07000093
:100BD60000000000000000000C001C0010001000C7
:100BE60008000400000000000000000000000000F3
:100BF60000000000000000000000000000000000EF
:100C06000000000000000000000400020001800057
:100C1600800040004000200020002000200020002E
:100C260020002000400040008000800000010002FB
:100C3600000400000000000002000400080010008C
:100C4600100020002000400040004000400040000E
:100C560040004000200020001000100008000400A2
:100C6600020000000000000000000000000000007C
:100C76004000C0004000460C4E0FD001F0015E0F50
:100C8600460C40004000400000000000000000004C
:100C9600000000000000000000000000000000004E
:100CA600000040004000400040004000FE0F4000B1
:100CB600400040004000400000000000000000002E
:100CC600000000000000000000000000000000001E
:100CD600000000000000000000000000000000000E
:100CE60000000000000000000C001C0010001000B6
:100CF60008000400000000000000000000000000E2
:100D0600000000000000000000000000FE070000D8
:100D160000000000000000000000000000000000CD
:100D260000000000000000000000000000000000BD
:100D360000000000000000000000000000000000AD
:100D460000000000000000001C001C001C00000049
:100D5600000000000000000000040006000200037E
:100D6600000100018000800040004000600020007B
:100D7600200010001000080008000C000400060007
:100D86000200000000000000000000000000F0006B
:100D960098010C030C03060606060606060606065A
:100DA6000606060606060C030C039801F000000072
:100DB60000000000000000000000000000004000ED
:100DC6007C00600060006000600060006000600001
:100DD600600060006000600060006000FC030000CE
:100DE6000000000000000000000000000000F80005
:100DF6008401020306030603000300018001C0000C
:100E0600600020001000080204020602FE03000033
:100E16000000000000000000000000000000780054
:100E2600C6008601860180018001C0007000800135
:100E3600000100030003060306038601F800000014
:100E4600000000000000000000000000000080011B
:100E56008001C001A001A0019001880188018401E0
:100E66008201FE0F8001800180018001E007000001
:100E76000000000000000000000000000000FC036D
:100E860004000400040004000400F4008C010403C0
:100E9600000300030603060382018401F800000034
:100EA6000000000000000000000000000000E0015B
:100EB60018030C030C0004000600E60116030E06D8
:100EC60006060606060604060C021803F0000000D5
:100ED6000000000000000000000000000000F8070D
:100EE6000C0604020401000100018000800040009D
:100EF600400040006000600060006000600000008C
:100F06000000000000000000000000000000F801E2
:100F16000C030606060606060C021C03F000C801B2
:100F26000C0306060606060606060C03F00100007C
:100F36000000000000000000000000000000F000BB
:100F46000C010C03060206060606060606078C06B4
:100F560078060006000300030C018C0178000000EF
:100F6600000000000000000000000000000000007B
:100F76000000000000000000E000E000E0000000CB
:100F86000000000000000000E000E000E0000000BB
:100F9600000000000000000000000000000000004B
:100FA600000000000000000060006000000000007B
:100FB600000000000000000000006000600040002B
:100FC60020002000000000000000000000040002D5
:100FD6000001800040002000100008000400080006
:100FE6001000200040008000000100020004000004
:100FF60000000000000000000000000000000000EB
:101006000000000000000000FE07000000000000D5
:10101600FE070000000000000000000000000000C5
:1010260000000000000000000000000004000800AE
:1010360010002000400080000001000200040002B1
:10104600000180004000200010000800040000009D
:101056000000000000000000000000000000E003A7
:101066001806040C040C0C0C0C0C00078001400044
:101076004000400000000000E000E000E00000004A
:10108600000000000000000000000000E00018035F
:101096000C02CC0564056605A605B604B604B604BE
:1010A600B604B602E4010C040C021803F0000000BA
:1010B60000000000000000000000000000006000CA
:1010C60060005000D0009000900088008801080160
:1010D600F801040304030402020202060F0F0000D3
:1010E6000000000000000000000000000000FE00FC
:1010F6008C030C030C030C030C038C01FC000C0387
:101106000C020C060C060C060C060C03FE01000075
:101116000000000000000000000000000000E003E6
:1011260018030C060C04040406000600060006005C
:101136000600060006040C040C021803F00000006A
:1011460000000000000000000000000000007F001A
:101156008C010C030C030C060C060C060C060C0684
:101166000C060C060C060C030C038C017F00000019
:101176000000000000000000000000000000FF0367
:10118600060306040604060086008600FE008600A6
:10119600860086000600060406040602FF03000019
:1011A6000000000000000000000000000000FF0337
:1011B600060306040604060086008600FE00860076
:1011C6008600860006000600060006001F000000D6
:1011D6000000000000000000000000000000F00019
:1011E60018010C020C0204020600060006000600A6
:1011F600C60F060306030C030C031803F0000000D9
:1012060000000000000000000000000000000F0FBA
:10121600060606060606060606060606FE0706066F
:101226000606060606060606060606060F0F000052
:101236000000000000000000000000000000FC03A9
:101246006000600060006000600060006000600098
:10125600600060006000600060006000FC03000049
:101266000000000000000000000000000000F80779
:10127600C000C000C000C000C000C000C000C00068
:10128600C000C000C000C000C000C000C000C60052
:1012960066003C0000000000000000000000CF03D4
:1012A6008601C60046002600160036002E006E0097
:1012B6004600C60086008601060106038F07000069
:1012C60000000000000000000000000000001F00F9
:1012D60006000600060006000600060006000600D8
:1012E600060006000600060406040602FF030000C8
:1012F60000000000000000000000000000000707DA
:10130600860386038E038E034E034E034A035A0357
:101316005A033A03320332033203120387070000EB
:1013260000000000000000000000000000008E0F1A
:101336000C021C021C0234023402640264024402DF
:10134600C402840284038403040304031F0200000E
:101356000000000000000000000000000000F00097
:1013660098010C030C020606060606060606060685
:101376000606060606060C020C039801F00000009D
:101386000000000000000000000000000000FF0058
:101396000603060606060606060606068603FE007B
:1013A6000600060006000600060006001F000000F4
:1013B6000000000000000000000000000000F00037
:1013C60098010C030C020606060606060606060625
:1013D6000606060676064C02CC039801F000800746
:1013E6000003000000000000000000000000FF01F4
:1013F600060306060606060606060603FE00460061
:10140600C600860086010603060306060F0E0000C8
:101416000000000000000000000000000000F802CC
:101426000C030602060206000E003C00F800E0036C
:10143600800300070206020606060C03F001000000
:101446000000000000000000000000000000FE0791
:10145600620461086108600060006000600060006E
:10146600600060006000600060006000F80100003D
:1014760000000000000000000000000000001E0741
:101486000C020C020C020C020C020C020C020C02E6
:101496000C020C020C020C020C021801F0000000F7
:1014A60000000000000000000000000000000F0720
:1014B6000602040104010C010C0188008800980052
:1014C60098005000500070003000200020000000FE
:1014D6000000000000000000000000000000F70E01
:1014E600620442044604460464026402E402E4021E
:1014F6009C029C01980198018801880088000000E0
:1015060000000000000000000000000000009E0730
:101516000C01080118019000B00060002000600076
:101526006000D00090008801080104038E070000C7
:1015360000000000000000000000000000000F0F87
:10154600060404020C0208011801B800B00070007D
:10155600600060006000600060006000F80100004C
:101566000000000000000000000000000000FC0772
:101576000C020603020180018000400040002000AA
:1015860020001000180008040C040402FE030000EA
:101596000000000000000000E00320002000200002
:1015A6002000200020002000200020002000200035
:1015B6002000200020002000200020002000200025
:1015C600E00300000000000000000000040004002A
:1015D6000800080010001000100020002000400045
:1015E6004000C000800080000001000100020002EF
:1015F60000020004000000007C00400040004000A3
:1016060040004000400040004000400040004000D4
:1016160040004000400040004000400040004000C4
:101626007C0000000000600090000801000000003F
:1016360000000000000000000000000000000000A4
:101646000000000000000000000000000000000094
:101656000000000000000000000000000000000084
:101666000000000000000000000000000000000074
:101676000000000000000000000000000000000064
:101686000000FF0F000000001800600000000000CE
:101696000000000000000000000000000000000044
:1016A6000000000000000000000000000000000034
:1016B6000000000000000000000000000000000024
:1016C6000000000000000000F0010C030C03000302
:1016D600E0031C030E03060306038E0B7C0E0000BC
:1016E60000000000000000000000000008000E00DE
:1016F6000C000C000C000C00CC013C031C060C0674
:101706000C060C060C060C060C021C03E401000079
:1017160000000000000000000000000000000000C3
:101726000000000000000000F0008C018C01860122
:1017360006000600060006020C020C01F00000007E
:101746000000000000000000000000000002C003CE
:10175600000300030003000378038C030C03060355
:10176600060306030603060304038C07780100003C
:101776000000000000000000000000000000000063
:101786000000000000000000E001180308020C063B
:101796000C06FC070C000C0018041802E0010000FF
:1017A6000000000000000000000000000000C00370
:1017B6006006300630003000FE0130003000300098
:1017C600300030003000300030003000FC010000F6
:1017D6000000000000000000000000000000000003
:1017E6000000000000000000F007D8068C018C0104
:1017F6008C019801F8000C00FC00CC0306030603DC
:101806008E03F800000000000000000008000E0033
:101816000C000C000C000C00EC011C030C030C0368
:101826000C030C030C030C030C030C039E070000B3
:101836000000000000000000000000000000600042
:1018460060000000000040007C0060006000600056
:10185600600060006000600060006000FC03000043
:101866000000000000000000000000000000C001B1
:10187600C001000000000001F0018001800180012C
:10188600800180018001800180018001800180014A
:10189600CC007C00000000000000000008000E00E4
:1018A6000C000C000C000C008C038C008C004C000F
:1018B6006C005C008C008C010C010C039E07000080
:1018C60000000000000000000000000040007C0056
:1018D6006000600060006000600060006000600002
:1018E600600060006000600060006000FC030000B3
:1018F60000000000000000000000000000000000E2
:1019060000000000000000003707EE0666066606C7
:10191600660666066606660666066606FF0F00002B
:1019260000000000000000000000000000000000B1
:101936000000000000000000EE011C030C030C0375
:101946000C030C030C030C030C030C039E07000092
:101956000000000000000000000000000000000081
:101966000000000000000000F00098010C030606CD
:1019760006060606060606060C030C03F000000023
:101986000000000000000000000000000000000051
:101996000000000000000000EE011C030C060C060F
:1019A6000C060C060C060C060C031C03EC010C00C2
:1019B6000C003E00000000000000000000000000D7
:1019C600000000000000000078028C030C030603F0
:1019D600060306030603060304038C0378030003C9
:1019E6000003C00700000000000000000000000027
:1019F60000000000000000009F035806380618008B
:101A0600180018001800180018001800FF00000041
:101A160000000000000000000000000000000000C0
:101A26000000000000000000F0031C030C020C0282
:101A36003800F000C003040304038C03FC0100001B
:101A46000000000000000000000000000000000090
:101A56002000200030003000FE0130003000300051
:101A6600300030003000300030023002E00100006B
:101A76000000000000000000000000000000000060
:101A860000000000000008028E030C030C030C0388
:101A96000C030C030C030C030C039C0778010000D9
:101AA6000000000000000000000000000000000030
:101AB60000000000000000001E070C0208010801DB
:101AC60018019000B000B000600060002000000027
:101AD6000000000000000000000000000000000000
:101AE6000000000000000000F70E620446046402D5
:101AF6006402EC029C01980198019801080000001C
:101B060000000000000000000000000000000000CF
:101B16000000000000000000BC0718011001B00022
:101B260060006000E0009000080108039E070000C6
:101B3600000000000000000000000000000000009F
:101B460000000000000000009E07080108010801CF
:101B560090009000B000600060006000200020004F
:101B660024001C000000000000000000000000002F
:101B76000000000000000000FC018401C4004400D5
:101B8600600020003000180208020C03FC0100006F
:101B960000000000000000000003800080008000BC
:101BA600800080008000800080004000200040000F
:101BB600800080008000800080008000800080001F
:101BC600000300004000400040004000400040008C
:101BD60040004000400040004000400040004000FF
:101BE60040004000400040004000400040004000EF
:101BF60040004000000000000C0010001000100023
:101C060010001000100010001000200040002000FE
:101C1600100010001000100010001000100010003E
:101C26000C00000000001C002204C2048003000017
:101C3600000000000000000000000000000000009E
:101C4600000000000000000000000000000000008E
:101C5600000000000000000000000000000000007E
:101C6600000000000000000000000000000000006E
:101C7600000000000000000000000000000000005E
:101C8600000000000000000000000000000000004E
:101C96000000000000000000000000000000C0017D
:101CA600C001C001C001C001C001C00180008000A8
:101CB600800080008000800080000000000000009E
:101CC60000008001C003C003800100000000000086
:101CD60000000000000000000000E01CE01CF01EF8
:101CE600700E380718030801840000000000000089
:101CF60000000000000000000000000000000000DE
:101D060000000000000000000000000000000000CD
:101D160000000000000000000000000000000000BD
:101D260020102010201020102010FE7FFE7F1008AB
:101D3600100810081008100810081008FE7FFE7F13
:101D46000804080408040804080400000000000051
:101D5600000000000000000000000000000100017B
:101D6600C007601910311831183918393801700157
:101D7600E001C0038007000F001D003900311C314F
:101D86001C310C310C11180DE00700010001000197
:101D9600000000000000000000000000000000003D
:101DA6001C1036186308630C630463046302630241
:101DB6006301361D9C378022806340634063206345
:101DC6002063306310221836081C00000000000053
:101DD60000000000000000000000000000000000FD
:101DE600F00098018C018C018C018C018C00CC00D8
:101DF6007800183E1C083608320863046304C304DE
:101E0600C303834306438E26781C000000000000AF
:101E1600000000000000000000001C003C003C0028
:101E26003000300010000C0006000000000000002A
:101E3600000000000000000000000000000000009C
:101E4600000000000000000000000000000000008C
:101E5600000000000000000000000040002000100C
:101E66000008000C000400060003000300038001C4
:101E760080018001800180018001800180010003D2
:101E86000003000300060006000C000800100020F6
:101E960000400000000000000000020004000800EE
:101EA6001000300020006000C000C000C0008001AB
:101EB6008001800180018001800180018001C000D5
:101EC600C000C00060006000300010000800040080
:101ED60002000000000000000000000000000000FA
:101EE6000000000000018003800300011C713C79A2
:101EF600783DC0070001C007783D3C791C710001A0
:101F06008003800380010000000000000000000044
:101F160000000000000000000000000000000000BB
:101F260000000000000000010001000100010001A6
:101F360000010001FC7F0001000100010001000119
:101F46000001000100000000000000000000000089
:101F5600000000000000000000000000000000007B
:101F6600000000000000000000000000000000006B
:101F7600000000000000000000000000000000005B
:101F8600000000001C003C003C0030003000100047
:101F96000C00060000000000000000000000000029
:101FA600000000000000000000000000000000002B
:101FB60000000000FE7F000000000000000000009E
:101FC600000000000000000000000000000000000B
:101FD60000000000000000000000000000000000FB
:101FE60000000000000000000000000000000000EB
:101FF60000000000000000000000000000000000DB
:10200600000018003C003C00180000000000000022
:1020160000000000000000000000004000600020FA
:102026000030001000180008000C00040006000232
:102036000003000180018000C00040006000200015
:1020460030001000180008000C0004000600020012
:10205600000000000000000000000000000000007A
:10206600C007600C30181830183018200C600C604F
:102076000C600C600C600C600C600C600C6018202E
:10208600183018303018600CC0070000000000003F
:10209600000000000000000000000000000000003A
:1020A60000018001F801800180018001800180012A
:1020B6008001800180018001800180018001800112
:1020C600800180018001C003F81F000000000000AD
:1020D60000000000000000000000000000000000FA
:1020E600E007101C0818043004300C300C300030A7
:1020F60000180008000400020001800040002020B3
:10210600102008200430FC1FFC1F00000000000007
:1021160000000000000000000000000000000000B9
:10212600E003180E0C0C0C180C180C180018000CF8
:102136000006C003000E00180010003000300C30FE
:102146000C300C100C18180CE00300000000000006
:102156000000000000000000000000000000000079
:10216600000C000E000E000F800E800E400E600E5A
:10217600200E100E100E080E040E040EFE7F000E2A
:10218600000E000E000E000E000EC07F00000000C4
:102196000000000000000000000000000000000039
:1021A600F03FF03F10001000100008000800C807BC
:1021B600280C1818081000300030003000300C30A1
:1021C6000C3004180418080CF0030000000000008E
:1021D60000000000000000000000000000000000F9
:1021E600800FC010203010301800180008000C00B6
:1021F6008C0F6C183C301C600C600C600C600C6022
:102206001860182030306018C00700000000000079
:1022160000000000000000000000000000000000B8
:10222600F83FF83F1C100C080408040400040002E0
:102236000002000100010001800080008000C00053
:10224600C000C000C000C000C000000000000000C8
:102256000000000000000000000000000000000078
:10226600E007300C18180C300C300C301C303818C5
:102276007008E007B007180E0C1C0638063006304A
:10228600063006300C18180CE003000000000000B1
:102296000000000000000000000000000000000038
:1022A600E00318040C080C18061006300630063039
:1022B600063006380C3C1836F0310030001800188D
:1022C60000180C0C0C060C03F001000000000000C6
:1022D60000000000000000000000000000000000F8
:1022E6000000000000000000000000000000800167
:1022F600C003C003800100000000000000000000D1
:1023060000008001C003C00380010000000000003F
:1023160000000000000000000000000000000000B7
:102326000000000000000000000000000000C000E7
:10233600C0000000000000000000000000000000D7
:10234600000000000000C000C000800080004000C7
:102356004000000000000000000000000000002017
:10236600001000080004000600038001C0006000A1
:10237600300018000C00180030006000C00080011A
:102386000003000600040008001000200000000002
:102396000000000000000000000000000000000037
:1023A6000000000000000000000000000000FE7FAA
:1023B60000000000000000000000FE7F000000009A
:1023C6000000000000000000000000000000000007
:1023D60000000000000000000000000000000400F3
:1023E6000800100020006000C00080010003000605
:1023F600000C001800300018000C000600038001D5
:10240600C00060002000100008000400000000006A
:102416000000000000000000000000000000C007EF
:102426003018083008600C601C601C601C600030AE
:10243600001C000600018000800080008000000073
:1024460000008001C003C0038001000000000000FE
:102456000000000000000000000000000000000076
:10246600C0076018103018200C2F8C4D864CC64CB7
:10247600C64C664C66446644662666266615CC1CC3
:102486000C40082018303018C0070000000000007B
:102496000000000000000000000000000000000135
:1024A600C001C001C00140016003200320032003D6
:1024B6003006100610061006F80F080C080C080C5B
:1024C6000C0C0418041806181F7C000000000000FD
:1024D60000000000000000000000000000000000F6
:1024E600FE07181C1838183018301830183018180D
:1024F600180CF8071818183018201860186018609B
:102506001860186018301818FE0F00000000000050
:1025160000000000000000000000000000000000B5
:10252600C0276038103018200C400C40040006000C
:1025360006000600060006000600060006000C401F
:102546000C400C2018303018C007000000000000B6
:102556000000000000000000000000000000000075
:10256600FE03180E18181830183018301860186046
:1025760018601860186018601860186018601830C5
:10258600183018101818180EFE030000000000007E
:102596000000000000000000000000000000000035
:1025A600FE3F183018201860184018001808180840
:1025B600180CF80F180C180818081800180018003E
:1025C6001840184018201830FE3F00000000000098
:1025D60000000000000000000000000000000000F5
:1025E600FE7F1870184018C01880180018101810B0
:1025F6001818F81F181818101810180018001800C6
:1026060018001800180018007E00000000000000E6
:1026160000000000000000000000000000000000B4
:10262600C013701C101018100C200C20040006009B
:10263600060006000600060006FC063006300C30D2
:102646000C30183018303008C007000000000000B9
:102656000000000000000000000000000000000074
:102666003F7E0C180C180C180C180C180C180C18AB
:102676000C180C18FC1F0C180C180C180C180C183D
:102686000C180C180C180C183F7E000000000000F7
:102696000000000000000000000000000000000034
:1026A600F81F800180018001800180018001800186
:1026B600800180018001800180018001800180010C
:1026C6008001800180018001F81F000000000000E9
:1026D60000000000000000000000000000000000F4
:1026E600E07F00060006000600060006000600065B
:1026F60000060006000600060006000600060006A4
:102706000006000600060006000600060E060E037A
:102716008E01FC0000000000000000000000000028
:102726007E7C181818081804180618021801980153
:102736009801D801B803380318071806180E180CA4
:10274600181C1818183018307EFC00000000000015
:102756000000000000000000000000000000000073
:102766007E0018001800180018001800180018003D
:102776001800180018001800180018001800180093
:102786001840184018201830FE3F000000000000D6
:102796000000000000000000000000000000000033
:1027A6001FF81C381C381C381C3C34343434343480
:1027B600343674326432643264326431C431C431C2
:1027C600C431C430C43084309FFC000000000000D7
:1027D60000000000000000000000000000000000F3
:1027E6001F7C1C103C103410341074106410E4105C
:1027F600C410C41184118413041304170416041E90
:10280600041C041C041C04181F180000000000000F
:1028160000000000000000000000000000000000B2
:10282600C003300C181808100C300C300660066017
:1028360006600660066006600660066006600C209C
:102846000C3008101818300CC003000000000000FF
:102856000000000000000000000000000000000072
:10286600FE0F181818301860186018601860186085
:1028760018301818F80F180018001800180018005B
:1028860018001800180018007E0000000000000064
:102896000000000000000000000000000000000032
:1028A600C003300C18180C100C300C2006600660A3
:1028B6000660066006600660066006600660E46103
:1028C6002C331C321816300EC007004C007C003822
:1028D60000000000000000000000000000000000F2
:1028E600FE07181C18381830183018301830181809
:1028F600180CF80798031803180718061806180E78
:10290600180C180C181C18187E780000000000001F
:1029160000000000000000000000000000000000B1
:10292600E027303818300C200C200C000C00180062
:102936007800E003800F001E00380070006004601D
:102946000460086018303818C80F00000000000046
:102956000000000000000000000000000000000071
:10296600FC3F8C218461824182418001800180018B
:102976008001800180018001800180018001800149
:102986008001800180018001E00700000000000056
:102996000000000000000000000000000000000031
:1029A6003F7C0C100C100C100C100C100C100C10A2
:1029B6000C100C100C100C100C100C100C100C1031
:1029C6000C100C1008083804E0030000000000009A
:1029D60000000000000000000000000000000000F1
:1029E6003EF8182018201820301030103010301003
:1029F600600860086008E00CC004C004C0048003DE
:102A06008003800380030001000100000000000035
:102A160000000000000000000000000000000000B0
:102A2600DFF38661862186218C210C218C238C1371
:102A36008C138C134C1358125816580E380E380E29
:102A4600380E300C100410041004000000000000C2
:102A56000000000000000000000000000000000070
:102A66007E3E180838083004300470026002E00127
:102A7600C001C001800180034003400720062006F4
:102A8600100C100C081808183E7C0000000000000E
:102A96000000000000000000000000000000000030
:102AA6007E7C1C10181018083008300C7004600466
:102AB6006002C002C002C001800180018001800165
:102AC6008001800180018001E00700000000000015
:102AD60000000000000000000000000000000000F0
:102AE600F83F18180818040C040E00060007000327
:102AF60080038001C001C000E0006000700030006B
:102B0600382018201C100C18FE1F000000000000C2
:102B160000000000000000000000C03F4000400030
:102B2600400040004000400040004000400040009F
:102B3600400040004000400040004000400040008F
:102B46004000400040004000400040004000C03FC0
:102B56000000000000000000000000000000080067
:102B660018001800100030002000600060004000CF
:102B7600C000800080018001000100030002000601
:102B860000060004000C00080018001800100030B1
:102B960000200000000000000000FC03000200020C
:102BA600000200020002000200020002000200020F
:102BB60000020002000200020002000200020002FF
:102BC6000002000200020002000200020002FC03F2
:102BD600000000000000000000008007C00620087A
:102BE60010100000000000000000000000000000BF
:102BF60000000000000000000000000000000000CF
:102C060000000000000000000000000000000000BE
:102C160000000000000000000000000000000000AE
:102C2600000000000000000000000000000000009E
:102C3600000000000000000000000000000000008E
:102C4600000000000000000000000000000000007E
:102C56000000FFFF0000000000007800C000000137
:102C6600000000000000000000000000000000005E
:102C7600000000000000000000000000000000004E
:102C8600000000000000000000000000000000003E
:102C9600000000000000000000000000000000002E
:102CA6000000000000000000000000000000F0032B
:102CB60018060C0C0C0C000C800F700C1C0C0C0C69
:102CC600060C060C064C0C4FF838000000000000FD
:102CD60000000000000000000000000000001000DE
:102CE6001E00180018001800180018001800180F09
:102CF600D818383038601860186018601860186086
:102D06001860182038307818C80700000000000046
:102D160000000000000000000000000000000000AD
:102D26000000000000000000000000000000C007D6
:102D3600700C181818180C180C000C000C000C005D
:102D46000C20182018103008C007000000000000F2
:102D5600000000000000000000000000000000105D
:102D6600001E001800180018001800180018E01BB4
:102D7600301C181818180C180C180C180C180C18ED
:102D86000C180818181C307AE00900000000000032
:102D9600000000000000000000000000000000002D
:102DA6000000000000000000000000000000C00756
:102DB600300C181808100C300C30FC3F0C000C00BE
:102DC6000C00182018107018C00700000000000042
:102DD60000000000000000000000000000000000ED
:102DE600003E80C380C0C0C0C000C000C000FC1F41
:102DF600C000C000C000C000C000C000C000C000CD
:102E0600C000C000C000C000F80F000000000000B5
:102E160000000000000000000000000000000000AC
:102E26000000000000000000000000000000C07765
:102E3600306C10181818181818181018300CF007DD
:102E460018001800F00FF03F08700C600C600C6062
:102E56003838E00F000000000000000000001000FD
:102E66001E00180018001800180018001800980F07
:102E7600D818383018301830183018301830183044
:102E860018301830183018307EFC000000000000A2
:102E9600000000000000000000000000000000002C
:102EA6008003800380030000000000000001F80199
:102EB6008001800180018001800180018001800104
:102EC6008001800180018001F81F000000000000E1
:102ED60000000000000000000000000000000000EC
:102EE6000038003800380000000000000010801F85
:102EF600001800180018001800180018001800180C
:102F06000018001800180018001800180018180CEF
:102F16001806F0030000000000000000000010008A
:102F26001E00180018001800180018001800183E97
:102F3600180C1806180318019801D8013803180749
:102F46001806180C181C18187E7C000000000000DB
:102F5600000000000000000000000000000000016A
:102F6600F8018001800180018001800180018001DB
:102F76008001800180018001800180018001800143
:102F86008001800180018001F81F00000000000020
:102F9600000000000000000000000000000000002B
:102FA6000000000000000000000000000800EE1C09
:102FB6009C338C318C318C318C318C318C318C3111
:102FC6008C318C318C318C31DE7B000000000000AE
:102FD60000000000000000000000000000000000EB
:102FE60000000000000000000000000010001E0F9E
:102FF600D8183830183018301830183018301830C3
:1030060018301830183018307EFC00000000000020
:1030160000000000000000000000000000000000AA
:103026000000000000000000000000000000C007D3
:10303600701C103018300C600C600C600C600C605A
:103046000C60183018303018C0070000000000006F
:10305600000000000000000000000000000000006A
:1030660000000000000000000000000010009E0F9D
:1030760058183830182018601860186018601860E2
:10308600186018303830781898071800180018009B
:1030960018007E0000000000000000000000000094
:1030A6000000000000000000000000000000C02337
:1030B600303C183818300C300C300C300C300C30DA
:1030C6000C3008301838303CE03300300030003027
:1030D600003000FC000000000000000000000000BE
:1030E60000000000000000000000000060007E3CC0
:1030F60060666061E000E000600060006000600003
:103106006000600060006000FE0700000000000034
:1031160000000000000000000000000000000000A9
:103126000000000000000000000000000000E02792
:1031360030381830182018007000E003800F001C8B
:10314600043004300C301C18EC0F000000000000A6
:103156000000000000000000000000000000000069
:1031660000000000800080008000C000E000FC1F1E
:10317600C000C000C000C000C000C000C000C00049
:10318600C000C020C0208011000F00000000000019
:103196000000000000000000000000000000000029
:1031A60000000000000000000000000010201E3C8F
:1031B60018301830183018301830183018301830C9
:1031C60018301830183830F4E01300000000000002
:1031D60000000000000000000000000000000000E9
:1031E60000000000000000000000000000007E3C1F
:1031F600181818083808300430047002600260029B
:10320600E001C001C001C000800000000000000015
:1032160000000000000000000000000000000000A8
:103226000000000000000000000000000000DFF7C2
:103236008E630C238C238C239813981358165816D8
:10324600700E700E700E20042004000000000000B6
:103256000000000000000000000000000000000068
:103266000000000000000000000000000000FC3E1E
:1032760070087004E004C002C001800380034007A8
:103286006006200C100C18183E7E0000000000009E
:103296000000000000000000000000000000000028
:1032A60000000000000000000000000000007E7C1E
:1032B6001818180830083008300460046004C0028A
:1032C600C002C00280018001800180008000800071
:1032D6004C003C0000000000000000000000000060
:1032E6000000000000000000000000000000FC1FBD
:1032F6000C0C040E0406000380038001C000E000ED
:103306007020302038301C18FC1F00000000000020
:10331600000000000000000000000030000800046B
:103326000004000400040004000400040004000477
:1033360000040002800100020004000400040004EE
:103346000004000400040004000400040004000853
:103356000030000000010001000100010001000131
:10336600000100010001000100010001000100014F
:10337600000100010001000100010001000100013F
:10338600000100010001000100010001000100012F
:10339600000100010000000000000C0010002000E9
:1033A6002000200020002000200020002000200017
:1033B6002000400080014000200020002000200066
:1033C6002000200020002000200020002000100007
:1033D6000C00000000003800C40086400261002294
:1033E600001C0000000000000000000000000000BB
:1033F60000000000000000000000000000000000C7
:1034060000000000000000000000000000000000B6
:0434160000000000B2
:055010004201CC00008C
:0B58F7008FCFE5CD30E7FB75CDC02260
:09590200007F207E28DEFEDFFCA0
:01590B002279
:10586500AD07AC06ED1DAE0470011C4E6005125966
:045875000280F1229A
:0858D60012590CE4FF1258DE28
:0A58DE00C292D2901258F7D2922223
:0A590C00C292C2901258F7D2922204
:10449F00C2837F0A7E00125865D2837F787E001216
:1044AF0058657FCF12590CE4FF1258DE7FC11258A6
:1044BF00DE7F301258DE7FED12590C7F641258DE0A
:1044CF007F031258DE7F121258DE7F811258DE7F73
:1044DF00E812590C7F851258DE7F101258DE7F7A52
:1044EF001258DE7FCB12590C7F391258DE7F2C12F7
:1044FF0058DEE4FF1258DE7F341258DE7F02125866
:10450F00DE7FF712590C7F201258DE7FEA1258D641
:10451F007FC012590C7F1B1258DE7FC112590C7FBE
:10452F00011258DE7FC512590C7F301258DE125817
:10453F00DE7FC712590C7FB71258DE7F3612590C27
:10454F007FAC1258DE7F3A12590C7F551258DE7F1E
:10455F00B112590CE4FF1258DE7F1A1258DE7FB6E3
:10456F0012590C7F0A1258DE7FA21258DE7FF21208
:10457F00590CE4FF1258DE7F2612590C7F01125896
:10458F00DE7FE012590C7F0F1258DE7F2A1258DEA1
:10459F007F281258DE7F081258DE7F0E1258DE7FFA
:1045AF00081258DE7F541258DE7FA91258DE7F435F
:1045BF001258DE7F0A1258DE7F0F1258DE1258D9BA
:1045CF001258DE1258DE7FE112590CE4FF1258DE4A
:1045DF007F151258DE7F171258DE7F071258DE7FC5
:1045EF00111258DE7F061258DE7F2B1258DE7F56CF
:1045FF001258DE7F3C1258DE7F051258DE7F1012F4
:10460F0058DE1F1258DE7F3F1258DE1258DE7F0F22
:10461F001258DE7F2B1258D60F1258DE7F3F1258DA
:10462F00DE7F2A1258D61258DE7FEF1258DE7F1126
:0F463F0012590C7F787E001258657F2902590CA2
:1055F70090013FEEF0A3EFF07F2A12590C90013F84
:10560700E0FF1258DEA3E0FF1258DEEAFF1258DE71
:10561700AF031258DE7F2B12590CECFF1258DEAF86
:10562700051258DE900145E0FF1258DEA3E0FF02A5
:0256370058DE3B
:10000E00AD07AC06C292D290ECFF1258F7AF0512B4
:05001E0058F7D2922208
:0853A7009001C5EEF0A3EFF048
:1053AF009001457401F0A3743FF07BEF7A00E4FDA8
:1053BF00FCFFFE1255F77F2C12590CE49001C7F039
:1053CF00A3F0E4FBFA9001C5E0FEA3E0FF12000E8C
:1053DF000BBB00010AEB64F04A70EA9001C8E004CD
:1053EF00F070069001C7E004F0C39001C8E094404C
:0853FF009001C7E0940140CACF
:015407002282
:03592F0002590C0E
:10582400C00790013DE0FFA3E0900145CFF0A3EF56
:06583400F0D0070255F759
:10583A0090018FE0FBA3E0FAA3E0F98F828E831236
:03584A003904FF1F
:03584D000258DE20
:0359320002000E62
:105016009000E8EEF0A3EFF0A3ECF0A3EDF0A3EA26
:04502600F0A3EBF018
:10502A00C006C00724FFFBEA34FFFAA3E0FEA3E0B0
:10503A0024FFFFEE34FF90013DF0A3EFF0D007D03C
:10504A00061258249000EAE0FFA3E09000F2CFF0A5
:10505A00A3EFF09000EEE0FEA3E0FFC39000F3E0C0
:10506A009F9000F2E09E50399000E8E0FEA3E0FB3A
:10507A00AA06D39000EDE09B9000ECE09A401290D3
:10508A0000F0E0FEA3E0FF1259320BBB00010A80D8
:10509A00E19000F3E004F070BA9000F2E004F080CE
:0150AA00B253
:0150AB0022E2
:105468009001B1FEE0FCA3E0FDC39001ADE09DFD1D
:0E5478009001ACE09CFC9001AFE0FAA3E0FBD9
:10548600900131EEF0A3EFF0900135EAF0A3EBF0D6
:10549600900133ECF0A3EDF0900131E0FAA3E0FBCC
:1054A600FFAE02C007A3E0FFA3E090013DCFF0A34B
:1054B600EFF0D007125824900135E0FEA3E0FF027A
:0254C600593259
:0E42B100900156EEF0A3EFF0A3ECF0A3EDF0B9
:1042BF00E4900162F0A3F0A3F0A3F0900156E0FEAA
:1042CF00A3E0FFC3EB9FFFEA9E900166F0A3EFF020
:1042DF00900158E0FAA3E0FBC390015DE09BFE90D4
:1042EF00015CE09A900168F0A3CEF0900156E0FFD8
:1042FF00A3E0900170CFF0A3EFF0A3EAF0A3EBF0EF
:10430F00900166E0FEA3E0FFD39400EE64809480FA
:10431F00400A90016CE4F0A304F08021EF4E700886
:10432F0090016CF0A3F0801574FF90016CF0A3F076
:10433F00C3E49FFFE49E900166F0A3EFF090016845
:10434F00E0FEA3E0FFD39400EE64809480400A90D7
:10435F00016EE4F0A304F08021EF4E700890016E1F
:10436F00F0A3F0801574FF90016EF0A3F0C3E49FEB
:10437F00FFE49E900168F0A3EFF0900168E0FEA3C8
:10438F00E0FF900166E0FCA3E0FDD39FEE6480F8B0
:10439F00EC64809890016A4007ECF0A3EDF0800583
:1043AF00EEF0A3EFF0E4900160F0A3F090016BE06A
:1043BF002401FF90016AE03400FEC3900161E09F89
:1043CF00900160E09E400302449E900170E0FEA3C6
:1043DF00E0FFA3E0FCA3E0FD90015E125481900189
:1043EF0066E0FEA3E0FF900163E02FF0900162E032
:1043FF003EF0900168E0FEA3E0FF900165E02FF032
:10440F00900164E03EF090016AE0FEA3E0FF9001AE
:10441F0062E0FCA3E0FDD39FEE6480F8EC6480982B
:10442F004020ED9FFFEC9E900162F0A3EFF0900112
:10443F006CE0FEA3E0FF900171E02FF0900170E0BF
:10444F003EF090016AE0FEA3E0FF900164E0FCA360
:10445F00E0FDD39FEE6480F8EC6480984020ED9FE0
:10446F00FFEC9E900164F0A3EFF090016EE0FEA3CD
:10447F00E0FF900173E02FF0900172E03EF09001A9
:0F448F0061E004F07006900160E004F00243BBAE
:01449E0022FB
:104B85009001B9EAF0A3EBF09001B5EEF0A3EFF0D8
:104B9500A3ECF0A3EDF0C007A3E0FAA3E0FB9001BE
:104BA500B7E0FFA3E090015CCFF0A3EFF09001BD6B
:104BB500E0FFA3E090015ECFF0A3EFF0D007124233
:104BC500B19001B5E0FAA3E0FBFFAE02C007A3E098
:104BD500FCA3E0FD9001BBE0FFA3E090015CCFF0FA
:104BE500A3EFF09001BDE0FFA3E090015ECFF0A33D
:104BF500EFF0D0071242B19001BBE0FCA3E0FD90BD
:104C050001B9E0FAA3E0FBA3E0FFA3E090015CCFCC
:104C1500F0A3EFF09001BDE0FFA3E090015ECFF0BF
:104C2500A3EFF09001B5E0FEA3E0FF1242B19001C1
:104C3500B9E0FAA3E0FBFFAE02C0079001B7E0FCC4
:104C4500A3E0FD9001BBE0FFA3E090015CCFF0A3E2
:104C5500EFF09001BDE0FFA3E090015ECFF0A3EF80
:064C6500F0D0070242B18D
:10464E009001AAEEF0A3EFF0A3ECF0A3EDF0A90316
:10465E00E49001B1F0A3F0E9FFA3E4F0A3EFF09032
:10466E0001B3E0FEA3E0FFD39001B2E09FEE6480C1
:10467E00F89001B1E064809840030247E9C39001CD
:10468E00ABE09FFF9001AAE09E1254689001B3E048
:10469E00FEA3E0FF9001ABE02FFF9001AAE03E12D7
:1046AE0054689001B1E0FEA3E0FFC39001ABE09F20
:1046BE00FF9001AAE09EFE9001B3E0FCA3E0FD9006
:1046CE0001ADE02DFD9001ACE03C12547D9001B1A6
:1046DE00E0FEA3E0FFC39001ABE09FFF9001AAE0D4
:1046EE009E9001B312546B9001B3E0FEA3E0FF90D5
:1046FE0001ABE02FFF9001AAE03EFE9001B1E0FC7D
:10470E00A3E0FD9001ADE02DFD9001ACE03C125414
:10471E007D9001B1E0FEA3E0FF9001ABE02FFF9092
:10472E0001AAE03EFE9001B312546C9001B1E0FE7E
:10473E00A3E0FF9001ABE02FFF9001AAE03EFE90B8
:10474E0001B3E0FCA3E0FD9001ADE02DFD9001ACC6
:10475E00E03C12547D9001B3E0FEA3E0FFC3900154
:10476E00ABE09FFF9001AAE09EFE9001B1E0FCA39A
:10477E00E0FD9001ADE02DFD9001ACE03C12547DCA
:10478E009001B2E004F070069001B1E004F09001E7
:10479E00B3E0FCA3E0FDFFAE04123943AA06AB075B
:1047AE009001B1E0FCA3E0FDFFAE04123943EF2B04
:1047BE00FDEE3AFCE9F5F0A4FFD3ED9FE5F0648041
:1047CE00F8EC648098500302466D9001B4E024FF2B
:0B47DE00F09001B3E034FFF002466DE4
:0147E90022AD
:1040690090011FECF0A3EDF0A3EBF090011DEEF031
:03407900A3EFF0C2
:10407C00E490012AF090012FEEF0A3EFF0900126CE
:10408C00E0F9C313900129F0E0FF131313541FFD43
:10409C007C00EF54077E0060047F0180027F00EFFC
:1040AC002DFFEE3CFEE9FD7C0012394390012DEE14
:1040BC00F0A3EFF0900121E024E0F090011FE0FC70
:1040CC00A3E0FD900129E0FF7E0090011DE0FAA322
:1040DC00E02FFFEE3ACF24FFFBEF34FFFAE9FFA30A
:1040EC00E0F8A3E02FFFEE38CF24FFCF34FF900190
:1040FC0045F0A3EFF090011DE0FEA3E0FF1255F791
:10410C007F2C12590CE490012BF0A3F090012DE0C0
:10411C00FEA3E0FF90012BE0FCA3E0FDC39FEC9E0F
:10412C0040030242B0900126E0F9B40C1C9001212E
:10413C00E075F00CA42426F582E5F03400F583E557
:10414C00822DF582E5833C807AE9B4102490012B12
:10415C00E0FEA3E0FF900121E075F010A4249AF595
:10416C0082E5F03404F583E5822FF582E5833E8009
:10417C0052E9B4182490012BE0FEA3E0FF9001213A
:10418C00E075F030A4248AF582E5F0340AF583E575
:10419C00822FF582E5833E802AE964206003024287
:1041AC00B090012BE0FEA3E0FF900121E075F04000
:1041BC00A4245AF582E5F0341CF583E5822FF582B0
:1041CC00E5833EF583E493900128F0E4F990012710
:1041DC00E07041047E00A801088005C333CE33CEC5
:1041EC00D8F9FF900128E0FDEF5D60059001228079
:1041FC0003900124E0FEA3E0FF12593290012AE063
:10420C0004F0900129E0FFA3E08FF084E5F0707AD0
:10421C00F002429F74017E00A801088005C333CED2
:10422C0033CED8F9FF900128E0FDEF5D60149001CA
:10423C001DE0FEA3E0FFA3E0FCA3E0FD9001221231
:10424C00548190011EE004F0700690011DE004F012
:10425C0090012FE0FEA3E0FFC390011EE09FFD90B4
:10426C00011DE09EFC900129E07A00B5051CEAB521
:10427C00041890011DEEF0A3EFF0900120E004F083
:10428C00701190011FE004F0800909E964086003D3
:10429C000241D990012CE004F0700690012BE0044F
:0442AC00F0024118C3
:0142B00022EB
:1051CD00900110EEF0A3EFF0A3ECF0A3EDF0A3EB44
:1051DD00F0A3EAF0A3E9F0900114E0FBA3E0FAA339
:1051ED00E0F91238EBFB6061900112E0FCA3E0FDE9
:1051FD00900117E0FFA3E0900122CFF0A3EFF09014
:10520D000119E0FFA3E0900124CFF0A3EFF090018E
:10521D001BE0900126F090011CE0900127F0900119
:10522D0010E0FEA3E0FF12406990011BE0C313FFE5
:10523D00900111E02FF0900110E03400F090011575
:0A524D00E475F00112398B808E2207
:0754C800C3EF9E14FD7F0AF3
:0854CF009001BFEFF0A3EDF026
:1054D700A3123AEE000000019001C0E0FF14F0EFC4
:1054E7006020A3E0F8A3E0F9A3E0FAA3E0FB9001B2
:1054F700BFE0FFE4FCFDFE1239B79001C1123AE2AA
:1055070080D69001C1E0FCA3E0FDA3E0FEA3E0FF8D
:015517002271
:1049340090019AEEF0A3EFF0A3ECF0A3EDF0A3EA5C
:04494400F0A3EBF001
:10494800E49001A8F09001A5E0C3139001A9F0E458
:104958009001A6F09001A0E0FF9001A6E0FEC39FA1
:104968004003024A5F1254C8A804A905AA06AB0767
:1049780090019EE0FEA3E0FFE4FCFD123A42E47BD6
:104988000AFAF9F8123A429001A7EBF0A3E0706531
:104998009001A0E014FF9001A6E0FEC39F5056A32B
:1049A800E0704C9001A9E0FFEE8FF0A4FF90019B0E
:1049B800E02FFF90019AE035F0FE90019CE0FCA307
:1049C800E0FD9001A1E0FBA3E0900122CBF0A3EB76
:1049D800F09001A3E0FBA3E0900124CBF0A3EBF05F
:1049E8009001A5E0900126F0E4A3F07B20805C9084
:1049F80001A87401F09001A9E0FF9001A6E08FF0F2
:104A0800A4FF90019BE02FFF90019AE035F0FEC0D3
:104A18000790019CE0FCA3E0FD9001A7E02430FB97
:104A28009001A1E0FFA3E0900122CFF0A3EFF09066
:104A380001A3E0FFA3E0900124CFF0A3EFF09001E1
:104A4800A5E0900126F0E4A3F0D007124069900198
:074A5800A6E004F002495C36
:014A5F002234
:0E47EA00900174EEF0A3EFF0A3ECF0A3EDF05D
:1047F800900181E0C313900184F0E4FFFE7DC87C42
:1048080042900178E0F8A3E0F9A3E0FAA3E0FB12F4
:10481800341A123520900185EEF0A3EFF0E49001F0
:1048280082F090017CE0FF900182E0FEC39F40038C
:104838000249331254C8A804A905AA06AB07900177
:1048480085E0FEA3E0FFE4FCFD123A42E47B0AFAAD
:10485800F9F8123A42900183EBF090017CE0FF24D2
:10486800FEFE900182E06E7060EF24FEFFE434FFEC
:10487800FE900184E0FD7C00123943900175E02F21
:10488800FF900174E03EFE900176E0FCA3E0FD900D
:10489800017DE0FBA3E0900122CBF0A3EBF09001B7
:1048A8007FE0FBA3E0900124CBF0A3EBF090018123
:1048B800E0900126F0E4A3F07B2E1240699001827B
:1048C800E004F090017CE004F0900184E0FF9001A6
:1048D80082E08FF0A4FF900175E02FFF900174E053
:1048E80035F0FEC007900176E0FCA3E0FD9001835F
:1048F800E02430FB90017DE0FFA3E0900122CFF09F
:10490800A3EFF090017FE0FFA3E0900124CFF0A394
:10491800EFF0900181E0900126F0E4A3F0D00712B7
:0B4928004069900182E004F002482A80
:014933002261
:104A6000900187EEF0A3EFF0A3ECF0A3EDF0A3EA42
:044A7000F0A3EBF0D4
:104A7400900196123AEE00000000900189E0FCA338
:104A8400E0FDA3E0FEA3E0FF900187E0FAA3E02F9E
:104A9400FFEA3ECF24FFFBEF34FFFA90018DE0FEE6
:104AA400A3E0FF900189E0F8A3E02FFFE83ECF24C4
:104AB400FFCF34FF90013DF0A3EFF0900187E0FEBB
:104AC400A3E0FF125824E4900192F0A3F090018B2C
:104AD400E0FEA3E0FFC3900193E09F900192E09E6B
:104AE4004003024B84E4900194F0A3F090018DE024
:104AF400FEA3E0FFC3900195E09F900194E09E50D7
:104B04006BE47F02FEFDFC900196E0F8A3E0F9A3BC
:104B1400E0FAA3E0FB1239B712583AE47F02FEFD33
:104B2400FC900196E0F8A3E0F9A3E0FAA3E0FB12FD
:104B340039B7EF2401FFE43EFE12583A900196E0A3
:104B4400FCA3E0FDA3E0FEA3E02401FFE43EFEE4B9
:104B54003DFDE43CFC900196123AE2900195E0049C
:104B6400F07006900194E004F0024AF0900193E0A2
:104B740004F06003024AD1900192E004F0024AD1A9
:014B8400220E
:10341A00EC4D6011E8497017ED33EC3304600DE4AC
:10342A00FCFFFEFD22E933E8330470F802358C1202
:10343A00355758046009E4CC248150062850090203
:10344A003596284003023593C0E0EB4A7044B980B0
:10345A0006D0E0FB023582EF4E701CBD8008EBFF00
:10346A00EAFEE9FD80EBE98DF0A4FEE5F002350302
:10347A00E9CDF9EAFEEBFFEF89F0A4FCE5F0CE898D
:10348A00F0A42EFFE435F0CD89F0A42DFEE435F04A
:10349A008067EF4E7005BD80D780C3EF8BF0A4AC78
:1034AA00F0EE8BF0A42CFCE435F0F8EF8AF0A42CB3
:1034BA00E5F038FCE433CB8DF0A42CFCE5F03BF8C6
:1034CA00EE8AF0A42CFCE5F038F8E433CF89F0A4B6
:1034DA002CFCE5F038CF3400CE89F0A42FFFE5F0BC
:1034EA003EFEE433C98DF0A42EFEE5F039CD8AF014
:1034FA00A42FFFE5F03EFEE43DFD33D0E0FB50078C
:10350A000BBB000F023596EC2CFCEF33FFEE33FEBB
:06351A00ED33FD02356EE9
:10352000EDD2E7CD33EC3392D524814006E4FFFEA3
:10353000FDFC22FCE4CFCECDCC24E0501174FF8002
:10354000EDC3CC13CCCD13CDCE13CECF13CF04709F
:07355000F030D5DE023AD491
:103BE600E5082413F582E43401F583E00508229004
:103BF6000110300703900113E475F001123B1F0218
:103C060038EB2000E97F2ED2008018EF540F249065
:103C1600D43440D4FF30040BEF24BFB41A00500351
:103C26002461FFE50960021509050CE50C70020523
:103C36000B30070E900110E475F001123B1FEF02E6
:103C4600393102591F7403D2078003E4C207F5080D
:103C5600900110123B36E4F509F50BF50CE5096009
:103C6600077F20123C2980F5750AFFC201C200C2F7
:103C760002C203C205C206C208123BF5FF700D3030
:103C860007057F00123C3AAF0CAE0B22B4255FC28B
:103C9600D5C204123BF5FF24D0B40A00501A75F0C1
:103CA6000A780930D50508B6FF0106C6A426F6200F
:103CB600D5047002D20380D924CFB41A00EF500481
:103CC600C2E5D204023F2CD20180C6D20080C0D207
:103CD6000280BCD2D580BAD20580B47F20123C299E
:103CE6002002077401B5090040F1123BE6FF123CC1
:103CF60029023C63D208D2068095123BE6FB123BB2
:103D0600E6FA123BE6F94A4B7006792A7A407BFFBF
:103D160020022EE509602A7E008E82758300123904
:103D26000460060EEE650A70F0C2D5EBC0E0EAC08C
:103D3600E0E9C0E0EE123F8DD0E0F9D0E0FAD0E045
:103D4600FB1238EBFF60AAEBC0E0EAC0E0E9C0E096
:103D5600123C29D0E02401F9D0E03400FAD0E0FB8F
:103D6600E50A0460DCD50AD98087D20280A2123F18
:103D76006F60F7E50A7001041235A1A90A600DE526
:103D86000A600914F50A124017EF60F3EA30E702F9
:103D9600F404C3995079EAF4250A0430E701E404EF
:103DA600F50A800D123F6F60C1EA050A250A123531
:103DB600A1EA90013FF030E701E4250A04D50A04A0
:103DC60020050114123F8DE4C0E012401790013F18
:103DD600E0601320E70714F0123C11802204F0D0B3
:103DE600E014C0E07F00123C11E50A6007123C08AF
:103DF600150A800B300503123C08D0E0023C63D064
:103E0600E00480C4123F6F609EE50A041235A1905B
:103E1600013FEAF0E50A2005026001042404123F8E
:013E26008D0E
:103E270074FF04C0E0124017123C11E50A20050296
:103E37006003123C08D0E0B50AE87F45123C1B90AE
:103E4700013FE07F2B30E7047F2DF404C0E0123CF4
:103E570029D0E075F00A84C0F0123C12D0E0123C81
:103E670012023C63791080027908C206C2088008F2
:103E7700D2D5790A8004790AC2D5E50A047002F519
:103E87000AE4FAFDFEFF123BE6FC7B082001131251
:103E97003BE6FD7B1030000A123BE6FE123BE6FFD5
:103EA7007B20EC3382D592D55013C3E43000069FB4
:103EB700FFE49EFEE42001039DFDE49CFCE4CBF8B7
:103EC700C201EC700CCFCECDCCE824F8F870F380AB
:103ED70017C3EF33FFEE33FEED33FDEC33FCEB336B
:103EE700FB994002FB0FD8E9EB300105F8D0E0C49D
:103EF70048B201C0E00AEC4D4E4F78207B0070C2FB
:103F0700EAB50A0040BCC0E0123F8FD0F0D0E020F5
:103F17000104C4C0E0C4B201C0F0123C12D0F0D515
:103F2700F0EB023C63123B3F3D00533E6B583CD1E4
:103F37004C3CCD423E6F4F3E77443E77493CE6438B
:103F47003E7D553DAA463E0A453D7447404A503C92
:103F5700D52D3CD92E3CFC2B3CDD233CFA204033AD
:103F67002A3C954800003CF4E50AB4FF03750A06AD
:103F7700123BE6FC123BE6FD123BE6FE123BE6FF78
:103F87009001380235DE790AA2D5200314300509DD
:103F9700B910020404B9080104A2D5200602500191
:103FA700042002689202B509005034C0E07F203037
:103FB70003197F30A20272067205500F123FE6C244
:103FC70002C206C205C2087F30800F300503E9C070
:103FD700E0123C29300503D0E0F9D0E0B509CC3038
:103FE70005177F30B9100C123C297F583004077F22
:103FF700788003B90803123C293002057F2D023C63
:10400700297F202008F87F2B2006F322920280CFF9
:104017007F00B40700500B2438F582E43401F583A0
:10402700E0FF22286E756C6C2900D201123BE63046
:1040370001F8C201780930D50108F6023C952D50E8
:10404700434958123BE62403B405004001E490407D
:104057004593123C1A743A123C1AD20375090402AA
:024067003E6BAE
:10355700E9D2E7C933E833F892D5EDD2E7CD33ECBA
:0735670033FC5002B2D52233
:10356E00EC30E7100FBF000C0EBE00080DBD0004BE
:10357E000BEB6014A2D5EB13FCED92E7FD2274FF6A
:10358E00FCFDFEFF22E480F8A2D574FF13FC7D80C3
:03359E00E480EFD7
:1035A100F920E73624F950037907E4F42402FBE516
:1035B10082158270021583DBF6E024FB501BE96063
:1035C10014E4F0E582158270021583E004F0B40A78
:0D35D10008E4F0D9EE7401F00A22C2D52200
:1035DE00ED33EC3392D5FA602AB4FF33EDC2E77BBC
:1035EE00FF60067A367903E4227A36790C20D50408
:1035FE007A367907224E614E002B494E46002D49F0
:10360E004E4600E47A08F0A3DAFC7B00740722C071
:10361E0083C082ECC0E0EDC0E0EEC0E0EFC0E0EAB7
:10362E0075F010A4CAABF075F04DA42BFBE435F089
:10363E00FCEA2410FAEB34C5FBEC34D9FCEDC2E7FE
:10364E00FF75F056A4F42411C5F0F434C58FF0A420
:10365E002AE5F03BE43CF020E7141238ABD0E0FF53
:10366E00D0E0FED0E0FDD0E0FC1237DE8014F40492
:10367E001238ABD0E0FFD0E0FED0E0FDD0E0FC127F
:10368E00341AD082D083E0FAEDD2E7CD33EC332476
:10369E0082FBE4C3CF33CFCE33CECD33CD33DBF38A
:1036AE007B0775F00A846004F0A31B0AE5F0F0A313
:1036BE008FF0740AA4FFACF08EF0740AA42CFEAC4A
:1036CE00F050010C8DF0740AA42CFDE435F0F0A33B
:0536DE00DBDE74072291
:1036E30002358CE86480F8E933E83360110460F054
:1036F300ED33EC337009E8FCE9FDEAFEEBFF22044D
:1037030060DED3EB9FEA9EE99DE8C2E78CF0C2F747
:1037130095F0400CE8CCF8E9CDF9EACEFAEBCFFB13
:1037230012355785D0F05804700320D5B3E80470E0
:10373300075002B2D502359692D5EC0460F7E4CC7B
:10374300C0E0C398F8603B94186008400DD0E0FBDC
:1037530002356EE4FBFAC9FC8028E830E406E4C9CC
:10376300FBE4CAFCE830E305E4C9CACBFCE8540730
:103773006010F8C3E913F9EA13FAEB13FBEC13FC3B
:10378300D8F130F52FC3E49CFCEF9BFFEE9AFEEDDE
:1037930099FDD0E0FBEF4E4D4C701222DB03023556
:1037A30093EC2CFCEF33FFEE33FEED33FDED30E70E
:1037B300EB02356EEF2BFFEE3AFEED39FDD0E0FB69
:1037C30050130BBB0003023596ED13FDEE13FEEF12
:0837D30013FFEC13FC02356E3C
:1037DB00023596EC5D046005E85904700302358CE4
:1037EB00123557580460F6EC4860F2EC7004FDFE9D
:1037FB00FF22C860DB2481C85009C39860025006C1
:10380B000235939850CAF582E9294B4A7005AB8271
:10381B0002358275F0007C1A7880C3EF9BEE9AED2F
:10382B0099400DC3EF9BFFEE9AFEED99FDE842F038
:10383B00DC23ACF0D0E0FFD0E0FED0E0FDAB82208B
:10384B00E7101BEB60BAEC2CFCEF33FFEE33FEED15
:10385B0033FD02356EE803F830E705C0F075F00074
:10386B00EF2FFFEE33FEED33FD40B830E7C280AAF9
:10387B003F8000004120000042C80000447A000055
:10388B00461C400047C35000497424004B189680D7
:10389B004CBEBC205A0E1BCA6753C21C749DC5AECE
:1038AB00FB60065407601C23231238D9EB54386095
:1038BB00091238C51238D412341AECF8EDF9EEFAB5
:1038CB00EFCB22EB1238D480F1543803241C903800
:1038DB007BFE93FC0EEE93FD0EEE930ECE93FF222A
:10514D000250ACE493A3F8E493A34003F68001F27C
:10515D0008DFF48029E493A3F85407240CC8C33363
:10516D00C4540F4420C8834004F456800146F6DF32
:10517D00E4800B0102040810204080904F7CE47EF7
:10518D00019360BCA3FF543F30E509541FFEE49327
:10519D00A360010ECF54C025E060A840B8E493A3EE
:1051AD00FAE493A3F8E493A3C8C582C8CAC583CA19
:1051BD00F0A3C8C582C8CAC583CADFE9DEE780BED1
:01501500009A
:1038EB00BB010689828A83E0225002E722BBFE02DB
:0938FB00E32289828A83E493220E
:10390400BB010CE58229F582E5833AF583E0225078
:1039140006E92582F8E622BBFE06E92582F8E222C2
:0D392400E58229F582E5833AF583E49322DC
:10393100BB010689828A83F0225002F722BBFE0175
:02394100F3226F
:10394300EF8DF0A4A8F0CF8CF0A428CE8DF0A42E98
:02395300FE2252
:10395500C2D5EC30E709B2D5E4C39DFDE49CFCEE8D
:1039650030E715B2D5E4C39FFFE49EFE123B91C339
:10397500E49DFDE49CFC8003123B9130D507C3E434
:063985009FFFE49EFE22FC
:10398B00C5F0F8A3E028F0C5F0F8E58215827002C7
:06399B001583E038F02264
:1039A100A3F8E0C5F025F0F0E582158270021583D9
:0639B100E0C838F0E82236
:1039B700E88FF0A4CC8BF0A42CFCE98EF0A42CFCAF
:1039C7008AF0EDA42CFCEA8EF0A4CDA8F08BF0A42D
:1039D7002DCC3825F0FDE98FF0A42CCD35F0FCEB8C
:1039E7008EF0A4FEA9F0EB8FF0A4CFC5F02ECD3951
:0F39F700FEE43CFCEAA42DCE35F0FDE43CFC22BE
:103A060075F008758200EF2FFFEE33FECD33CDCC77
:103A160033CCC58233C5829BED9AEC99E5829840FA
:103A26000CF582EE9BFEED9AFDEC99FC0FD5F0D6D7
:103A3600E4CEFBE4CDFAE4CCF9A88222B800C1B901
:103A46000059BA002DEC8BF084CFCECDFCE5F0CB3F
:103A5600F97818EF2FFFEE33FEED33FDEC33FCEB78
:103A660033FB10D703994004EB99FB0FD8E5E4F933
:103A7600FA227818EF2FFFEE33FEED33FDEC33FC20
:103A8600C933C910D7059BE99A4007EC9BFCE99A14
:103A9600F90FD8E0E4C9FAE4CCFB2275F010EF2F59
:103AA600FFEE33FEED33FDCC33CCC833C810D70759
:103AB6009BEC9AE899400AED9BFDEC9AFCE899F894
:0E3AC6000FD5F0DAE4CDFBE4CCFAE4C8F92227
:0E3AD400C3E49FFFE49EFEE49DFDE49CFC2203
:0C3AE200ECF0A3EDF0A3EEF0A3EFF02257
:103AEE00A8828583F0D083D082123B05123B05124B
:103AFE003B05123B05E473E493A3C583C5F0C58370
:103B0E00C8C582C8F0A3C583C5F0C583C8C582C821
:013B1E002284
:103B1F00F8E0FBA3A3E0F925F0F0E582158270022F
:073B2F001583E0FA38F022D3
:093B3600EBF0A3EAF0A3E9F02290
:103B3F00D083D082F8E4937012740193700DA3A315
:103B4F0093F8740193F5828883E473740293686029
:063B5F00EFA3A3A380DF29
:10585000E4FFFE1238EB600C0FEF70010E09E970E7
:05586000F20A80EF22B6
:104E1E0090014AEBF0A3EAF0A3E9F0A3E0FBA3E0D4
:104E2E00FAA3E0F91238EB7003024ECA90014AE081
:104E3E00FBA3E0FAA3E0F91238EB7003024ED69012
:104E4E00014DE0F9A3E0FAA3E0A3C9F0A3EAF0A3B1
:104E5E00E9F090014AA3E0FAA3E0F9900153EBF0D8
:104E6E00A3EAF0A3E9F0900150E0FBA3E0FAA3E07F
:104E7E00F91238EBFF6026900153E0FBA3E0FAA392
:104E8E00E0F91238EB6F701590015175F00112397F
:104E9E008B900154E475F00112398B80C99001504A
:104EAE00E0FBA3E0FAA3E0F91238EB7002800D905C
:104EBE00014BE475F00112398B024E3A90014AE033
:0F4ECE00FBA3E0FAA3E0F9227B007A007900222F
:104C6B0090014AEBF0A3EAF0A3E9F090014AE0FBD4
:104C7B00A3E0FAA3E0F91238EBFF125879500C902D
:104C8B00014BE475F00112398B80E0D20990014A97
:104C9B00E0FBA3E0FAA3E0F91238EBFF642B60040E
:104CAB00EFB42D1D90014AE0FBA3E475F00112391E
:104CBB00A1A9F0FA1238EB642D6003D38001C392E3
:104CCB0009E490014DF0A3F090014AE0FBA3E0FA58
:104CDB00A3E0F91238EBFF1258E8504290014AE07A
:104CEB00FBA3E0FAA3E0F91238EBFF3395E0FEEFFC
:104CFB0024D0FBEE34FFFA90014DE0FEA3E0FF7CE5
:104D0B00007D0A123943EF2BFFEE3A90014DF0A3D1
:104D1B00EFF090014BE475F00112398B80AA30094A
:104D2B000A90014DE0FEA3E0FF800F90014DE0FEE5
:0B4D3B00A3E0FFC3E49FFFE49EFE2204
:103B6500EF4E6012EF60010EEDBB010B89828A8377
:103B7500F0A3DFFCDEFA2289F05007F709DFFCA984
:0C3B8500F022BBFEFCF309DFFCA9F022DB
:103B9100BC000BBE0029EF8DF084FFADF022E4CC18
:103BA100F875F008EF2FFFEE33FEEC33FCEE9DECE1
:103BB100984005FCEE9DFE0FD5F0E9E4CEFD22ED27
:103BC100F8F5F0EE8420D21CFEADF075F008EF2F71
:103BD100FFED33FD4007985006D5F0F222C398FD62
:053BE1000FD5F0EA22FF
:0F58E800EFC394304007EF943A50028001C3227F
:10587900EFC394094005EF940E4004EFB42003D31D
:045889008001C322B5
:00000001FF
