:030000000205EE08
:0C05EE00787FE4F6D8FD75812102063507
:100920006B6579646F776E2025640D0A0031323370
:100930007465737472756E696E6700787878780084
:100704005E003C000000000000000000000000004B
:1007140000000000000000000000000000000000D5
:100724000060280000FFFFFFFFFFFFFFFFFFFFFF48
:10073400FFFFFFFFFFFFFFFFFFFFFFFFFFFFFFFFC5
:10074400FFFFFFFFFFFFFFFFFFFFFFFFFF54002836
:100754000000000000000000000000000000000095
:040764000000000091
:10094000759850438E40538EFE53890F758BE0751A
:0E0950008DFEC2ABD28ED2ACD2AFE4F5A222A5
:080003008F993099FDC299228A
:0A09CD008F993099FDC2998F99228D
:10098B0012053AFF600C120003740129F9E43AFADC
:03099B0080EE22C9
:10099E00759A1075D7E075D6FE438E1475AF01D2D9
:0209AE00AF2276
:0809EA002009FDD2098F9B22B8
:1008C700900092EBF0A3EAF0A3E9F0900092E0FB2E
:1008D700A3E0FAA3E0F912053A6017900092A3E4A7
:1008E70075F001120553A9F0FA12053AFF1209EA49
:0308F70080D92283
:10095E00438E805389F0758A9A758CA9C28DD28C7C
:09096E00D28CD2A9D2B9D2AF2279
:0809E1007F0C7EA9DEFEDFFCA5
:0109E90022EB
:10097700AD07AC06ED1DAE0470011C4E60051209F3
:04098700E180F122F8
:0B09C2008FCFE5CD30E7FB75CDC022E4
:0809B0001209D7E4FF1209B897
:0A09B800C292D2901209C2D292221C
:0A09D700C292C2901209C2D292220D
:10038B00C2837F0A7E00120977D2837F787E0012A8
:10039B0009777FCF1209D7E4FF1209B87FC1120981
:1003AB00B87F301209B87FED1209D77F641209B8F4
:1003BB007F031209B87F121209B87F811209B87F27
:1003CB00E81209D77F851209B87F101209B87F7A16
:1003DB001209B87FCB1209D77F391209B87F2C12BB
:1003EB0009B8E4FF1209B87F341209B87F02120969
:1003FB00B87FF71209D77F201209B87FEA1209B02C
:10040B007FC01209D77F1B1209B87FC11209D77F92
:10041B00011209B87FC51209D77F301209B812092A
:10042B00B87FC71209D77FB71209B87F361209D721
:10043B007F481209B87F3A1209D77F551209B87F46
:10044B00B11209D7E4FF1209B87F1A1209B87FB6A7
:10045B001209D77F0A1209B87FA21209B87FF212CC
:10046B0009D7E4FF1209B87F261209D77F011209B9
:10047B00B87FE01209D77F0F1209B87F2A1209B88B
:10048B007F281209B87F081209B87F0E1209B87FAE
:10049B00081209B87F541209B87FA91209B87F4313
:1004AB001209B87F0A1209B87F0F1209B81209B3E3
:1004BB001209B81209B87FE11209D7E4FF1209B883
:1004CB007F151209B87F171209B87F071209B87F79
:1004DB00111209B87F061209B87F2B1209B87F5683
:1004EB001209B87F3C1209B87F051209B87F1012A8
:1004FB0009B81F1209B87F3F1209B81209B87F0F4C
:10050B001209B87F2B1209B00F1209B87F3F1209DD
:10051B00B87F2A1209B01209B87FEF1209B87F1100
:0F052B001209D77F787E001209777F290209D73E
:10088500900086EEF0A3EFF07F2A1209D79000863C
:10089500E0FF1209B8A3E0FF1209B8EAFF1209B890
:1008A500AF031209B87F2B1209D7ECFF1209B8AFB5
:1008B500051209B890008CE0FF1209B8A3E0FF0209
:0208C50009B870
:10000E00AD07AC06C292D290ECFF1209C2AF051238
:05001E0009C2D292228C
:0807CB0090008EEEF0A3EFF0A8
:1007D30090008C7401F0A3743FF07BEF7A00E4FD8A
:1007E300FCFFFE1208857F2C1209D7E4900090F0DD
:1007F300A3F0E4FBFA90008EE0FEA3E0FF12000EEC
:100803000BBB00010AEB64F04A70EA900091E0042C
:10081300F07006900090E004F0C3900091E09440E3
:08082300900090E0940140CA2E
:01082B0022AA
:10076900A2A3E433FF900000E025E04FF0A2A1E44A
:1007790033FFA3E025E04FF0A2B7E433FFA3E02560
:10078900E04FF0A2B5E433FFA3E025E04FF0E4FF2A
:1007990074002FF582E43400F583E0FE700E743C9A
:1007A9002FF582E43400F583E4F08010BEFF0D7468
:1007B9003C2FF582E43400F5837401F00FEFB40A9D
:0107C900CF60
:0107CA00220C
:1008FA0090005CEEF0A3EFF07BFF7A09792090007C
:10090A0061EEF0A3EFF012009190005CE07002A398
:06091A00E07002B2B422FD
:10067A00E490005AF0A3F090005AE0FEA3E0FFC312
:10068A009406EE648094805070743C2FF582740056
:10069A003EF583E0703790005AE0FCA3E0FD25E0C8
:1006AA00FFEC33FE74282FF58274003EF583E0FADE
:1006BA00A3E04A703374282FF58274003EF583E470
:1006CA00F0A304F0AF05AE041208FA801B90005B99
:1006DA00E025E0FF90005AE033FE74282FF582747B
:1006EA00003EF583E4F0A3F090005BE004F070872D
:0906FA0090005AE004F0020681B0
:0107030022D3
:10082C00E4F594759302F592F591F596F595F5B27C
:10083C00F5B1F5B4F5B3F5CAF5C975CED075CDC023
:10084C00C2917F64FE12097712038B1209401209C0
:10085C005E7F2C7E011209777BFF7A09792D1200BD
:10086C00917BFF7A09793B12009112076912067A83
:09087C007F027E0012097780F171
:030023000209F2DD
:0609F200309802C29832A9
:03000B000209F8EF
:0109F80032CC
:1005FA0002082CE493A3F8E493A34003F68001F2E3
:10060A0008DFF48029E493A3F85407240CC8C33301
:10061A00C4540F4420C8834004F456800146F6DFD0
:10062A00E4800B0102040810204080900704E47E55
:10063A00019360BCA3FF543F30E509541FFEE493C5
:10064A00A360010ECF54C025E060A840B8E493A38C
:10065A00FAE493A3F8E493A3C8C582C8CAC583CAB7
:10066A00F0A3C8C582C8CAC583CADFE9DEE780BE6F
:010768000090
:10053A00BB010689828A83E0225002E722BBFE02BF
:09054A00E32289828A83E49322F2
:10055300A3F8E0C5F025F0F0E5821582700215835B
:06056300E0C838F0E822B8
:10002600E5082461F582E43400F583E005082290B2
:10003600005E300703900061E475F0011205A80226
:10004600053A2000E97F2ED2008018EF540F249045
:10005600D43440D4FF30040BEF24BFB41A0050034D
:100066002461FFE50960021509050CE50C7002051F
:100076000B30070E90005EE475F0011205A8EF0242
:1000860005960209CD7403D2078003E4C207F5087A
:1000960090005E1205BFE4F509F50BF50CE5096065
:1000A600077F2012006980F5750AFFC201C200C2EF
:1000B60002C203C205C206C208120035FF700D3027
:1000C60007057F0012007AAF0CAE0B22B4255FC283
:1000D600D5C204120035FF24D0B40A00501A75F0B8
:1000E6000A780930D50508B6FF0106C6A426F6200B
:1000F600D5047002D20380D924CFB41A00EF50047D
:10010600C2E5D20402027BD20180C6D20080C0D2F0
:100116000280BCD2D580BAD20580B47F2012006995
:100126002002077401B5090040F1120026FF1200F3
:10013600690200A3D208D2068095120026FB12009F
:1001460026FA120026F94A4B7006794C7A037BFF91
:1001560020022EE509602A7E008E82758300120534
:100166006960060EEE650A70F0C2D5EBC0E0EAC023
:10017600E0E9C0E0EE1202C2D0E0F9D0E0FAD0E049
:10018600FB12053AFF60AAEBC0E0EAC0E0E9C0E076
:10019600120069D0E02401F9D0E03400FAD0E0FB87
:1001A600E50A0460DCD50AD980877BFF7A0279BE2E
:1001B600D202809C791080027908C206C2088008A3
:1001C600D2D5790A8004790AC2D5E50A047002F507
:1001D6000AE4FAFDFEFF120026FC7B08200113123A
:1001E6000026FD7B1030000A120026FE120026FFB4
:1001F6007B20EC3382D592D55013C3E43000069FA2
:10020600FFE49EFEE42001039DFDE49CFCE4CBF8A4
:10021600C201EC700CCFCECDCCE824F8F870F38098
:1002260017C3EF33FFEE33FEED33FDEC33FCEB3358
:10023600FB994002FB0FD8E9EB300105F8D0E0C48A
:1002460048B201C0E00AEC4D4E4F78207B0070C2E8
:10025600EAB50A0040BCC0E01202C4D0F0D0E020EB
:100266000104C4C0E0C4B201C0F0120052D0F0D5FF
:10027600F0EB0200A31205C801405301BA58011160
:100286004C010D4201BE4F01C64401C64901264339
:0802960001CC5501B04601B096
:10029E004501B047036C5001152D01192E013C2B61
:1002AE00011D23013A2003552A00D54800000134D0
:1002BE003F3F3F00790AA2D5200314300509B9103B
:1002CE00020404B9080104A2D5200602500104203C
:1002DE0002689202B509005034C0E07F2030031945
:1002EE007F30A20272067205500F12031BC202C2A9
:1002FE0006C205C2087F30800F300503E9C0E01248
:10030E000069300503D0E0F9D0E0B509CC3005170F
:10031E007F30B9100C1200697F583004077F788047
:10032E0003B908031200693002057F2D0200697FB0
:10033E00202008F87F2B2006F322920280CF286E11
:10034E00756C6C2900D2011200263001F8C20178BA
:10035E000930D50108F60200D52D50434958120038
:10036E00262403B405004001E49003679312005A5B
:0D037E00743A12005AD2037509040201BA44
:10056900BB010CE58229F582E5833AF583E0225047
:1005790006E92582F8E622BBFE06E92582F8E22291
:0D058900E58229F582E5833AF583E49322AB
:10059600BB010689828A83F0225002F722BBFE0144
:0205A600F3223E
:1005A800F8E0FBA3A3E0F925F0F0E58215827002DC
:0705B8001583E0FA38F02280
:0905BF00EBF0A3EAF0A3E9F0223D
:1005C800D083D082F8E4937012740193700DA3A3C2
:1005D80093F8740193F5828883E4737402936860D6
:0605E800EFA3A3A380DFD6
:00000001FF
