:03000000025DA6F8
:0C5DA600787FE4F6D8FD758121025DEDE8
:10341A006B6579646F776E2025640D0A0073657495
:10342A006469616E6C697525640D0A00646F6C6F5E
:10343A006E6774696D6573202564207869656C769A
:10344A002025640D0A00544D503A2533642E253048
:10345A0031642020004E4F573A25303564005345D9
:10346A00543A253035640073797374656D2062654A
:10347A0067696E0D0A007878780D0A0067657477B7
:10348A00656E647500FFFFFFFFFFFFFFFFFFFFFF91
:10349A00FFFFFFFFFFFFFFFFFFFFFFFFFFFFFFFF32
:1034AA00FFFFFFF7BEFFFFFFDEC6388C926B8E6B05
:1034BA006E7C10AD96E73CFFFFFFFFFFFFFFFFFFAB
:1034CA00FFFFFFFFFFFFFFFFFFFFFFFFFFFFFFFF02
:1034DA00FFFFFFFFFFFFFFFFFFFFFFFFFFFFFFFFF2
:1034EA00FFFFFFFFFFFFFFFFFFFFFFFFFFFFFFFFE2
:1034FA00FFFFFFEF5D9D15634F426C320A29881961
:10350A00461925214531E86B8EC638FFFFFFFFFFBC
:10351A00FFFFFFFFFFFFFFFFFFFFFFFFFFFFFFFFB1
:10352A00FFFFFFFFFFFFFFFFFFFFFFFFFFFFFFFFA1
:10353A00FFFFFFFFFFFFFFFFFFFFFFFFFFFFFFFF91
:10354A00FFA53653104B1053514B0F3A6C31E921FA
:10355A0067192510E408A30062088352CBD69AFFA4
:10356A00FFFFFFFFFFFFFFFFFFFFFFFFFFFFFFFF61
:10357A00FFFFFFFFFFFFFFFFFFFFFFFFFFFFFFFF51
:10358A00FFFFFFFFFFFFFFFFFFFFFFFFFFE73C63B8
:10359A007063B37CB863F54311324D29EA21881967
:1035AA0026190519051104110410E4008308A38CD7
:1035BA0072FFFFFFFFFFFFFFFFFFFFFFFFFFFFFF9E
:1035CA00FFFFFFFFFFFFFFFFFFFFFFFFFFFFFFFF01
:1035DA00FFFFFFFFFFFFFFFFFFFFFFDEDB3A4B426C
:1035EA00F06C354B5432B12A2E21EB21A9196719F7
:1035FA000511041104110411041104190510E40041
:10360A004273AFFFFFFFFFFFFFFFFFFFFFFFFFFF59
:10361A00FFFFFFFFFFFFFFFFFFFFFFFFFFFFFFFFB0
:10362A00FFFFFFFFFFFFFFFFFFEF5D3209324C4B49
:10363A0010328F2A4F2A2E19CC1989218919471934
:10364A00051104110410C410C4110411041104104A
:10365A00E400428431FFFFFFFFFFFFFFFFFFFFFF90
:10366A00FFFFFFFFFFFFFFFFFFFFFFFFFFFFFFFF60
:10367A00FFFFFFFFFFFFFFFFFF52EC1947324C2A03
:10368A000B21EC21EC220C5B914AEE11061926194A
:10369A000410E410E429A7216608A31905110411EE
:1036AA000410E40082BDF7FFFFFFFFFFFFFFFFFFEB
:1036BA00FFFFFFFFFFFFFFFFFFFFFFFFFFFFFFFF10
:1036CA00FFFFFFFFFFFFFFA535088321882188211F
:1036DA008921AA218A426B8C71FFFF8C720883119F
:1036EA000408C44229DEFBEF5D5AEC088311041179
:1036FA00041104088331E8FFDFFFFFFFFFFFFFFF2C
:10370A00FFFFFFFFFFFFFFFFFFFFFFFFFFFFFFFFBF
:10371A00FFFFFFFFFFF7BE31C710C419251926198D
:10372A0047194729A8528A4A28AD55FFFF31E808A8
:10373A00A319056B4D6B4DFFFFEF7D214510C41199
:10374A0004110411040062AD76FFFFFFFFFFFFFFC3
:10375A00FFFFFFFFFFFFFFFFFFFFFFFFFFFFFFFF6F
:10376A00FFFFFFFFFFB59600621104190411051946
:10377A000508C44A8BB5B6EF5DBDF7FFFF6B8E0037
:10378A006242295AAA4208FFFFFFFF52CC0883115E
:10379A00041104110408A352ADFFFFFFFFFFFFFF4E
:1037AA00FFFFFFFFFFFFFFFFFFFFFFE71CFFFFFF1A
:1037BA00FFFFFFFFFF634E006211041104110410A2
:1037CA00E40062638EFFFFFFFFFFFFFFFF73CF007E
:1037DA00019CF3632CB596FFFFFFFF5B2D0083115D
:1037EA00041104110410E42167EF3DFFFFFFFFFFFE
:1037FA00FFFFFFFFFFBDF8B5B7EF9E52CB94B3FFB3
:10380A00FFFFFFFFDF31E808A311041104110411BF
:10381A000408A34249F7FFF7FFFFFFFFFF4A6A00C8
:10382A00018472FFFFFFFFF7FFEFDF3A0908A311D8
:10383A00041104110411041105BE18FFFFFFFFFF54
:10384A00FFFFFFFFFF7BF0006231E831C70041A5AF
:10385A0035FFFFEF5D214610C41104110411041154
:10386A000410E408A39D76F7FFFFFFADB708A3088D
:10387A00A331C7E79EF7FFF7FFA57608A310E41167
:10388A00041104110411051105A535FFFFFFFFFFFF
:10389A00FFFFFFFFFFDEDB29A7008310C410C4105F
:1038AA00C4E71CEF9E110510E41104110411041160
:1038BA0004190408C410E56BD16BD108C50064086B
:1038CA00A50043322B9D7784B3192510C411041126
:1038DA000411041104192509269D35FFFFFFFFFF76
:1038EA00FFFFFFFFFFFFFF73AF0062190419050016
:1038FA00825B0D9B8E1062110511041104190410CC
:10390A00E40085110539C45A817B409C22AC43A44A
:10391A00039B837282498218C200A400C510E4196D
:10392A000411041905194711675AECFFBEFFFFFF7E
:10393A00FFFFFFFFFFFFDFDEDB10C410E4110411FD
:10394A000518A4C001888300E41905190408C521D3
:10395A00448343D523FE42FEE4FF27FF07FEA4FE6D
:10396A0064FE03FDA3FCE2EC42B383622410E50883
:10397A00C41904192619A821879000BCD3FFFFFF98
:10398A00FFFFFFFFFFFFDFFFFF7C10004219051159
:10399A00052883D001F84448A300E408C55A44ED39
:1039AA0002FDE2FE02FE66FF74FFB8FF73F6E7F659
:1039BA00A6F645F5A4FCC3FC62FCC2FCC2CBE349F3
:1039CA00C411061988018790A4F8019AECFFFFFF39
:1039DA00FFFFFFFFFFFFFFFFFFF7BE31E80083098C
:1039EA00054082C001F823F08548A300A45A44FD8B
:1039FA0002CC23DCC2FE04FE28F648F646F624F57D
:103A0A00E4FD64FCE3FC62FCC2E402DC02FCE27A50
:103A1A00A40148016778C4F824F802B084E77DFF5E
:103A2A00FFFFFFFFFFFFFFFFFFFFFFDEDB192500A0
:103A3A00A338C4E002D822F844F8A678A400632187
:103A4A0043728339839B82F521FD61FD22FCE2FCEE
:103A5A00A2FC42FC42FC42AB22418392C3520401C3
:103A6A0026192598A4F844F823F802D0A4EF9EFF5B
:103A7A00FFFFFFFFFFFFFFFFFFFFFFFFFFD69A29B0
:103A8A008700A5B843F822E023F865F8E8C9074893
:103A9A0083004200A3008429637AA2B362CBA2D333
:103AAA0062BB028A82398300A400E500E508E5606A
:103ABA00C4D864F844F824F823F8028883C6DBFFE4
:103ACA00FFFFFFFFFFFFFFFFFFFFFFFFFFFFFFE714
:103ADA003D5B503108E823F843F044F865F909F9E9
:103AEA00ABD189890648A31842000200420061004E
:103AFA008200620062008320A350C488A5D885F89A
:103B0A0065F844F844F823F823D003108229C7EF54
:103B1A005DFFFFFFFFFFFFFFFFFFFFFFFFFFFFFF4D
:103B2A00FFFFFF326C38A5D802F823F865F866F86B
:103B3A00A7F94AFA0CFA4DEA4CD20BB9A9B168A90D
:103B4A0047B127B907D107E8E7F8C7F8A7F865F832
:103B5A0065F844F823F803D00228A3090508C45AD3
:103B6A00ECFFFFFFFFFFFFFFFFFFFFFFFFFFFFFF6E
:103B7A00FFDEFB190500C441A7C0E6F803F886F882
:103B8A00A7F887F886F8C7F929F98AF9ABF9ABF9E2
:103B9A008BF96AF929F908F8C7F8A6F886F865F8DA
:103BAA0064F823F002B106292500E410E419251966
:103BBA00259D14FFFFFFFFFFFFFFFFFFFFFFFFFF32
:103BCA00FFAD96006208829535CEBAA28BD044F832
:103BDA0025F887F8A7F8C7F8A7F887F886F886F8C7
:103BEA0086F887F8A7F8A7F8A6F885F865F864F0C4
:103BFA0024B864930DB6BB63CF0883110410E42183
:103C0A00663A49EF5DFFFFFFFFFFFFFFFFFFFFFF80
:103C1A00FF94D3004210E4CEBBFFFFE7BEB576AAFD
:103C2A00CCC107E045F845F846F866F886F886F804
:103C3A0086F886F865F845F865E865D044A84388AB
:103C4A00019082D73CEFFF9555088311041104199E
:103C5A0005194694B3FFFFFFFFFFFFFFFFFFFFFFBA
:103C6A00FF94B300412186DF5DFFFFFFFFFFFFE7FF
:103C7A00DFC67AB4D3B34EC22AD168E0E6E8A6E832
:103C8A00A5E8A5D8E6C988A906A822A802A000C85E
:103C9A0000D800E5F7E7FFADF810C410E4110410EE
:103CAA00E411054A8BFFFFFFFFFFFFFFFFFFFFFF46
:103CBA00FFA555004129A7DF5DF7FFFFFFFFFFFFC3
:103CCA00FFFFFFFFFFEFFFDF7DCEDBCE59CDF8CD43
:103CDA00D7C5F7CE79BEFBA2ABF003F845D042E8D0
:103CEA0043F000D472DFFFAE3910E410E41104107F
:103CFA00E411052987FFFFFFFFFFFFFFFFFFFFFF1B
:103D0A00FFCE5908832146D71CF7FFFFFFFFFFFFAD
:103D1A00FFFFFFFFFFFFFFFFFFFFFFFFFFFFFFFFA9
:103D2A00FFFFFFFFFFEFFFBA8BF804F845E062F0F0
:103D3A0044F800DB8EDFFFA5F810C410E410E4118C
:103D4A000410E41925FFFFFFFFFFFFFFFFFFFFFF3E
:103D5A00FFF7BE29870883B639F7FFF7DFFFFFFFB2
:103D6A00FFFFFFFFFFFFFFFFFFFFFFFFFFFFFFFF59
:103D7A00FFFFFFFFFFE7BEBA4AF803F845F864F809
:103D8A0044F800E36ED7FF8CF40883110410E410A2
:103D9A00E410E41905FFFFFFFFFFFFFFFFFFFFFF2E
:103DAA00FFFFFF73EF00008472EFFFEFBEFFDFFF3C
:103DBA00FFFFFFFFFFFFFFFFFFFFFFFFFFFFFFFF09
:103DCA00FFFFFFFFFFE7DFBA8BF803F845F845F876
:103DDA0023F800D4D3D7FF5B4E00213A29A5550812
:103DEA008310C41925FFFFFFFFFFFFFFFFFFFFFF3F
:103DFA00FFFFFFDEFB08A331E8DF9EE79EEFBFFF70
:103E0A00FFFFFFFFFFFFFFFFFFFFFFFFFFFFFFFFB8
:103E1A00FFFFFFFFFFF7FFBC51E002F803F003E0EA
:103E2A0043C2ECCF7EBEFC2146002194D3FFFF841F
:103E3A005100002987FFFFFFFFFFFFFFFFFFFFFF82
:103E4A00FFFFFFFFFF845100008CF4EFFFE79EEFB6
:103E5A00BFFFDFFFFFFFFFFFFFFFFFFFFFFFFFFFC8
:103E6A00FFFFFFFFFFFFFFDF3DBD55BC52BC72B530
:103E7A00B7C75DDFFF6BF000003A09F7BFFFFFFF2E
:103E8A00FF9D14A555FFFFFFFFFFFFFFFFFFFFFF89
:103E9A00FFFFFFFFFFFFFF4AAC08A4BEBBE7DFE757
:103EAA007EEFBEF7DFFFDFFFFFFFFFFFFFFFFFFF32
:103EBA00FFFFFFFFFFFFDFF7DFEFFFDFDFD7BFD730
:103ECA009EDFDFA5D808831126D6DBFFFFFFFFFFA1
:103EDA00FFFFFFFFFFFFFFFFFFFFFFFFFFFFFFFFE8
:103EEA00FFFFFFFFFFEE79DC8B312121A9CF3DDFF8
:103EFA00BFDF7EE79EEFBEEFBFF7DFF7DFF7DFF743
:103F0A00DFF7DFEFBFEFBEE79EDF7ED75ED75EDF6C
:103F1A00DFB69A19260842A3EDFFBFFFFFFFFFFF96
:103F2A00FFFFFFFFFFFFFFFFFFFFFFFFFFFFFFFF97
:103F3A00FFFFFFDD74DBC0FE00EE4242022189B6BC
:103F4A007BDFDFD77EDF7EDF7EE79EE79EE79EE7A9
:103F5A009EE79EDF7EDF7ED75DD75DDF9EE7FFA50A
:103F6A00F8110718E3C502FD60D3E6EEDBFFFFFF99
:103F7A00FFFFFFFFFFFFFFFFFFFFFFFFFFFFFFFF47
:103F8A00FFF79EBA84FCC1FE42FE82FEA283812113
:103F9A00457474C75EDFDFD77ED75ED75DD75ED73D
:103FAA005ED75DD75DD75EDF9EE7FFC73D63F10849
:103FBA00845242E626FF29FE86F3E0C36AFFFFFF2A
:103FCA00FFFFFFFFFFFFFFFFFFFFFFFFFFFFFFFFF7
:103FDA00FFDE18D2C1FDA2FE22FE42FE42FE62D4DC
:103FEA00E26A4142497453A63BC73ED7BFD7BFD7FF
:103FFA00BFDFBFD7BFC73EA61A63F229A74182B463
:10400A0022FE62FE83FEAAFF0FFD67BA63EF3CFF42
:10401A00FFFFFFFFFFFFFFFFFFFFFFFFFFFFFFFFA6
:10402A00FFE69AD280FD21FDC2F5E2F5C2F582FDD6
:10403A0082FD62DC619B216A846AE9632C63AF7446
:10404A0011636E632C5A8952047A81CBC2FCE2FD59
:10405A0062FD82FDC2FDC2FDE4FD24CA62E71CFFC7
:10406A00FFFFFFFFFFFFFFFFFFFFFFFFFFFFFFFF56
:10407A00FFFFFFCCB1D281F3C0FCC1FD02FD02FCFF
:10408A00E2FCC2FCC2FC81FB80C9C081A4AD35CE72
:10409A00599C718121DA00FBA1FC82FCA2FC82FC02
:1040AA00A2FD02FD22FCE2FC00DA60CC90FFFFFFD9
:1040BA00FFFFFFFFFFFFFFFFFFFFFFFFFFFFFFFF06
:1040CA00FFFFFFFFFFDE59C40DCB06D2E4DB03DBA3
:1040DA0003DAE3D2C3C2A4B309BCD2F79EFFFFFF3F
:1040EA00FFFFFFE6FBB40EBAA6D283E2E3EB02EBD4
:1040FA0022E322DB03D2E4C36AD5B6FFFFFFFFFF48
:05410A00FFFFFFFFFFB5
:105C76004200560000420050000142005400024219
:105C86000058000342005201F442004E01F45E0047
:105C9600620000000000000000000000000000009C
:105CA600000000000000000000000000000000608E
:105CB600280000FFFFFFFFFFFFFFFFFFFFFFFFFFC3
:105CC600FFFFFFFFFFFFFFFFFFFFFFFFFFFFFFFFDE
:105CD600FFFFFFFFFFFFFFFFFFFFFF4A0028000057
:105CE6000000000000000000540032000000000028
:105CF600000000000000000000000000000000425C
:045D0600008000CB4E
:1064B900759850438E40538EFE53890F758B8F7597
:0E64C9008DFDC2ABD28ED2ACD2AFE4F5A222D2
:080003008F993099FDC299228A
:086602008F993099FDC2992225
:106570001245E0FF600C120003740129F9E43AFAB5
:0365800080EE2288
:10658300759A1075D78F75D6FD438E1475AF01D2EA
:02659300AF2235
:08660A00200AFDD20A8F9B2239
:1063C9009001BAEBF0A3EAF0A3E9F09001BAE0FB7F
:1063D900A3E0FAA3E0F91245E060179001BAA3E43B
:1063E90075F001124696A9F0FA1245E0FF12660A05
:0363F90080D92226
:1064D700438E805389F0758A80758C44C28DD28C27
:0964E700D28CD2A9D2B9D2AF22A5
:10602600A2A3E433FF900000E025E04FF0A2A1E434
:1060360033FFA3E025E04FF0A2B7E433FFA3E0254A
:10604600E04FF0A2B5E433FFA3E025E04FF0E4FF14
:1060560074002FF582E43400F583E0FE700E74625E
:106066002FF582E43400F583E4F08010BEFF0D7452
:10607600622FF582E43400F5837401F00FEFB40A61
:01608600CF4A
:0160870022F6
:10631C0090004FE02FFD90004EE03EFCC364809453
:10632C00805005E4F0A3F022D3ED94FFEC6480944C
:10633C0087400B90004E7407F0A374FFF02290007E
:0B634C004FE02FF090004EE03EF022EA
:105EBC009001BDEEF0A3EFF07BFF7A34791A9001DC
:105ECC0013EEF0A3EFF01249469001BDE0FEA3E003
:105EDC00FF4E7002B2A2900050E0FCA3E0B5070A9E
:105EEC00EEB5040674FFFFFE801B900058E0FEA385
:105EFC00E0FF9001BDE0FAA3E0FBB5070BEAB506A5
:105F0C00077F017E0002631C900054E0FEA3E0B505
:105F1C000325EAB5062190004EE0FEA3E0FF9000B9
:105F2C0052EEF0A3EFF07BFF7A347927900113EE59
:085F3C00F0A3EFF01249462228
:10647600C3EF9464EE6480948050057E007F012211
:10648600C3EF94E8EE648094837E0050037F0A2273
:036496007F322230
:085BD7009001B2EEF0A3EFF023
:105BDF0074D42DFD74FE3CFCC3648094805003028A
:105BEF005C75AF05AE041264769001B4EEF0A3EFCE
:105BFF00F0AE04AF057C007D9612464AED4C706600
:105C0F007BFF7A3479369001B2E0FFA3E090011365
:105C1F00CFF0A3EFF09001B4E0FFA3E0900115CF18
:105C2F00F0A3EFF0124946900050E0FEA3E0FF9082
:105C3F0001B2E0FAA3E0FBB50713EAB5060FA3E044
:105C4F00FEA3E0FFC3E49FFFE49EFE801690005882
:105C5F00E0FEA3E0B5030FEAB5060B9001B4E0FE3A
:065C6F00A3E0FF12631C1C
:015C7500220C
:10645200EF7005ED24FF92A2EFB40105ED24FF9247
:10646200A0EFB40205ED24FF92B6EFB40305ED24CC
:04647200FF92B422BF
:10659500900056E06E7003A3E06F60057D01126404
:0265A500522280
:1065A700900056E06E7003A3E06F6005E4FD12648F
:0265B70052226E
:105A4000E49001BFF0A3F09001BFE0FEA3E0FFC32C
:105A50009406EE648094804003025B1774622FF515
:105A60008274003EF583E070679001BFA3E02428B4
:105A7000F58274003EF583E070149001BFA3E0242A
:105A800028F58274003EF5837401F0125EBC90012B
:105A9000BFE0FEA3E0FF1265A79001BFE0FCA3E01A
:105AA000FD25E0FBEC33FA74322BF58274003AF5F5
:105AB00083E475F001124680AF05AE0474322BF515
:105AC0008274003AF583E0FCA3E0FD125BD78033DB
:105AD0009001BFE0FEA3E0FF2428F58274003EF5AC
:105AE00083E4F0EF25E0FFEE33FE74322FF582748D
:105AF000003EF583E4F0A3F09001BFE0FEA3E0FFD9
:105B00001265959001C0E004F06003025A479001CD
:075B1000BFE004F0025A4758
:015B1700226B
:105FC00090011374FFF0A37434F0A37450F09000A8
:105FD00080E0FAA3E0FB7C007D0AFFAE0212464A95
:105FE000900116EEF0A3EFF07C007D0AAF03AE0245
:105FF00012464AA3ECF0A3EDF07B017A0079E81297
:1060000049407B017A0079E890011774F8F0A3E425
:10601000F074FFA3F0A3F0A37420F0E4A3F07D7864
:06602000FCFFFE025E32EF
:1062460090011374FFF0A37434F0A3745FF0900010
:1062560052E0FFA3E0900116CFF0A3EFF07B017AA6
:106266000079E81249407B017A0079E890011774B9
:10627600F8F0A3E4F074FFA3F0A3F0A37420F0E415
:0A628600A3F07D28FCFFFE025E324B
:1062900090011374FFF0A37434F0A37468F09000BD
:1062A0004EE0FFA3E0900116CFF0A3EFF07B017A60
:1062B0000079E81249407B017A0079E8900117746F
:1062C000F8F0A3E4F074FFA3F0A3F0A37420F0E4CB
:0A62D000A3F07D50FCFFFE025E32D9
:0965F900126246126290025FC0BA
:10608800E49000E9F0E49000E8F09000E8E0FFC355
:1060980094065041EF75F028A4FFAEF0C006C00783
:1060A800A3E075F028A42478FDE435F0FC9000F016
:1060B800E4F0A37428F0A374FFF0A37434F0A3747D
:1060C8008FF0D007D0067B287A001257559000E849
:1060D800E004F080B59000E9E004F0E0C3940540E6
:0160E800A413
:0160E9002294
:105F4400E49000E6F0A3F0F594759302F592F591D0
:105F5400F596F595F5B2F5B1F5B4F5B3F5CAF5C90D
:105F640075CED075CDC0C291B2A27F64FE126548D1
:105F74001251941264B91264D77F647E001265488A
:105F84009000EEE4F0A374F0F074FFA3F0A3F07BB0
:105F9400407A01E4FDFCFFFE125D107BFF7A347948
:105FA400711249467BFF7A3479801249467F647EB8
:0C5FB400001265481265F912608880E850
:1063920090005AE475F001124696FC748225F0F5DD
:1063A2008274003CF583EFF0D390005BE094509050
:1063B200005AE0648094804004E4F0A3F090004628
:0763C200E4F0A3740AF022CD
:1061FB0090014D74FFF0A37434F0A37486F0125B1E
:10620B0018900147EBF0A3EAF0A3E9F04A602B7B6F
:10621B00FF7A347986126533900147E0FBA3E0FAED
:10622B00A3E02FF9EA3EFA125965EFF47002EEF48F
:0A623B006008900080EEF0A3EFF081
:016245002236
:106499007B017A0079821261FB7E007F647D007B3B
:1064A900017A00798212485AE490005AF0A3F02246
:10642A00D3900047E09400900046E0648094804056
:10643A0016A3E024FFF0900046E034FFF0E070027B
:08644A00A3E070031264992223
:1064F0007F0A7E001265487BFF7A3479861249460E
:076500007F287E00026548C0
:030023000263FC79
:1063FC00C0E0C0F0C083C082C0D075D000C000C067
:10640C0004C007309807C298AF99126392D007D096
:0E641C0004D000D0D0D082D083D0F0D0E032B7
:03000B0002635736
:10635700C0E0C0F0C083C082C0D075D000C000C00C
:1063670001C002C003C004C005C006C00712642AEA
:10637700D007D006D005D004D003D002D001D0007A
:0B638700D0D0D082D083D0F0D0E03224
:1000260000000000000000000000000000000404C2
:10003600040404000004000014140A000000000078
:100046000000000000000A0A1F0A0A1F0A0A000030
:1000560000040E1505060C14150E040000001215FA
:100066000D152E2C2A1200000000040A0A3615155A
:100076002916000002020100000000000000000036
:100086001008080404040404080810000204040804
:10009600080808080404020000000004150E0E15E6
:1000A6000400000000000008083E080800000000E8
:1000B6000000000000000000020201000000000035
:1000C600003F0000000000000000000000000000EB
:1000D60000020000002010100808040402020100BB
:1000E60000000E1111111111110E0000000004067E
:1000F60004040404040E000000000E11110804029A
:10010600011F000000000E11100C1010110E00004F
:100116000000080C0C0A091F081C000000001F0143
:10012600010F1110110E000000000C12010D131129
:10013600110E000000001E1008080404040400004C
:1001460000000E11110E1111110E000000000E110B
:100156001119161009060000000000000400000036
:100166000004000000000000000400000004040079
:10017600000010080402020408100000000000003D
:100186003F003F00000000000000020408101008B5
:100196000402000000000E1111080404000400000F
:1001A60000001C22292D2D1D221C00000000040425
:1001B6000C0A0A1E1233000000000F12120E121251
:1001C600120F000000001E1101010101110E0000B6
:1001D60000000F1212121212120F000000001F125E
:1001E6000A0E0A02121F000000001F120A0E0A025F
:1001F6000207000000001C1201013911120C000058
:1002060000003312121E12121233000000001F04E7
:1002160004040404041F000000003E08080808083F
:1002260008080907000037120A060A1212370000EA
:100236000000070202020202223F000000003B1BF0
:100246001B1B15151535000000003B1216161A1A51
:100256001217000000000E1111111111110E0000ED
:1002660000000F12120E02020207000000000E111B
:1002760011111117190E180000000F12120E0A1292
:100286001237000000001E1101060810110F0000B1
:1002960000001F1504040404040E000000003312BD
:1002A60012121212120C000000003312120A0A0C6B
:1002B600040400000000151515150E0A0A0A0000B0
:1002C60000001B0A0A04040A0A1B000000001B0A9D
:1002D6000A0A0404040E000000001F0908040402B0
:1002E600121F00001C0404040404040404041C007B
:1002F6000002020404040808081010000E0808088A
:100306000808080808080E00040A0000000000009B
:100316000000000000000000000000000000003F98
:1003260002040000000000000000000000000000C1
:10033600000C121C123C000000030202020E1212F4
:10034600120E000000000000001C1202120C000039
:1003560000181010101C1212123C000000000000C1
:10036600000C121E021C000000182404041E0404C3
:10037600041E000000000000003C120C021C221C9F
:1003860000030202020E12121237000000040400DB
:1003960000060404040E000000080800000C08080B
:1003A6000808080700030202021A0A060A130000D8
:1003B6000007040404040404041F000000000000F5
:1003C600000F15151515000000000000000F121291
:1003D6001237000000000000000C1212120C000080
:1003E60000000000000F1212120E020700000000AB
:1003F600001C1212121C103800000000001B06021E
:100406000207000000000000001E020C101E000083
:1004160000000004041E0404041C00000000000088
:10042600001B1212123C000000000000001B0A0A0A
:1004360004040000000000000015150E0A0A000062
:1004460000000000001B0A040A1B00000000000058
:10045600003312120C08040300000000001E0804FA
:10046600041E000018080808080C080808081800E8
:100476000808080808080808080808080604040404
:100486000408040404040600160900000000000025
:100496000000000000000000000000000000000056
:1004A600000000000000000808080808080800000E
:1004B6001818000000486C2412000000000000001C
:1004C600000000000000002424247F1212127F1274
:1004D600121200000000081C2A2A0A0C1828282AD2
:1004E6002A1C080800000022251515152A58545400
:1004F600542200000000000C1212120A762529115F
:10050600916E0000000606040300000000000000D3
:100516000000000000402010100808080808081015
:1005260010204000000204080810101010101008D7
:10053600080402000000000008086B1C1C6B080879
:100546000000000000000000080808087F080808EE
:10055600080000000000000000000000000000008D
:10056600060604030000000000000000FE00000074
:100576000000000000000000000000000000000075
:1005860006060000000080404020201010080804E5
:100596000402020000000018244242424242424243
:1005A60024180000000000080E08080808080808BB
:1005B600083E00000000003C424242202010080491
:1005C600427E00000000003C42422018204040428B
:1005D600221C0000000000203028242422227E2035
:1005E600207800000000007E0202021A26404042E7
:1005F600221C0000000000382402021A2642424251
:10060600241800000000007E2222101008080808A6
:10061600080800000000003C4242422418244242DE
:10062600423C000000000018244242426458404008
:10063600241C000000000000000018180000000044
:10064600181800000000000000000008000000006C
:1006560000080804000000402010080402040810E6
:10066600204000000000000000007F0000007F0026
:1006760000000000000000020408102040201008BE
:10068600040200000000003C4242464020101000D8
:10069600181800000000001C225A555555552D42C9
:1006A600221C00000000000808181414243C2242F2
:1006B60042E700000000001F2222221E2242424280
:1006C600221F00000000007C42420101010101429C
:1006D600221C00000000001F2242424242424242C7
:1006E600221F00000000003F4212121E1212024298
:1006F600423F00000000003F4212121E1212020288
:10070600020700000000003C2222010101712122A3
:10071600221C0000000000E7424242427E42424262
:1007260042E700000000003E08080808080808081C
:10073600083E00000000007C101010101010101071
:100746001010110F0000007722120A0E0A12122250
:1007560022770000000000070202020202020202E3
:10076600427F000000000077363636362A2A2A2ACB
:100776002A6B0000000000E346464A4A5252526283
:10078600624700000000001C2241414141414141B5
:10079600221C00000000003F424242423E0202028A
:1007A600020700000000001C2241414141414D5317
:1007B600321C60000000003F4242423E12122222DA
:1007C60042C700000000007C42420204182040425A
:1007D600423E00000000007F490808080808080893
:1007E600081C0000000000E74242424242424242E8
:1007F600423C0000000000E7424222242414141860
:10080600080800000000006B494949495555362241
:1008160022220000000000E742242418181824248D
:1008260042E7000000000077222214140808080896
:10083600081C00000000007E21201010080404425D
:10084600423F000000780808080808080808080859
:1008560008087800000002020404080808101020A6
:1008660020204040001E1010101010101010101004
:1008760010101E00003844000000000000000000B8
:100886000000000000000000000000000000000062
:10089600000000FF00060800000000000000000045
:1008A60000000000000000000000003C42784442C6
:1008B60042FC0000000000030202021A26424242E5
:1008C600261A000000000000000000384402020260
:1008D60044380000000000604040407844424242F4
:1008E60064D80000000000000000003C427E0202C6
:1008F600423C0000000000F08808087E080808084E
:10090600083E0000000000000000007C22221C02BD
:100916003C42423C000000030202023A4642424286
:1009260042E700000000000C0C00000E0808080852
:10093600083E000000000030300000382020202053
:100946002020221E0000000302020272120A161262
:10095600227700000000000E0808080808080808AA
:10096600083E0000000000000000007F9292929274
:1009760092B70000000000000000003B46424242E1
:1009860042E70000000000000000003C42424242F4
:10099600423C0000000000000000001B26424242CC
:1009A600221E020700000000000000784442424276
:1009B600447840E000000000000000774C04040486
:1009C600041F0000000000000000007C42023C40C2
:1009D600423E0000000000000008083E0808080823
:1009E600083000000000000000000063424242425E
:1009F60062DC000000000000000000E7422424142E
:100A06000808000000000000000000EB49495555A9
:100A160022220000000000000000007624181818AA
:100A2600246E000000000000000000E742242414A9
:100A360018080807000000000000007E22100808C1
:100A4600447E000000C020202020201020202020EE
:100A56002020C000101010101010101010101010D0
:100A660010101010000608080808081008080808E2
:100A7600080806000C32C20000000000000000005A
:100A86000000000000000000000000000000000060
:100A96000000000000000000000000000000000050
:100AA6000000000000000000000000000000000040
:100AB6000000000000000000000000006000600070
:100AC60060006000600060006000400020002000C0
:100AD60020000000000000006000600060000000D0
:100AE6000000000000000000600660063003980168
:100AF6008800440000000000000000000000000024
:100B060000000000000000000000000000000000DF
:100B160000000000000000000000000010021002AB
:100B260010021002FE07FE0708020801080108016C
:100B36000801FE07FE070401040104010401000088
:100B46000000000000000000000040004000F0012E
:100B560058034C03CC034C0058007000E000C00161
:100B6600C00140034C035C034C034801F000400005
:100B76004000000000000000000000000E010A0115
:100B8600910091009100510051003A00AE03A0027D
:100B960050045004480448044804840284030000B6
:100BA60000000000000000000000000038006C009B
:100BB6006C006C006C006C002C0098071C011A017C
:100BC600330133016301E300C308C6093C07000093
:100BD60000000000000000000C001C0010001000C7
:100BE60008000400000000000000000000000000F3
:100BF60000000000000000000000000000000000EF
:100C06000000000000000000000400020001800057
:100C1600800040004000200020002000200020002E
:100C260020002000400040008000800000010002FB
:100C3600000400000000000002000400080010008C
:100C4600100020002000400040004000400040000E
:100C560040004000200020001000100008000400A2
:100C6600020000000000000000000000000000007C
:100C76004000C0004000460C4E0FD001F0015E0F50
:100C8600460C40004000400000000000000000004C
:100C9600000000000000000000000000000000004E
:100CA600000040004000400040004000FE0F4000B1
:100CB600400040004000400000000000000000002E
:100CC600000000000000000000000000000000001E
:100CD600000000000000000000000000000000000E
:100CE60000000000000000000C001C0010001000B6
:100CF60008000400000000000000000000000000E2
:100D0600000000000000000000000000FE070000D8
:100D160000000000000000000000000000000000CD
:100D260000000000000000000000000000000000BD
:100D360000000000000000000000000000000000AD
:100D460000000000000000001C001C001C00000049
:100D5600000000000000000000040006000200037E
:100D6600000100018000800040004000600020007B
:100D7600200010001000080008000C000400060007
:100D86000200000000000000000000000000F0006B
:100D960098010C030C03060606060606060606065A
:100DA6000606060606060C030C039801F000000072
:100DB60000000000000000000000000000004000ED
:100DC6007C00600060006000600060006000600001
:100DD600600060006000600060006000FC030000CE
:100DE6000000000000000000000000000000F80005
:100DF6008401020306030603000300018001C0000C
:100E0600600020001000080204020602FE03000033
:100E16000000000000000000000000000000780054
:100E2600C6008601860180018001C0007000800135
:100E3600000100030003060306038601F800000014
:100E4600000000000000000000000000000080011B
:100E56008001C001A001A0019001880188018401E0
:100E66008201FE0F8001800180018001E007000001
:100E76000000000000000000000000000000FC036D
:100E860004000400040004000400F4008C010403C0
:100E9600000300030603060382018401F800000034
:100EA6000000000000000000000000000000E0015B
:100EB60018030C030C0004000600E60116030E06D8
:100EC60006060606060604060C021803F0000000D5
:100ED6000000000000000000000000000000F8070D
:100EE6000C0604020401000100018000800040009D
:100EF600400040006000600060006000600000008C
:100F06000000000000000000000000000000F801E2
:100F16000C030606060606060C021C03F000C801B2
:100F26000C0306060606060606060C03F00100007C
:100F36000000000000000000000000000000F000BB
:100F46000C010C03060206060606060606078C06B4
:100F560078060006000300030C018C0178000000EF
:100F6600000000000000000000000000000000007B
:100F76000000000000000000E000E000E0000000CB
:100F86000000000000000000E000E000E0000000BB
:100F9600000000000000000000000000000000004B
:100FA600000000000000000060006000000000007B
:100FB600000000000000000000006000600040002B
:100FC60020002000000000000000000000040002D5
:100FD6000001800040002000100008000400080006
:100FE6001000200040008000000100020004000004
:100FF60000000000000000000000000000000000EB
:101006000000000000000000FE07000000000000D5
:10101600FE070000000000000000000000000000C5
:1010260000000000000000000000000004000800AE
:1010360010002000400080000001000200040002B1
:10104600000180004000200010000800040000009D
:101056000000000000000000000000000000E003A7
:101066001806040C040C0C0C0C0C00078001400044
:101076004000400000000000E000E000E00000004A
:10108600000000000000000000000000E00018035F
:101096000C02CC0564056605A605B604B604B604BE
:1010A600B604B602E4010C040C021803F0000000BA
:1010B60000000000000000000000000000006000CA
:1010C60060005000D0009000900088008801080160
:1010D600F801040304030402020202060F0F0000D3
:1010E6000000000000000000000000000000FE00FC
:1010F6008C030C030C030C030C038C01FC000C0387
:101106000C020C060C060C060C060C03FE01000075
:101116000000000000000000000000000000E003E6
:1011260018030C060C04040406000600060006005C
:101136000600060006040C040C021803F00000006A
:1011460000000000000000000000000000007F001A
:101156008C010C030C030C060C060C060C060C0684
:101166000C060C060C060C030C038C017F00000019
:101176000000000000000000000000000000FF0367
:10118600060306040604060086008600FE008600A6
:10119600860086000600060406040602FF03000019
:1011A6000000000000000000000000000000FF0337
:1011B600060306040604060086008600FE00860076
:1011C6008600860006000600060006001F000000D6
:1011D6000000000000000000000000000000F00019
:1011E60018010C020C0204020600060006000600A6
:1011F600C60F060306030C030C031803F0000000D9
:1012060000000000000000000000000000000F0FBA
:10121600060606060606060606060606FE0706066F
:101226000606060606060606060606060F0F000052
:101236000000000000000000000000000000FC03A9
:101246006000600060006000600060006000600098
:10125600600060006000600060006000FC03000049
:101266000000000000000000000000000000F80779
:10127600C000C000C000C000C000C000C000C00068
:10128600C000C000C000C000C000C000C000C60052
:1012960066003C0000000000000000000000CF03D4
:1012A6008601C60046002600160036002E006E0097
:1012B6004600C60086008601060106038F07000069
:1012C60000000000000000000000000000001F00F9
:1012D60006000600060006000600060006000600D8
:1012E600060006000600060406040602FF030000C8
:1012F60000000000000000000000000000000707DA
:10130600860386038E038E034E034E034A035A0357
:101316005A033A03320332033203120387070000EB
:1013260000000000000000000000000000008E0F1A
:101336000C021C021C0234023402640264024402DF
:10134600C402840284038403040304031F0200000E
:101356000000000000000000000000000000F00097
:1013660098010C030C020606060606060606060685
:101376000606060606060C020C039801F00000009D
:101386000000000000000000000000000000FF0058
:101396000603060606060606060606068603FE007B
:1013A6000600060006000600060006001F000000F4
:1013B6000000000000000000000000000000F00037
:1013C60098010C030C020606060606060606060625
:1013D6000606060676064C02CC039801F000800746
:1013E6000003000000000000000000000000FF01F4
:1013F600060306060606060606060603FE00460061
:10140600C600860086010603060306060F0E0000C8
:101416000000000000000000000000000000F802CC
:101426000C030602060206000E003C00F800E0036C
:10143600800300070206020606060C03F001000000
:101446000000000000000000000000000000FE0791
:10145600620461086108600060006000600060006E
:10146600600060006000600060006000F80100003D
:1014760000000000000000000000000000001E0741
:101486000C020C020C020C020C020C020C020C02E6
:101496000C020C020C020C020C021801F0000000F7
:1014A60000000000000000000000000000000F0720
:1014B6000602040104010C010C0188008800980052
:1014C60098005000500070003000200020000000FE
:1014D6000000000000000000000000000000F70E01
:1014E600620442044604460464026402E402E4021E
:1014F6009C029C01980198018801880088000000E0
:1015060000000000000000000000000000009E0730
:101516000C01080118019000B00060002000600076
:101526006000D00090008801080104038E070000C7
:1015360000000000000000000000000000000F0F87
:10154600060404020C0208011801B800B00070007D
:10155600600060006000600060006000F80100004C
:101566000000000000000000000000000000FC0772
:101576000C020603020180018000400040002000AA
:1015860020001000180008040C040402FE030000EA
:101596000000000000000000E00320002000200002
:1015A6002000200020002000200020002000200035
:1015B6002000200020002000200020002000200025
:1015C600E00300000000000000000000040004002A
:1015D6000800080010001000100020002000400045
:1015E6004000C000800080000001000100020002EF
:1015F60000020004000000007C00400040004000A3
:1016060040004000400040004000400040004000D4
:1016160040004000400040004000400040004000C4
:101626007C0000000000600090000801000000003F
:1016360000000000000000000000000000000000A4
:101646000000000000000000000000000000000094
:101656000000000000000000000000000000000084
:101666000000000000000000000000000000000074
:101676000000000000000000000000000000000064
:101686000000FF0F000000001800600000000000CE
:101696000000000000000000000000000000000044
:1016A6000000000000000000000000000000000034
:1016B6000000000000000000000000000000000024
:1016C6000000000000000000F0010C030C03000302
:1016D600E0031C030E03060306038E0B7C0E0000BC
:1016E60000000000000000000000000008000E00DE
:1016F6000C000C000C000C00CC013C031C060C0674
:101706000C060C060C060C060C021C03E401000079
:1017160000000000000000000000000000000000C3
:101726000000000000000000F0008C018C01860122
:1017360006000600060006020C020C01F00000007E
:101746000000000000000000000000000002C003CE
:10175600000300030003000378038C030C03060355
:10176600060306030603060304038C07780100003C
:101776000000000000000000000000000000000063
:101786000000000000000000E001180308020C063B
:101796000C06FC070C000C0018041802E0010000FF
:1017A6000000000000000000000000000000C00370
:1017B6006006300630003000FE0130003000300098
:1017C600300030003000300030003000FC010000F6
:1017D6000000000000000000000000000000000003
:1017E6000000000000000000F007D8068C018C0104
:1017F6008C019801F8000C00FC00CC0306030603DC
:101806008E03F800000000000000000008000E0033
:101816000C000C000C000C00EC011C030C030C0368
:101826000C030C030C030C030C030C039E070000B3
:101836000000000000000000000000000000600042
:1018460060000000000040007C0060006000600056
:10185600600060006000600060006000FC03000043
:101866000000000000000000000000000000C001B1
:10187600C001000000000001F0018001800180012C
:10188600800180018001800180018001800180014A
:10189600CC007C00000000000000000008000E00E4
:1018A6000C000C000C000C008C038C008C004C000F
:1018B6006C005C008C008C010C010C039E07000080
:1018C60000000000000000000000000040007C0056
:1018D6006000600060006000600060006000600002
:1018E600600060006000600060006000FC030000B3
:1018F60000000000000000000000000000000000E2
:1019060000000000000000003707EE0666066606C7
:10191600660666066606660666066606FF0F00002B
:1019260000000000000000000000000000000000B1
:101936000000000000000000EE011C030C030C0375
:101946000C030C030C030C030C030C039E07000092
:101956000000000000000000000000000000000081
:101966000000000000000000F00098010C030606CD
:1019760006060606060606060C030C03F000000023
:101986000000000000000000000000000000000051
:101996000000000000000000EE011C030C060C060F
:1019A6000C060C060C060C060C031C03EC010C00C2
:1019B6000C003E00000000000000000000000000D7
:1019C600000000000000000078028C030C030603F0
:1019D600060306030603060304038C0378030003C9
:1019E6000003C00700000000000000000000000027
:1019F60000000000000000009F035806380618008B
:101A0600180018001800180018001800FF00000041
:101A160000000000000000000000000000000000C0
:101A26000000000000000000F0031C030C020C0282
:101A36003800F000C003040304038C03FC0100001B
:101A46000000000000000000000000000000000090
:101A56002000200030003000FE0130003000300051
:101A6600300030003000300030023002E00100006B
:101A76000000000000000000000000000000000060
:101A860000000000000008028E030C030C030C0388
:101A96000C030C030C030C030C039C0778010000D9
:101AA6000000000000000000000000000000000030
:101AB60000000000000000001E070C0208010801DB
:101AC60018019000B000B000600060002000000027
:101AD6000000000000000000000000000000000000
:101AE6000000000000000000F70E620446046402D5
:101AF6006402EC029C01980198019801080000001C
:101B060000000000000000000000000000000000CF
:101B16000000000000000000BC0718011001B00022
:101B260060006000E0009000080108039E070000C6
:101B3600000000000000000000000000000000009F
:101B460000000000000000009E07080108010801CF
:101B560090009000B000600060006000200020004F
:101B660024001C000000000000000000000000002F
:101B76000000000000000000FC018401C4004400D5
:101B8600600020003000180208020C03FC0100006F
:101B960000000000000000000003800080008000BC
:101BA600800080008000800080004000200040000F
:101BB600800080008000800080008000800080001F
:101BC600000300004000400040004000400040008C
:101BD60040004000400040004000400040004000FF
:101BE60040004000400040004000400040004000EF
:101BF60040004000000000000C0010001000100023
:101C060010001000100010001000200040002000FE
:101C1600100010001000100010001000100010003E
:101C26000C00000000001C002204C2048003000017
:101C3600000000000000000000000000000000009E
:101C4600000000000000000000000000000000008E
:101C5600000000000000000000000000000000007E
:101C6600000000000000000000000000000000006E
:101C7600000000000000000000000000000000005E
:101C8600000000000000000000000000000000004E
:101C96000000000000000000000000000000C0017D
:101CA600C001C001C001C001C001C00180008000A8
:101CB600800080008000800080000000000000009E
:101CC60000008001C003C003800100000000000086
:101CD60000000000000000000000E01CE01CF01EF8
:101CE600700E380718030801840000000000000089
:101CF60000000000000000000000000000000000DE
:101D060000000000000000000000000000000000CD
:101D160000000000000000000000000000000000BD
:101D260020102010201020102010FE7FFE7F1008AB
:101D3600100810081008100810081008FE7FFE7F13
:101D46000804080408040804080400000000000051
:101D5600000000000000000000000000000100017B
:101D6600C007601910311831183918393801700157
:101D7600E001C0038007000F001D003900311C314F
:101D86001C310C310C11180DE00700010001000197
:101D9600000000000000000000000000000000003D
:101DA6001C1036186308630C630463046302630241
:101DB6006301361D9C378022806340634063206345
:101DC6002063306310221836081C00000000000053
:101DD60000000000000000000000000000000000FD
:101DE600F00098018C018C018C018C018C00CC00D8
:101DF6007800183E1C083608320863046304C304DE
:101E0600C303834306438E26781C000000000000AF
:101E1600000000000000000000001C003C003C0028
:101E26003000300010000C0006000000000000002A
:101E3600000000000000000000000000000000009C
:101E4600000000000000000000000000000000008C
:101E5600000000000000000000000040002000100C
:101E66000008000C000400060003000300038001C4
:101E760080018001800180018001800180010003D2
:101E86000003000300060006000C000800100020F6
:101E960000400000000000000000020004000800EE
:101EA6001000300020006000C000C000C0008001AB
:101EB6008001800180018001800180018001C000D5
:101EC600C000C00060006000300010000800040080
:101ED60002000000000000000000000000000000FA
:101EE6000000000000018003800300011C713C79A2
:101EF600783DC0070001C007783D3C791C710001A0
:101F06008003800380010000000000000000000044
:101F160000000000000000000000000000000000BB
:101F260000000000000000010001000100010001A6
:101F360000010001FC7F0001000100010001000119
:101F46000001000100000000000000000000000089
:101F5600000000000000000000000000000000007B
:101F6600000000000000000000000000000000006B
:101F7600000000000000000000000000000000005B
:101F8600000000001C003C003C0030003000100047
:101F96000C00060000000000000000000000000029
:101FA600000000000000000000000000000000002B
:101FB60000000000FE7F000000000000000000009E
:101FC600000000000000000000000000000000000B
:101FD60000000000000000000000000000000000FB
:101FE60000000000000000000000000000000000EB
:101FF60000000000000000000000000000000000DB
:10200600000018003C003C00180000000000000022
:1020160000000000000000000000004000600020FA
:102026000030001000180008000C00040006000232
:102036000003000180018000C00040006000200015
:1020460030001000180008000C0004000600020012
:10205600000000000000000000000000000000007A
:10206600C007600C30181830183018200C600C604F
:102076000C600C600C600C600C600C600C6018202E
:10208600183018303018600CC0070000000000003F
:10209600000000000000000000000000000000003A
:1020A60000018001F801800180018001800180012A
:1020B6008001800180018001800180018001800112
:1020C600800180018001C003F81F000000000000AD
:1020D60000000000000000000000000000000000FA
:1020E600E007101C0818043004300C300C300030A7
:1020F60000180008000400020001800040002020B3
:10210600102008200430FC1FFC1F00000000000007
:1021160000000000000000000000000000000000B9
:10212600E003180E0C0C0C180C180C180018000CF8
:102136000006C003000E00180010003000300C30FE
:102146000C300C100C18180CE00300000000000006
:102156000000000000000000000000000000000079
:10216600000C000E000E000F800E800E400E600E5A
:10217600200E100E100E080E040E040EFE7F000E2A
:10218600000E000E000E000E000EC07F00000000C4
:102196000000000000000000000000000000000039
:1021A600F03FF03F10001000100008000800C807BC
:1021B600280C1818081000300030003000300C30A1
:1021C6000C3004180418080CF0030000000000008E
:1021D60000000000000000000000000000000000F9
:1021E600800FC010203010301800180008000C00B6
:1021F6008C0F6C183C301C600C600C600C600C6022
:102206001860182030306018C00700000000000079
:1022160000000000000000000000000000000000B8
:10222600F83FF83F1C100C080408040400040002E0
:102236000002000100010001800080008000C00053
:10224600C000C000C000C000C000000000000000C8
:102256000000000000000000000000000000000078
:10226600E007300C18180C300C300C301C303818C5
:102276007008E007B007180E0C1C0638063006304A
:10228600063006300C18180CE003000000000000B1
:102296000000000000000000000000000000000038
:1022A600E00318040C080C18061006300630063039
:1022B600063006380C3C1836F0310030001800188D
:1022C60000180C0C0C060C03F001000000000000C6
:1022D60000000000000000000000000000000000F8
:1022E6000000000000000000000000000000800167
:1022F600C003C003800100000000000000000000D1
:1023060000008001C003C00380010000000000003F
:1023160000000000000000000000000000000000B7
:102326000000000000000000000000000000C000E7
:10233600C0000000000000000000000000000000D7
:10234600000000000000C000C000800080004000C7
:102356004000000000000000000000000000002017
:10236600001000080004000600038001C0006000A1
:10237600300018000C00180030006000C00080011A
:102386000003000600040008001000200000000002
:102396000000000000000000000000000000000037
:1023A6000000000000000000000000000000FE7FAA
:1023B60000000000000000000000FE7F000000009A
:1023C6000000000000000000000000000000000007
:1023D60000000000000000000000000000000400F3
:1023E6000800100020006000C00080010003000605
:1023F600000C001800300018000C000600038001D5
:10240600C00060002000100008000400000000006A
:102416000000000000000000000000000000C007EF
:102426003018083008600C601C601C601C600030AE
:10243600001C000600018000800080008000000073
:1024460000008001C003C0038001000000000000FE
:102456000000000000000000000000000000000076
:10246600C0076018103018200C2F8C4D864CC64CB7
:10247600C64C664C66446644662666266615CC1CC3
:102486000C40082018303018C0070000000000007B
:102496000000000000000000000000000000000135
:1024A600C001C001C00140016003200320032003D6
:1024B6003006100610061006F80F080C080C080C5B
:1024C6000C0C0418041806181F7C000000000000FD
:1024D60000000000000000000000000000000000F6
:1024E600FE07181C1838183018301830183018180D
:1024F600180CF8071818183018201860186018609B
:102506001860186018301818FE0F00000000000050
:1025160000000000000000000000000000000000B5
:10252600C0276038103018200C400C40040006000C
:1025360006000600060006000600060006000C401F
:102546000C400C2018303018C007000000000000B6
:102556000000000000000000000000000000000075
:10256600FE03180E18181830183018301860186046
:1025760018601860186018601860186018601830C5
:10258600183018101818180EFE030000000000007E
:102596000000000000000000000000000000000035
:1025A600FE3F183018201860184018001808180840
:1025B600180CF80F180C180818081800180018003E
:1025C6001840184018201830FE3F00000000000098
:1025D60000000000000000000000000000000000F5
:1025E600FE7F1870184018C01880180018101810B0
:1025F6001818F81F181818101810180018001800C6
:1026060018001800180018007E00000000000000E6
:1026160000000000000000000000000000000000B4
:10262600C013701C101018100C200C20040006009B
:10263600060006000600060006FC063006300C30D2
:102646000C30183018303008C007000000000000B9
:102656000000000000000000000000000000000074
:102666003F7E0C180C180C180C180C180C180C18AB
:102676000C180C18FC1F0C180C180C180C180C183D
:102686000C180C180C180C183F7E000000000000F7
:102696000000000000000000000000000000000034
:1026A600F81F800180018001800180018001800186
:1026B600800180018001800180018001800180010C
:1026C6008001800180018001F81F000000000000E9
:1026D60000000000000000000000000000000000F4
:1026E600E07F00060006000600060006000600065B
:1026F60000060006000600060006000600060006A4
:102706000006000600060006000600060E060E037A
:102716008E01FC0000000000000000000000000028
:102726007E7C181818081804180618021801980153
:102736009801D801B803380318071806180E180CA4
:10274600181C1818183018307EFC00000000000015
:102756000000000000000000000000000000000073
:102766007E0018001800180018001800180018003D
:102776001800180018001800180018001800180093
:102786001840184018201830FE3F000000000000D6
:102796000000000000000000000000000000000033
:1027A6001FF81C381C381C381C3C34343434343480
:1027B600343674326432643264326431C431C431C2
:1027C600C431C430C43084309FFC000000000000D7
:1027D60000000000000000000000000000000000F3
:1027E6001F7C1C103C103410341074106410E4105C
:1027F600C410C41184118413041304170416041E90
:10280600041C041C041C04181F180000000000000F
:1028160000000000000000000000000000000000B2
:10282600C003300C181808100C300C300660066017
:1028360006600660066006600660066006600C209C
:102846000C3008101818300CC003000000000000FF
:102856000000000000000000000000000000000072
:10286600FE0F181818301860186018601860186085
:1028760018301818F80F180018001800180018005B
:1028860018001800180018007E0000000000000064
:102896000000000000000000000000000000000032
:1028A600C003300C18180C100C300C2006600660A3
:1028B6000660066006600660066006600660E46103
:1028C6002C331C321816300EC007004C007C003822
:1028D60000000000000000000000000000000000F2
:1028E600FE07181C18381830183018301830181809
:1028F600180CF80798031803180718061806180E78
:10290600180C180C181C18187E780000000000001F
:1029160000000000000000000000000000000000B1
:10292600E027303818300C200C200C000C00180062
:102936007800E003800F001E00380070006004601D
:102946000460086018303818C80F00000000000046
:102956000000000000000000000000000000000071
:10296600FC3F8C218461824182418001800180018B
:102976008001800180018001800180018001800149
:102986008001800180018001E00700000000000056
:102996000000000000000000000000000000000031
:1029A6003F7C0C100C100C100C100C100C100C10A2
:1029B6000C100C100C100C100C100C100C100C1031
:1029C6000C100C1008083804E0030000000000009A
:1029D60000000000000000000000000000000000F1
:1029E6003EF8182018201820301030103010301003
:1029F600600860086008E00CC004C004C0048003DE
:102A06008003800380030001000100000000000035
:102A160000000000000000000000000000000000B0
:102A2600DFF38661862186218C210C218C238C1371
:102A36008C138C134C1358125816580E380E380E29
:102A4600380E300C100410041004000000000000C2
:102A56000000000000000000000000000000000070
:102A66007E3E180838083004300470026002E00127
:102A7600C001C001800180034003400720062006F4
:102A8600100C100C081808183E7C0000000000000E
:102A96000000000000000000000000000000000030
:102AA6007E7C1C10181018083008300C7004600466
:102AB6006002C002C002C001800180018001800165
:102AC6008001800180018001E00700000000000015
:102AD60000000000000000000000000000000000F0
:102AE600F83F18180818040C040E00060007000327
:102AF60080038001C001C000E0006000700030006B
:102B0600382018201C100C18FE1F000000000000C2
:102B160000000000000000000000C03F4000400030
:102B2600400040004000400040004000400040009F
:102B3600400040004000400040004000400040008F
:102B46004000400040004000400040004000C03FC0
:102B56000000000000000000000000000000080067
:102B660018001800100030002000600060004000CF
:102B7600C000800080018001000100030002000601
:102B860000060004000C00080018001800100030B1
:102B960000200000000000000000FC03000200020C
:102BA600000200020002000200020002000200020F
:102BB60000020002000200020002000200020002FF
:102BC6000002000200020002000200020002FC03F2
:102BD600000000000000000000008007C00620087A
:102BE60010100000000000000000000000000000BF
:102BF60000000000000000000000000000000000CF
:102C060000000000000000000000000000000000BE
:102C160000000000000000000000000000000000AE
:102C2600000000000000000000000000000000009E
:102C3600000000000000000000000000000000008E
:102C4600000000000000000000000000000000007E
:102C56000000FFFF0000000000007800C000000137
:102C6600000000000000000000000000000000005E
:102C7600000000000000000000000000000000004E
:102C8600000000000000000000000000000000003E
:102C9600000000000000000000000000000000002E
:102CA6000000000000000000000000000000F0032B
:102CB60018060C0C0C0C000C800F700C1C0C0C0C69
:102CC600060C060C064C0C4FF838000000000000FD
:102CD60000000000000000000000000000001000DE
:102CE6001E00180018001800180018001800180F09
:102CF600D818383038601860186018601860186086
:102D06001860182038307818C80700000000000046
:102D160000000000000000000000000000000000AD
:102D26000000000000000000000000000000C007D6
:102D3600700C181818180C180C000C000C000C005D
:102D46000C20182018103008C007000000000000F2
:102D5600000000000000000000000000000000105D
:102D6600001E001800180018001800180018E01BB4
:102D7600301C181818180C180C180C180C180C18ED
:102D86000C180818181C307AE00900000000000032
:102D9600000000000000000000000000000000002D
:102DA6000000000000000000000000000000C00756
:102DB600300C181808100C300C30FC3F0C000C00BE
:102DC6000C00182018107018C00700000000000042
:102DD60000000000000000000000000000000000ED
:102DE600003E80C380C0C0C0C000C000C000FC1F41
:102DF600C000C000C000C000C000C000C000C000CD
:102E0600C000C000C000C000F80F000000000000B5
:102E160000000000000000000000000000000000AC
:102E26000000000000000000000000000000C07765
:102E3600306C10181818181818181018300CF007DD
:102E460018001800F00FF03F08700C600C600C6062
:102E56003838E00F000000000000000000001000FD
:102E66001E00180018001800180018001800980F07
:102E7600D818383018301830183018301830183044
:102E860018301830183018307EFC000000000000A2
:102E9600000000000000000000000000000000002C
:102EA6008003800380030000000000000001F80199
:102EB6008001800180018001800180018001800104
:102EC6008001800180018001F81F000000000000E1
:102ED60000000000000000000000000000000000EC
:102EE6000038003800380000000000000010801F85
:102EF600001800180018001800180018001800180C
:102F06000018001800180018001800180018180CEF
:102F16001806F0030000000000000000000010008A
:102F26001E00180018001800180018001800183E97
:102F3600180C1806180318019801D8013803180749
:102F46001806180C181C18187E7C000000000000DB
:102F5600000000000000000000000000000000016A
:102F6600F8018001800180018001800180018001DB
:102F76008001800180018001800180018001800143
:102F86008001800180018001F81F00000000000020
:102F9600000000000000000000000000000000002B
:102FA6000000000000000000000000000800EE1C09
:102FB6009C338C318C318C318C318C318C318C3111
:102FC6008C318C318C318C31DE7B000000000000AE
:102FD60000000000000000000000000000000000EB
:102FE60000000000000000000000000010001E0F9E
:102FF600D8183830183018301830183018301830C3
:1030060018301830183018307EFC00000000000020
:1030160000000000000000000000000000000000AA
:103026000000000000000000000000000000C007D3
:10303600701C103018300C600C600C600C600C605A
:103046000C60183018303018C0070000000000006F
:10305600000000000000000000000000000000006A
:1030660000000000000000000000000010009E0F9D
:1030760058183830182018601860186018601860E2
:10308600186018303830781898071800180018009B
:1030960018007E0000000000000000000000000094
:1030A6000000000000000000000000000000C02337
:1030B600303C183818300C300C300C300C300C30DA
:1030C6000C3008301838303CE03300300030003027
:1030D600003000FC000000000000000000000000BE
:1030E60000000000000000000000000060007E3CC0
:1030F60060666061E000E000600060006000600003
:103106006000600060006000FE0700000000000034
:1031160000000000000000000000000000000000A9
:103126000000000000000000000000000000E02792
:1031360030381830182018007000E003800F001C8B
:10314600043004300C301C18EC0F000000000000A6
:103156000000000000000000000000000000000069
:1031660000000000800080008000C000E000FC1F1E
:10317600C000C000C000C000C000C000C000C00049
:10318600C000C020C0208011000F00000000000019
:103196000000000000000000000000000000000029
:1031A60000000000000000000000000010201E3C8F
:1031B60018301830183018301830183018301830C9
:1031C60018301830183830F4E01300000000000002
:1031D60000000000000000000000000000000000E9
:1031E60000000000000000000000000000007E3C1F
:1031F600181818083808300430047002600260029B
:10320600E001C001C001C000800000000000000015
:1032160000000000000000000000000000000000A8
:103226000000000000000000000000000000DFF7C2
:103236008E630C238C238C239813981358165816D8
:10324600700E700E700E20042004000000000000B6
:103256000000000000000000000000000000000068
:103266000000000000000000000000000000FC3E1E
:1032760070087004E004C002C001800380034007A8
:103286006006200C100C18183E7E0000000000009E
:103296000000000000000000000000000000000028
:1032A60000000000000000000000000000007E7C1E
:1032B6001818180830083008300460046004C0028A
:1032C600C002C00280018001800180008000800071
:1032D6004C003C0000000000000000000000000060
:1032E6000000000000000000000000000000FC1FBD
:1032F6000C0C040E0406000380038001C000E000ED
:103306007020302038301C18FC1F00000000000020
:10331600000000000000000000000030000800046B
:103326000004000400040004000400040004000477
:1033360000040002800100020004000400040004EE
:103346000004000400040004000400040004000853
:103356000030000000010001000100010001000131
:10336600000100010001000100010001000100014F
:10337600000100010001000100010001000100013F
:10338600000100010001000100010001000100012F
:10339600000100010000000000000C0010002000E9
:1033A6002000200020002000200020002000200017
:1033B6002000400080014000200020002000200066
:1033C6002000200020002000200020002000100007
:1033D6000C00000000003800C40086400261002294
:1033E600001C0000000000000000000000000000BB
:1033F60000000000000000000000000000000000C7
:1034060000000000000000000000000000000000B6
:0434160000000000B2
:055D0A004201C1000090
:0B65DA008FCFE5CD30E7FB75CDC02270
:0965E500007F207E28DEFEDFFCB1
:0165EE00228A
:10654800AD07AC06ED1DAE0470011C4E600512656A
:04655800E580F122C7
:0865B9001265EFE4FF1265C159
:0A65C100C292D2901265DAD2922243
:0A65EF00C292C2901265DAD2922225
:10519400C2837F0A7E00126548D2837F787E001224
:1051A40065487FCF1265EFE4FF1265C17FC11265C8
:1051B400C17F301265C17FED1265EF7F641265C156
:1051C4007F031265C17F121265C17F811265C17FA1
:1051D400E81265EF7F851265C17F101265C17F7A81
:1051E4001265C17FCB1265EF7F391265C17F2C1226
:1051F40065C1E4FF1265C17F341265C17F02126587
:10520400C17FF71265EF7F201265C17FEA1265B98D
:105214007FC01265EF7F1B1265C17FC11265EF7FEE
:10522400011265C17FC51265EF7F301265C1126539
:10523400C17FC71265EF7FB71265C17F361265EF74
:105244007FAC1265C17F3A1265EF7F551265C17F4D
:10525400B11265EFE4FF1265C17F1A1265C17FB612
:105264001265EF7F0A1265C17FA21265C17FF21237
:1052740065EFE4FF1265C17F261265EF7F011265B9
:10528400C17FE01265EF7F0F1265C17F2A1265C1ED
:105294007F281265C17F081265C17F0E1265C17F28
:1052A400081265C17F541265C17FA91265C17F438D
:1052B4001265C17F0A1265C17F0F1265C11265BCF8
:1052C4001265C11265C17FE11265EFE4FF1265C189
:1052D4007F151265C17F171265C17F071265C17FF3
:1052E400111265C17F061265C17F2B1265C17F56FD
:1052F4001265C17F3C1265C17F051265C17F101222
:1053040065C11F1265C17F3F1265C11265C17F0F60
:105314001265C17F2B1265B90F1265C17F3F1265FB
:10532400C17F2A1265B91265C17FEF1265C17F1171
:0F5334001265EF7F787E001265487F290265EFD2
:1062DA0090013FEEF0A3EFF07F2A1265EF90013FA5
:1062EA00E0FF1265C1A3E0FF1265C1EAFF1265C1B2
:1062FA00AF031265C17F2B1265EFECFF1265C1AFC8
:10630A00051265C1900145E0FF1265C1A3E0FF02D5
:02631A0065C15B
:10000E00AD07AC06C292D290ECFF1265DAAF0512C4
:05001E0065DAD2922218
:0860EA009001B6EEF0A3EFF007
:1060F2009001457401F0A3743FF07BEF7A00E4FD58
:10610200FCFFFE1262DA7F2C1265EFE49001B8F018
:10611200A3F0E4FBFA9001B6E0FEA3E0FF12000E4A
:106122000BBB00010AEB64F04A70EA9001B9E0048B
:10613200F070069001B8E004F0C39001B9E0944019
:086142009001B8E0940140CA8D
:01614A002232
:036612000265EF2F
:10650700C00790013DE0FFA3E0900145CFF0A3EF66
:06651700F0D0070262DA79
:10651D009000F2E0FBA3E0FAA3E0F98F828E8312E4
:03652D0045F9FF2E
:036530000265C140
:0366150002000E72
:105D10009000E8EEF0A3EFF0A3ECF0A3EDF0A3EA1F
:045D2000F0A3EBF011
:105D2400C006C00724FFFBEA34FFFAA3E0FEA3E0A9
:105D340024FFFFEE34FF90013DF0A3EFF0D007D035
:105D4400061265079000EAE0FFA3E09000F2CFF0AE
:105D5400A3EFF09000EEE0FEA3E0FFC39000F3E0B9
:105D64009F9000F2E09E50399000E8E0FEA3E0FB33
:105D7400AA06D39000EDE09B9000ECE09A401290CC
:105D840000F0E0FEA3E0FF1266150BBB00010A80E1
:105D9400E19000F3E004F070BA9000F2E004F080C7
:015DA400B24C
:015DA50022DB
:10614B0090019EFEE0FCA3E0FDC390019AE09DFD53
:0E615B00900199E09CFC90019CE0FAA3E0FB0F
:10616900900131EEF0A3EFF0900135EAF0A3EBF0E6
:10617900900133ECF0A3EDF0900131E0FAA3E0FBDC
:10618900FFAE02C007A3E0FFA3E090013DCFF0A35B
:10619900EFF0D007126507900135E0FEA3E0FF029A
:0261A900661579
:0E4FA600900156EEF0A3EFF0A3ECF0A3EDF0B7
:104FB400E4900162F0A3F0A3F0A3F0900156E0FEA8
:104FC400A3E0FFC3EB9FFFEA9E900166F0A3EFF01E
:104FD400900158E0FAA3E0FBC390015DE09BFE90D2
:104FE400015CE09A900168F0A3CEF0900156E0FFD6
:104FF400A3E0900170CFF0A3EFF0A3EAF0A3EBF0ED
:10500400900166E0FEA3E0FFD39400EE64809480F8
:10501400400A90016CE4F0A304F08021EF4E700884
:1050240090016CF0A3F0801574FF90016CF0A3F074
:10503400C3E49FFFE49E900166F0A3EFF090016843
:10504400E0FEA3E0FFD39400EE64809480400A90D5
:10505400016EE4F0A304F08021EF4E700890016E1D
:10506400F0A3F0801574FF90016EF0A3F0C3E49FE9
:10507400FFE49E900168F0A3EFF0900168E0FEA3C6
:10508400E0FF900166E0FCA3E0FDD39FEE6480F8AE
:10509400EC64809890016A4007ECF0A3EDF0800581
:1050A400EEF0A3EFF0E4900160F0A3F090016BE068
:1050B4002401FF90016AE03400FEC3900161E09F87
:1050C400900160E09E4003025193900170E0FEA3C2
:1050D400E0FFA3E0FCA3E0FD90015E126164900197
:1050E40066E0FEA3E0FF900163E02FF0900162E030
:1050F4003EF0900168E0FEA3E0FF900165E02FF030
:10510400900164E03EF090016AE0FEA3E0FF9001AC
:1051140062E0FCA3E0FDD39FEE6480F8EC64809829
:105124004020ED9FFFEC9E900162F0A3EFF0900110
:105134006CE0FEA3E0FF900171E02FF0900170E0BD
:105144003EF090016AE0FEA3E0FF900164E0FCA35E
:10515400E0FDD39FEE6480F8EC6480984020ED9FDE
:10516400FFEC9E900164F0A3EFF090016EE0FEA3CB
:10517400E0FF900173E02FF0900172E03EF09001A7
:0F51840061E004F07006900160E004F00250B0AA
:0151930022F9
:10587F009001A6EAF0A3EBF09001A2EEF0A3EFF0F7
:10588F00A3ECF0A3EDF0C007A3E0FAA3E0FB9001B7
:10589F00A4E0FFA3E090015CCFF0A3EFF09001AA8A
:1058AF00E0FFA3E090015ECFF0A3EFF0D007124F1F
:1058BF00A69001A2E0FAA3E0FBFFAE02C007A3E0AF
:1058CF00FCA3E0FD9001A8E0FFA3E090015CCFF006
:1058DF00A3EFF09001AAE0FFA3E090015ECFF0A349
:1058EF00EFF0D007124FA69001A8E0FCA3E0FD90C7
:1058FF0001A6E0FAA3E0FBA3E0FFA3E090015CCFD9
:10590F00F0A3EFF09001AAE0FFA3E090015ECFF0CB
:10591F00A3EFF09001A2E0FEA3E0FF124FA69001CB
:10592F00A6E0FAA3E0FBFFAE02C0079001A4E0FCE3
:10593F00A3E0FD9001A8E0FFA3E090015CCFF0A3EE
:10594F00EFF09001AAE0FFA3E090015ECFF0A3EF8C
:06595F00F0D007024FA684
:10534300900197EEF0A3EFF0A3ECF0A3EDF0A90327
:10535300E490019EF0A3F0E9FFA3E4F0A3EFF09043
:1053630001A0E0FEA3E0FFD390019FE09FEE6480E5
:10537300F890019EE064809840030254DEC39001DC
:1053830098E09FFF900197E09E12614B9001A0E08F
:10539300FEA3E0FF900198E02FFF900197E03E12FB
:1053A300614B90019EE0FEA3E0FFC3900198E09F54
:1053B300FF900197E09EFE9001A0E0FCA3E0FD902A
:1053C300019AE02DFD900199E03C12616090019EED
:1053D300E0FEA3E0FFC3900198E09FFF900197E0F8
:1053E3009E9001A012614E9001A0E0FEA3E0FF9009
:1053F3000198E02FFF900197E03EFE90019EE0FCB4
:10540300A3E0FD90019AE02DFD900199E03C12612B
:105413006090019EE0FEA3E0FF900198E02FFF90D3
:105423000197E03EFE9001A012614F90019EE0FEC5
:10543300A3E0FF900198E02FFF900197E03EFE90DC
:1054430001A0E0FCA3E0FD90019AE02DFD900199FD
:10545300E03C1261609001A0E0FEA3E0FFC3900175
:1054630098E09FFF900197E09EFE90019EE0FCA3D1
:10547300E0FD90019AE02DFD900199E03C126160FE
:1054830090019FE004F0700690019EE004F090010B
:10549300A0E0FCA3E0FDFFAE04124638AA06AB076A
:1054A30090019EE0FCA3E0FDFFAE04124638EF2B13
:1054B300FDEE3AFCE9F5F0A4FFD3ED9FE5F064803F
:1054C300F8EC64809850030253629001A1E024FF3A
:0B54D300F09001A0E034FFF0025362F3
:0154DE0022AB
:104D5E0090011FECF0A3EDF0A3EBF090011DEEF02F
:034D6E00A3EFF0C0
:104D7100E490012AF090012FEEF0A3EFF0900126CC
:104D8100E0F9C313900129F0E0FF131313541FFD41
:104D91007C00EF54077E0060047F0180027F00EFFA
:104DA1002DFFEE3CFEE9FD7C0012463890012DEE10
:104DB100F0A3EFF0900121E024E0F090011FE0FC6E
:104DC100A3E0FD900129E0FF7E0090011DE0FAA320
:104DD100E02FFFEE3ACF24FFFBEF34FFFAE9FFA308
:104DE100E0F8A3E02FFFEE38CF24FFCF34FF90018E
:104DF10045F0A3EFF090011DE0FEA3E0FF1262DA9F
:104E01007F2C1265EFE490012BF0A3F090012DE0CF
:104E1100FEA3E0FF90012BE0FCA3E0FDC39FEC9E0D
:104E21004003024FA5900126E0F9B40C1C9001212A
:104E3100E075F00CA42426F582E5F03400F583E555
:104E4100822DF582E5833C807AE9B4102490012B10
:104E5100E0FEA3E0FF900121E075F010A4249AF593
:104E610082E5F03404F583E5822FF582E5833E8007
:104E710052E9B4182490012BE0FEA3E0FF90012138
:104E8100E075F030A4248AF582E5F0340AF583E573
:104E9100822FF582E5833E802AE964206003024F78
:104EA100A590012BE0FEA3E0FF900121E075F04009
:104EB100A4245AF582E5F0341CF583E5822FF582AE
:104EC100E5833EF583E493900128F0E4F99001270E
:104ED100E07041047E00A801088005C333CE33CEC3
:104EE100D8F9FF900128E0FDEF5D60059001228077
:104EF10003900124E0FEA3E0FF12661590012AE071
:104F010004F0900129E0FFA3E08FF084E5F0707ACE
:104F1100F0024F9474017E00A801088005C333CECE
:104F210033CED8F9FF900128E0FDEF5D60149001C8
:104F31001DE0FEA3E0FFA3E0FCA3E0FD900122122F
:104F4100616490011EE004F0700690011DE004F020
:104F510090012FE0FEA3E0FFC390011EE09FFD90B2
:104F6100011DE09EFC900129E07A00B5051CEAB51F
:104F7100041890011DEEF0A3EFF0900120E004F081
:104F8100701190011FE004F0800909E964086003D1
:104F9100024ECE90012CE004F0700690012BE0044B
:044FA100F0024E0DBF
:014FA50022E9
:105E3200900110EEF0A3EFF0A3ECF0A3EDF0A3EBD2
:105E4200F0A3EAF0A3E9F0900114E0FBA3E0FAA3C7
:105E5200E0F91245E0FB6061900112E0FCA3E0FD75
:105E6200900117E0FFA3E0900122CFF0A3EFF090A2
:105E72000119E0FFA3E0900124CFF0A3EFF090011D
:105E82001BE0900126F090011CE0900127F09001A8
:105E920010E0FEA3E0FF124D5E90011BE0C313FF72
:105EA200900111E02FF0900110E03400F090011504
:0A5EB200E475F001124680808E2294
:0761AB00C3EF9E14FD7F0A03
:0861B2009001ACEFF0A3EDF049
:1061BA00A31247E3000000019001ADE0FF14F0EFE5
:1061CA006020A3E0F8A3E0F9A3E0FAA3E0FB9001C2
:1061DA00ACE0FFE4FCFDFE1246AC9001AE1247D7DC
:1061EA0080D69001AEE0FCA3E0FDA3E0FEA3E0FFB1
:0161FA002282
:10562900900187EEF0A3EFF0A3ECF0A3EDF0A3EA6D
:04563900F0A3EBF0FF
:10563D00E4900195F0900192E0C313900196F0E48F
:10564D00900193F090018DE0FF900193E0FEC39FD8
:10565D0040030257541261ABA804A905AA06AB0773
:10566D0090018BE0FEA3E0FFE4FCFD124737E47BE5
:10567D000AFAF9F8124737900194EBF0A3E0706540
:10568D0090018DE014FF900193E0FEC39F5056A34F
:10569D00E0704C900196E0FFEE8FF0A4FF90018832
:1056AD00E02FFF900187E035F0FE900189E0FCA32B
:1056BD00E0FD90018EE0FBA3E0900122CBF0A3EB87
:1056CD00F0900190E0FBA3E0900124CBF0A3EBF070
:1056DD00900192E0900126F0E4A3F07B20805C9095
:1056ED0001957401F0900196E0FF900193E08FF029
:1056FD00A4FF900188E02FFF900187E035F0FEC0F8
:10570D0007900189E0FCA3E0FD900194E02430FBBB
:10571D0090018EE0FFA3E0900122CFF0A3EFF09077
:10572D000190E0FFA3E0900124CFF0A3EFF09001F2
:10573D0092E0900126F0E4A3F0D007124D5E9001A7
:07574D0093E004F002565145
:015754002232
:0E54DF00900174EEF0A3EFF0A3ECF0A3EDF05B
:1054ED00900181E0C313900184F0E4FFFE7DC87C40
:1054FD0042900178E0F8A3E0F9A3E0FAA3E0FB12F3
:10550D00410F124215900185EEF0A3EFF0E49001EA
:10551D0082F090017CE0FF900182E0FEC39F40038A
:10552D000256281261ABA804A905AA06AB07900183
:10553D0085E0FEA3E0FFE4FCFD124737E47B0AFAA9
:10554D00F9F8124737900183EBF090017CE0FF24CE
:10555D00FEFE900182E06E7060EF24FEFFE434FFEA
:10556D00FE900184E0FD7C00124638900175E02F1D
:10557D00FF900174E03EFE900176E0FCA3E0FD900B
:10558D00017DE0FBA3E0900122CBF0A3EBF09001B5
:10559D007FE0FBA3E0900124CBF0A3EBF090018121
:1055AD00E0900126F0E4A3F07B2E124D5E90018277
:1055BD00E004F090017CE004F0900184E0FF9001A4
:1055CD0082E08FF0A4FF900175E02FFF900174E051
:1055DD0035F0FEC007900176E0FCA3E0FD9001835D
:1055ED00E02430FB90017DE0FFA3E0900122CFF09D
:1055FD00A3EFF090017FE0FFA3E0900124CFF0A393
:10560D00EFF0900181E0900126F0E4A3F0D00712B5
:0B561D004D5E900182E004F002551F7A
:01562800225F
:105755009000EAEEF0A3EFF0A3ECF0A3EDF0A3EADE
:04576500F0A3EBF0D2
:105769009000F91247E3000000009000ECE0FCA370
:10577900E0FDA3E0FEA3E0FF9000EAE0FAA3E02F3A
:10578900FFEA3ECF24FFFBEF34FFFA9000F0E0FE82
:10579900A3E0FF9000ECE0F8A3E02FFFE83ECF2460
:1057A900FFCF34FF90013DF0A3EFF09000EAE0FE57
:1057B900A3E0FF1265077F2C1265EFE49000F5F076
:1057C900A3F09000EEE0FEA3E0FFC39000F6E09F97
:1057D9009000F5E09E400302587EE49000F7F0A3A4
:1057E900F09000F0E0FEA3E0FFC39000F8E09F9086
:1057F90000F7E09E506BE47F02FEFDFC9000F9E0AB
:10580900F8A3E0F9A3E0FAA3E0FB1246AC12651D88
:10581900E47F02FEFDFC9000F9E0F8A3E0F9A3E0C3
:10582900FAA3E0FB1246ACEF2401FFE43EFE126549
:105839001D9000F9E0FCA3E0FDA3E0FEA3E0240134
:10584900FFE43EFEE43DFDE43CFC9000F91247D73D
:105859009000F8E004F070069000F7E004F00257B9
:10586900EA9000F6E004F060030257CB9000F5E0FF
:0558790004F00257CB12
:01587E002207
:10410F00EC4D6011E8497017ED33EC3304600DE4AA
:10411F00FCFFFEFD22E933E8330470F802428112FE
:10412F00424C58046009E4CC2481500628500902FF
:10413F00428B284003024288C0E0EB4A7044B980AA
:10414F0006D0E0FB024277EF4E701CBD8008EBFFFC
:10415F00EAFEE9FD80EBE98DF0A4FEE5F00241F8FF
:10416F00E9CDF9EAFEEBFFEF89F0A4FCE5F0CE898B
:10417F00F0A42EFFE435F0CD89F0A42DFEE435F048
:10418F008067EF4E7005BD80D780C3EF8BF0A4AC76
:10419F00F0EE8BF0A42CFCE435F0F8EF8AF0A42CB1
:1041AF00E5F038FCE433CB8DF0A42CFCE5F03BF8C4
:1041BF00EE8AF0A42CFCE5F038F8E433CF89F0A4B4
:1041CF002CFCE5F038CF3400CE89F0A42FFFE5F0BA
:1041DF003EFEE433C98DF0A42EFEE5F039CD8AF012
:1041EF00A42FFFE5F03EFEE43DFD33D0E0FB50078A
:1041FF000BBB000F02428BEC2CFCEF33FFEE33FEB8
:06420F00ED33FD024263E5
:10421500EDD2E7CD33EC3392D524814006E4FFFEA1
:10422500FDFC22FCE4CFCECDCC24E0501174FF8000
:10423500EDC3CC13CCCD13CDCE13CECF13CF04709D
:07424500F030D5DE0247C98D
:1048DB00E5082413F582E43401F583E00508229002
:1048EB000110300703900113E475F0011248140214
:1048FB0045E02000E97F2ED2008018EF540F249062
:10490B00D43440D4FF30040BEF24BFB41A0050034F
:10491B002461FFE50960021509050CE50C70020521
:10492B000B30070E900110E475F001124814EF02E2
:10493B0046260266027403D2078003E4C207F50819
:10494B0090011012482BE4F509F50BF50CE5096005
:10495B00077F2012491E80F5750AFFC201C200C2F3
:10496B0002C203C205C206C2081248EAFF700D302C
:10497B0007057F0012492FAF0CAE0B22B4255FC287
:10498B00D5C2041248EAFF24D0B40A00501A75F0BD
:10499B000A780930D50508B6FF0106C6A426F6200D
:1049AB00D5047002D20380D924CFB41A00EF50047F
:1049BB00C2E5D204024C21D20180C6D20080C0D203
:1049CB000280BCD2D580BAD20580B47F2012491E9A
:1049DB002002077401B5090040F11248DBFF1249B0
:1049EB001E024958D208D20680951248DBFB1248AA
:1049FB00DBFA1248DBF94A4B7006791F7A4D7BFFC5
