:0300000002557A2C
:0C557A00787FE4F6D8FD7581220255C14F
:10474400544D503A2533642E253031642020002006
:104754002020202020202020202020202020202055
:104764002020202000436972636C6520544143007B
:1047740030202020202020202020202020313262C0
:10478400697420202020202020202020323034373B
:10479400005345543A202020202020202025303466
:1047A4006420202020004053544349535023007276
:1047B40065632040535443495350232C72657365F9
:1047C400617274206E6F770070696E676D754765EE
:1047D40074446174612067657464697A68692564E6
:1047E4002D007265616420616E7325640A0070692E
:1047F4006E676D7553657444617461207365746488
:10480400697A68693025642D25640070696E676D66
:104814007553657444617461207A686900737973AF
:1048240074656D20626567696E0D0000000000000C
:104834000000000000000000000000000000000074
:104844000000000000000000000000000000000064
:104854000000000000000000000000000000000054
:104864000000000000000000000000000000000044
:104874000000000000000000000000000000000034
:104884000000000000000000000000000000000024
:104894000000000000000000000000000000000014
:1048A4000000000000000000000000000000000004
:1048B40000000000000000000000000000000000F4
:1048C40000000000000000000000000000000000E4
:0F48D400000000000000000000000000000000D5
:1052FE0042005E0000420057000142005C00024284
:10530E000060000342005A000042005400005E009C
:10531E006B00000000000000000000000000000014
:10532E00000000000000000000000000000000600F
:10533E00280000FFFFFFFFFFFFFFFFFFFFFFFFFF44
:10534E00FFFFFFFFFFFFFFFFFFFFFFFFFFFFFFFF5F
:10535E00FFFFFFFFFFFFFFFFFFFFFF41005900416F
:10536E0000560042004C00034A00280000000000D6
:10537E000000000000540032000000000000000099
:10538E000000000000000000000000004200890044
:0F539E00CB420046000042004800004100620080
:105D6700759850438E40538EFE53890F758BCC75B3
:0E5D77008DFFC2ABD28ED2ACD2AFE4F5A22229
:080003008F993099FDC299228A
:085ED7008F993099FDC2992258
:105E5E001239E1FF600C120003740129F9E43AFAD9
:035E6E0080EE22A1
:105E7100759A1075D78F75D6FD438E1475AF01D203
:025E8100AF224E
:085EDF002012FDD2128F9B225C
:105CC000900335EBF0A3EAF0A3E9F0900335E0FB95
:105CD000A3E0FAA3E0F91239E16017900335A3E4D9
:105CE00075F001123A97A9F0FA1239E1FF125EDF5E
:035CF00080D92236
:105DDC00438E805389F0758A80758C44C28DD28C29
:095DEC00D28CD2A9D2B9D2AF22A7
:1059CF00A2A3E433FF900000E025E04FF0A2A1E492
:1059DF0033FFA3E025E04FF0A2B7E433FFA3E025A8
:1059EF00E04FF0A2B5E433FFA3E025E04FF0E4FF72
:1059FF0074002FF582E43400F583E0FE700E746BB3
:105A0F002FF582E43400F583E4F08010BEFF0D74AF
:105A1F006B2FF582E43400F5837401F00FEFB40AB5
:015A2F00CFA7
:015A30002253
:0B5EA400AD07AC067F047E000256062E
:1057A6009001C1EEF0A3EFF0900056E0606B90011F
:1057B600C1E0FEA3E0FF900055E02F900054E03ECC
:1057C600C364809480500EE4F0A3F090005904F076
:1057D600E4FFFE80419001C1E0FEA3E0FF9000558A
:1057E600E02FFD900054E03EFCD3ED94FFEC648086
:1057F600948740087407F0A374FFF022900055E0E8
:105806002FF0900054E03EF09000597401F09000A3
:0A58160054E0FEA3E0FF125EA4229E
:10596C009001BBEEF0A3EFF04E7002B2A290005784
:10597C00E0FEA3E0FF9001BBE0B5060BA3E0B5078A
:10598C000674FFFFFE8018900060E0FEA3E0FF901D
:10599C0001BBE0B5060CA3E0B507077F017E000252
:1059AC0057A690005CE0FEA3E0FF9001BBE0B506BB
:1059BC0011A3E0B5070C900056E0FFC374019FF0F3
:0359CC00B2B6224E
:105B8F00AB07AA0690004CE0FEA3E0FF7C007D0F60
:105B9F00123A39C3EB9FEE6480F8EA64809850059F
:105BAF007E007F0A2290004CE0FEA3E0FF7C007D88
:105BBF0032123A39C3EB9FEE6480F8EA6480987E24
:095BCF000050037F32227F6422A2
:0E54ED009001BBEEF0A3EFF0A3ECF0A3EDF006
:1054FB00E024D4F09001BDE034FEF0E0FEA3E0FF29
:10550B00C3EE648094804066125B8F9001BFEEF017
:10551B00A3EFF090004CE0FCA3E0FD9001BDE0FE9A
:10552B00A3E0FF123A4BED4C7044900057E0FEA302
:10553B00E0FF9001BBE0B50616A3E0B507119001A3
:10554B00BFE0FEA3E0FFC3E49FFFE49EFE801C9040
:10555B000060E0FEA3E0FF9001BBE0B50610A3E006
:0E556B00B5070B9001BFE0FEA3E0FF1257A6AC
:01557900220F
:105D2100EF7005ED24FF92A2EFB40105ED24FF927F
:105D3100A0EFB40205ED24FF92B6EFB40305ED2404
:045D4100FF92B422F7
:105D850090005EE06E7003A3E06F601190005CE030
:0E5D95006E7003A3E06F60057D01125D212298
:105DA30090005EE06E7003A3E06F601190005CE012
:0E5DB3006E7003A3E06F6005E4FD125D212217
:104FE000E49001B9F0A3F09001B9E0FEA3E0FFC3A3
:104FF0009406EE6480948040030250B7746B2FF5E2
:105000008274003EF583E070679001B9A3E0242824
:10501000F58274003EF583E070149001B9A3E0249A
:1050200028F58274003EF5837401F012596C9001EA
:10503000B9E0FEA3E0FF125DA39001B9E0FCA3E09C
:10504000FD25E0FBEC33FA74322BF58274003AF55F
:1050500083E475F001123A81AF05AE0474322BF58A
:105060008274003AF583E0FCA3E0FD1254ED803336
:105070009001B9E0FEA3E0FF2428F58274003EF51C
:1050800083E4F0EF25E0FFEE33FE74322FF58274F7
:10509000003EF583E4F0A3F09001B9E0FEA3E0FF49
:1050A000125D859001BAE004F06003024FE79001C1
:0750B000B9E004F0024FE734
:0150B70022D6
:1059060090029574FFF0A37447F0A37444F09000DE
:1059160089E0FAA3E0FB7C007D0AFFAE02123A4B57
:10592600900298EEF0A3EFF07C007D0AAF03AE0282
:10593600123A4BA3ECF0A3EDF07B017A0179B91290
:105946003D417B017A0179B990026274F8F0A3E4D3
:10595600F074FFA3F0A3F0A37420F0E4A3F07D504D
:06596600FCFFFE02571CCD
:015EF500228A
:1050B80078B97C017D017BFF7A48792F7E007F3C9F
:1050C8001239BB900046E07004A3E064017003024B
:1050D800517E900046E4F0A304F090029574FFF02E
:1050E800A37447F0A37453F0A37401F0FB7A017919
:1050F800B9123D41E49001F5F0A3F09001F5E0FE0E
:10510800A3E0FFC3940AEE6480948050437C007D42
:105118001E123A39AC06AD077B017A0179B99002C3
:105128006274F8F0A3E4F074FFA3F0A3F0A3742072
:10513800F0E4A3F0FFFE12571C7F0A7E00125E36D1
:105148009001F6E004F070B39001F5E004F080AB54
:105158007BFF7A47796990026274F8F0A3E4F074EF
:10516800FFA3F0A3F0A37420F0E4A3F0FDFCFFFE7E
:0651780012571C1253B394
:01517E00220E
:1053B300781D7C027D017BFF7A48796B7E007F3C00
:1053C3001239BB900048E07004A3E064017003024B
:1053D3005456900048E4F0A304F0E4FF7E109002DA
:1053E3001D742DF0A3DEFC7B017A02791D9002620D
:1053F30074F8F0A3E4F074FFA3F0A3F0A37420F017
:10540300E4A3F07D8CFCFFFE12571C7B017A02792A
:105413001D90026274F8F0A3E4F074FFA3F0A3F00C
:10542300A37420F0E4A3F07DB4FCFFFE12571C7BB1
:10543300FF7A47797490026274F8F0A3E4F074FF82
:10544300A3F0A3F0A37410F0E4A3F07DD2FCFFFE5D
:0354530012571CD1
:015456002233
:1056920078E17C017D017BFF7A4879A77E007F3C1F
:1056A2001239BB900055E0C4F8540FC868FF90004F
:1056B20054E0C454F048FE7C077DFF123A4BE4FDEF
:1056C200FCC3ED9FEE6480F8EC64809874E1500DA9
:1056D2002DF58274013CF583743EF0800B2DF5822A
:1056E20074013CF5837420F00DBD00010CED6410D3
:1056F2004C70CE1253B37B017A0179E1900262744D
:10570200F8F0A3E4F074FFA3F0A3F0A37420F0E494
:0A571200A3F07DA0FCFFFE02571C6F
:105B420090029574FFF0A37447F0A37495F090004F
:105B520054E0FFA3E0900298CFF0A3EFF07B017A2C
:105B62000179B9123D417B017A0179B990026274DF
:105B7200F8F0A3E4F074FFA3F0A3F0A37420F0E420
:0D5B8200A3F07D78FCFFFE12571C02569226
:095ECE00125EF5125B4202590656
:10582000E49001B7F0A3F01258977F047E00125164
:105830007F900054EEF0A3EFF01259CF124FE07FAB
:10584000017E00125E36900059E0B4010EE4F012C1
:105850005ECEE49001B7F0A3F0800E9001B8E004B2
:10586000F070069001B7E004F09001B7E475F00124
:10587000123A97FED3E5F094F4EE6480948140B937
:10588000E49001B7F0A3F0125EE7900089EEF0A378
:07589000EFF0125ECE80A2D2
:105C5500900063E475F001123A97FC748B25F0F51A
:105C65008274003CF583EFF0C3900064E0942C90BF
:105C75000063E0648094814004E4F0A3F090004A5E
:075C8500E4F0A3740AF02211
:105D450090029574FFF0A37447F0A374AAF0125261
:105D55003FE94A600C7BFF7A4779B3123D4775C727
:015D650060DD
:015D6600221A
:105DC1007E017F2C7D007B017A00798B123C5BE4A4
:0B5DD100900063F0A3F0900062F0224D
:10517F00E49001B9F0A3F090029574FFF0A3744787
:10518F00F0A374CCF0A3EEF0A3EFF07B017A0179DA
:10519F00BD123D41125DC17B017A0179BD123D47C0
:1051AF007F017E00125E369001B9E475F001123A6C
:1051BF0097FED3E5F094C8EE648094804004E4FE3B
:0851CF00FF22900062E060D8AD
:1051D7009002957401F0A37401F0A374BDF07B01F4
:1051E7007A00798B12523F9001E5EBF0A3EAF0A326
:1051F700E9F04A603D7B017A0179BD125E21900199
:10520700E5E0FBA3E0FAA3E02FF9EA3EFA124F0527
:105217009001BBEEF0A3EFF07BFF7A4779E69002AF
:1052270095EEF0A3EFF0123D479001BBE0FEA3E03F
:05523700FF22125DC121
:03523C000251AF6D
:10560600E49001C3F0A3F090029574FFF0A37447F1
:10561600F0A374F2F0A3EEF0A3EFF0AF05A3ECF065
:10562600A3EFF07B017A0179C7123D41125DC17B80
:10563600017A0179C7123D477F017E00125E3690DE
:1056460001C3E475F001123A97FED3E5F094C8EE73
:0E565600648094804002802B900062E060DA55
:1056640090029574FFF0A37448F0A3740FF07B01CB
:105674007A00798B12523F9001EFEBF0A3EAF0A38A
:0C568400E9F04A6004E4FEFF22125DC160
:0256900080ACEC
:105C8C00D390004BE0940090004AE06480948040F4
:105C9C0022A3E024FFF090004AE034FFF0E0700211
:105CAC00A3E0700F7B017A00798B125D4590006246
:045CBC007401F0225D
:085EE7007F067E0012517F22AC
:03002300025CF389
:105CF300C0E0C0F0C083C082C0D075D000C000C077
:105D030004C007309807C298AF99125C55D007D0EA
:0E5D130004D000D0D0D082D083D0F0D0E032C7
:03000B00025C1A7A
:105C1A00C0E0C0F0C083C082C0D075D000C000C050
:105C2A0001C002C003C004C005C006C007125C8CD4
:105C3A00D007D006D005D004D003D002D001D000BE
:0B5C4A00D0D0D082D083D0F0D0E03268
:105897007F0A7E00125E36E4F594759302F592F561
:1058A70091F596F595F5B2F5B1F5B4F5B3F5CAF5F9
:1058B700C975CED075CDC0C291B2A27F32FE125E3D
:1058C70036124595125D67125DDC7F327E00125EEF
:1058D700369001BFE4F0A374F0F074FFA3F0A3F0D7
:1058E7007B407A01E4FDFCFFFE1254577BFF7A48A8
:0F58F7007921123D477F327E00125E360250B893
:1000260000000000000000000000000000000404C2
:10003600040404000004000014140A000000000078
:100046000000000000000A0A1F0A0A1F0A0A000030
:1000560000040E1505060C14150E040000001215FA
:100066000D152E2C2A1200000000040A0A3615155A
:100076002916000002020100000000000000000036
:100086001008080404040404080810000204040804
:10009600080808080404020000000004150E0E15E6
:1000A6000400000000000008083E080800000000E8
:1000B6000000000000000000020201000000000035
:1000C600003F0000000000000000000000000000EB
:1000D60000020000002010100808040402020100BB
:1000E60000000E1111111111110E0000000004067E
:1000F60004040404040E000000000E11110804029A
:10010600011F000000000E11100C1010110E00004F
:100116000000080C0C0A091F081C000000001F0143
:10012600010F1110110E000000000C12010D131129
:10013600110E000000001E1008080404040400004C
:1001460000000E11110E1111110E000000000E110B
:100156001119161009060000000000000400000036
:100166000004000000000000000400000004040079
:10017600000010080402020408100000000000003D
:100186003F003F00000000000000020408101008B5
:100196000402000000000E1111080404000400000F
:1001A60000001C22292D2D1D221C00000000040425
:1001B6000C0A0A1E1233000000000F12120E121251
:1001C600120F000000001E1101010101110E0000B6
:1001D60000000F1212121212120F000000001F125E
:1001E6000A0E0A02121F000000001F120A0E0A025F
:1001F6000207000000001C1201013911120C000058
:1002060000003312121E12121233000000001F04E7
:1002160004040404041F000000003E08080808083F
:1002260008080907000037120A060A1212370000EA
:100236000000070202020202223F000000003B1BF0
:100246001B1B15151535000000003B1216161A1A51
:100256001217000000000E1111111111110E0000ED
:1002660000000F12120E02020207000000000E111B
:1002760011111117190E180000000F12120E0A1292
:100286001237000000001E1101060810110F0000B1
:1002960000001F1504040404040E000000003312BD
:1002A60012121212120C000000003312120A0A0C6B
:1002B600040400000000151515150E0A0A0A0000B0
:1002C60000001B0A0A04040A0A1B000000001B0A9D
:1002D6000A0A0404040E000000001F0908040402B0
:1002E600121F00001C0404040404040404041C007B
:1002F6000002020404040808081010000E0808088A
:100306000808080808080E00040A0000000000009B
:100316000000000000000000000000000000003F98
:1003260002040000000000000000000000000000C1
:10033600000C121C123C000000030202020E1212F4
:10034600120E000000000000001C1202120C000039
:1003560000181010101C1212123C000000000000C1
:10036600000C121E021C000000182404041E0404C3
:10037600041E000000000000003C120C021C221C9F
:1003860000030202020E12121237000000040400DB
:1003960000060404040E000000080800000C08080B
:1003A6000808080700030202021A0A060A130000D8
:1003B6000007040404040404041F000000000000F5
:1003C600000F15151515000000000000000F121291
:1003D6001237000000000000000C1212120C000080
:1003E60000000000000F1212120E020700000000AB
:1003F600001C1212121C103800000000001B06021E
:100406000207000000000000001E020C101E000083
:1004160000000004041E0404041C00000000000088
:10042600001B1212123C000000000000001B0A0A0A
:1004360004040000000000000015150E0A0A000062
:1004460000000000001B0A040A1B00000000000058
:10045600003312120C08040300000000001E0804FA
:10046600041E000018080808080C080808081800E8
:100476000808080808080808080808080604040404
:100486000408040404040600160900000000000025
:100496000000000000000000000000000000000056
:1004A600000000000000000808080808080800000E
:1004B6001818000000486C2412000000000000001C
:1004C600000000000000002424247F1212127F1274
:1004D600121200000000081C2A2A0A0C1828282AD2
:1004E6002A1C080800000022251515152A58545400
:1004F600542200000000000C1212120A762529115F
:10050600916E0000000606040300000000000000D3
:100516000000000000402010100808080808081015
:1005260010204000000204080810101010101008D7
:10053600080402000000000008086B1C1C6B080879
:100546000000000000000000080808087F080808EE
:10055600080000000000000000000000000000008D
:10056600060604030000000000000000FE00000074
:100576000000000000000000000000000000000075
:1005860006060000000080404020201010080804E5
:100596000402020000000018244242424242424243
:1005A60024180000000000080E08080808080808BB
:1005B600083E00000000003C424242202010080491
:1005C600427E00000000003C42422018204040428B
:1005D600221C0000000000203028242422227E2035
:1005E600207800000000007E0202021A26404042E7
:1005F600221C0000000000382402021A2642424251
:10060600241800000000007E2222101008080808A6
:10061600080800000000003C4242422418244242DE
:10062600423C000000000018244242426458404008
:10063600241C000000000000000018180000000044
:10064600181800000000000000000008000000006C
:1006560000080804000000402010080402040810E6
:10066600204000000000000000007F0000007F0026
:1006760000000000000000020408102040201008BE
:10068600040200000000003C4242464020101000D8
:10069600181800000000001C225A555555552D42C9
:1006A600221C00000000000808181414243C2242F2
:1006B60042E700000000001F2222221E2242424280
:1006C600221F00000000007C42420101010101429C
:1006D600221C00000000001F2242424242424242C7
:1006E600221F00000000003F4212121E1212024298
:1006F600423F00000000003F4212121E1212020288
:10070600020700000000003C2222010101712122A3
:10071600221C0000000000E7424242427E42424262
:1007260042E700000000003E08080808080808081C
:10073600083E00000000007C101010101010101071
:100746001010110F0000007722120A0E0A12122250
:1007560022770000000000070202020202020202E3
:10076600427F000000000077363636362A2A2A2ACB
:100776002A6B0000000000E346464A4A5252526283
:10078600624700000000001C2241414141414141B5
:10079600221C00000000003F424242423E0202028A
:1007A600020700000000001C2241414141414D5317
:1007B600321C60000000003F4242423E12122222DA
:1007C60042C700000000007C42420204182040425A
:1007D600423E00000000007F490808080808080893
:1007E600081C0000000000E74242424242424242E8
:1007F600423C0000000000E7424222242414141860
:10080600080800000000006B494949495555362241
:1008160022220000000000E742242418181824248D
:1008260042E7000000000077222214140808080896
:10083600081C00000000007E21201010080404425D
:10084600423F000000780808080808080808080859
:1008560008087800000002020404080808101020A6
:1008660020204040001E1010101010101010101004
:1008760010101E00003844000000000000000000B8
:100886000000000000000000000000000000000062
:10089600000000FF00060800000000000000000045
:1008A60000000000000000000000003C42784442C6
:1008B60042FC0000000000030202021A26424242E5
:1008C600261A000000000000000000384402020260
:1008D60044380000000000604040407844424242F4
:1008E60064D80000000000000000003C427E0202C6
:1008F600423C0000000000F08808087E080808084E
:10090600083E0000000000000000007C22221C02BD
:100916003C42423C000000030202023A4642424286
:1009260042E700000000000C0C00000E0808080852
:10093600083E000000000030300000382020202053
:100946002020221E0000000302020272120A161262
:10095600227700000000000E0808080808080808AA
:10096600083E0000000000000000007F9292929274
:1009760092B70000000000000000003B46424242E1
:1009860042E70000000000000000003C42424242F4
:10099600423C0000000000000000001B26424242CC
:1009A600221E020700000000000000784442424276
:1009B600447840E000000000000000774C04040486
:1009C600041F0000000000000000007C42023C40C2
:1009D600423E0000000000000008083E0808080823
:1009E600083000000000000000000063424242425E
:1009F60062DC000000000000000000E7422424142E
:100A06000808000000000000000000EB49495555A9
:100A160022220000000000000000007624181818AA
:100A2600246E000000000000000000E742242414A9
:100A360018080807000000000000007E22100808C1
:100A4600447E000000C020202020201020202020EE
:100A56002020C000101010101010101010101010D0
:100A660010101010000608080808081008080808E2
:100A7600080806000C32C20000000000000000005A
:100A86000000000000000000000000000000000060
:100A96000000000000000000000000000000000050
:100AA6000000000000000000000000000000000040
:100AB6000000000000000000000000006000600070
:100AC60060006000600060006000400020002000C0
:100AD60020000000000000006000600060000000D0
:100AE6000000000000000000600660063003980168
:100AF6008800440000000000000000000000000024
:100B060000000000000000000000000000000000DF
:100B160000000000000000000000000010021002AB
:100B260010021002FE07FE0708020801080108016C
:100B36000801FE07FE070401040104010401000088
:100B46000000000000000000000040004000F0012E
:100B560058034C03CC034C0058007000E000C00161
:100B6600C00140034C035C034C034801F000400005
:100B76004000000000000000000000000E010A0115
:100B8600910091009100510051003A00AE03A0027D
:100B960050045004480448044804840284030000B6
:100BA60000000000000000000000000038006C009B
:100BB6006C006C006C006C002C0098071C011A017C
:100BC600330133016301E300C308C6093C07000093
:100BD60000000000000000000C001C0010001000C7
:100BE60008000400000000000000000000000000F3
:100BF60000000000000000000000000000000000EF
:100C06000000000000000000000400020001800057
:100C1600800040004000200020002000200020002E
:100C260020002000400040008000800000010002FB
:100C3600000400000000000002000400080010008C
:100C4600100020002000400040004000400040000E
:100C560040004000200020001000100008000400A2
:100C6600020000000000000000000000000000007C
:100C76004000C0004000460C4E0FD001F0015E0F50
:100C8600460C40004000400000000000000000004C
:100C9600000000000000000000000000000000004E
:100CA600000040004000400040004000FE0F4000B1
:100CB600400040004000400000000000000000002E
:100CC600000000000000000000000000000000001E
:100CD600000000000000000000000000000000000E
:100CE60000000000000000000C001C0010001000B6
:100CF60008000400000000000000000000000000E2
:100D0600000000000000000000000000FE070000D8
:100D160000000000000000000000000000000000CD
:100D260000000000000000000000000000000000BD
:100D360000000000000000000000000000000000AD
:100D460000000000000000001C001C001C00000049
:100D5600000000000000000000040006000200037E
:100D6600000100018000800040004000600020007B
:100D7600200010001000080008000C000400060007
:100D86000200000000000000000000000000F0006B
:100D960098010C030C03060606060606060606065A
:100DA6000606060606060C030C039801F000000072
:100DB60000000000000000000000000000004000ED
:100DC6007C00600060006000600060006000600001
:100DD600600060006000600060006000FC030000CE
:100DE6000000000000000000000000000000F80005
:100DF6008401020306030603000300018001C0000C
:100E0600600020001000080204020602FE03000033
:100E16000000000000000000000000000000780054
:100E2600C6008601860180018001C0007000800135
:100E3600000100030003060306038601F800000014
:100E4600000000000000000000000000000080011B
:100E56008001C001A001A0019001880188018401E0
:100E66008201FE0F8001800180018001E007000001
:100E76000000000000000000000000000000FC036D
:100E860004000400040004000400F4008C010403C0
:100E9600000300030603060382018401F800000034
:100EA6000000000000000000000000000000E0015B
:100EB60018030C030C0004000600E60116030E06D8
:100EC60006060606060604060C021803F0000000D5
:100ED6000000000000000000000000000000F8070D
:100EE6000C0604020401000100018000800040009D
:100EF600400040006000600060006000600000008C
:100F06000000000000000000000000000000F801E2
:100F16000C030606060606060C021C03F000C801B2
:100F26000C0306060606060606060C03F00100007C
:100F36000000000000000000000000000000F000BB
:100F46000C010C03060206060606060606078C06B4
:100F560078060006000300030C018C0178000000EF
:100F6600000000000000000000000000000000007B
:100F76000000000000000000E000E000E0000000CB
:100F86000000000000000000E000E000E0000000BB
:100F9600000000000000000000000000000000004B
:100FA600000000000000000060006000000000007B
:100FB600000000000000000000006000600040002B
:100FC60020002000000000000000000000040002D5
:100FD6000001800040002000100008000400080006
:100FE6001000200040008000000100020004000004
:100FF60000000000000000000000000000000000EB
:101006000000000000000000FE07000000000000D5
:10101600FE070000000000000000000000000000C5
:1010260000000000000000000000000004000800AE
:1010360010002000400080000001000200040002B1
:10104600000180004000200010000800040000009D
:101056000000000000000000000000000000E003A7
:101066001806040C040C0C0C0C0C00078001400044
:101076004000400000000000E000E000E00000004A
:10108600000000000000000000000000E00018035F
:101096000C02CC0564056605A605B604B604B604BE
:1010A600B604B602E4010C040C021803F0000000BA
:1010B60000000000000000000000000000006000CA
:1010C60060005000D0009000900088008801080160
:1010D600F801040304030402020202060F0F0000D3
:1010E6000000000000000000000000000000FE00FC
:1010F6008C030C030C030C030C038C01FC000C0387
:101106000C020C060C060C060C060C03FE01000075
:101116000000000000000000000000000000E003E6
:1011260018030C060C04040406000600060006005C
:101136000600060006040C040C021803F00000006A
:1011460000000000000000000000000000007F001A
:101156008C010C030C030C060C060C060C060C0684
:101166000C060C060C060C030C038C017F00000019
:101176000000000000000000000000000000FF0367
:10118600060306040604060086008600FE008600A6
:10119600860086000600060406040602FF03000019
:1011A6000000000000000000000000000000FF0337
:1011B600060306040604060086008600FE00860076
:1011C6008600860006000600060006001F000000D6
:1011D6000000000000000000000000000000F00019
:1011E60018010C020C0204020600060006000600A6
:1011F600C60F060306030C030C031803F0000000D9
:1012060000000000000000000000000000000F0FBA
:10121600060606060606060606060606FE0706066F
:101226000606060606060606060606060F0F000052
:101236000000000000000000000000000000FC03A9
:101246006000600060006000600060006000600098
:10125600600060006000600060006000FC03000049
:101266000000000000000000000000000000F80779
:10127600C000C000C000C000C000C000C000C00068
:10128600C000C000C000C000C000C000C000C60052
:1012960066003C0000000000000000000000CF03D4
:1012A6008601C60046002600160036002E006E0097
:1012B6004600C60086008601060106038F07000069
:1012C60000000000000000000000000000001F00F9
:1012D60006000600060006000600060006000600D8
:1012E600060006000600060406040602FF030000C8
:1012F60000000000000000000000000000000707DA
:10130600860386038E038E034E034E034A035A0357
:101316005A033A03320332033203120387070000EB
:1013260000000000000000000000000000008E0F1A
:101336000C021C021C0234023402640264024402DF
:10134600C402840284038403040304031F0200000E
:101356000000000000000000000000000000F00097
:1013660098010C030C020606060606060606060685
:101376000606060606060C020C039801F00000009D
:101386000000000000000000000000000000FF0058
:101396000603060606060606060606068603FE007B
:1013A6000600060006000600060006001F000000F4
:1013B6000000000000000000000000000000F00037
:1013C60098010C030C020606060606060606060625
:1013D6000606060676064C02CC039801F000800746
:1013E6000003000000000000000000000000FF01F4
:1013F600060306060606060606060603FE00460061
:10140600C600860086010603060306060F0E0000C8
:101416000000000000000000000000000000F802CC
:101426000C030602060206000E003C00F800E0036C
:10143600800300070206020606060C03F001000000
:101446000000000000000000000000000000FE0791
:10145600620461086108600060006000600060006E
:10146600600060006000600060006000F80100003D
:1014760000000000000000000000000000001E0741
:101486000C020C020C020C020C020C020C020C02E6
:101496000C020C020C020C020C021801F0000000F7
:1014A60000000000000000000000000000000F0720
:1014B6000602040104010C010C0188008800980052
:1014C60098005000500070003000200020000000FE
:1014D6000000000000000000000000000000F70E01
:1014E600620442044604460464026402E402E4021E
:1014F6009C029C01980198018801880088000000E0
:1015060000000000000000000000000000009E0730
:101516000C01080118019000B00060002000600076
:101526006000D00090008801080104038E070000C7
:1015360000000000000000000000000000000F0F87
:10154600060404020C0208011801B800B00070007D
:10155600600060006000600060006000F80100004C
:101566000000000000000000000000000000FC0772
:101576000C020603020180018000400040002000AA
:1015860020001000180008040C040402FE030000EA
:101596000000000000000000E00320002000200002
:1015A6002000200020002000200020002000200035
:1015B6002000200020002000200020002000200025
:1015C600E00300000000000000000000040004002A
:1015D6000800080010001000100020002000400045
:1015E6004000C000800080000001000100020002EF
:1015F60000020004000000007C00400040004000A3
:1016060040004000400040004000400040004000D4
:1016160040004000400040004000400040004000C4
:101626007C0000000000600090000801000000003F
:1016360000000000000000000000000000000000A4
:101646000000000000000000000000000000000094
:101656000000000000000000000000000000000084
:101666000000000000000000000000000000000074
:101676000000000000000000000000000000000064
:101686000000FF0F000000001800600000000000CE
:101696000000000000000000000000000000000044
:1016A6000000000000000000000000000000000034
:1016B6000000000000000000000000000000000024
:1016C6000000000000000000F0010C030C03000302
:1016D600E0031C030E03060306038E0B7C0E0000BC
:1016E60000000000000000000000000008000E00DE
:1016F6000C000C000C000C00CC013C031C060C0674
:101706000C060C060C060C060C021C03E401000079
:1017160000000000000000000000000000000000C3
:101726000000000000000000F0008C018C01860122
:1017360006000600060006020C020C01F00000007E
:101746000000000000000000000000000002C003CE
:10175600000300030003000378038C030C03060355
:10176600060306030603060304038C07780100003C
:101776000000000000000000000000000000000063
:101786000000000000000000E001180308020C063B
:101796000C06FC070C000C0018041802E0010000FF
:1017A6000000000000000000000000000000C00370
:1017B6006006300630003000FE0130003000300098
:1017C600300030003000300030003000FC010000F6
:1017D6000000000000000000000000000000000003
:1017E6000000000000000000F007D8068C018C0104
:1017F6008C019801F8000C00FC00CC0306030603DC
:101806008E03F800000000000000000008000E0033
:101816000C000C000C000C00EC011C030C030C0368
:101826000C030C030C030C030C030C039E070000B3
:101836000000000000000000000000000000600042
:1018460060000000000040007C0060006000600056
:10185600600060006000600060006000FC03000043
:101866000000000000000000000000000000C001B1
:10187600C001000000000001F0018001800180012C
:10188600800180018001800180018001800180014A
:10189600CC007C00000000000000000008000E00E4
:1018A6000C000C000C000C008C038C008C004C000F
:1018B6006C005C008C008C010C010C039E07000080
:1018C60000000000000000000000000040007C0056
:1018D6006000600060006000600060006000600002
:1018E600600060006000600060006000FC030000B3
:1018F60000000000000000000000000000000000E2
:1019060000000000000000003707EE0666066606C7
:10191600660666066606660666066606FF0F00002B
:1019260000000000000000000000000000000000B1
:101936000000000000000000EE011C030C030C0375
:101946000C030C030C030C030C030C039E07000092
:101956000000000000000000000000000000000081
:101966000000000000000000F00098010C030606CD
:1019760006060606060606060C030C03F000000023
:101986000000000000000000000000000000000051
:101996000000000000000000EE011C030C060C060F
:1019A6000C060C060C060C060C031C03EC010C00C2
:1019B6000C003E00000000000000000000000000D7
:1019C600000000000000000078028C030C030603F0
:1019D600060306030603060304038C0378030003C9
:1019E6000003C00700000000000000000000000027
:1019F60000000000000000009F035806380618008B
:101A0600180018001800180018001800FF00000041
:101A160000000000000000000000000000000000C0
:101A26000000000000000000F0031C030C020C0282
:101A36003800F000C003040304038C03FC0100001B
:101A46000000000000000000000000000000000090
:101A56002000200030003000FE0130003000300051
:101A6600300030003000300030023002E00100006B
:101A76000000000000000000000000000000000060
:101A860000000000000008028E030C030C030C0388
:101A96000C030C030C030C030C039C0778010000D9
:101AA6000000000000000000000000000000000030
:101AB60000000000000000001E070C0208010801DB
:101AC60018019000B000B000600060002000000027
:101AD6000000000000000000000000000000000000
:101AE6000000000000000000F70E620446046402D5
:101AF6006402EC029C01980198019801080000001C
:101B060000000000000000000000000000000000CF
:101B16000000000000000000BC0718011001B00022
:101B260060006000E0009000080108039E070000C6
:101B3600000000000000000000000000000000009F
:101B460000000000000000009E07080108010801CF
:101B560090009000B000600060006000200020004F
:101B660024001C000000000000000000000000002F
:101B76000000000000000000FC018401C4004400D5
:101B8600600020003000180208020C03FC0100006F
:101B960000000000000000000003800080008000BC
:101BA600800080008000800080004000200040000F
:101BB600800080008000800080008000800080001F
:101BC600000300004000400040004000400040008C
:101BD60040004000400040004000400040004000FF
:101BE60040004000400040004000400040004000EF
:101BF60040004000000000000C0010001000100023
:101C060010001000100010001000200040002000FE
:101C1600100010001000100010001000100010003E
:101C26000C00000000001C002204C2048003000017
:101C3600000000000000000000000000000000009E
:101C4600000000000000000000000000000000008E
:101C5600000000000000000000000000000000007E
:101C6600000000000000000000000000000000006E
:101C7600000000000000000000000000000000005E
:101C8600000000000000000000000000000000004E
:101C96000000000000000000000000000000C0017D
:101CA600C001C001C001C001C001C00180008000A8
:101CB600800080008000800080000000000000009E
:101CC60000008001C003C003800100000000000086
:101CD60000000000000000000000E01CE01CF01EF8
:101CE600700E380718030801840000000000000089
:101CF60000000000000000000000000000000000DE
:101D060000000000000000000000000000000000CD
:101D160000000000000000000000000000000000BD
:101D260020102010201020102010FE7FFE7F1008AB
:101D3600100810081008100810081008FE7FFE7F13
:101D46000804080408040804080400000000000051
:101D5600000000000000000000000000000100017B
:101D6600C007601910311831183918393801700157
:101D7600E001C0038007000F001D003900311C314F
:101D86001C310C310C11180DE00700010001000197
:101D9600000000000000000000000000000000003D
:101DA6001C1036186308630C630463046302630241
:101DB6006301361D9C378022806340634063206345
:101DC6002063306310221836081C00000000000053
:101DD60000000000000000000000000000000000FD
:101DE600F00098018C018C018C018C018C00CC00D8
:101DF6007800183E1C083608320863046304C304DE
:101E0600C303834306438E26781C000000000000AF
:101E1600000000000000000000001C003C003C0028
:101E26003000300010000C0006000000000000002A
:101E3600000000000000000000000000000000009C
:101E4600000000000000000000000000000000008C
:101E5600000000000000000000000040002000100C
:101E66000008000C000400060003000300038001C4
:101E760080018001800180018001800180010003D2
:101E86000003000300060006000C000800100020F6
:101E960000400000000000000000020004000800EE
:101EA6001000300020006000C000C000C0008001AB
:101EB6008001800180018001800180018001C000D5
:101EC600C000C00060006000300010000800040080
:101ED60002000000000000000000000000000000FA
:101EE6000000000000018003800300011C713C79A2
:101EF600783DC0070001C007783D3C791C710001A0
:101F06008003800380010000000000000000000044
:101F160000000000000000000000000000000000BB
:101F260000000000000000010001000100010001A6
:101F360000010001FC7F0001000100010001000119
:101F46000001000100000000000000000000000089
:101F5600000000000000000000000000000000007B
:101F6600000000000000000000000000000000006B
:101F7600000000000000000000000000000000005B
:101F8600000000001C003C003C0030003000100047
:101F96000C00060000000000000000000000000029
:101FA600000000000000000000000000000000002B
:101FB60000000000FE7F000000000000000000009E
:101FC600000000000000000000000000000000000B
:101FD60000000000000000000000000000000000FB
:101FE60000000000000000000000000000000000EB
:101FF60000000000000000000000000000000000DB
:10200600000018003C003C00180000000000000022
:1020160000000000000000000000004000600020FA
:102026000030001000180008000C00040006000232
:102036000003000180018000C00040006000200015
:1020460030001000180008000C0004000600020012
:10205600000000000000000000000000000000007A
:10206600C007600C30181830183018200C600C604F
:102076000C600C600C600C600C600C600C6018202E
:10208600183018303018600CC0070000000000003F
:10209600000000000000000000000000000000003A
:1020A60000018001F801800180018001800180012A
:1020B6008001800180018001800180018001800112
:1020C600800180018001C003F81F000000000000AD
:1020D60000000000000000000000000000000000FA
:1020E600E007101C0818043004300C300C300030A7
:1020F60000180008000400020001800040002020B3
:10210600102008200430FC1FFC1F00000000000007
:1021160000000000000000000000000000000000B9
:10212600E003180E0C0C0C180C180C180018000CF8
:102136000006C003000E00180010003000300C30FE
:102146000C300C100C18180CE00300000000000006
:102156000000000000000000000000000000000079
:10216600000C000E000E000F800E800E400E600E5A
:10217600200E100E100E080E040E040EFE7F000E2A
:10218600000E000E000E000E000EC07F00000000C4
:102196000000000000000000000000000000000039
:1021A600F03FF03F10001000100008000800C807BC
:1021B600280C1818081000300030003000300C30A1
:1021C6000C3004180418080CF0030000000000008E
:1021D60000000000000000000000000000000000F9
:1021E600800FC010203010301800180008000C00B6
:1021F6008C0F6C183C301C600C600C600C600C6022
:102206001860182030306018C00700000000000079
:1022160000000000000000000000000000000000B8
:10222600F83FF83F1C100C080408040400040002E0
:102236000002000100010001800080008000C00053
:10224600C000C000C000C000C000000000000000C8
:102256000000000000000000000000000000000078
:10226600E007300C18180C300C300C301C303818C5
:102276007008E007B007180E0C1C0638063006304A
:10228600063006300C18180CE003000000000000B1
:102296000000000000000000000000000000000038
:1022A600E00318040C080C18061006300630063039
:1022B600063006380C3C1836F0310030001800188D
:1022C60000180C0C0C060C03F001000000000000C6
:1022D60000000000000000000000000000000000F8
:1022E6000000000000000000000000000000800167
:1022F600C003C003800100000000000000000000D1
:1023060000008001C003C00380010000000000003F
:1023160000000000000000000000000000000000B7
:102326000000000000000000000000000000C000E7
:10233600C0000000000000000000000000000000D7
:10234600000000000000C000C000800080004000C7
:102356004000000000000000000000000000002017
:10236600001000080004000600038001C0006000A1
:10237600300018000C00180030006000C00080011A
:102386000003000600040008001000200000000002
:102396000000000000000000000000000000000037
:1023A6000000000000000000000000000000FE7FAA
:1023B60000000000000000000000FE7F000000009A
:1023C6000000000000000000000000000000000007
:1023D60000000000000000000000000000000400F3
:1023E6000800100020006000C00080010003000605
:1023F600000C001800300018000C000600038001D5
:10240600C00060002000100008000400000000006A
:102416000000000000000000000000000000C007EF
:102426003018083008600C601C601C601C600030AE
:10243600001C000600018000800080008000000073
:1024460000008001C003C0038001000000000000FE
:102456000000000000000000000000000000000076
:10246600C0076018103018200C2F8C4D864CC64CB7
:10247600C64C664C66446644662666266615CC1CC3
:102486000C40082018303018C0070000000000007B
:102496000000000000000000000000000000000135
:1024A600C001C001C00140016003200320032003D6
:1024B6003006100610061006F80F080C080C080C5B
:1024C6000C0C0418041806181F7C000000000000FD
:1024D60000000000000000000000000000000000F6
:1024E600FE07181C1838183018301830183018180D
:1024F600180CF8071818183018201860186018609B
:102506001860186018301818FE0F00000000000050
:1025160000000000000000000000000000000000B5
:10252600C0276038103018200C400C40040006000C
:1025360006000600060006000600060006000C401F
:102546000C400C2018303018C007000000000000B6
:102556000000000000000000000000000000000075
:10256600FE03180E18181830183018301860186046
:1025760018601860186018601860186018601830C5
:10258600183018101818180EFE030000000000007E
:102596000000000000000000000000000000000035
:1025A600FE3F183018201860184018001808180840
:1025B600180CF80F180C180818081800180018003E
:1025C6001840184018201830FE3F00000000000098
:1025D60000000000000000000000000000000000F5
:1025E600FE7F1870184018C01880180018101810B0
:1025F6001818F81F181818101810180018001800C6
:1026060018001800180018007E00000000000000E6
:1026160000000000000000000000000000000000B4
:10262600C013701C101018100C200C20040006009B
:10263600060006000600060006FC063006300C30D2
:102646000C30183018303008C007000000000000B9
:102656000000000000000000000000000000000074
:102666003F7E0C180C180C180C180C180C180C18AB
:102676000C180C18FC1F0C180C180C180C180C183D
:102686000C180C180C180C183F7E000000000000F7
:102696000000000000000000000000000000000034
:1026A600F81F800180018001800180018001800186
:1026B600800180018001800180018001800180010C
:1026C6008001800180018001F81F000000000000E9
:1026D60000000000000000000000000000000000F4
:1026E600E07F00060006000600060006000600065B
:1026F60000060006000600060006000600060006A4
:102706000006000600060006000600060E060E037A
:102716008E01FC0000000000000000000000000028
:102726007E7C181818081804180618021801980153
:102736009801D801B803380318071806180E180CA4
:10274600181C1818183018307EFC00000000000015
:102756000000000000000000000000000000000073
:102766007E0018001800180018001800180018003D
:102776001800180018001800180018001800180093
:102786001840184018201830FE3F000000000000D6
:102796000000000000000000000000000000000033
:1027A6001FF81C381C381C381C3C34343434343480
:1027B600343674326432643264326431C431C431C2
:1027C600C431C430C43084309FFC000000000000D7
:1027D60000000000000000000000000000000000F3
:1027E6001F7C1C103C103410341074106410E4105C
:1027F600C410C41184118413041304170416041E90
:10280600041C041C041C04181F180000000000000F
:1028160000000000000000000000000000000000B2
:10282600C003300C181808100C300C300660066017
:1028360006600660066006600660066006600C209C
:102846000C3008101818300CC003000000000000FF
:102856000000000000000000000000000000000072
:10286600FE0F181818301860186018601860186085
:1028760018301818F80F180018001800180018005B
:1028860018001800180018007E0000000000000064
:102896000000000000000000000000000000000032
:1028A600C003300C18180C100C300C2006600660A3
:1028B6000660066006600660066006600660E46103
:1028C6002C331C321816300EC007004C007C003822
:1028D60000000000000000000000000000000000F2
:1028E600FE07181C18381830183018301830181809
:1028F600180CF80798031803180718061806180E78
:10290600180C180C181C18187E780000000000001F
:1029160000000000000000000000000000000000B1
:10292600E027303818300C200C200C000C00180062
:102936007800E003800F001E00380070006004601D
:102946000460086018303818C80F00000000000046
:102956000000000000000000000000000000000071
:10296600FC3F8C218461824182418001800180018B
:102976008001800180018001800180018001800149
:102986008001800180018001E00700000000000056
:102996000000000000000000000000000000000031
:1029A6003F7C0C100C100C100C100C100C100C10A2
:1029B6000C100C100C100C100C100C100C100C1031
:1029C6000C100C1008083804E0030000000000009A
:1029D60000000000000000000000000000000000F1
:1029E6003EF8182018201820301030103010301003
:1029F600600860086008E00CC004C004C0048003DE
:102A06008003800380030001000100000000000035
:102A160000000000000000000000000000000000B0
:102A2600DFF38661862186218C210C218C238C1371
:102A36008C138C134C1358125816580E380E380E29
:102A4600380E300C100410041004000000000000C2
:102A56000000000000000000000000000000000070
:102A66007E3E180838083004300470026002E00127
:102A7600C001C001800180034003400720062006F4
:102A8600100C100C081808183E7C0000000000000E
:102A96000000000000000000000000000000000030
:102AA6007E7C1C10181018083008300C7004600466
:102AB6006002C002C002C001800180018001800165
:102AC6008001800180018001E00700000000000015
:102AD60000000000000000000000000000000000F0
:102AE600F83F18180818040C040E00060007000327
:102AF60080038001C001C000E0006000700030006B
:102B0600382018201C100C18FE1F000000000000C2
:102B160000000000000000000000C03F4000400030
:102B2600400040004000400040004000400040009F
:102B3600400040004000400040004000400040008F
:102B46004000400040004000400040004000C03FC0
:102B56000000000000000000000000000000080067
:102B660018001800100030002000600060004000CF
:102B7600C000800080018001000100030002000601
:102B860000060004000C00080018001800100030B1
:102B960000200000000000000000FC03000200020C
:102BA600000200020002000200020002000200020F
:102BB60000020002000200020002000200020002FF
:102BC6000002000200020002000200020002FC03F2
:102BD600000000000000000000008007C00620087A
:102BE60010100000000000000000000000000000BF
:102BF60000000000000000000000000000000000CF
:102C060000000000000000000000000000000000BE
:102C160000000000000000000000000000000000AE
:102C2600000000000000000000000000000000009E
:102C3600000000000000000000000000000000008E
:102C4600000000000000000000000000000000007E
:102C56000000FFFF0000000000007800C000000137
:102C6600000000000000000000000000000000005E
:102C7600000000000000000000000000000000004E
:102C8600000000000000000000000000000000003E
:102C9600000000000000000000000000000000002E
:102CA6000000000000000000000000000000F0032B
:102CB60018060C0C0C0C000C800F700C1C0C0C0C69
:102CC600060C060C064C0C4FF838000000000000FD
:102CD60000000000000000000000000000001000DE
:102CE6001E00180018001800180018001800180F09
:102CF600D818383038601860186018601860186086
:102D06001860182038307818C80700000000000046
:102D160000000000000000000000000000000000AD
:102D26000000000000000000000000000000C007D6
:102D3600700C181818180C180C000C000C000C005D
:102D46000C20182018103008C007000000000000F2
:102D5600000000000000000000000000000000105D
:102D6600001E001800180018001800180018E01BB4
:102D7600301C181818180C180C180C180C180C18ED
:102D86000C180818181C307AE00900000000000032
:102D9600000000000000000000000000000000002D
:102DA6000000000000000000000000000000C00756
:102DB600300C181808100C300C30FC3F0C000C00BE
:102DC6000C00182018107018C00700000000000042
:102DD60000000000000000000000000000000000ED
:102DE600003E80C380C0C0C0C000C000C000FC1F41
:102DF600C000C000C000C000C000C000C000C000CD
:102E0600C000C000C000C000F80F000000000000B5
:102E160000000000000000000000000000000000AC
:102E26000000000000000000000000000000C07765
:102E3600306C10181818181818181018300CF007DD
:102E460018001800F00FF03F08700C600C600C6062
:102E56003838E00F000000000000000000001000FD
:102E66001E00180018001800180018001800980F07
:102E7600D818383018301830183018301830183044
:102E860018301830183018307EFC000000000000A2
:102E9600000000000000000000000000000000002C
:102EA6008003800380030000000000000001F80199
:102EB6008001800180018001800180018001800104
:102EC6008001800180018001F81F000000000000E1
:102ED60000000000000000000000000000000000EC
:102EE6000038003800380000000000000010801F85
:102EF600001800180018001800180018001800180C
:102F06000018001800180018001800180018180CEF
:102F16001806F0030000000000000000000010008A
:102F26001E00180018001800180018001800183E97
:102F3600180C1806180318019801D8013803180749
:102F46001806180C181C18187E7C000000000000DB
:102F5600000000000000000000000000000000016A
:102F6600F8018001800180018001800180018001DB
:102F76008001800180018001800180018001800143
:102F86008001800180018001F81F00000000000020
:102F9600000000000000000000000000000000002B
:102FA6000000000000000000000000000800EE1C09
:102FB6009C338C318C318C318C318C318C318C3111
:102FC6008C318C318C318C31DE7B000000000000AE
:102FD60000000000000000000000000000000000EB
:102FE60000000000000000000000000010001E0F9E
:102FF600D8183830183018301830183018301830C3
:1030060018301830183018307EFC00000000000020
:1030160000000000000000000000000000000000AA
:103026000000000000000000000000000000C007D3
:10303600701C103018300C600C600C600C600C605A
:103046000C60183018303018C0070000000000006F
:10305600000000000000000000000000000000006A
:1030660000000000000000000000000010009E0F9D
:1030760058183830182018601860186018601860E2
:10308600186018303830781898071800180018009B
:1030960018007E0000000000000000000000000094
:1030A6000000000000000000000000000000C02337
:1030B600303C183818300C300C300C300C300C30DA
:1030C6000C3008301838303CE03300300030003027
:1030D600003000FC000000000000000000000000BE
:1030E60000000000000000000000000060007E3CC0
:1030F60060666061E000E000600060006000600003
:103106006000600060006000FE0700000000000034
:1031160000000000000000000000000000000000A9
:103126000000000000000000000000000000E02792
:1031360030381830182018007000E003800F001C8B
:10314600043004300C301C18EC0F000000000000A6
:103156000000000000000000000000000000000069
:1031660000000000800080008000C000E000FC1F1E
:10317600C000C000C000C000C000C000C000C00049
:10318600C000C020C0208011000F00000000000019
:103196000000000000000000000000000000000029
:1031A60000000000000000000000000010201E3C8F
:1031B60018301830183018301830183018301830C9
:1031C60018301830183830F4E01300000000000002
:1031D60000000000000000000000000000000000E9
:1031E60000000000000000000000000000007E3C1F
:1031F600181818083808300430047002600260029B
:10320600E001C001C001C000800000000000000015
:1032160000000000000000000000000000000000A8
:103226000000000000000000000000000000DFF7C2
:103236008E630C238C238C239813981358165816D8
:10324600700E700E700E20042004000000000000B6
:103256000000000000000000000000000000000068
:103266000000000000000000000000000000FC3E1E
:1032760070087004E004C002C001800380034007A8
:103286006006200C100C18183E7E0000000000009E
:103296000000000000000000000000000000000028
:1032A60000000000000000000000000000007E7C1E
:1032B6001818180830083008300460046004C0028A
:1032C600C002C00280018001800180008000800071
:1032D6004C003C0000000000000000000000000060
:1032E6000000000000000000000000000000FC1FBD
:1032F6000C0C040E0406000380038001C000E000ED
:103306007020302038301C18FC1F00000000000020
:10331600000000000000000000000030000800046B
:103326000004000400040004000400040004000477
:1033360000040002800100020004000400040004EE
:103346000004000400040004000400040004000853
:103356000030000000010001000100010001000131
:10336600000100010001000100010001000100014F
:10337600000100010001000100010001000100013F
:10338600000100010001000100010001000100012F
:10339600000100010000000000000C0010002000E9
:1033A6002000200020002000200020002000200017
:1033B6002000400080014000200020002000200066
:1033C6002000200020002000200020002000100007
:1033D6000C00000000003800C40086400261002294
:1033E600001C0000000000000000000000000000BB
:1033F60000000000000000000000000000000000C7
:1034060000000000000000000000000000000000B6
:0434160000000000B2
:0553AD0042033800007E
:0B5EAF008FCFE5CD30E7FB75CDC022A2
:095EBA00007F207E28DEFEDFFCE3
:015EC30022BC
:105E3600AD07AC06ED1DAE0470011C4E6005125E8A
:045E4600BA80F1220B
:085E8300125EC4E4FF125E8B05
:0A5E8B00C292D290125EAFD29222B2
:0A5EC400C292C290125EAFD2922289
:10459500C2837F0A7E00125E36D2837F787E001248
:1045A5005E367FCF125EC4E4FF125E8B7FC1125E62
:1045B5008B7F30125E8B7FED125EC47F64125E8B43
:1045C5007F03125E8B7F12125E8B7F81125E8B7F63
:1045D500E8125EC47F85125E8B7F10125E8B7F7A38
:1045E500125E8B7FCB125EC47F39125E8B7F2C12DD
:1045F5005E8BE4FF125E8B7F34125E8B7F02125E50
:104605008B7FF7125EC47F20125E8B7FEA125E837A
:104615007FC0125EC47F1B125E8B7FC1125EC47F9A
:1046250001125E8B7FC5125EC47F30125E8B125EF7
:104635008B7FC7125EC47FB7125E8B7F36125EC456
:104645007FAC125E8B7F3A125EC47F55125E8B7F04
:10465500B1125EC4E4FF125E8B7F1A125E8B7FB6C9
:10466500125EC47F0A125E8B7FA2125E8B7FF212EE
:104675005EC4E4FF125E8B7F26125EC47F01125E6C
:104685008B7FE0125EC47F0F125E8B7F2A125E8BDA
:104695007F28125E8B7F08125E8B7F0E125E8B7FEA
:1046A50008125E8B7F54125E8B7FA9125E8B7F434F
:1046B500125E8B7F0A125E8B7F0F125E8B125E86F7
:1046C500125E8B125E8B7FE1125EC4E4FF125E8B7D
:1046D5007F15125E8B7F17125E8B7F07125E8B7FB5
:1046E50011125E8B7F06125E8B7F2B125E8B7F56BF
:1046F500125E8B7F3C125E8B7F05125E8B7F1012E4
:104705005E8B1F125E8B7F3F125E8B125E8B7F0F5F
:10471500125E8B7F2B125E830F125E8B7F3F125EC4
:104725008B7F2A125E83125E8B7FEF125E8B7F1169
:0F473500125EC47F787E00125E367F29025EC45A
:105BD80090028AEEF0A3EFF07F2A125EC490028A48
:105BE800E0FF125E8BA3E0FF125E8BEAFF125E8B72
:105BF800AF03125E8B7F2B125EC4ECFF125E8BAF7D
:105C080005125E8B900290E0FF125E8BA3E0FF020C
:025C18005E8BA1
:10000E00AD07AC06C292D290ECFF125EAFAF0512F6
:05001E005EAFD292224A
:085A3100900331EEF0A3EFF049
:105A39009002907401F0A3743FF07BEF7A00E4FDCB
:105A4900FCFFFE125BD87F2C125EC4E4900333F096
:105A5900A3F0E4FBFA900331E0FEA3E0FF12000E8D
:105A69000BBB00010AEB64F04A70EA900334E004CE
:105A7900F07006900333E004F0C3900334E09440DF
:085A8900900333E0940140CAD0
:015A910022F2
:035EEF00025EC48C
:105DF500C007900288E0FFA3E0900290CFF0A3EFE8
:065E0500F0D007025BD89B
:105E0B009002FBE0FBA3E0FAA3E0F98F828E8312F2
:035E1B0039FAFF52
:035E1E00025E8B96
:035EF20002000E9D
:105457009001B9EEF0A3EFF0A3ECF0A3EDF0A3EA0F
:04546700F0A3EBF0D3
:10546B00C006C00724FFFBEA34FFFAA3E0FEA3E06B
:10547B0024FFFFEE34FF900288F0A3EFF0D007D0AB
:10548B0006125DF59001BBE0FFA3E09001C3CFF0E6
:10549B00A3EFF09001BFE0FEA3E0FFC39001C4E0D7
:1054AB009F9001C3E09E50399001B9E0FEA3E0FB51
:1054BB00AA06D39001BEE09B9001BDE09A401290EA
:1054CB0001C1E0FEA3E0FF125EF20BBB00010A80FC
:1054DB00E19001C4E004F070BA9001C3E004F080E5
:0154EB00B20E
:0154EC00229D
:105A920090031DFEE0FCA3E0FDC3900319E09DFD11
:0E5AA200900318E09CFC90031BE0FAA3E0FBCD
:105AB00090027CEEF0A3EFF0900280EAF0A3EBF00E
:105AC00090027EECF0A3EDF090027CE0FAA3E0FB04
:105AD000FFAE02C007A3E0FFA3E0900288CFF0A3CF
:105AE000EFF0D007125DF5900280E0FEA3E0FF0228
:025AF0005EF264
:0E43A7009002C2EEF0A3EFF0A3ECF0A3EDF055
:1043B500E49002CEF0A3F0A3F0A3F09002C2E0FED9
:1043C500A3E0FFC3EB9FFFEA9E9002D2F0A3EFF0BC
:1043D5009002C4E0FAA3E0FBC39002C9E09BFE9003
:1043E50002C8E09A9002D4F0A3CEF09002C2E0FF9A
:1043F500A3E09002DCCFF0A3EFF0A3EAF0A3EBF08B
:104405009002D2E0FEA3E0FFD39400EE6480948096
:10441500400A9002D8E4F0A304F08021EF4E700822
:104425009002D8F0A3F0801574FF9002D8F0A3F0A5
:10443500C3E49FFFE49E9002D2F0A3EFF09002D474
:10444500E0FEA3E0FFD39400EE64809480400A90E0
:1044550002DAE4F0A304F08021EF4E70089002DA4E
:10446500F0A3F0801574FF9002DAF0A3F0C3E49F87
:10447500FFE49E9002D4F0A3EFF09002D4E0FEA3F7
:10448500E0FF9002D2E0FCA3E0FDD39FEE6480F84C
:10449500EC6480989002D64007ECF0A3EDF080051F
:1044A500EEF0A3EFF0E49002CCF0A3F09002D7E099
:1044B5002401FF9002D6E03400FEC39002CDE09FB8
:1044C5009002CCE09E40030245949002DCE0FEA3FE
:1044D500E0FFA3E0FCA3E0FD9002CA125AAB9002F4
:1044E500D2E0FEA3E0FF9002CFE02FF09002CEE0F5
:1044F5003EF09002D4E0FEA3E0FF9002D1E02FF061
:104505009002D0E03EF09002D6E0FEA3E0FF9002DC
:10451500CEE0FCA3E0FDD39FEE6480F8EC648098C8
:104525004020ED9FFFEC9E9002CEF0A3EFF09002AD
:10453500D8E0FEA3E0FF9002DDE02FF09002DCE082
:104545003EF09002D6E0FEA3E0FF9002D0E0FCA38F
:10455500E0FDD39FEE6480F8EC6480984020ED9FE9
:10456500FFEC9E9002D0F0A3EFF09002DAE0FEA3FC
:10457500E0FF9002DFE02FF09002DEE03EF09002D7
:0F458500CDE004F070069002CCE004F00244B1E7
:014594002204
:104E1F00900325EAF0A3EBF0900321EEF0A3EFF05F
:104E2F00A3ECF0A3EDF0C007A3E0FAA3E0FB90031F
:104E3F0023E0FFA3E09002C8CFF0A3EFF090032987
:104E4F00E0FFA3E09002CACFF0A3EFF0D007124328
:104E5F00A7900321E0FAA3E0FBFFAE02C007A3E097
:104E6F00FCA3E0FD900327E0FFA3E09002C8CFF082
:104E7F00A3EFF0900329E0FFA3E09002CACFF0A3C5
:104E8F00EFF0D0071243A7900327E0FCA3E0FD90BB
:104E9F000325E0FAA3E0FBA3E0FFA3E09002C8CF55
:104EAF00F0A3EFF0900329E0FFA3E09002CACFF048
:104EBF00A3EFF0900321E0FEA3E0FF1243A79003BE
:104ECF0025E0FAA3E0FBFFAE02C007900323E0FC4E
:104EDF00A3E0FD900327E0FFA3E09002C8CFF0A36B
:104EEF00EFF0900329E0FFA3E09002CACFF0A3EF09
:064EFF00F0D0070243A7FA
:1048E300900316EEF0A3EFF0A3ECF0A3EDF0A90311
:1048F300E490031DF0A3F0E9FFA3E4F0A3EFF0902D
:10490300031FE0FEA3E0FFD390031EE09FEE64804D
:10491300F890031DE06480984003024A7EC390032D
:1049230017E09FFF900316E09E125A9290031FE038
:10493300FEA3E0FF900317E02FFF900316E03E1263
:104943005A9290031DE0FEA3E0FFC3900317E09F7C
:10495300FF900316E09EFE90031FE0FCA3E0FD9092
:104963000319E02DFD900318E03C125AA790031D94
:10497300E0FEA3E0FFC3900317E09FFF900316E060
:104983009E90031F125A9590031FE0FEA3E0FF9031
:104993000317E02FFF900316E03EFE90031DE0FC9B
:1049A300A3E0FD900319E02DFD900318E03C125A9B
:1049B300A790031DE0FEA3E0FF900317E02FFF90F5
:1049C3000316E03EFE90031F125A9690031DE0FE6D
:1049D300A3E0FF900317E02FFF900316E03EFE9045
:1049E300031FE0FCA3E0FD900319E02DFD900318E5
:1049F300E03C125AA790031FE0FEA3E0FFC390031D
:104A030017E09FFF900316E09EFE90031DE0FCA3BA
:104A1300E0FD900319E02DFD900318E03C125AA726
:104A230090031EE004F0700690031DE004F0900371
:104A33001FE0FCA3E0FDFFAE04123A39AA06AB0760
:104A430090031DE0FCA3E0FDFFAE04123A39EF2B07
:104A5300FDEE3AFCE9F5F0A4FFD3ED9FE5F06480A9
:104A6300F8EC6480985003024902900320E024FF8D
:0B4A7300F090031FE034FFF002490246
:014A7E002215
:10415F0090026AECF0A3EDF0A3EBF0900268EEF0A2
:03416F00A3EFF0CB
:10417200E4900275F090027AEEF0A3EFF0900271F3
:10418200E0F9C313900274F0E0FF131313541FFD00
:104192007C00EF54077E0060047F0180027F00EF05
:1041A2002DFFEE3CFEE9FD7C00123A39900278EEDA
:1041B200F0A3EFF090026CE024E0F090026AE0FCE1
:1041C200A3E0FD900274E0FF7E00900268E0FAA393
:1041D200E02FFFEE3ACF24FFFBEF34FFFAE9FFA313
:1041E200E0F8A3E02FFFEE38CF24FFCF34FF900298
:1041F20090F0A3EFF0900268E0FEA3E0FF125BD81C
:104202007F2C125EC4E4900276F0A3F0900278E074
:10421200FEA3E0FF900276E0FCA3E0FDC39FEC9ECC
:1042220040030243A6900271E0F9B40C1C90026CA8
:10423200E075F00CA42426F582E5F03400F583E560
:10424200822DF582E5833C807AE9B41024900276CF
:10425200E0FEA3E0FF90026CE075F010A4249AF552
:1042620082E5F03404F583E5822FF582E5833E8012
:1042720052E9B41824900276E0FEA3E0FF90026CAB
:10428200E075F030A4248AF582E5F0340AF583E57E
:10429200822FF582E5833E802AE96420600302438F
:1042A200A6900276E0FEA3E0FF90026CE075F0407B
:1042B200A4245AF582E5F0341CF583E5822FF582B9
:1042C200E5833EF583E493900273F0E4F990027281
:1042D200E07041047E00A801088005C333CE33CECE
:1042E200D8F9FF900273E0FDEF5D600590026D80EA
:1042F2000390026FE0FEA3E0FF125EF2900275E00F
:1043020004F0900274E0FFA3E08FF084E5F0707A8D
:10431200F002439574017E00A801088005C333CEE4
:1043220033CED8F9FF900273E0FDEF5D6014900286
:1043320068E0FEA3E0FFA3E0FCA3E0FD90026D12A3
:104342005AAB900269E004F07006900268E004F053
:1043520090027AE0FEA3E0FFC3900269E09FFD9025
:104362000268E09EFC900274E07A00B5051CEAB592
:104372000418900268EEF0A3EFF090026BE004F0F4
:10438200701190026AE004F0800909E96408600390
:104392000242CF900277E004F07006900276E004C9
:0443A200F002420ED5
:0143A60022F4
:10571C0090025BEEF0A3EFF0A3ECF0A3EDF0A3EBA3
:10572C00F0A3EAF0A3E9F090025FE0FBA3E0FAA398
:10573C00E0F91239E1FB606190025DE0FCA3E0FD51
:10574C00900262E0FFA3E090026DCFF0A3EFF09027
:10575C000264E0FFA3E090026FCFF0A3EFF09002A1
:10576C0066E0900271F0900267E0900272F0900295
:10577C005BE0FEA3E0FF12415F900266E0C313FF03
:10578C0090025CE02FF090025BE03400F09002603D
:0A579C00E475F001123A81808E22BC
:075AF200C3EF9E14FD7F0AC3
:085AF90090032BEFF0A3EDF088
:105B0100A3123BE40000000190032CE0FF14F0EF2E
:105B11006020A3E0F8A3E0F9A3E0FAA3E0FB90037F
:105B21002BE0FFE4FCFDFE123AAD90032D123BD8B1
:105B310080D690032DE0FCA3E0FDA3E0FEA3E0FFEF
:015B41002241
:104BC900900306EEF0A3EFF0A3ECF0A3EDF0A3EA57
:044BD900F0A3EBF06A
:104BDD00E4900314F0900311E0C313900315F0E477
:104BED00900312F090030CE0FF900312E0FEC39FC0
:104BFD004003024CF4125AF2A804A905AA06AB0709
:104C0D0090030AE0FEA3E0FFE4FCFD123B38E47BD9
:104C1D000AFAF9F8123B38900313EBF0A3E0706534
:104C2D0090030CE014FF900312E0FEC39F5056A3B7
:104C3D00E0704C900315E0FFEE8FF0A4FF9003079A
:104C4D00E02FFF900306E035F0FE900308E0FCA393
:104C5D00E0FD90030DE0FBA3E090026DCBF0A3EB24
:104C6D00F090030FE0FBA3E090026FCBF0A3EBF00D
:104C7D00900311E0900271F0E4A3F07B20805C9032
:104C8D0003147401F0900315E0FF900312E08FF010
:104C9D00A4FF900307E02FFF900306E035F0FEC060
:104CAD0007900308E0FCA3E0FD900313E02430FB24
:104CBD0090030DE0FFA3E090026DCFF0A3EFF09015
:104CCD00030FE0FFA3E090026FCFF0A3EFF090038E
:104CDD0011E0900271F0E4A3F0D00712415F900350
:074CED0012E004F0024BF19C
:014CF400229D
:0E4A7F009002E0EEF0A3EFF0A3ECF0A3EDF058
:104A8D009002EDE0C3139002F0F0E4FFFE7DC87CD0
:104A9D00429002E4E0F8A3E0F9A3E0FAA3E0FB12F0
:104AAD00341A1235209002F1EEF0A3EFF0E49002EB
:104ABD00EEF09002E8E0FF9002EEE0FEC39F4003AF
:104ACD00024BC8125AF2A804A905AA06AB07900218
:104ADD00F1E0FEA3E0FFE4FCFD123B38E47B0AFAB3
:104AED00F9F8123B389002EFEBF09002E8E0FF246A
:104AFD00FEFE9002EEE06E7060EF24FEFFE434FFE8
:104B0D00FE9002F0E0FD7C00123A399002E1E02FB8
:104B1D00FF9002E0E03EFE9002E2E0FCA3E0FD909B
:104B2D0002E9E0FBA3E090026DCBF0A3EBF0900265
:104B3D00EBE0FBA3E090026FCBF0A3EBF09002ED66
:104B4D00E0900271F0E4A3F07B2E12415F9002EE33
:104B5D00E004F09002E8E004F09002F0E0FF900233
:104B6D00EEE08FF0A4FF9002E1E02FFF9002E0E075
:104B7D0035F0FEC0079002E2E0FCA3E0FD9002EFED
:104B8D00E02430FB9002E9E0FFA3E090026DCFF04E
:104B9D00A3EFF09002EBE0FFA3E090026FCFF0A344
:104BAD00EFF09002EDE0900271F0E4A3F0D0071267
:0B4BBD00415F9002EEE004F0024ABFEE
:014BC80022CA
:104CF5009002F3EEF0A3EFF0A3ECF0A3EDF0A3EA3E
:044D0500F0A3EBF03C
:104D0900900302123BE4000000009002F5E0FCA3CE
:104D1900E0FDA3E0FEA3E0FF9002F3E0FAA3E02F99
:104D2900FFEA3ECF24FFFBEF34FFFA9002F9E0FEE1
:104D3900A3E0FF9002F5E0F8A3E02FFFE83ECF24BF
:104D4900FFCF34FF900288F0A3EFF09002F3E0FE6A
:104D5900A3E0FF125DF57F2C125EC4E49002FEF021
:104D6900A3F09002F7E0FEA3E0FFC39002FFE09FEB
:104D79009002FEE09E4003024E1EE4900300F0A361
:104D8900F09002F9E0FEA3E0FFC3900301E09F90D9
:104D99000300E09E506BE47F02FEFDFC900302E0FD
:104DA900F8A3E0F9A3E0FAA3E0FB123AAD125E0B17
:104DB900E47F02FEFDFC900302E0F8A3E0F9A3E022
:104DC900FAA3E0FB123AADEF2401FFE43EFE125EC6
:104DD9000B900302E0FCA3E0FDA3E0FEA3E02401A5
:104DE900FFE43EFEE43DFDE43CFC900302123BD8A7
:104DF900900301E004F07006900300E004F0024D16
:104E09008A9002FFE004F06003024D6B9002FEE01D
:054E190004F0024D6BE6
:014E1E002271
:10341A00EC4D6011E8497017ED33EC3304600DE4AC
:10342A00FCFFFEFD22E933E8330470F802358C1202
:10343A00355758046009E4CC248150062850090203
:10344A003596284003023593C0E0EB4A7044B980B0
:10345A0006D0E0FB023582EF4E701CBD8008EBFF00
:10346A00EAFEE9FD80EBE98DF0A4FEE5F002350302
:10347A00E9CDF9EAFEEBFFEF89F0A4FCE5F0CE898D
:10348A00F0A42EFFE435F0CD89F0A42DFEE435F04A
:10349A008067EF4E7005BD80D780C3EF8BF0A4AC78
:1034AA00F0EE8BF0A42CFCE435F0F8EF8AF0A42CB3
:1034BA00E5F038FCE433CB8DF0A42CFCE5F03BF8C6
:1034CA00EE8AF0A42CFCE5F038F8E433CF89F0A4B6
:1034DA002CFCE5F038CF3400CE89F0A42FFFE5F0BC
:1034EA003EFEE433C98DF0A42EFEE5F039CD8AF014
:1034FA00A42FFFE5F03EFEE43DFD33D0E0FB50078C
:10350A000BBB000F023596EC2CFCEF33FFEE33FEBB
:06351A00ED33FD02356EE9
:10352000EDD2E7CD33EC3392D524814006E4FFFEA3
:10353000FDFC22FCE4CFCECDCC24E0501174FF8002
:10354000EDC3CC13CCCD13CDCE13CECF13CF04709F
:07355000F030D5DE023BCA9A
:103CDC00E50D2495F582E43402F583E0050D229080
:103CEC000292301003900295E475F001123C15021B
:103CFC0039E12009E97F2ED2098018EF540F249066
:103D0C00D43440D4FF300D0BEF24BFB41A00500351
:103D1C002461FFE50E6002150E0511E51170020518
:103D2C001030100E900292E475F001123C15EF0267
:103D3C003A27025ED77403D2108003E4C210F50D4B
:103D4C00900292123C2CE4F50EF510F511E50E6084
:103D5C00077F20123D1F80F5750FFFC20AC209C2F2
:103D6C000BC20CC20EC20FC211123CEBFF700D3015
:103D7C0010057F00123D30AF11AE1022B4255FC28A
:103D8C00D5C20D123CEBFF24D0B40A00501A75F0CA
:103D9C000A780E30D50508B6FF0106C6A426F62013
:103DAC00D5047002D20C80D924CFB41A00EF500481
:103DBC00C2E5D20D024022D20A80C6D20980C0D2FE
:103DCC000B80BCD2D580BAD20E80B47F20123D1F9E
:103DDC00200B077401B50E0040F1123CDCFF123DC4
:103DEC001F023D59D211D20F8095123CDCFB123CC4
:103DFC00DCFA123CDCF94A4B700679207A417BFFE5
:103E0C00200B2EE50E602A7E008E827583001239FF
:103E1C00FA60060EEE650F70F0C2D5EBC0E0EAC09A
:103E2C00E0E9C0E0EE124083D0E0F9D0E0FAD0E057
:103E3C00FB1239E1FF60AAEBC0E0EAC0E0E9C0E0A8
:103E4C00123D1FD0E02401F9D0E03400FAD0E0FBA1
:103E5C00E50F0460DCD50FD98087D20B80A212400D
:103E6C006560F7E50F7001041235A1A90F600DE52F
:103E7C000F600914F50F12410DEF60F3EA30E70201
:103E8C00F404C3995079EAF4250F0430E701E404F3
:103E9C00F50F800D12406560C1EA050F250F123534
:103EAC00A1EA9002C1F030E701E4250F04D50F041C
:103EBC00200E0114124083E4C0E012410D9002C1A7
:103ECC00E0601320E70714F0123D07802204F0D0C5
:103EDC00E014C0E07F00123D07E50F6007123CFEC6
:103EEC00150F800B300E03123CFED0E0023D59D072
:103EFC00E00480C4124065609EE50F041235A19069
:103F0C0002C1EAF0E50F200E026001042404124005
:013F1C008321
:103F1D0074FF04C0E012410D123D07E50F200E02A3
:103F2D006003123CFED0E0B50FE87F45123D1190C5
:103F3D0002C1E07F2B30E7047F2DF404C0E0123D79
:103F4D001FD0E075F00A84C0F0123D08D0E0123D9C
:103F5D0008023D59791080027908C20FC2118008FC
:103F6D00D2D5790A8004790AC2D5E50F047002F51D
:103F7D000FE4FAFDFEFF123CDCFC7B08200A131255
:103F8D003CDCFD7B1030090A123CDCFE123CDCFFF0
:103F9D007B20EC3382D592D55013C3E43009069FB4
:103FAD00FFE49EFEE4200A039DFDE49CFCE4CBF8B7
:103FBD00C20AEC700CCFCECDCCE824F8F870F380AB
:103FCD0017C3EF33FFEE33FEED33FDEC33FCEB3374
:103FDD00FB994002FB0FD8E9EB300A05F8D0E0C49D
:103FED0048B20AC0E00AEC4D4E4F78207B0070C2FB
:103FFD00EAB50F0040BCC0E0124085D0F0D0E02003
:10400D000A04C4C0E0C4B20AC0F0123D08D0F0D515
:10401D00F0EB023D59123C353DF6533F61583DC71B
:10402D004C3DC3423F654F3F6D443F6D493DDC43C1
:10403D003F73553EA0463F00453E6A474140503DC7
:10404D00CB2D3DCF2E3DF22B3DD3233DF0204129ED
:10405D002A3D8B4800003DEAE50FB4FF03750F06BE
:10406D00123CDCFC123CDCFD123CDCFE123CDCFFA5
:10407D009002BA0235DE790AA2D5200C14300E0951
:10408D00B910020404B9080104A2D5200F02500191
:10409D0004200B68920BB50E005034C0E07F203029
:1040AD000C197F30A20B720F720E500F1240DCC232
:1040BD000BC20FC20EC2117F30800F300E03E9C04C
:1040CD00E0123D1F300E03D0E0F9D0E0B50ECC303C
:1040DD000E177F30B9100C123D1F7F58300D077F22
:1040ED00788003B90803123D1F300B057F2D023D6B
:1040FD001F7F202011F87F2B200FF322920B80CFF2
:10410D007F00B40700500B24BAF582E43402F58326
:10411D00E0FF22286E756C6C2900D20A123CDC304F
:10412D000AF8C20A780E30D50108F6023D8B2D50E3
:10413D00434958123CDC2403B405004001E490418E
:10414D003B93123D10743A123D10D20C750E0402C1
:02415D003F61C0
:10355700E9D2E7C933E833F892D5EDD2E7CD33ECBA
:0735670033FC5002B2D52233
:10356E00EC30E7100FBF000C0EBE00080DBD0004BE
:10357E000BEB6014A2D5EB13FCED92E7FD2274FF6A
:10358E00FCFDFEFF22E480F8A2D574FF13FC7D80C3
:03359E00E480EFD7
:1035A100F920E73624F950037907E4F42402FBE516
:1035B10082158270021583DBF6E024FB501BE96063
:1035C10014E4F0E582158270021583E004F0B40A78
:0D35D10008E4F0D9EE7401F00A22C2D52200
:1035DE00ED33EC3392D5FA602AB4FF33EDC2E77BBC
:1035EE00FF60067A367903E4227A36790C20D50408
:1035FE007A367907224E614E002B494E46002D49F0
:10360E004E4600E47A08F0A3DAFC7B00740722C071
:10361E0083C082ECC0E0EDC0E0EEC0E0EFC0E0EAB7
:10362E0075F010A4CAABF075F04DA42BFBE435F089
:10363E00FCEA2410FAEB34C5FBEC34D9FCEDC2E7FE
:10364E00FF75F056A4F42411C5F0F434C58FF0A420
:10365E002AE5F03BE43CF020E7141238ABD0E0FF53
:10366E00D0E0FED0E0FDD0E0FC1237DE8014F40492
:10367E001238ABD0E0FFD0E0FED0E0FDD0E0FC127F
:10368E00341AD082D083E0FAEDD2E7CD33EC332476
:10369E0082FBE4C3CF33CFCE33CECD33CD33DBF38A
:1036AE007B0775F00A846004F0A31B0AE5F0F0A313
:1036BE008FF0740AA4FFACF08EF0740AA42CFEAC4A
:1036CE00F050010C8DF0740AA42CFDE435F0F0A33B
:0536DE00DBDE74072291
:1036E30002358CE86480F8E933E83360110460F054
:1036F300ED33EC337009E8FCE9FDEAFEEBFF22044D
:1037030060DED3EB9FEA9EE99DE8C2E78CF0C2F747
:1037130095F0400CE8CCF8E9CDF9EACEFAEBCFFB13
:1037230012355785D0F05804700320D5B3E80470E0
:10373300075002B2D502359692D5EC0460F7E4CC7B
:10374300C0E0C398F8603B94186008400DD0E0FBDC
:1037530002356EE4FBFAC9FC8028E830E406E4C9CC
:10376300FBE4CAFCE830E305E4C9CACBFCE8540730
:103773006010F8C3E913F9EA13FAEB13FBEC13FC3B
:10378300D8F130F52FC3E49CFCEF9BFFEE9AFEEDDE
:1037930099FDD0E0FBEF4E4D4C701222DB03023556
:1037A30093EC2CFCEF33FFEE33FEED33FDED30E70E
:1037B300EB02356EEF2BFFEE3AFEED39FDD0E0FB69
:1037C30050130BBB0003023596ED13FDEE13FEEF12
:0837D30013FFEC13FC02356E3C
:1037DB00023596EC5D046005E85904700302358CE4
:1037EB00123557580460F6EC4860F2EC7004FDFE9D
:1037FB00FF22C860DB2481C85009C39860025006C1
:10380B000235939850CAF582E9294B4A7005AB8271
:10381B0002358275F0007C1A7880C3EF9BEE9AED2F
:10382B0099400DC3EF9BFFEE9AFEED99FDE842F038
:10383B00DC23ACF0D0E0FFD0E0FED0E0FDAB82208B
:10384B00E7101BEB60BAEC2CFCEF33FFEE33FEED15
:10385B0033FD02356EE803F830E705C0F075F00074
:10386B00EF2FFFEE33FEED33FD40B830E7C280AAF9
:10387B003F8000004120000042C80000447A000055
:10388B00461C400047C35000497424004B189680D7
:10389B004CBEBC205A0E1BCA6753C21C749DC5AECE
:1038AB00FB60065407601C23231238D9EB54386095
:1038BB00091238C51238D412341AECF8EDF9EEFAB5
:1038CB00EFCB22EB1238D480F1543803241C903800
:1038DB007BFE93FC0EEE93FD0EEE930ECE93FF222A
:10558600025820E493A3F8E493A34003F68001F2C3
:1055960008DFF48029E493A3F85407240CC8C33326
:1055A600C4540F4420C8834004F456800146F6DFF5
:1055B600E4800B01020408102040809052FEE47E35
:1055C600019360BCA3FF543F30E509541FFEE493EA
:1055D600A360010ECF54C025E060A840B8E493A3B1
:1055E600FAE493A3F8E493A3C8C582C8CAC583CADC
:1055F600F0A3C8C582C8CAC583CADFE9DEE780BE94
:0153B20000FA
:1038EB00E709F608DFFA8046E709F208DFFA803EBF
:1038FB0088828C83E709F0A3DFFA8032E309F608AC
:10390B00DFFA8078E309F208DFFA807088828C8313
:10391B00E309F0A3DFFA806489828A83E0A3F608C7
:10392B00DFFA805889828A83E0A3F208DFFA804CA1
:10393B0080D280FA80C680D4806980F28033801078
:10394B0080A680EA809A80A880DA80E280CA8033E1
:10395B0089828A83ECFAE493A3C8C582C8CCC58359
:10396B00CCF0A3C8C582C8CCC583CCDFE9DEE78029
