:03000000025EA0FD
:0C5EA000787FE4F6D8FD758121025EE7F2
:10625F006B6579646F776E2025640D0A00D6D0BE0A
:10626F00B0D4B0B5E7D7D3004C43445F573A004C96
:10627F0043445F483A00496E637265617365696EA6
:07628F0067204E756E3A0016
:1060400042005A00005E003C00000000000000001A
:106050000000000000000000000000000000000040
:1060600000000000000060280000FFFFFFFFFFFFAE
:10607000FFFFFFFFFFFFFFFFFFFFFFFFFFFFFFFF30
:10608000FFFFFFFFFFFFFFFFFFFFFFFFFFFFFFFF20
:10609000FFFF540028000000000000000000000086
:0960A000000000000000000000F7
:1062EF00759850438E40538EFE53890F758BE07512
:0E62FF008DFEC2ABD28ED2ACD2AFE4F5A2229D
:080003008F993099FDC299228A
:0A63B9008F993099FDC2998F992247
:10638900123E13FF600C120003740129F9E43AFA72
:0363990080EE2271
:10639C00759A1075D7E075D6FE438E1475AF01D281
:0263AC00AF221E
:0863E0002009FDD2098F9B2268
:10629600900124EBF0A3EAF0A3E9F0900124E0FBDF
:1062A600A3E0FAA3E0F9123E136017900124A3E4D9
:1062B60075F001123E93A9F0FA123E13FF1263E045
:0362C60080D9225A
:10634600438E805389F0758A9A758CA9C28DD28C3A
:09635600D28CD2A9D2B9D2AF2237
:0863D7007F0C7EA9DEFEDFFC55
:0163DF00229B
:10637500AD07AC06ED1DAE0470011C4E6005126341
:04638500D780F122AA
:0B63AE008FCFE5CD30E7FB75CDC0229E
:0A63C300C292D2901263AED2922271
:0A63CD00C292C2901263AED2922277
:10531300C2837F0A7E00126375D2837F111263EE0C
:105323007F787E001263757FCF1263EEE4FF126312
:10533300727FC11263727F301263727FED1263EE6C
:105343007F641263727F031263727F121263727F30
:10535300811263727FE81263EE7F85126372E4FF4A
:105363001263727F791263727FCB1263EE7F3912FD
:1053730063727F2C126372E4FF1263727F341263D1
:10538300727F021263727FF71263EE7F20126372E1
:105393007FEA1263EEE4FF126372E4FF1263727F2B
:1053A300C01263EE7F1D1263727FC11263EE7F1220
:1053B3001263727FC51263EE7F331263727F3F12F3
:1053C30063727FC71263EE7F921263727F3A126336
:1053D300EE7F551263727F361263EE90005AE070CF
:1053E30002A3E070047F08802290005AE07004A3B7
:1053F300E0640170047FC8801290005AE07004A337
:10540300E0640270047F7880027FA81263727FB128
:105413001263EEE4FF1263727F121263727FB6129D
:1054230063EE7F0A1263727FA21263727F44126378
:10543300EE7F021263727FF21263EEE4FF12637275
:105443007F261263EE7F011263727FE01263EE7FA9
:105453000F1263727F221263727F1C1263727F1BAF
:105463001263727F081263727F0F1263727F481296
:1054730063727FB81263727F341263727F051263A3
:10548300727F0C1263727F091263727F0F12637251
:105493007F07126372E4FF1263727FE11263EEE42B
:1054A300FF1263727F231263727F241263727F077A
:1054B3001263727F101263727F071263727F381256
:1054C30063727F471263727F4B1263727F0A1263A8
:1054D300727F131263727F061263727F30126372DC
:0F54E3007F381263727F0F1263727F290263EEAC
:10621D0090008FEEF0A3EFF07F2A1263CD90008FE8
:10622D00E0FF1263C3A3E0FF1263C3EAFF1263C36F
:10623D00AF031263C37F2B1263CDECFF1263C3AFA9
:10624D00051263C3900095E0FF1263C3A3E0FF0244
:02625D0063C319
:10000E00AD07AC06C292D290ECFF1263AEAF0512F2
:05001E0063AED2922246
:08610C00900120EEF0A3EFF07A
:106114009000957401F0A3743FF07BEF7A00E4FDE6
:10612400FCFFFE12621D7F2C1263CDE4900122F06D
:10613400A3F0E4FBFA900120E0FEA3E0FF12000EBE
:106144000BBB00010AEB64F04A70EA900123E004FF
:10615400F07006900122E004F0C3900123E0944023
:08616400900122E0940140CA01
:01616C002210
:1060AA00A2A3E433FF900000E025E04FF0A2A1E4B0
:1060BA0033FFA3E025E04FF0A2B7E433FFA3E025C6
:1060CA00E04FF0A2B5E433FFA3E025E04FF0E4FF90
:1060DA0074002FF582E43400F583E0FE700E743C00
:1060EA002FF582E43400F583E4F08010BEFF0D74CE
:1060FA003C2FF582E43400F5837401F00FEFB40A03
:01610A00CFC5
:01610B002271
:1062C900900127EEF0A3EFF07BFF7A62795F9000EF
:1062D9009AEEF0A3EFF01240CE900127E07002A3EE
:0662E900E07002B2B422D5
:105F2C00E4900129F0A3F0900129E0FEA3E0FFC367
:105F3C009406EE648094805070743C2FF58274004B
:105F4C003EF583E07037900129E0FCA3E0FD25E0ED
:105F5C00FFEC33FE74282FF58274003EF583E0FAD3
:105F6C00A3E04A703374282FF58274003EF583E465
:105F7C00F0A304F0AF05AE041262C9801B90012A95
:105F8C00E025E0FF900129E033FE74282FF58274A0
:105F9C00003EF583E4F0A3F090012AE004F0708752
:095FAC00900129E004F0025F33CA
:015FB50022C9
:10581D00E4F594759302F592F591F596F595F5B23B
:10582D00F5B1F5B4F5B3F5CAF5C975CED075CDC0E2
:10583D00C2917F64FE1263751253137F647E001252
:10584D0063759000627401F0A37440F074FFA3F0CF
:10585D00A3F07BF07A00E4FDFCFFFE125DF97F649E
:10586D007E001263757BFF7A62796C90006374F829
:10587D00F0A3E4F074FFA3F0A3F0A37420F0E4A36D
:10588D00F0FDFCFFFE1256927BFF7A627977900055
:10589D006374F8F0A3E4F074FFA3F0A3F0A3741005
:1058AD00F0E4A3F07D28FCFFFE125FB69000627459
:1058BD0003F0A374F8F0A3E4F074FFA3F0A3F0A336
:1058CD007410F07BF07A007D287C007F307E001212
:1058DD005AC77BFF7A62797E90006374F8F0A3E477
:1058ED00F074FFA3F0A3F0A37410F0E4A3F07D28EF
:1058FD00FC7F50FE125FB69000627403F0A374F843
:10590D00F0A3E4F074FFA3F0A3F0A37410F07B40B8
:10591D007A017D287C007F807E00125AC77BFF7A3A
:10592D0062797E90006374F8F0A3E4F074FFA3F045
:10593D00A3F0A37410F0E4A3F07D28FC7F50FE12B9
:10594D005FB67BFF7A62798590006374F8F0A3E40B
:10595D00F074FFA3F0A3F0A37410F0E4A3F07D4660
:10596D00FCFFFE125FB67F2C7E011263750258722A
:030023000263E88D
:0663E800309802C2983259
:03000B000263F19C
:0163F1003279
:1000260000000000000000000000000000000404C2
:10003600040404000004000014140A000000000078
:100046000000000000000A0A1F0A0A1F0A0A000030
:1000560000040E1505060C14150E040000001215FA
:100066000D152E2C2A1200000000040A0A3615155A
:100076002916000002020100000000000000000036
:100086001008080404040404080810000204040804
:10009600080808080404020000000004150E0E15E6
:1000A6000400000000000008083E080800000000E8
:1000B6000000000000000000020201000000000035
:1000C600003F0000000000000000000000000000EB
:1000D60000020000002010100808040402020100BB
:1000E60000000E1111111111110E0000000004067E
:1000F60004040404040E000000000E11110804029A
:10010600011F000000000E11100C1010110E00004F
:100116000000080C0C0A091F081C000000001F0143
:10012600010F1110110E000000000C12010D131129
:10013600110E000000001E1008080404040400004C
:1001460000000E11110E1111110E000000000E110B
:100156001119161009060000000000000400000036
:100166000004000000000000000400000004040079
:10017600000010080402020408100000000000003D
:100186003F003F00000000000000020408101008B5
:100196000402000000000E1111080404000400000F
:1001A60000001C22292D2D1D221C00000000040425
:1001B6000C0A0A1E1233000000000F12120E121251
:1001C600120F000000001E1101010101110E0000B6
:1001D60000000F1212121212120F000000001F125E
:1001E6000A0E0A02121F000000001F120A0E0A025F
:1001F6000207000000001C1201013911120C000058
:1002060000003312121E12121233000000001F04E7
:1002160004040404041F000000003E08080808083F
:1002260008080907000037120A060A1212370000EA
:100236000000070202020202223F000000003B1BF0
:100246001B1B15151535000000003B1216161A1A51
:100256001217000000000E1111111111110E0000ED
:1002660000000F12120E02020207000000000E111B
:1002760011111117190E180000000F12120E0A1292
:100286001237000000001E1101060810110F0000B1
:1002960000001F1504040404040E000000003312BD
:1002A60012121212120C000000003312120A0A0C6B
:1002B600040400000000151515150E0A0A0A0000B0
:1002C60000001B0A0A04040A0A1B000000001B0A9D
:1002D6000A0A0404040E000000001F0908040402B0
:1002E600121F00001C0404040404040404041C007B
:1002F6000002020404040808081010000E0808088A
:100306000808080808080E00040A0000000000009B
:100316000000000000000000000000000000003F98
:1003260002040000000000000000000000000000C1
:10033600000C121C123C000000030202020E1212F4
:10034600120E000000000000001C1202120C000039
:1003560000181010101C1212123C000000000000C1
:10036600000C121E021C000000182404041E0404C3
:10037600041E000000000000003C120C021C221C9F
:1003860000030202020E12121237000000040400DB
:1003960000060404040E000000080800000C08080B
:1003A6000808080700030202021A0A060A130000D8
:1003B6000007040404040404041F000000000000F5
:1003C600000F15151515000000000000000F121291
:1003D6001237000000000000000C1212120C000080
:1003E60000000000000F1212120E020700000000AB
:1003F600001C1212121C103800000000001B06021E
:100406000207000000000000001E020C101E000083
:1004160000000004041E0404041C00000000000088
:10042600001B1212123C000000000000001B0A0A0A
:1004360004040000000000000015150E0A0A000062
:1004460000000000001B0A040A1B00000000000058
:10045600003312120C08040300000000001E0804FA
:10046600041E000018080808080C080808081800E8
:100476000808080808080808080808080604040404
:100486000408040404040600160900000000000025
:100496000000000000000000000000000000000056
:1004A600000000000000000808080808080800000E
:1004B6001818000000486C2412000000000000001C
:1004C600000000000000002424247F1212127F1274
:1004D600121200000000081C2A2A0A0C1828282AD2
:1004E6002A1C080800000022251515152A58545400
:1004F600542200000000000C1212120A762529115F
:10050600916E0000000606040300000000000000D3
:100516000000000000402010100808080808081015
:1005260010204000000204080810101010101008D7
:10053600080402000000000008086B1C1C6B080879
:100546000000000000000000080808087F080808EE
:10055600080000000000000000000000000000008D
:10056600060604030000000000000000FE00000074
:100576000000000000000000000000000000000075
:1005860006060000000080404020201010080804E5
:100596000402020000000018244242424242424243
:1005A60024180000000000080E08080808080808BB
:1005B600083E00000000003C424242202010080491
:1005C600427E00000000003C42422018204040428B
:1005D600221C0000000000203028242422227E2035
:1005E600207800000000007E0202021A26404042E7
:1005F600221C0000000000382402021A2642424251
:10060600241800000000007E2222101008080808A6
:10061600080800000000003C4242422418244242DE
:10062600423C000000000018244242426458404008
:10063600241C000000000000000018180000000044
:10064600181800000000000000000008000000006C
:1006560000080804000000402010080402040810E6
:10066600204000000000000000007F0000007F0026
:1006760000000000000000020408102040201008BE
:10068600040200000000003C4242464020101000D8
:10069600181800000000001C225A555555552D42C9
:1006A600221C00000000000808181414243C2242F2
:1006B60042E700000000001F2222221E2242424280
:1006C600221F00000000007C42420101010101429C
:1006D600221C00000000001F2242424242424242C7
:1006E600221F00000000003F4212121E1212024298
:1006F600423F00000000003F4212121E1212020288
:10070600020700000000003C2222010101712122A3
:10071600221C0000000000E7424242427E42424262
:1007260042E700000000003E08080808080808081C
:10073600083E00000000007C101010101010101071
:100746001010110F0000007722120A0E0A12122250
:1007560022770000000000070202020202020202E3
:10076600427F000000000077363636362A2A2A2ACB
:100776002A6B0000000000E346464A4A5252526283
:10078600624700000000001C2241414141414141B5
:10079600221C00000000003F424242423E0202028A
:1007A600020700000000001C2241414141414D5317
:1007B600321C60000000003F4242423E12122222DA
:1007C60042C700000000007C42420204182040425A
:1007D600423E00000000007F490808080808080893
:1007E600081C0000000000E74242424242424242E8
:1007F600423C0000000000E7424222242414141860
:10080600080800000000006B494949495555362241
:1008160022220000000000E742242418181824248D
:1008260042E7000000000077222214140808080896
:10083600081C00000000007E21201010080404425D
:10084600423F000000780808080808080808080859
:1008560008087800000002020404080808101020A6
:1008660020204040001E1010101010101010101004
:1008760010101E00003844000000000000000000B8
:100886000000000000000000000000000000000062
:10089600000000FF00060800000000000000000045
:1008A60000000000000000000000003C42784442C6
:1008B60042FC0000000000030202021A26424242E5
:1008C600261A000000000000000000384402020260
:1008D60044380000000000604040407844424242F4
:1008E60064D80000000000000000003C427E0202C6
:1008F600423C0000000000F08808087E080808084E
:10090600083E0000000000000000007C22221C02BD
:100916003C42423C000000030202023A4642424286
:1009260042E700000000000C0C00000E0808080852
:10093600083E000000000030300000382020202053
:100946002020221E0000000302020272120A161262
:10095600227700000000000E0808080808080808AA
:10096600083E0000000000000000007F9292929274
:1009760092B70000000000000000003B46424242E1
:1009860042E70000000000000000003C42424242F4
:10099600423C0000000000000000001B26424242CC
:1009A600221E020700000000000000784442424276
:1009B600447840E000000000000000774C04040486
:1009C600041F0000000000000000007C42023C40C2
:1009D600423E0000000000000008083E0808080823
:1009E600083000000000000000000063424242425E
:1009F60062DC000000000000000000E7422424142E
:100A06000808000000000000000000EB49495555A9
:100A160022220000000000000000007624181818AA
:100A2600246E000000000000000000E742242414A9
:100A360018080807000000000000007E22100808C1
:100A4600447E000000C020202020201020202020EE
:100A56002020C000101010101010101010101010D0
:100A660010101010000608080808081008080808E2
:100A7600080806000C32C20000000000000000005A
:100A86000000000000000000000000000000000060
:100A96000000000000000000000000000000000050
:100AA6000000000000000000000000000000000040
:100AB6000000000000000000000000006000600070
:100AC60060006000600060006000400020002000C0
:100AD60020000000000000006000600060000000D0
:100AE6000000000000000000600660063003980168
:100AF6008800440000000000000000000000000024
:100B060000000000000000000000000000000000DF
:100B160000000000000000000000000010021002AB
:100B260010021002FE07FE0708020801080108016C
:100B36000801FE07FE070401040104010401000088
:100B46000000000000000000000040004000F0012E
:100B560058034C03CC034C0058007000E000C00161
:100B6600C00140034C035C034C034801F000400005
:100B76004000000000000000000000000E010A0115
:100B8600910091009100510051003A00AE03A0027D
:100B960050045004480448044804840284030000B6
:100BA60000000000000000000000000038006C009B
:100BB6006C006C006C006C002C0098071C011A017C
:100BC600330133016301E300C308C6093C07000093
:100BD60000000000000000000C001C0010001000C7
:100BE60008000400000000000000000000000000F3
:100BF60000000000000000000000000000000000EF
:100C06000000000000000000000400020001800057
:100C1600800040004000200020002000200020002E
:100C260020002000400040008000800000010002FB
:100C3600000400000000000002000400080010008C
:100C4600100020002000400040004000400040000E
:100C560040004000200020001000100008000400A2
:100C6600020000000000000000000000000000007C
:100C76004000C0004000460C4E0FD001F0015E0F50
:100C8600460C40004000400000000000000000004C
:100C9600000000000000000000000000000000004E
:100CA600000040004000400040004000FE0F4000B1
:100CB600400040004000400000000000000000002E
:100CC600000000000000000000000000000000001E
:100CD600000000000000000000000000000000000E
:100CE60000000000000000000C001C0010001000B6
:100CF60008000400000000000000000000000000E2
:100D0600000000000000000000000000FE070000D8
:100D160000000000000000000000000000000000CD
:100D260000000000000000000000000000000000BD
:100D360000000000000000000000000000000000AD
:100D460000000000000000001C001C001C00000049
:100D5600000000000000000000040006000200037E
:100D6600000100018000800040004000600020007B
:100D7600200010001000080008000C000400060007
:100D86000200000000000000000000000000F0006B
:100D960098010C030C03060606060606060606065A
:100DA6000606060606060C030C039801F000000072
:100DB60000000000000000000000000000004000ED
:100DC6007C00600060006000600060006000600001
:100DD600600060006000600060006000FC030000CE
:100DE6000000000000000000000000000000F80005
:100DF6008401020306030603000300018001C0000C
:100E0600600020001000080204020602FE03000033
:100E16000000000000000000000000000000780054
:100E2600C6008601860180018001C0007000800135
:100E3600000100030003060306038601F800000014
:100E4600000000000000000000000000000080011B
:100E56008001C001A001A0019001880188018401E0
:100E66008201FE0F8001800180018001E007000001
:100E76000000000000000000000000000000FC036D
:100E860004000400040004000400F4008C010403C0
:100E9600000300030603060382018401F800000034
:100EA6000000000000000000000000000000E0015B
:100EB60018030C030C0004000600E60116030E06D8
:100EC60006060606060604060C021803F0000000D5
:100ED6000000000000000000000000000000F8070D
:100EE6000C0604020401000100018000800040009D
:100EF600400040006000600060006000600000008C
:100F06000000000000000000000000000000F801E2
:100F16000C030606060606060C021C03F000C801B2
:100F26000C0306060606060606060C03F00100007C
:100F36000000000000000000000000000000F000BB
:100F46000C010C03060206060606060606078C06B4
:100F560078060006000300030C018C0178000000EF
:100F6600000000000000000000000000000000007B
:100F76000000000000000000E000E000E0000000CB
:100F86000000000000000000E000E000E0000000BB
:100F9600000000000000000000000000000000004B
:100FA600000000000000000060006000000000007B
:100FB600000000000000000000006000600040002B
:100FC60020002000000000000000000000040002D5
:100FD6000001800040002000100008000400080006
:100FE6001000200040008000000100020004000004
:100FF60000000000000000000000000000000000EB
:101006000000000000000000FE07000000000000D5
:10101600FE070000000000000000000000000000C5
:1010260000000000000000000000000004000800AE
:1010360010002000400080000001000200040002B1
:10104600000180004000200010000800040000009D
:101056000000000000000000000000000000E003A7
:101066001806040C040C0C0C0C0C00078001400044
:101076004000400000000000E000E000E00000004A
:10108600000000000000000000000000E00018035F
:101096000C02CC0564056605A605B604B604B604BE
:1010A600B604B602E4010C040C021803F0000000BA
:1010B60000000000000000000000000000006000CA
:1010C60060005000D0009000900088008801080160
:1010D600F801040304030402020202060F0F0000D3
:1010E6000000000000000000000000000000FE00FC
:1010F6008C030C030C030C030C038C01FC000C0387
:101106000C020C060C060C060C060C03FE01000075
:101116000000000000000000000000000000E003E6
:1011260018030C060C04040406000600060006005C
:101136000600060006040C040C021803F00000006A
:1011460000000000000000000000000000007F001A
:101156008C010C030C030C060C060C060C060C0684
:101166000C060C060C060C030C038C017F00000019
:101176000000000000000000000000000000FF0367
:10118600060306040604060086008600FE008600A6
:10119600860086000600060406040602FF03000019
:1011A6000000000000000000000000000000FF0337
:1011B600060306040604060086008600FE00860076
:1011C6008600860006000600060006001F000000D6
:1011D6000000000000000000000000000000F00019
:1011E60018010C020C0204020600060006000600A6
:1011F600C60F060306030C030C031803F0000000D9
:1012060000000000000000000000000000000F0FBA
:10121600060606060606060606060606FE0706066F
:101226000606060606060606060606060F0F000052
:101236000000000000000000000000000000FC03A9
:101246006000600060006000600060006000600098
:10125600600060006000600060006000FC03000049
:101266000000000000000000000000000000F80779
:10127600C000C000C000C000C000C000C000C00068
:10128600C000C000C000C000C000C000C000C60052
:1012960066003C0000000000000000000000CF03D4
:1012A6008601C60046002600160036002E006E0097
:1012B6004600C60086008601060106038F07000069
:1012C60000000000000000000000000000001F00F9
:1012D60006000600060006000600060006000600D8
:1012E600060006000600060406040602FF030000C8
:1012F60000000000000000000000000000000707DA
:10130600860386038E038E034E034E034A035A0357
:101316005A033A03320332033203120387070000EB
:1013260000000000000000000000000000008E0F1A
:101336000C021C021C0234023402640264024402DF
:10134600C402840284038403040304031F0200000E
:101356000000000000000000000000000000F00097
:1013660098010C030C020606060606060606060685
:101376000606060606060C020C039801F00000009D
:101386000000000000000000000000000000FF0058
:101396000603060606060606060606068603FE007B
:1013A6000600060006000600060006001F000000F4
:1013B6000000000000000000000000000000F00037
:1013C60098010C030C020606060606060606060625
:1013D6000606060676064C02CC039801F000800746
:1013E6000003000000000000000000000000FF01F4
:1013F600060306060606060606060603FE00460061
:10140600C600860086010603060306060F0E0000C8
:101416000000000000000000000000000000F802CC
:101426000C030602060206000E003C00F800E0036C
:10143600800300070206020606060C03F001000000
:101446000000000000000000000000000000FE0791
:10145600620461086108600060006000600060006E
:10146600600060006000600060006000F80100003D
:1014760000000000000000000000000000001E0741
:101486000C020C020C020C020C020C020C020C02E6
:101496000C020C020C020C020C021801F0000000F7
:1014A60000000000000000000000000000000F0720
:1014B6000602040104010C010C0188008800980052
:1014C60098005000500070003000200020000000FE
:1014D6000000000000000000000000000000F70E01
:1014E600620442044604460464026402E402E4021E
:1014F6009C029C01980198018801880088000000E0
:1015060000000000000000000000000000009E0730
:101516000C01080118019000B00060002000600076
:101526006000D00090008801080104038E070000C7
:1015360000000000000000000000000000000F0F87
:10154600060404020C0208011801B800B00070007D
:10155600600060006000600060006000F80100004C
:101566000000000000000000000000000000FC0772
:101576000C020603020180018000400040002000AA
:1015860020001000180008040C040402FE030000EA
:101596000000000000000000E00320002000200002
:1015A6002000200020002000200020002000200035
:1015B6002000200020002000200020002000200025
:1015C600E00300000000000000000000040004002A
:1015D6000800080010001000100020002000400045
:1015E6004000C000800080000001000100020002EF
:1015F60000020004000000007C00400040004000A3
:1016060040004000400040004000400040004000D4
:1016160040004000400040004000400040004000C4
:101626007C0000000000600090000801000000003F
:1016360000000000000000000000000000000000A4
:101646000000000000000000000000000000000094
:101656000000000000000000000000000000000084
:101666000000000000000000000000000000000074
:101676000000000000000000000000000000000064
:101686000000FF0F000000001800600000000000CE
:101696000000000000000000000000000000000044
:1016A6000000000000000000000000000000000034
:1016B6000000000000000000000000000000000024
:1016C6000000000000000000F0010C030C03000302
:1016D600E0031C030E03060306038E0B7C0E0000BC
:1016E60000000000000000000000000008000E00DE
:1016F6000C000C000C000C00CC013C031C060C0674
:101706000C060C060C060C060C021C03E401000079
:1017160000000000000000000000000000000000C3
:101726000000000000000000F0008C018C01860122
:1017360006000600060006020C020C01F00000007E
:101746000000000000000000000000000002C003CE
:10175600000300030003000378038C030C03060355
:10176600060306030603060304038C07780100003C
:101776000000000000000000000000000000000063
:101786000000000000000000E001180308020C063B
:101796000C06FC070C000C0018041802E0010000FF
:1017A6000000000000000000000000000000C00370
:1017B6006006300630003000FE0130003000300098
:1017C600300030003000300030003000FC010000F6
:1017D6000000000000000000000000000000000003
:1017E6000000000000000000F007D8068C018C0104
:1017F6008C019801F8000C00FC00CC0306030603DC
:101806008E03F800000000000000000008000E0033
:101816000C000C000C000C00EC011C030C030C0368
:101826000C030C030C030C030C030C039E070000B3
:101836000000000000000000000000000000600042
:1018460060000000000040007C0060006000600056
:10185600600060006000600060006000FC03000043
:101866000000000000000000000000000000C001B1
:10187600C001000000000001F0018001800180012C
:10188600800180018001800180018001800180014A
:10189600CC007C00000000000000000008000E00E4
:1018A6000C000C000C000C008C038C008C004C000F
:1018B6006C005C008C008C010C010C039E07000080
:1018C60000000000000000000000000040007C0056
:1018D6006000600060006000600060006000600002
:1018E600600060006000600060006000FC030000B3
:1018F60000000000000000000000000000000000E2
:1019060000000000000000003707EE0666066606C7
:10191600660666066606660666066606FF0F00002B
:1019260000000000000000000000000000000000B1
:101936000000000000000000EE011C030C030C0375
:101946000C030C030C030C030C030C039E07000092
:101956000000000000000000000000000000000081
:101966000000000000000000F00098010C030606CD
:1019760006060606060606060C030C03F000000023
:101986000000000000000000000000000000000051
:101996000000000000000000EE011C030C060C060F
:1019A6000C060C060C060C060C031C03EC010C00C2
:1019B6000C003E00000000000000000000000000D7
:1019C600000000000000000078028C030C030603F0
:1019D600060306030603060304038C0378030003C9
:1019E6000003C00700000000000000000000000027
:1019F60000000000000000009F035806380618008B
:101A0600180018001800180018001800FF00000041
:101A160000000000000000000000000000000000C0
:101A26000000000000000000F0031C030C020C0282
:101A36003800F000C003040304038C03FC0100001B
:101A46000000000000000000000000000000000090
:101A56002000200030003000FE0130003000300051
:101A6600300030003000300030023002E00100006B
:101A76000000000000000000000000000000000060
:101A860000000000000008028E030C030C030C0388
:101A96000C030C030C030C030C039C0778010000D9
:101AA6000000000000000000000000000000000030
:101AB60000000000000000001E070C0208010801DB
:101AC60018019000B000B000600060002000000027
:101AD6000000000000000000000000000000000000
:101AE6000000000000000000F70E620446046402D5
:101AF6006402EC029C01980198019801080000001C
:101B060000000000000000000000000000000000CF
:101B16000000000000000000BC0718011001B00022
:101B260060006000E0009000080108039E070000C6
:101B3600000000000000000000000000000000009F
:101B460000000000000000009E07080108010801CF
:101B560090009000B000600060006000200020004F
:101B660024001C000000000000000000000000002F
:101B76000000000000000000FC018401C4004400D5
:101B8600600020003000180208020C03FC0100006F
:101B960000000000000000000003800080008000BC
:101BA600800080008000800080004000200040000F
:101BB600800080008000800080008000800080001F
:101BC600000300004000400040004000400040008C
:101BD60040004000400040004000400040004000FF
:101BE60040004000400040004000400040004000EF
:101BF60040004000000000000C0010001000100023
:101C060010001000100010001000200040002000FE
:101C1600100010001000100010001000100010003E
:101C26000C00000000001C002204C2048003000017
:101C3600000000000000000000000000000000009E
:101C4600000000000000000000000000000000008E
:101C5600000000000000000000000000000000007E
:101C6600000000000000000000000000000000006E
:101C7600000000000000000000000000000000005E
:101C8600000000000000000000000000000000004E
:101C96000000000000000000000000000000C0017D
:101CA600C001C001C001C001C001C00180008000A8
:101CB600800080008000800080000000000000009E
:101CC60000008001C003C003800100000000000086
:101CD60000000000000000000000E01CE01CF01EF8
:101CE600700E380718030801840000000000000089
:101CF60000000000000000000000000000000000DE
:101D060000000000000000000000000000000000CD
:101D160000000000000000000000000000000000BD
:101D260020102010201020102010FE7FFE7F1008AB
:101D3600100810081008100810081008FE7FFE7F13
:101D46000804080408040804080400000000000051
:101D5600000000000000000000000000000100017B
:101D6600C007601910311831183918393801700157
:101D7600E001C0038007000F001D003900311C314F
:101D86001C310C310C11180DE00700010001000197
:101D9600000000000000000000000000000000003D
:101DA6001C1036186308630C630463046302630241
:101DB6006301361D9C378022806340634063206345
:101DC6002063306310221836081C00000000000053
:101DD60000000000000000000000000000000000FD
:101DE600F00098018C018C018C018C018C00CC00D8
:101DF6007800183E1C083608320863046304C304DE
:101E0600C303834306438E26781C000000000000AF
:101E1600000000000000000000001C003C003C0028
:101E26003000300010000C0006000000000000002A
:101E3600000000000000000000000000000000009C
:101E4600000000000000000000000000000000008C
:101E5600000000000000000000000040002000100C
:101E66000008000C000400060003000300038001C4
:101E760080018001800180018001800180010003D2
:101E86000003000300060006000C000800100020F6
:101E960000400000000000000000020004000800EE
:101EA6001000300020006000C000C000C0008001AB
:101EB6008001800180018001800180018001C000D5
:101EC600C000C00060006000300010000800040080
:101ED60002000000000000000000000000000000FA
:101EE6000000000000018003800300011C713C79A2
:101EF600783DC0070001C007783D3C791C710001A0
:101F06008003800380010000000000000000000044
:101F160000000000000000000000000000000000BB
:101F260000000000000000010001000100010001A6
:101F360000010001FC7F0001000100010001000119
:101F46000001000100000000000000000000000089
:101F5600000000000000000000000000000000007B
:101F6600000000000000000000000000000000006B
:101F7600000000000000000000000000000000005B
:101F8600000000001C003C003C0030003000100047
:101F96000C00060000000000000000000000000029
:101FA600000000000000000000000000000000002B
:101FB60000000000FE7F000000000000000000009E
:101FC600000000000000000000000000000000000B
:101FD60000000000000000000000000000000000FB
:101FE60000000000000000000000000000000000EB
:101FF60000000000000000000000000000000000DB
:10200600000018003C003C00180000000000000022
:1020160000000000000000000000004000600020FA
:102026000030001000180008000C00040006000232
:102036000003000180018000C00040006000200015
:1020460030001000180008000C0004000600020012
:10205600000000000000000000000000000000007A
:10206600C007600C30181830183018200C600C604F
:102076000C600C600C600C600C600C600C6018202E
:10208600183018303018600CC0070000000000003F
:10209600000000000000000000000000000000003A
:1020A60000018001F801800180018001800180012A
:1020B6008001800180018001800180018001800112
:1020C600800180018001C003F81F000000000000AD
:1020D60000000000000000000000000000000000FA
:1020E600E007101C0818043004300C300C300030A7
:1020F60000180008000400020001800040002020B3
:10210600102008200430FC1FFC1F00000000000007
:1021160000000000000000000000000000000000B9
:10212600E003180E0C0C0C180C180C180018000CF8
:102136000006C003000E00180010003000300C30FE
:102146000C300C100C18180CE00300000000000006
:102156000000000000000000000000000000000079
:10216600000C000E000E000F800E800E400E600E5A
:10217600200E100E100E080E040E040EFE7F000E2A
:10218600000E000E000E000E000EC07F00000000C4
:102196000000000000000000000000000000000039
:1021A600F03FF03F10001000100008000800C807BC
:1021B600280C1818081000300030003000300C30A1
:1021C6000C3004180418080CF0030000000000008E
:1021D60000000000000000000000000000000000F9
:1021E600800FC010203010301800180008000C00B6
:1021F6008C0F6C183C301C600C600C600C600C6022
:102206001860182030306018C00700000000000079
:1022160000000000000000000000000000000000B8
:10222600F83FF83F1C100C080408040400040002E0
:102236000002000100010001800080008000C00053
:10224600C000C000C000C000C000000000000000C8
:102256000000000000000000000000000000000078
:10226600E007300C18180C300C300C301C303818C5
:102276007008E007B007180E0C1C0638063006304A
:10228600063006300C18180CE003000000000000B1
:102296000000000000000000000000000000000038
:1022A600E00318040C080C18061006300630063039
:1022B600063006380C3C1836F0310030001800188D
:1022C60000180C0C0C060C03F001000000000000C6
:1022D60000000000000000000000000000000000F8
:1022E6000000000000000000000000000000800167
:1022F600C003C003800100000000000000000000D1
:1023060000008001C003C00380010000000000003F
:1023160000000000000000000000000000000000B7
:102326000000000000000000000000000000C000E7
:10233600C0000000000000000000000000000000D7
:10234600000000000000C000C000800080004000C7
:102356004000000000000000000000000000002017
:10236600001000080004000600038001C0006000A1
:10237600300018000C00180030006000C00080011A
:102386000003000600040008001000200000000002
:102396000000000000000000000000000000000037
:1023A6000000000000000000000000000000FE7FAA
:1023B60000000000000000000000FE7F000000009A
:1023C6000000000000000000000000000000000007
:1023D60000000000000000000000000000000400F3
:1023E6000800100020006000C00080010003000605
:1023F600000C001800300018000C000600038001D5
:10240600C00060002000100008000400000000006A
:102416000000000000000000000000000000C007EF
:102426003018083008600C601C601C601C600030AE
:10243600001C000600018000800080008000000073
:1024460000008001C003C0038001000000000000FE
:102456000000000000000000000000000000000076
:10246600C0076018103018200C2F8C4D864CC64CB7
:10247600C64C664C66446644662666266615CC1CC3
:102486000C40082018303018C0070000000000007B
:102496000000000000000000000000000000000135
:1024A600C001C001C00140016003200320032003D6
:1024B6003006100610061006F80F080C080C080C5B
:1024C6000C0C0418041806181F7C000000000000FD
:1024D60000000000000000000000000000000000F6
:1024E600FE07181C1838183018301830183018180D
:1024F600180CF8071818183018201860186018609B
:102506001860186018301818FE0F00000000000050
:1025160000000000000000000000000000000000B5
:10252600C0276038103018200C400C40040006000C
:1025360006000600060006000600060006000C401F
:102546000C400C2018303018C007000000000000B6
:102556000000000000000000000000000000000075
:10256600FE03180E18181830183018301860186046
:1025760018601860186018601860186018601830C5
:10258600183018101818180EFE030000000000007E
:102596000000000000000000000000000000000035
:1025A600FE3F183018201860184018001808180840
:1025B600180CF80F180C180818081800180018003E
:1025C6001840184018201830FE3F00000000000098
:1025D60000000000000000000000000000000000F5
:1025E600FE7F1870184018C01880180018101810B0
:1025F6001818F81F181818101810180018001800C6
:1026060018001800180018007E00000000000000E6
:1026160000000000000000000000000000000000B4
:10262600C013701C101018100C200C20040006009B
:10263600060006000600060006FC063006300C30D2
:102646000C30183018303008C007000000000000B9
:102656000000000000000000000000000000000074
:102666003F7E0C180C180C180C180C180C180C18AB
:102676000C180C18FC1F0C180C180C180C180C183D
:102686000C180C180C180C183F7E000000000000F7
:102696000000000000000000000000000000000034
:1026A600F81F800180018001800180018001800186
:1026B600800180018001800180018001800180010C
:1026C6008001800180018001F81F000000000000E9
:1026D60000000000000000000000000000000000F4
:1026E600E07F00060006000600060006000600065B
:1026F60000060006000600060006000600060006A4
:102706000006000600060006000600060E060E037A
:102716008E01FC0000000000000000000000000028
:102726007E7C181818081804180618021801980153
:102736009801D801B803380318071806180E180CA4
:10274600181C1818183018307EFC00000000000015
:102756000000000000000000000000000000000073
:102766007E0018001800180018001800180018003D
:102776001800180018001800180018001800180093
:102786001840184018201830FE3F000000000000D6
:102796000000000000000000000000000000000033
:1027A6001FF81C381C381C381C3C34343434343480
:1027B600343674326432643264326431C431C431C2
:1027C600C431C430C43084309FFC000000000000D7
:1027D60000000000000000000000000000000000F3
:1027E6001F7C1C103C103410341074106410E4105C
:1027F600C410C41184118413041304170416041E90
:10280600041C041C041C04181F180000000000000F
:1028160000000000000000000000000000000000B2
:10282600C003300C181808100C300C300660066017
:1028360006600660066006600660066006600C209C
:102846000C3008101818300CC003000000000000FF
:102856000000000000000000000000000000000072
:10286600FE0F181818301860186018601860186085
:1028760018301818F80F180018001800180018005B
:1028860018001800180018007E0000000000000064
:102896000000000000000000000000000000000032
:1028A600C003300C18180C100C300C2006600660A3
:1028B6000660066006600660066006600660E46103
:1028C6002C331C321816300EC007004C007C003822
:1028D60000000000000000000000000000000000F2
:1028E600FE07181C18381830183018301830181809
:1028F600180CF80798031803180718061806180E78
:10290600180C180C181C18187E780000000000001F
:1029160000000000000000000000000000000000B1
:10292600E027303818300C200C200C000C00180062
:102936007800E003800F001E00380070006004601D
:102946000460086018303818C80F00000000000046
:102956000000000000000000000000000000000071
:10296600FC3F8C218461824182418001800180018B
:102976008001800180018001800180018001800149
:102986008001800180018001E00700000000000056
:102996000000000000000000000000000000000031
:1029A6003F7C0C100C100C100C100C100C100C10A2
:1029B6000C100C100C100C100C100C100C100C1031
:1029C6000C100C1008083804E0030000000000009A
:1029D60000000000000000000000000000000000F1
:1029E6003EF8182018201820301030103010301003
:1029F600600860086008E00CC004C004C0048003DE
:102A06008003800380030001000100000000000035
:102A160000000000000000000000000000000000B0
:102A2600DFF38661862186218C210C218C238C1371
:102A36008C138C134C1358125816580E380E380E29
:102A4600380E300C100410041004000000000000C2
:102A56000000000000000000000000000000000070
:102A66007E3E180838083004300470026002E00127
:102A7600C001C001800180034003400720062006F4
:102A8600100C100C081808183E7C0000000000000E
:102A96000000000000000000000000000000000030
:102AA6007E7C1C10181018083008300C7004600466
:102AB6006002C002C002C001800180018001800165
:102AC6008001800180018001E00700000000000015
:102AD60000000000000000000000000000000000F0
:102AE600F83F18180818040C040E00060007000327
:102AF60080038001C001C000E0006000700030006B
:102B0600382018201C100C18FE1F000000000000C2
:102B160000000000000000000000C03F4000400030
:102B2600400040004000400040004000400040009F
:102B3600400040004000400040004000400040008F
:102B46004000400040004000400040004000C03FC0
:102B56000000000000000000000000000000080067
:102B660018001800100030002000600060004000CF
:102B7600C000800080018001000100030002000601
:102B860000060004000C00080018001800100030B1
:102B960000200000000000000000FC03000200020C
:102BA600000200020002000200020002000200020F
:102BB60000020002000200020002000200020002FF
:102BC6000002000200020002000200020002FC03F2
:102BD600000000000000000000008007C00620087A
:102BE60010100000000000000000000000000000BF
:102BF60000000000000000000000000000000000CF
:102C060000000000000000000000000000000000BE
:102C160000000000000000000000000000000000AE
:102C2600000000000000000000000000000000009E
:102C3600000000000000000000000000000000008E
:102C4600000000000000000000000000000000007E
:102C56000000FFFF0000000000007800C000000137
:102C6600000000000000000000000000000000005E
:102C7600000000000000000000000000000000004E
:102C8600000000000000000000000000000000003E
:102C9600000000000000000000000000000000002E
:102CA6000000000000000000000000000000F0032B
:102CB60018060C0C0C0C000C800F700C1C0C0C0C69
:102CC600060C060C064C0C4FF838000000000000FD
:102CD60000000000000000000000000000001000DE
:102CE6001E00180018001800180018001800180F09
:102CF600D818383038601860186018601860186086
:102D06001860182038307818C80700000000000046
:102D160000000000000000000000000000000000AD
:102D26000000000000000000000000000000C007D6
:102D3600700C181818180C180C000C000C000C005D
:102D46000C20182018103008C007000000000000F2
:102D5600000000000000000000000000000000105D
:102D6600001E001800180018001800180018E01BB4
:102D7600301C181818180C180C180C180C180C18ED
:102D86000C180818181C307AE00900000000000032
:102D9600000000000000000000000000000000002D
:102DA6000000000000000000000000000000C00756
:102DB600300C181808100C300C30FC3F0C000C00BE
:102DC6000C00182018107018C00700000000000042
:102DD60000000000000000000000000000000000ED
:102DE600003E80C380C0C0C0C000C000C000FC1F41
:102DF600C000C000C000C000C000C000C000C000CD
:102E0600C000C000C000C000F80F000000000000B5
:102E160000000000000000000000000000000000AC
:102E26000000000000000000000000000000C07765
:102E3600306C10181818181818181018300CF007DD
:102E460018001800F00FF03F08700C600C600C6062
:102E56003838E00F000000000000000000001000FD
:102E66001E00180018001800180018001800980F07
:102E7600D818383018301830183018301830183044
:102E860018301830183018307EFC000000000000A2
:102E9600000000000000000000000000000000002C
:102EA6008003800380030000000000000001F80199
:102EB6008001800180018001800180018001800104
:102EC6008001800180018001F81F000000000000E1
:102ED60000000000000000000000000000000000EC
:102EE6000038003800380000000000000010801F85
:102EF600001800180018001800180018001800180C
:102F06000018001800180018001800180018180CEF
:102F16001806F0030000000000000000000010008A
:102F26001E00180018001800180018001800183E97
:102F3600180C1806180318019801D8013803180749
:102F46001806180C181C18187E7C000000000000DB
:102F5600000000000000000000000000000000016A
:102F6600F8018001800180018001800180018001DB
:102F76008001800180018001800180018001800143
:102F86008001800180018001F81F00000000000020
:102F9600000000000000000000000000000000002B
:102FA6000000000000000000000000000800EE1C09
:102FB6009C338C318C318C318C318C318C318C3111
:102FC6008C318C318C318C31DE7B000000000000AE
:102FD60000000000000000000000000000000000EB
:102FE60000000000000000000000000010001E0F9E
:102FF600D8183830183018301830183018301830C3
:1030060018301830183018307EFC00000000000020
:1030160000000000000000000000000000000000AA
:103026000000000000000000000000000000C007D3
:10303600701C103018300C600C600C600C600C605A
:103046000C60183018303018C0070000000000006F
:10305600000000000000000000000000000000006A
:1030660000000000000000000000000010009E0F9D
:1030760058183830182018601860186018601860E2
:10308600186018303830781898071800180018009B
:1030960018007E0000000000000000000000000094
:1030A6000000000000000000000000000000C02337
:1030B600303C183818300C300C300C300C300C30DA
:1030C6000C3008301838303CE03300300030003027
:1030D600003000FC000000000000000000000000BE
:1030E60000000000000000000000000060007E3CC0
:1030F60060666061E000E000600060006000600003
:103106006000600060006000FE0700000000000034
:1031160000000000000000000000000000000000A9
:103126000000000000000000000000000000E02792
:1031360030381830182018007000E003800F001C8B
:10314600043004300C301C18EC0F000000000000A6
:103156000000000000000000000000000000000069
:1031660000000000800080008000C000E000FC1F1E
:10317600C000C000C000C000C000C000C000C00049
:10318600C000C020C0208011000F00000000000019
:103196000000000000000000000000000000000029
:1031A60000000000000000000000000010201E3C8F
:1031B60018301830183018301830183018301830C9
:1031C60018301830183830F4E01300000000000002
:1031D60000000000000000000000000000000000E9
:1031E60000000000000000000000000000007E3C1F
:1031F600181818083808300430047002600260029B
:10320600E001C001C001C000800000000000000015
:1032160000000000000000000000000000000000A8
:103226000000000000000000000000000000DFF7C2
:103236008E630C238C238C239813981358165816D8
:10324600700E700E700E20042004000000000000B6
:103256000000000000000000000000000000000068
:103266000000000000000000000000000000FC3E1E
:1032760070087004E004C002C001800380034007A8
:103286006006200C100C18183E7E0000000000009E
:103296000000000000000000000000000000000028
:1032A60000000000000000000000000000007E7C1E
:1032B6001818180830083008300460046004C0028A
:1032C600C002C00280018001800180008000800071
:1032D6004C003C0000000000000000000000000060
:1032E6000000000000000000000000000000FC1FBD
:1032F6000C0C040E0406000380038001C000E000ED
:103306007020302038301C18FC1F00000000000020
:10331600000000000000000000000030000800046B
:103326000004000400040004000400040004000477
:1033360000040002800100020004000400040004EE
:103346000004000400040004000400040004000853
:103356000030000000010001000100010001000131
:10336600000100010001000100010001000100014F
:10337600000100010001000100010001000100013F
:10338600000100010001000100010001000100012F
:10339600000100010000000000000C0010002000E9
:1033A6002000200020002000200020002000200017
:1033B6002000400080014000200020002000200066
:1033C6002000200020002000200020002000100007
:1033D6000C00000000003800C40086400261002294
:1033E600001C0000000000000000000000000000BB
:1033F60000000000000000000000000000000000C7
:1034060000000000000000000000000000000000B6
:1034160000000000D6D0200020002000FE0322027B
:1034260022022202FE032202200020002000BEB05B
:10343600FC010401FC010401FC012000FF0704015A
:10344600FC01200024013202D4B0FE070204FA0473
:1034560002040204FE05520452044A0586050204CB
:10346600FE07B5E710001000FF0111011101FF0171
:1034760011011101FF0111041004E007D7D3000068
:10348600FC018000400020002000FF0720002000F3
:10349600200020003800D6D0800080008000800008
:1034A600FC1F84108410841084108410FC1F841068
:1034B6008000800080008000BEB0F80F0808F80F7A
:1034C6000808F80F8000FF7F0000F80F08080808BA
:1034D600F80F80008410A2204000D4B00000FE3F08
:1034E6000220F22702200220FA2F22212221222165
:1034F600122912290A2E0220FE3F0220B5E780007B
:1035060080008000FC1F841084108410FC1F84102F
:1035160084108410FC1F845080408040007FD7D3E5
:103526000000FE1F00080004000280018000FF7FEB
:10353600800080008000800080008000A0004000A5
:10354600D6D00000000000000018000008000008A7
:1035560000000800080818F8FF1F180818180818AF
:10356600180818180818180818180818F8FF1F0857
:1035760008080008000008000008000008000018FD
:1035860000001800001800000000BEB00000000097
:103596000000400006C0FF07400006C0FF074000CD
:1035A60006C0FF07400802003000FEFF3F00000093
:1035B600C0FF07C00002C00002C00002C0FF0380B7
:1035C600100080110160100E3010180C1E30001C07
:1035D60000000000D4B0000000000000080030F831
:1035E600FF1F08001008C010083F10080010080050
:1035F60010080013C8FF1008221008221008221015
:1036060008221008211208211488601648C01328C1
:103616000010080010F8FF1F080010000000B5E7B2
:10362600000000000000001800000800000800006C
:103636000800F0FF0F100804100804100804100812
:1036460004F0FF071008041008041008041008040A
:10365600F0FF0710080000081000081000082000FE
:10366600183000F01F000000D7D300000000000053
:10367600000004F0FF0F00000600000100C000007B
:103686002800001800001800001830FEFF7F001800
:1036960000001800001800001800001800001800AC
:1036A600001800001800001800001F00000C0000A1
:1036B6000000D6D0000000000000000000800000DE
:1036C60000800100008001000080010000800100F0
:1036D600008001001080010CF0FFFF0F3080010414
:1036E6003080010430800104308001043080010400
:1036F600308001043080010430800104F0FFFF07B0
:103706003080010430800104008001000080010047
:10371600008001000080010000800100008001009F
:103726000080010000800100008001000080000090
:1037360000000000BEB00000000000000000000015
:1037460000000001800100FFFF010003800100036B
:10375600800100FFFF01000380010003800100FFDC
:10376600FF0100818100000003000000031CFCFF34
:10377600FF3F000040000003C00100FFFF010003FF
:10378600C0000003C0000003C00000FFFF000001EE
:10379600410000040100000E710000078101800154
:1037A60001076000010E1898011C04E0011800C012
:1037B600000000000000D4B000000000000000007F
:1037C60000000008F0FFFF1F3000000C3000000C66
:1037D6003000100C30FE3F0C3004000C3000000CA2
:1037E6003000000C3000000C3000C00CF0FFFF0D64
:1037F6003030060E3030060C3010060C3010060C39
:103806003010060C3018860C3018860C3008060D61
:10381600300C860D3006EE0F3002FC0D3001000C28
:10382600F000000C3000000CF0FFFF0F3000000C21
:103836001000000400000000B5E7000000000000D2
:10384600000000C0000000C0010000C0000000C071
:10385600000000C0000000C00000E0FFFF0360C0E1
:10386600000360C0000360C0000360C0000360C0C6
:10387600000360C00003E0FFFF0360C0000360C0F8
:10388600000360C0000360C0000360C00003E0FFE7
:10389600FF0360C0000160C0000000C0000800C057
:1038A600001000C0001000C0001800C001380080E1
:1038B600FF1F0000000000000000D7D3000000003A
:1038C600000000000000000000000003C0FFFF072A
:1038D600000080070000C000000060000000180023
:1038E60000000C000080030000800300008001003F
:1038F600008001080080011CFCFFFF3F00800100E2
:1039060000800100008001000080010000800100AD
:10391600008001000080010000800100008001009D
:1039260000800100008001000080010000FC010011
:0C39360000E00000004000000000000065
:0363EE000263CD7A
:05632B00E0FEA3E0FF0D
:10633000C00790008DE0FFA3E0900095CFF0A3EFA1
:06634000F0D00702621D0F
:10635F00900100E0FBA3E0FAA3E0F98F828E831295
:03636F003E2CFFC2
:036372000263C300
:05630D00E0FEA3E0FF2B
:10631200900087EEF0A3EFF0900087E0FF12637227
:09632200900087A3E0FF02637202
:105DF90090005CEEF0A3EFF0A3ECF0A3EDF0A3EAC2
:045E0900F0A3EBF027
:105E0D00C006C00724FFFBEA34FFFAA3E0FEA3E0BF
:105E1D0024FFFFEE34FF90008DF0A3EFF0D007D0FC
:105E2D000612633090005EE0FFA3E0900066CFF0B5
:105E3D00A3EFF0900062E0FEA3E0FFC3900067E0E7
:105E4D009F900066E09E504A90005CE0FFA3E090BA
:105E5D000068CFF0A3EFF0900060E0FEA3E0FFC379
:105E6D00900069E09F900068E09E501690006412CB
:105E7D00630D900069E004F070DD900068E004F0BF
:105E8D0080D5900067E004F070A9900066E004F002
:025E9D0080A1E2
:015E9F0022E0
:10616D00900112FEE0FCA3E0FDC390010EE09DFD49
:0E617D0090010DE09CFC900110E0FAA3E0FB05
:10618B00900081EEF0A3EFF0900085EAF0A3EBF026
:10619B00900083ECF0A3EDF0900081E0FAA3E0FB1C
:1061AB00FFAE02C007A3E0FFA3E090008DCFF0A3EA
:1061BB00EFF0D007126330900085E0FEA3E0FF0202
:0261CB0063125D
:0E5125009000C7EEF0A3EFF0A3ECF0A3EDF0C6
:10513300E49000D3F0A3F0A3F0A3F09000C7E0FE47
:10514300A3E0FFC3EB9FFFEA9E9000D7F0A3EFF02D
:105153009000C9E0FAA3E0FBC39000CEE09BFE9071
:1051630000CDE09A9000D9F0A3CEF09000C7E0FF05
:10517300A3E09000E1CFF0A3EFF0A3EAF0A3EBF0FC
:105183009000D7E0FEA3E0FFD39400EE6480948008
:10519300400A9000DDE4F0A304F08021EF4E700894
:1051A3009000DDF0A3F0801574FF9000DDF0A3F014
:1051B300C3E49FFFE49E9000D7F0A3EFF09000D9E3
:1051C300E0FEA3E0FFD39400EE64809480400A9055
:1051D30000DFE4F0A304F08021EF4E70089000DFBD
:1051E300F0A3F0801574FF9000DFF0A3F0C3E49FF9
:1051F300FFE49E9000D9F0A3EFF09000D9E0FEA366
:10520300E0FF9000D7E0FCA3E0FDD39FEE6480F8BD
:10521300EC6480989000DB4007ECF0A3EDF0800590
:10522300EEF0A3EFF0E49000D1F0A3F09000DCE007
:105233002401FF9000DBE03400FEC39000D2E09F26
:105243009000D1E09E40030253129000E1E0FEA3E0
:10525300E0FFA3E0FCA3E0FD9000CF126186900085
:10526300D7E0FEA3E0FF9000D4E02FF09000D3E05E
:105273003EF09000D9E0FEA3E0FF9000D6E02FF0CF
:105283009000D5E03EF09000DBE0FEA3E0FF90004D
:10529300D3E0FCA3E0FDD39FEE6480F8EC64809838
:1052A3004020ED9FFFEC9E9000D3F0A3EFF0900021
:1052B300DDE0FEA3E0FF9000E2E02FF09000E1E0EC
:1052C3003EF09000DBE0FEA3E0FF9000D5E0FCA3FE
:1052D300E0FDD39FEE6480F8EC6480984020ED9F5E
:1052E300FFEC9E9000D5F0A3EFF09000DFE0FEA36B
:1052F300E0FF9000E4E02FF09000E3E03EF0900048
:0F530300D2E004F070069000D1E004F002522FC7
:015312002278
:105D130090011AEAF0A3EBF0900116EEF0A3EFF076
:105D2300A3ECF0A3EDF0C007A3E0FAA3E0FB90011E
:105D330018E0FFA3E09000CDCFF0A3EFF090011E99
:105D4300E0FFA3E09000CFCFF0A3EFF0D007125114
:105D530025900116E0FAA3E0FBFFAE02C007A3E023
:105D6300FCA3E0FD90011CE0FFA3E09000CDCFF089
:105D7300A3EFF090011EE0FFA3E09000CFCFF0A3CC
:105D8300EFF0D00712512590011CE0FCA3E0FD9039
:105D9300011AE0FAA3E0FBA3E0FFA3E09000CDCF5C
:105DA300F0A3EFF090011EE0FFA3E09000CFCFF04F
:105DB300A3EFF0900116E0FEA3E0FF12512590013E
:105DC3001AE0FAA3E0FBFFAE02C007900118E0FC63
:105DD300A3E0FD90011CE0FFA3E09000CDCFF0A372
:105DE300EFF090011EE0FFA3E09000CFCFF0A3EF10
:065DF300F0D0070251256B
:1054F20090010BEEF0A3EFF0A3ECF0A3EDF0A3EB21
:01550200F0B8
:10550300E4900112F0A3F0EBFFA3E4F0A3EFF0901B
:105513000114E0FEA3E0FFD3900113E09FEE64804B
:10552300F8900112E06480984003025691C3900101
:105533000CE09FFF90010BE09E12616D900114E05F
:10554300FEA3E0FF90010CE02FFF90010BE03E1261
:10555300616D900112E0FEA3E0FFC390010CE09F98
:10556300FF90010BE09EFE900114E0FCA3E0FD9090
:10557300010EE02DFD90010DE03C126182900112BD
:10558300E0FEA3E0FFC390010CE09FFF90010BE05E
:105593009E900114126170900114E0FEA3E0FF904D
:1055A300010CE02FFF90010BE03EFE900112E0FCA6
:1055B300A3E0FD90010EE02DFD90010DE03C126192
:1055C30082900112E0FEA3E0FF90010CE02FFF9018
:1055D300010BE03EFE900114126171900112E0FE96
:1055E300A3E0FF90010CE02FFF90010BE03EFE9043
:1055F3000114E0FCA3E0FD90010EE02DFD90010DF0
:10560300E03C126182900114E0FEA3E0FFC390012D
:105613000CE09FFF90010BE09EFE900112E0FCA3C3
:10562300E0FD90010EE02DFD90010DE03C12618242
:10563300900113E004F07006900112E004F0900171
:1056430014E0FCA3E0FDFFAE04123E6BAA06AB0719
:10565300900112E0FCA3E0FDFFAE04123E6BEF2BC2
:10566300FDEE3AFC90010FE0F5F0A4FFD3ED9FE5CA
:10567300F06480F8EC648098500302551290011591
:0E568300E024FFF0900114E034FFF002551215
:0156910022F6
:1056920090005CEEF0A3EFF0A3ECF0A3EDF0A3EB2F
:1056A200F0A3EAF0A3E9F0900060E0FBA3E0FAA324
:1056B200E0F9123E13700302581C900067E0640C7C
:1056C200704490005EE0FCA3E0FD900063E0FFA365
:1056D200E0900070CFF0A3EFF0900065E0FFA3E050
:1056E200900072CFF0A3EFF0900067E0900074F0AA
:1056F200900068E0900075F090005CE0FEA3E0FF8F
:105702001249DE0257FD900067E06410704B900072
:105712005EE0FCA3E0FDA3E0FBA3E0FAA3E0F9A3B3
:10572200E0FFA3E0900070CFF0A3EFF0900065E0FF
:10573200FFA3E0900072CFF0A3EFF0900067E0903B
:105742000074F0900068E0900075F090005CE0FE5C
:10575200A3E0FF124C580257FD900067E0641870F6
:105762004A90005EE0FCA3E0FDA3E0FBA3E0FAA305
:10577200E0F9A3E0FFA3E0900070CFF0A3EFF09078
:105782000065E0FFA3E0900072CFF0A3EFF090007D
:1057920067E0900074F0900068E0900075F090006F
:1057A2005CE0FEA3E0FF1244E68050900067E064F4
:1057B20020706790005EE0FCA3E0FDA3E0FBA3E0A5
:1057C200FAA3E0F9A3E0FFA3E0900070CFF0A3EF0B
:1057D200F0900065E0FFA3E0900072CFF0A3EFF03D
:1057E200900067E0900074F0900068E0900075F01F
:1057F20090005CE0FEA3E0FF124762900061E47556
:10580200F002123E7D900067E0FF90005DE02FF015
:0B58120090005CE03400F00256A92278
:1049DE0090006BECF0A3EDF0A3EBF0A3EAF0A3E9EB
:0949EE00F0900069EEF0A3EFF077
:1049F700E4900078F090007FEEF0A3EFF090007461
:104A0700E0FF131313541FFD7C00EF54077E006073
:104A1700047F0180027F00EF2DFFEE3CFE900074C3
:104A2700E0FD7C00123E6B90007DEEF0A3EFF0906E
:104A3700007BE4F0A37405F0E4900079F0A3F09014
:104A4700007BE0FEA3E0FF900079E0FCA3E0FDC35C
:104A57009FEC9E4003024C5790006DE0FBA3E0FAE9
:104A6700A3E0F9123E13FF90341A75F01AED1240C5
:104A770011EC75F01AA42583F583E4936F600302A4
:104A87004C46900001123E2CFF900079A3E0903431
:104A97001B75F01A124011EC75F01AA42583F583E3
:104AA700E4936F6003024C4690006BE0FCA3E0FDCB
:104AB700900074E0F9FF7E00900069E0FAA3E02F10
:104AC700FFEE3ACF24FFFBEF34FFFAE9FFA3E0F84C
:104AD700A3E02FFFEE38CF24FFCF34FF90008DF0F7
:104AE700A3EFF090006912632BE4900076F090003A
:104AF70076E0FFD390007EE09F90007DE094005029
:104B070003024C46E4900077F0900075E0707290D5
:104B17000079A3E075F01AA4241CF582E43434F577
:104B270083C083C082900076E0D082D0832582F54F
:104B370082E43583F583E493FD7C00900077E0FF02
:104B470074017E00A807088005C333CE33CED8F999
:104B5700FFEE5CFEEF5D4E600590007080039000F5
:104B67007212630D900078E004F0900074E0FF90FB
:104B77000078E08FF084E5F06003024C2EF0024CE1
:104B87003D900079A3E075F01AA4241CF582E43463
:104B970034F583C083C082900076E0D082D083252D
:104BA70082F582E43583F583E493FD7C00900077FA
:104BB700E0FF74017E00A807088005C333CE33CE1B
:104BC700D8F9FFEE5CFEEF5D4E6014900069E0FEE1
:104BD700A3E0FFA3E0FCA3E0FD90007012618690C4
:104BE700006AE004F07006900069E004F090007F2E
:104BF700E0FEA3E0FFC390006AE09FFD900069E03C
:104C07009EFC900074E07A00B5051CEAB504189084
:104C17000069EEF0A3EFF090006CE004F0701790DD
:104C2700006BE004F0800F900077E004F0E0C3949D
:104C3700085003024B10900076E004F0024AF5900A
:104C4700007AE004F07006900079E004F0024A462A
:014C5700223A
:104C580090006BECF0A3EDF0A3EBF0A3EAF0A3E96E
:094C6800F0900069EEF0A3EFF0FA
:104C7100E4900078F090007FEEF0A3EFF0900074E4
:104C8100E0FF131313541FFD7C00EF54077E0060F7
:104C9100047F0180027F00EF2DFFEE3CFE90007447
:104CA100E0FD7C00123E6B90007DEEF0A3EFF090F2
:104CB100007BE4F0A37405F0E4900079F0A3F09098
:104CC100007BE0FEA3E0FF900079E0FCA3E0FDC3E0
:104CD1009FEC9E4003024ED190006DE0FBA3E0FAF1
:104CE100A3E0F9123E13FF90349C75F022ED1240BF
:104CF10011EC75F022A42583F583E4936F60030220
:104D01004EC0900001123E2CFF900079A3E0903438
:104D11009D75F022124011EC75F022A42583F583D4
:104D2100E4936F6003024EC090006BE0FCA3E0FDD2
:104D3100900074E0F9FF7E00900069E0FAA3E02F93
:104D4100FFEE3ACF24FFFBEF34FFFAE9FFA3E0F8CF
:104D5100A3E02FFFEE38CF24FFCF34FF90008DF07A
:104D6100A3EFF090006912632BE4900076F09000BD
:104D710076E0FFD390007EE09F90007DE0940050AC
:104D810003024EC0E4900077F0900075E0707290DD
:104D91000079A3E075F022A4249EF582E43434F571
:104DA10083C083C082900076E0D082D0832582F5D3
:104DB10082E43583F583E493FD7C00900077E0FF86
:104DC10074017E00A807088005C333CE33CED8F91D
:104DD100FFEE5CFEEF5D4E60059000708003900079
:104DE1007212630D900078E004F0900074E0FF907F
:104DF1000078E08FF084E5F06003024EA8F0024EE7
:104E0100B7900079A3E075F022A4249EF582E434E2
:104E110034F583C083C082900076E0D082D08325B0
:104E210082F582E43583F583E493FD7C009000777D
:104E3100E0FF74017E00A807088005C333CE33CE9E
:104E4100D8F9FFEE5CFEEF5D4E6014900069E0FE64
:104E5100A3E0FFA3E0FCA3E0FD9000701261869047
:104E6100006AE004F07006900069E004F090007FB1
:104E7100E0FEA3E0FFC390006AE09FFD900069E0BF
:104E81009EFC900074E07A00B5051CEAB504189008
:104E91000069EEF0A3EFF090006CE004F070179061
:104EA100006BE004F0800F900077E004F0E0C39421
:104EB100085003024D8A900076E004F0024D6F9095
:104EC100007AE004F07006900079E004F0024CC032
:014ED10022BE
:1044E60090006BECF0A3EDF0A3EBF0A3EAF0A3E9E8
:0944F600F0900069EEF0A3EFF074
:1044FF00E4900078F090007FEEF0A3EFF09000745E
:10450F00E0FF131313541FFD7C00EF54077E006070
:10451F00047F0180027F00EF2DFFEE3CFE900074C0
:10452F00E0FD7C00123E6B90007DEEF0A3EFF0906B
:10453F00007BE4F0A37405F0E4900079F0A3F09011
:10454F00007BE0FEA3E0FF900079E0FCA3E0FDC359
:10455F009FEC9E400302476190006DE0FBA3E0FAE1
:10456F00A3E0F9123E13FF90354675F04AED124065
:10457F0011EC75F04AA42583F583E4936F60030271
:10458F004750900001123E2CFF900079A3E0903528
:10459F004775F04A124011EC75F04AA42583F58354
:1045AF00E4936F600302475090006BE0FCA3E0FDC3
:1045BF00900074E0F9FF7E00900069E0FAA3E02F0D
:1045CF00FFEE3ACF24FFFBEF34FFFAE9FFA3E0F849
:1045DF00A3E02FFFEE38CF24FFCF34FF90008DF0F4
:1045EF00A3EFF090006912632BE4900076F0900037
:1045FF0076E0FFD390007EE09F90007DE094005026
:10460F0003024750E4900077F0900077E0FFC394E7
:10461F00084003024747900075E0706CA3E0FE90DE
:10462F000079E0FCA3E090354875F04A124011EC98
:10463F0075F04AA42583F583E5822EF582E4358350
:10464F00F583E493FD7C0074017E00A807088005C4
:10465F00C333CE33CED8F9FFEE5CFEEF5D4E60056F
:10466F00900070800390007212630D900078E00448
:10467F00F0900074E0FF900078E08FF084E5F06038
:10468F000302473EF0024747900076E0FF90007923
:10469F00E0FCA3E090354875F04A124011EC75F03C
:1046AF004AA42583F583E5822FF582E43583F583CC
:1046BF00E493FD7C00900077E0FF74017E00A80773
:1046CF00088005C333CE33CED8F9FFEE5CFEEF5D25
:1046DF004E6014900069E0FEA3E0FFA3E0FCA3E0AE
:1046EF00FD90007012618690006AE004F0700690F1
:1046FF000069E004F090007FE0FEA3E0FFC39000AC
:10470F006AE09FFD900069E09EFC900074E07A00E3
:10471F00B5051CEAB50418900069EEF0A3EFF09010
:10472F00006CE004F0701190006BE004F0800990D1
:10473F000077E004F0024618900076E004F002459E
:10474F00FD90007AE004F07006900079E004F0022A
:02475F00454EC5
:014761002235
:1047620090006BECF0A3EDF0A3EBF0A3EAF0A3E969
:09477200F0900069EEF0A3EFF0F5
:10477B00E4900078F090007FEEF0A3EFF0900074DF
:10478B00E0FF131313541FFD7C00EF54077E0060F2
:10479B00047F0180027F00EF2DFFEE3CFE90007442
:1047AB00E0FD7C00123E6B90007DEEF0A3EFF090ED
:1047BB00007BE4F0A37405F0E4900079F0A3F09093
:1047CB00007BE0FEA3E0FF900079E0FCA3E0FDC3DB
:1047DB009FEC9E40030249DD90006DE0FBA3E0FAE5
:1047EB00A3E0F9123E13FF9036B875F082ED12403C
:1047FB0011EC75F082A42583F583E4936F600302BB
:10480B0049CC900001123E2CFF900079A3E090362A
:10481B00B975F082124011EC75F082A42583F583F3
:10482B00E4936F60030249CC90006BE0FCA3E0FDC6
:10483B00900074E0F9FF7E00900069E0FAA3E02F8E
:10484B00FFEE3ACF24FFFBEF34FFFAE9FFA3E0F8CA
:10485B00A3E02FFFEE38CF24FFCF34FF90008DF075
:10486B00A3EFF090006912632BE4900076F09000B8
:10487B0076E0FFD390007EE09F90007DE0940050A7
:10488B00030249CCE4900077F0900077E0FFC394EB
:10489B000840030249C3900075E0706CA3E0FE90E2
:1048AB000079E0FCA3E09036BA75F082124011EC6F
:1048BB0075F082A42583F583E5822EF582E435839A
:1048CB00F583E493FD7C0074017E00A80708800546
:1048DB00C333CE33CED8F9FFEE5CFEEF5D4E6005F1
:1048EB00900070800390007212630D900078E004CA
:1048FB00F0900074E0FF900078E08FF084E5F060BA
:10490B00030249BAF00249C3900076E0FF900079A8
:10491B00E0FCA3E09036BA75F082124011EC75F012
:10492B0082A42583F583E5822FF582E43583F58315
:10493B00E493FD7C00900077E0FF74017E00A807F4
:10494B00088005C333CE33CED8F9FFEE5CFEEF5DA6
:10495B004E6014900069E0FEA3E0FFA3E0FCA3E02F
:10496B00FD90007012618690006AE004F070069072
:10497B000069E004F090007FE0FEA3E0FFC390002D
:10498B006AE09FFD900069E09EFC900074E07A0065
:10499B00B5051CEAB50418900069EEF0A3EFF09092
:1049AB00006CE004F0701190006BE004F080099053
:1049BB000077E004F0024894900076E004F002489F
:1049CB007990007AE004F07006900079E004F00230
:0249DB0047CAC9
:0149DD0022B7
:104ED20090006EECF0A3EDF0A3EBF090006CEEF01E
:034EE200A3EFF04B
:104EE500E490007AF090007FEEF0A3EFF09000756B
:104EF500E0F9C313900078F0E0FF131313541FFD7E
:104F05007C00EF54077E0060047F0180027F00EF84
:104F15002DFFEE3CFEE9FD7C00123E6B90007DEE20
:104F2500F0A3EFF0900070E024E0F090006EE0FC5C
:104F3500A3E0FD900078E0FF7E0090006CE0FAA30E
:104F4500E02FFFEE3ACF24FFFBEF34FFFAE9FFA392
:104F5500E0F8A3E02FFFEE38CF24FFCF34FF900019
:104F65008DF0A3EFF090006C12632BE490007BF0C2
:104F7500A3F090007DE0FEA3E0FF90007BE0FCA3A2
:104F8500E0FDC39FEC9E4003025124900075E0F9BB
:104F9500B40C1C900070E075F00CA42426F582E595
:104FA500F03400F583E5822DF582E5833C807AE9CE
:104FB500B4102490007BE0FEA3E0FF900070E07544
:104FC500F010A4249AF582E5F03404F583E5822FE8
:104FD500F582E5833E8052E9B4182490007BE0FE1B
:104FE500A3E0FF900070E075F030A4248AF582E517
:104FF500F0340AF583E5822FF582E5833E802AE9C0
:105005006420600302512490007BE0FEA3E0FF9042
:105015000070E075F040A4245AF582E5F0341CF5E3
:1050250083E5822FF582E5833EF583E4939000774F
:10503500F0E4900079F0900079E0FFC39408400314
:10504500025113900076E07041047E00A8070880A5
:1050550005C333CE33CED8F9FF900077E0FDEF5D81
:105065006005900071800390007312630D90007AC3
:10507500E004F0900078E0FF90007AE08FF084E59E
:10508500F0600302510AF0025113900079E0FF74B9
:10509500017E00A807088005C333CE33CED8F9FFBB
:1050A500900077E0FDEF5D601490006CE0FEA3E0FA
:1050B500FFA3E0FCA3E0FD90007112618690006DF6
:1050C500E004F0700690006CE004F090007FE0FED4
:1050D500A3E0FFC390006DE09FFD90006CE09EFC97
:1050E500900078E07A00B5051CEAB5041890006CCC
:1050F500EEF0A3EFF090006FE004F0701190006EF9
:10510500E004F08009900079E004F002503B900043
:0F5115007CE004F0700690007BE004F0024F771E
:015124002268
:105FB60090005CEEF0A3EFF0A3ECF0A3EDF0A3EB02
:105FC600F0A3EAF0A3E9F0900060E0FBA3E0FAA3F7
:105FD600E0F9123E13FB606190005EE0FCA3E0FD79
:105FE600900063E0FFA3E0900071CFF0A3EFF09084
:105FF6000065E0FFA3E0900073CFF0A3EFF0900000
:1060060067E0900075F0900068E0900076F09000F0
:106016005CE0FEA3E0FF124ED2900067E0C313FFE0
:1060260090005DE02FF090005CE03400F09000619D
:0A603600E475F001123E7D808E2219
:0761CD00C3EF9E14FD7F0AE1
:0861D40090006CEFF0A3EDF068
:1061DC00A3123FE00000000190006DE0FF14F0EF0F
:1061EC006020A3E0F8A3E0F9A3E0FAA3E0FB9000A1
:1061FC006CE0FFE4FCFDFE123EA990006E123FD451
:10620C0080D690006EE0FCA3E0FDA3E0FEA3E0FFCF
:01621C00225F
:105AC70090005CEEF0A3EFF0A3ECF0A3EDF0A3EAF7
:045AD700F0A3EBF05D
:105ADB00E490006AF0900067E0C31390006BF0E471
:105AEB00900068F0900062E0FF900068E0FEC39FBA
:105AFB004003025BF21261CDA804A905AA06AB070D
:105B0B00900060E0FEA3E0FFE4FCFD123F34E47B79
:105B1B000AFAF9F8123F34900069EBF0A3E07065D4
:105B2B00900062E014FF900068E0FEC39F5056A304
:105B3B00E0704C90006BE0FFEE8FF0A4FF90005DE7
:105B4B00E02FFF90005CE035F0FE90005EE0FCA3E0
:105B5B00E0FD900063E0FBA3E0900071CBF0A3EBC2
:105B6B00F0900065E0FBA3E0900073CBF0A3EBF0AB
:105B7B00900067E0900075F0E4A3F07B20805C90D0
:105B8B00006A7401F090006BE0FF900068E08FF00A
:105B9B00A4FF90005DE02FFF90005CE035F0FEC0AD
:105BAB000790005EE0FCA3E0FD900069E02430FB71
:105BBB00900063E0FFA3E0900071CFF0A3EFF090B3
:105BCB000065E0FFA3E0900073CFF0A3EFF090002F
:105BDB0067E0900075F0E4A3F0D007124ED290006E
:075BEB0068E004F0025AEF2C
:015BF2002290
:0E597D009000E5EEF0A3EFF0A3ECF0A3EDF048
:10598B009000F2E0C3139000F5F0E4FFFE7DC87CBD
:10599B00429000E9E0F8A3E0F9A3E0FAA3E0FB12E0
:1059AB003942123A489000F6EEF0A3EFF0E4900083
:1059BB00F3F09000EDE0FF9000F3E0FEC39F400397
:1059CB00025AC61261CDA804A905AA06AB0790001E
:1059DB00F6E0FEA3E0FFE4FCFD123F34E47B0AFAA1
:1059EB00F9F8123F349000F4EBF09000EDE0FF2457
:1059FB00FEFE9000F3E06E7060EF24FEFFE434FFD8
:105A0B00FE9000F5E0FD7C00123E6B9000E6E02F6F
:105A1B00FF9000E5E03EFE9000E7E0FCA3E0FD9088
:105A2B0000EEE0FBA3E0900071CBF0A3EBF0900055
:105A3B00F0E0FBA3E0900073CBF0A3EBF09000F24F
:105A4B00E0900075F0E4A3F07B2E124ED29000F3A1
:105A5B00E004F09000EDE004F09000F5E0FF900022
:105A6B00F3E08FF0A4FF9000E6E02FFF9000E5E05D
:105A7B0035F0FEC0079000E7E0FCA3E0FD9000F4DA
:105A8B00E02430FB9000EEE0FFA3E0900071CFF03C
:105A9B00A3EFF09000F0E0FFA3E0900073CFF0A332
:105AAB00EFF09000F2E0900075F0E4A3F0D0071255
:0B5ABB004ED29000F3E004F00259BD51
:015AC60022BD
:105BF3009000F8EEF0A3EFF0A3ECF0A3EDF0A3EA2E
:045C0300F0A3EBF02F
:105C0700900107123FE0000000009000FAE0FCA3BB
:105C1700E0FDA3E0FEA3E0FF9000F8E0FAA3E02F89
:105C2700FFEA3ECF24FFFBEF34FFFA9000FEE0FED1
:105C3700A3E0FF9000FAE0F8A3E02FFFE83ECF24AF
:105C4700FFCF34FF90008DF0A3EFF09000F81263C0
:105C57002BE4900103F0A3F09000FCE0FEA3E0FF2B
:105C6700C3900104E09F900103E09E4003025D1290
:105C7700E4900105F0A3F09000FEE0FEA3E0FFC36F
:105C8700900106E09F900105E09E506BE47F02FEC5
:105C9700FDFC900107E0F8A3E0F9A3E0FAA3E0FB1D
:105CA700123EA912635FE47F02FEFDFC900107E04C
:105CB700F8A3E0F9A3E0FAA3E0FB123EA9EF240161
:105CC700FFE43EFE12635F900107E0FCA3E0FDA343
:105CD700E0FEA3E02401FFE43EFEE43DFDE43CFCDE
:105CE700900107123FD4900106E004F0700690017E
:105CF70005E004F0025C7E900104E004F06003021A
:0B5D07005C5F900103E004F0025C5FB1
:015D1200226E
:10394200EC4D6011E8497017ED33EC3304600DE47F
:10395200FCFFFEFD22E933E8330470F8023AB412A8
:103962003A7F58046009E4CC2481500628500902A9
:103972003ABE284003023ABBC0E0EB4A7044B98029
:1039820006D0E0FB023AAAEF4E701CBD8008EBFFA6
:10399200EAFEE9FD80EBE98DF0A4FEE5F0023A2BA8
:1039A200E9CDF9EAFEEBFFEF89F0A4FCE5F0CE8960
:1039B200F0A42EFFE435F0CD89F0A42DFEE435F01D
:1039C2008067EF4E7005BD80D780C3EF8BF0A4AC4B
:1039D200F0EE8BF0A42CFCE435F0F8EF8AF0A42C86
:1039E200E5F038FCE433CB8DF0A42CFCE5F03BF899
:1039F200EE8AF0A42CFCE5F038F8E433CF89F0A489
:103A02002CFCE5F038CF3400CE89F0A42FFFE5F08E
:103A12003EFEE433C98DF0A42EFEE5F039CD8AF0E6
:103A2200A42FFFE5F03EFEE43DFD33D0E0FB50075E
:103A32000BBB000F023ABEEC2CFCEF33FFEE33FE61
:063A4200ED33FD023A968F
:103A4800EDD2E7CD33EC3392D524814006E4FFFE76
:103A5800FDFC22FCE4CFCECDCC24E0501174FF80D5
:103A6800EDC3CC13CCCD13CDCE13CECF13CF047072
:073A7800F030D5DE023FC66D
:10406300E508249AF582E43400F583E005082290FC
:10407300009730070390009AE475F00112401D0287
:104083003E132000E97F2ED2008018EF540F2490B6
:10409300D43440D4FF30040BEF24BFB41A005003D0
:1040A3002461FFE50960021509050CE50C700205A2
:1040B3000B30070E900097E475F00112401DEF02DC
:1040C3003E590263B97403D2078003E4C207F508BB
:1040D300900097124034E4F509F50BF50CE50960FF
:1040E300077F201240A680F5750AFFC201C200C2F5
:1040F30002C203C205C206C208124072FF700D302D
:1041030007057F001240B7AF0CAE0B22B4255FC288
:10411300D5C204124072FF24D0B40A00501A75F0BD
:104123000A780930D50508B6FF0106C6A426F6208D
:10413300D5047002D20380D924CFB41A00EF5004FF
:10414300C2E5D2040243A9D20180C6D20080C0D204
